{
  "abi": [
    {
      "inputs": [
        {
          "internalType": "address",
          "name": "_manager",
          "type": "address"
        },
        {
          "internalType": "string",
          "name": "_title",
          "type": "string"
        },
        {
          "internalType": "string",
          "name": "_description",
          "type": "string"
        },
        {
          "internalType": "string[]",
          "name": "_options",
          "type": "string[]"
        },
        {
          "internalType": "contract PollFactory",
          "name": "_pollFactory",
          "type": "address"
        }
      ],
      "stateMutability": "nonpayable",
      "type": "constructor"
    },
    {
      "anonymous": false,
      "inputs": [
        {
          "indexed": false,
          "internalType": "uint256",
          "name": "winner",
          "type": "uint256"
        }
      ],
      "name": "GetWinnerEvent",
      "type": "event"
    },
    {
      "anonymous": false,
      "inputs": [
        {
          "indexed": false,
          "internalType": "bool",
          "name": "newState",
          "type": "bool"
        }
      ],
      "name": "PauseEvent",
      "type": "event"
    },
    {
      "anonymous": false,
      "inputs": [
        {
          "indexed": false,
          "internalType": "uint256",
          "name": "option",
          "type": "uint256"
        },
        {
          "indexed": false,
          "internalType": "uint256",
          "name": "newValue",
          "type": "uint256"
        }
      ],
      "name": "VoteEvent",
      "type": "event"
    },
    {
      "inputs": [],
      "name": "closed",
      "outputs": [
        {
          "internalType": "bool",
          "name": "",
          "type": "bool"
        }
      ],
      "stateMutability": "view",
      "type": "function"
    },
    {
      "inputs": [],
      "name": "description",
      "outputs": [
        {
          "internalType": "string",
          "name": "",
          "type": "string"
        }
      ],
      "stateMutability": "view",
      "type": "function"
    },
    {
      "inputs": [],
      "name": "getOptions",
      "outputs": [
        {
          "internalType": "string[]",
          "name": "",
          "type": "string[]"
        }
      ],
      "stateMutability": "view",
      "type": "function"
    },
    {
      "inputs": [],
      "name": "getSummary",
      "outputs": [
        {
          "internalType": "bool",
          "name": "",
          "type": "bool"
        },
        {
          "internalType": "bool",
          "name": "",
          "type": "bool"
        },
        {
          "internalType": "uint256",
          "name": "",
          "type": "uint256"
        },
        {
          "internalType": "string",
          "name": "",
          "type": "string"
        },
        {
          "internalType": "string",
          "name": "",
          "type": "string"
        },
        {
          "internalType": "string[]",
          "name": "",
          "type": "string[]"
        },
        {
          "internalType": "uint256[]",
          "name": "",
          "type": "uint256[]"
        }
      ],
      "stateMutability": "view",
      "type": "function"
    },
    {
      "inputs": [],
      "name": "getVotes",
      "outputs": [
        {
          "internalType": "uint256[]",
          "name": "",
          "type": "uint256[]"
        }
      ],
      "stateMutability": "view",
      "type": "function"
    },
    {
      "inputs": [],
      "name": "getWinner",
      "outputs": [],
      "stateMutability": "nonpayable",
      "type": "function"
    },
    {
      "inputs": [],
      "name": "manager",
      "outputs": [
        {
          "internalType": "address",
          "name": "",
          "type": "address"
        }
      ],
      "stateMutability": "view",
      "type": "function"
    },
    {
      "inputs": [
        {
          "internalType": "uint256",
          "name": "",
          "type": "uint256"
        }
      ],
      "name": "options",
      "outputs": [
        {
          "internalType": "string",
          "name": "",
          "type": "string"
        }
      ],
      "stateMutability": "view",
      "type": "function"
    },
    {
      "inputs": [
        {
          "internalType": "bool",
          "name": "state",
          "type": "bool"
        }
      ],
      "name": "pause",
      "outputs": [],
      "stateMutability": "nonpayable",
      "type": "function"
    },
    {
      "inputs": [],
      "name": "paused",
      "outputs": [
        {
          "internalType": "bool",
          "name": "",
          "type": "bool"
        }
      ],
      "stateMutability": "view",
      "type": "function"
    },
    {
      "inputs": [],
      "name": "title",
      "outputs": [
        {
          "internalType": "string",
          "name": "",
          "type": "string"
        }
      ],
      "stateMutability": "view",
      "type": "function"
    },
    {
      "inputs": [
        {
          "internalType": "uint256",
          "name": "option",
          "type": "uint256"
        }
      ],
      "name": "vote",
      "outputs": [],
      "stateMutability": "nonpayable",
      "type": "function"
    },
    {
      "inputs": [
        {
          "internalType": "address",
          "name": "",
          "type": "address"
        }
      ],
      "name": "voted",
      "outputs": [
        {
          "internalType": "bool",
          "name": "",
          "type": "bool"
        }
      ],
      "stateMutability": "view",
      "type": "function"
    },
    {
      "inputs": [
        {
          "internalType": "uint256",
          "name": "",
          "type": "uint256"
        }
      ],
      "name": "votes",
      "outputs": [
        {
          "internalType": "uint256",
          "name": "",
          "type": "uint256"
        }
      ],
      "stateMutability": "view",
      "type": "function"
    },
    {
      "inputs": [],
      "name": "winner",
      "outputs": [
        {
          "internalType": "uint256",
          "name": "",
          "type": "uint256"
        }
      ],
      "stateMutability": "view",
      "type": "function"
    }
  ],
  "devdoc": {
    "kind": "dev",
    "methods": {},
    "version": 1
  },
  "evm": {
    "assembly": "    /* \"Poll.sol\":670:3121  contract Poll {... */\n  mstore(0x40, 0x80)\n    /* \"Poll.sol\":998:1340  constructor(address _manager, string memory _title, string memory _description, string[] memory _options, PollFactory _pollFactory) {... */\n  callvalue\n  dup1\n  iszero\n  tag_1\n  jumpi\n  0x00\n  dup1\n  revert\ntag_1:\n  pop\n  mload(0x40)\n  sub(codesize, bytecodeSize)\n  dup1\n  bytecodeSize\n  dup4\n  codecopy\n  dup2\n  dup2\n  add\n  0x40\n  mstore\n  dup2\n  add\n  swap1\n  tag_2\n  swap2\n  swap1\n  tag_3\n  jump\t// in\ntag_2:\n    /* \"Poll.sol\":1151:1159  _manager */\n  dup5\n    /* \"Poll.sol\":1141:1148  manager */\n  0x07\n  0x02\n    /* \"Poll.sol\":1141:1159  manager = _manager */\n  0x0100\n  exp\n  dup2\n  sload\n  dup2\n  0xffffffffffffffffffffffffffffffffffffffff\n  mul\n  not\n  and\n  swap1\n  dup4\n  0xffffffffffffffffffffffffffffffffffffffff\n  and\n  mul\n  or\n  swap1\n  sstore\n  pop\n    /* \"Poll.sol\":1178:1184  _title */\n  dup4\n    /* \"Poll.sol\":1170:1175  title */\n  0x03\n    /* \"Poll.sol\":1170:1184  title = _title */\n  swap1\n  dup1\n  mload\n  swap1\n  0x20\n  add\n  swap1\n  tag_6\n  swap3\n  swap2\n  swap1\n  tag_7\n  jump\t// in\ntag_6:\n  pop\n    /* \"Poll.sol\":1209:1221  _description */\n  dup3\n    /* \"Poll.sol\":1195:1206  description */\n  0x04\n    /* \"Poll.sol\":1195:1221  description = _description */\n  swap1\n  dup1\n  mload\n  swap1\n  0x20\n  add\n  swap1\n  tag_8\n  swap3\n  swap2\n  swap1\n  tag_7\n  jump\t// in\ntag_8:\n  pop\n    /* \"Poll.sol\":1242:1250  _options */\n  dup2\n    /* \"Poll.sol\":1232:1239  options */\n  0x02\n    /* \"Poll.sol\":1232:1250  options = _options */\n  swap1\n  dup1\n  mload\n  swap1\n  0x20\n  add\n  swap1\n  tag_9\n  swap3\n  swap2\n  swap1\n  tag_10\n  jump\t// in\ntag_9:\n  pop\n    /* \"Poll.sol\":1280:1287  options */\n  0x02\n    /* \"Poll.sol\":1280:1294  options.length */\n  dup1\n  sload\n  swap1\n  pop\n    /* \"Poll.sol\":1269:1295  new uint[](options.length) */\n  0xffffffffffffffff\n  dup2\n  gt\n  iszero\n  tag_11\n  jumpi\n  tag_12\n  tag_13\n  jump\t// in\ntag_12:\ntag_11:\n  mload(0x40)\n  swap1\n  dup1\n  dup3\n  mstore\n  dup1\n  0x20\n  mul\n  0x20\n  add\n  dup3\n  add\n  0x40\n  mstore\n  dup1\n  iszero\n  tag_14\n  jumpi\n  dup2\n  0x20\n  add\n  0x20\n  dup3\n  mul\n  dup1\n  calldatasize\n  dup4\n  calldatacopy\n  dup1\n  dup3\n  add\n  swap2\n  pop\n  pop\n  swap1\n  pop\ntag_14:\n  pop\n    /* \"Poll.sol\":1261:1266  votes */\n  0x05\n    /* \"Poll.sol\":1261:1295  votes = new uint[](options.length) */\n  swap1\n  dup1\n  mload\n  swap1\n  0x20\n  add\n  swap1\n  tag_15\n  swap3\n  swap2\n  swap1\n  tag_16\n  jump\t// in\ntag_15:\n  pop\n    /* \"Poll.sol\":1320:1332  _pollFactory */\n  dup1\n    /* \"Poll.sol\":1306:1317  pollFactory */\n  0x00\n  dup1\n    /* \"Poll.sol\":1306:1332  pollFactory = _pollFactory */\n  0x0100\n  exp\n  dup2\n  sload\n  dup2\n  0xffffffffffffffffffffffffffffffffffffffff\n  mul\n  not\n  and\n  swap1\n  dup4\n  0xffffffffffffffffffffffffffffffffffffffff\n  and\n  mul\n  or\n  swap1\n  sstore\n  pop\n    /* \"Poll.sol\":998:1340  constructor(address _manager, string memory _title, string memory _description, string[] memory _options, PollFactory _pollFactory) {... */\n  pop\n  pop\n  pop\n  pop\n  pop\n    /* \"Poll.sol\":670:3121  contract Poll {... */\n  jump(tag_17)\ntag_7:\n  dup3\n  dup1\n  sload\n  tag_18\n  swap1\n  tag_19\n  jump\t// in\ntag_18:\n  swap1\n  0x00\n  mstore\n  keccak256(0x00, 0x20)\n  swap1\n  0x1f\n  add\n  0x20\n  swap1\n  div\n  dup2\n  add\n  swap3\n  dup3\n  tag_21\n  jumpi\n  0x00\n  dup6\n  sstore\n  jump(tag_20)\ntag_21:\n  dup3\n  0x1f\n  lt\n  tag_22\n  jumpi\n  dup1\n  mload\n  not(0xff)\n  and\n  dup4\n  dup1\n  add\n  or\n  dup6\n  sstore\n  jump(tag_20)\ntag_22:\n  dup3\n  dup1\n  add\n  0x01\n  add\n  dup6\n  sstore\n  dup3\n  iszero\n  tag_20\n  jumpi\n  swap2\n  dup3\n  add\ntag_23:\n  dup3\n  dup2\n  gt\n  iszero\n  tag_24\n  jumpi\n  dup3\n  mload\n  dup3\n  sstore\n  swap2\n  0x20\n  add\n  swap2\n  swap1\n  0x01\n  add\n  swap1\n  jump(tag_23)\ntag_24:\ntag_20:\n  pop\n  swap1\n  pop\n  tag_25\n  swap2\n  swap1\n  tag_26\n  jump\t// in\ntag_25:\n  pop\n  swap1\n  jump\t// out\ntag_10:\n  dup3\n  dup1\n  sload\n  dup3\n  dup3\n  sstore\n  swap1\n  0x00\n  mstore\n  keccak256(0x00, 0x20)\n  swap1\n  dup2\n  add\n  swap3\n  dup3\n  iszero\n  tag_27\n  jumpi\n  swap2\n  0x20\n  mul\n  dup3\n  add\ntag_28:\n  dup3\n  dup2\n  gt\n  iszero\n  tag_29\n  jumpi\n  dup3\n  mload\n  dup3\n  swap1\n  dup1\n  mload\n  swap1\n  0x20\n  add\n  swap1\n  tag_30\n  swap3\n  swap2\n  swap1\n  tag_7\n  jump\t// in\ntag_30:\n  pop\n  swap2\n  0x20\n  add\n  swap2\n  swap1\n  0x01\n  add\n  swap1\n  jump(tag_28)\ntag_29:\ntag_27:\n  pop\n  swap1\n  pop\n  tag_31\n  swap2\n  swap1\n  tag_32\n  jump\t// in\ntag_31:\n  pop\n  swap1\n  jump\t// out\ntag_16:\n  dup3\n  dup1\n  sload\n  dup3\n  dup3\n  sstore\n  swap1\n  0x00\n  mstore\n  keccak256(0x00, 0x20)\n  swap1\n  dup2\n  add\n  swap3\n  dup3\n  iszero\n  tag_33\n  jumpi\n  swap2\n  0x20\n  mul\n  dup3\n  add\ntag_34:\n  dup3\n  dup2\n  gt\n  iszero\n  tag_35\n  jumpi\n  dup3\n  mload\n  dup3\n  sstore\n  swap2\n  0x20\n  add\n  swap2\n  swap1\n  0x01\n  add\n  swap1\n  jump(tag_34)\ntag_35:\ntag_33:\n  pop\n  swap1\n  pop\n  tag_36\n  swap2\n  swap1\n  tag_26\n  jump\t// in\ntag_36:\n  pop\n  swap1\n  jump\t// out\ntag_26:\ntag_37:\n  dup1\n  dup3\n  gt\n  iszero\n  tag_38\n  jumpi\n  0x00\n  dup2\n  0x00\n  swap1\n  sstore\n  pop\n  0x01\n  add\n  jump(tag_37)\ntag_38:\n  pop\n  swap1\n  jump\t// out\ntag_32:\ntag_39:\n  dup1\n  dup3\n  gt\n  iszero\n  tag_40\n  jumpi\n  0x00\n  dup2\n  dup2\n  tag_41\n  swap2\n  swap1\n  tag_42\n  jump\t// in\ntag_41:\n  pop\n  0x01\n  add\n  jump(tag_39)\ntag_40:\n  pop\n  swap1\n  jump\t// out\ntag_42:\n  pop\n  dup1\n  sload\n  tag_43\n  swap1\n  tag_19\n  jump\t// in\ntag_43:\n  0x00\n  dup3\n  sstore\n  dup1\n  0x1f\n  lt\n  tag_45\n  jumpi\n  pop\n  jump(tag_44)\ntag_45:\n  0x1f\n  add\n  0x20\n  swap1\n  div\n  swap1\n  0x00\n  mstore\n  keccak256(0x00, 0x20)\n  swap1\n  dup2\n  add\n  swap1\n  tag_46\n  swap2\n  swap1\n  tag_26\n  jump\t// in\ntag_46:\ntag_44:\n  pop\n  jump\t// out\n    /* \"#utility.yul\":7:82   */\ntag_47:\n    /* \"#utility.yul\":40:46   */\n  0x00\n    /* \"#utility.yul\":73:75   */\n  0x40\n    /* \"#utility.yul\":67:76   */\n  mload\n    /* \"#utility.yul\":57:76   */\n  swap1\n  pop\n    /* \"#utility.yul\":7:82   */\n  swap1\n  jump\t// out\n    /* \"#utility.yul\":88:205   */\ntag_48:\n    /* \"#utility.yul\":197:198   */\n  0x00\n    /* \"#utility.yul\":194:195   */\n  dup1\n    /* \"#utility.yul\":187:199   */\n  revert\n    /* \"#utility.yul\":211:328   */\ntag_49:\n    /* \"#utility.yul\":320:321   */\n  0x00\n    /* \"#utility.yul\":317:318   */\n  dup1\n    /* \"#utility.yul\":310:322   */\n  revert\n    /* \"#utility.yul\":334:460   */\ntag_50:\n    /* \"#utility.yul\":371:378   */\n  0x00\n    /* \"#utility.yul\":411:453   */\n  0xffffffffffffffffffffffffffffffffffffffff\n    /* \"#utility.yul\":404:409   */\n  dup3\n    /* \"#utility.yul\":400:454   */\n  and\n    /* \"#utility.yul\":389:454   */\n  swap1\n  pop\n    /* \"#utility.yul\":334:460   */\n  swap2\n  swap1\n  pop\n  jump\t// out\n    /* \"#utility.yul\":466:562   */\ntag_51:\n    /* \"#utility.yul\":503:510   */\n  0x00\n    /* \"#utility.yul\":532:556   */\n  tag_77\n    /* \"#utility.yul\":550:555   */\n  dup3\n    /* \"#utility.yul\":532:556   */\n  tag_50\n  jump\t// in\ntag_77:\n    /* \"#utility.yul\":521:556   */\n  swap1\n  pop\n    /* \"#utility.yul\":466:562   */\n  swap2\n  swap1\n  pop\n  jump\t// out\n    /* \"#utility.yul\":568:690   */\ntag_52:\n    /* \"#utility.yul\":641:665   */\n  tag_79\n    /* \"#utility.yul\":659:664   */\n  dup2\n    /* \"#utility.yul\":641:665   */\n  tag_51\n  jump\t// in\ntag_79:\n    /* \"#utility.yul\":634:639   */\n  dup2\n    /* \"#utility.yul\":631:666   */\n  eq\n    /* \"#utility.yul\":621:684   */\n  tag_80\n  jumpi\n    /* \"#utility.yul\":680:681   */\n  0x00\n    /* \"#utility.yul\":677:678   */\n  dup1\n    /* \"#utility.yul\":670:682   */\n  revert\n    /* \"#utility.yul\":621:684   */\ntag_80:\n    /* \"#utility.yul\":568:690   */\n  pop\n  jump\t// out\n    /* \"#utility.yul\":696:839   */\ntag_53:\n    /* \"#utility.yul\":753:758   */\n  0x00\n    /* \"#utility.yul\":784:790   */\n  dup2\n    /* \"#utility.yul\":778:791   */\n  mload\n    /* \"#utility.yul\":769:791   */\n  swap1\n  pop\n    /* \"#utility.yul\":800:833   */\n  tag_82\n    /* \"#utility.yul\":827:832   */\n  dup2\n    /* \"#utility.yul\":800:833   */\n  tag_52\n  jump\t// in\ntag_82:\n    /* \"#utility.yul\":696:839   */\n  swap3\n  swap2\n  pop\n  pop\n  jump\t// out\n    /* \"#utility.yul\":845:962   */\ntag_54:\n    /* \"#utility.yul\":954:955   */\n  0x00\n    /* \"#utility.yul\":951:952   */\n  dup1\n    /* \"#utility.yul\":944:956   */\n  revert\n    /* \"#utility.yul\":968:1085   */\ntag_55:\n    /* \"#utility.yul\":1077:1078   */\n  0x00\n    /* \"#utility.yul\":1074:1075   */\n  dup1\n    /* \"#utility.yul\":1067:1079   */\n  revert\n    /* \"#utility.yul\":1091:1193   */\ntag_56:\n    /* \"#utility.yul\":1132:1138   */\n  0x00\n    /* \"#utility.yul\":1183:1185   */\n  0x1f\n    /* \"#utility.yul\":1179:1186   */\n  not\n    /* \"#utility.yul\":1174:1176   */\n  0x1f\n    /* \"#utility.yul\":1167:1172   */\n  dup4\n    /* \"#utility.yul\":1163:1177   */\n  add\n    /* \"#utility.yul\":1159:1187   */\n  and\n    /* \"#utility.yul\":1149:1187   */\n  swap1\n  pop\n    /* \"#utility.yul\":1091:1193   */\n  swap2\n  swap1\n  pop\n  jump\t// out\n    /* \"#utility.yul\":1199:1379   */\ntag_13:\n    /* \"#utility.yul\":1247:1324   */\n  0x4e487b7100000000000000000000000000000000000000000000000000000000\n    /* \"#utility.yul\":1244:1245   */\n  0x00\n    /* \"#utility.yul\":1237:1325   */\n  mstore\n    /* \"#utility.yul\":1344:1348   */\n  0x41\n    /* \"#utility.yul\":1341:1342   */\n  0x04\n    /* \"#utility.yul\":1334:1349   */\n  mstore\n    /* \"#utility.yul\":1368:1372   */\n  0x24\n    /* \"#utility.yul\":1365:1366   */\n  0x00\n    /* \"#utility.yul\":1358:1373   */\n  revert\n    /* \"#utility.yul\":1385:1666   */\ntag_57:\n    /* \"#utility.yul\":1468:1495   */\n  tag_88\n    /* \"#utility.yul\":1490:1494   */\n  dup3\n    /* \"#utility.yul\":1468:1495   */\n  tag_56\n  jump\t// in\ntag_88:\n    /* \"#utility.yul\":1460:1466   */\n  dup2\n    /* \"#utility.yul\":1456:1496   */\n  add\n    /* \"#utility.yul\":1598:1604   */\n  dup2\n    /* \"#utility.yul\":1586:1596   */\n  dup2\n    /* \"#utility.yul\":1583:1605   */\n  lt\n    /* \"#utility.yul\":1562:1580   */\n  0xffffffffffffffff\n    /* \"#utility.yul\":1550:1560   */\n  dup3\n    /* \"#utility.yul\":1547:1581   */\n  gt\n    /* \"#utility.yul\":1544:1606   */\n  or\n    /* \"#utility.yul\":1541:1629   */\n  iszero\n  tag_89\n  jumpi\n    /* \"#utility.yul\":1609:1627   */\n  tag_90\n  tag_13\n  jump\t// in\ntag_90:\n    /* \"#utility.yul\":1541:1629   */\ntag_89:\n    /* \"#utility.yul\":1649:1659   */\n  dup1\n    /* \"#utility.yul\":1645:1647   */\n  0x40\n    /* \"#utility.yul\":1638:1660   */\n  mstore\n    /* \"#utility.yul\":1428:1666   */\n  pop\n    /* \"#utility.yul\":1385:1666   */\n  pop\n  pop\n  jump\t// out\n    /* \"#utility.yul\":1672:1801   */\ntag_58:\n    /* \"#utility.yul\":1706:1712   */\n  0x00\n    /* \"#utility.yul\":1733:1753   */\n  tag_92\n  tag_47\n  jump\t// in\ntag_92:\n    /* \"#utility.yul\":1723:1753   */\n  swap1\n  pop\n    /* \"#utility.yul\":1762:1795   */\n  tag_93\n    /* \"#utility.yul\":1790:1794   */\n  dup3\n    /* \"#utility.yul\":1782:1788   */\n  dup3\n    /* \"#utility.yul\":1762:1795   */\n  tag_57\n  jump\t// in\ntag_93:\n    /* \"#utility.yul\":1672:1801   */\n  swap2\n  swap1\n  pop\n  jump\t// out\n    /* \"#utility.yul\":1807:2115   */\ntag_59:\n    /* \"#utility.yul\":1869:1873   */\n  0x00\n    /* \"#utility.yul\":1959:1977   */\n  0xffffffffffffffff\n    /* \"#utility.yul\":1951:1957   */\n  dup3\n    /* \"#utility.yul\":1948:1978   */\n  gt\n    /* \"#utility.yul\":1945:2001   */\n  iszero\n  tag_95\n  jumpi\n    /* \"#utility.yul\":1981:1999   */\n  tag_96\n  tag_13\n  jump\t// in\ntag_96:\n    /* \"#utility.yul\":1945:2001   */\ntag_95:\n    /* \"#utility.yul\":2019:2048   */\n  tag_97\n    /* \"#utility.yul\":2041:2047   */\n  dup3\n    /* \"#utility.yul\":2019:2048   */\n  tag_56\n  jump\t// in\ntag_97:\n    /* \"#utility.yul\":2011:2048   */\n  swap1\n  pop\n    /* \"#utility.yul\":2103:2107   */\n  0x20\n    /* \"#utility.yul\":2097:2101   */\n  dup2\n    /* \"#utility.yul\":2093:2108   */\n  add\n    /* \"#utility.yul\":2085:2108   */\n  swap1\n  pop\n    /* \"#utility.yul\":1807:2115   */\n  swap2\n  swap1\n  pop\n  jump\t// out\n    /* \"#utility.yul\":2121:2428   */\ntag_60:\n    /* \"#utility.yul\":2189:2190   */\n  0x00\n    /* \"#utility.yul\":2199:2312   */\ntag_99:\n    /* \"#utility.yul\":2213:2219   */\n  dup4\n    /* \"#utility.yul\":2210:2211   */\n  dup2\n    /* \"#utility.yul\":2207:2220   */\n  lt\n    /* \"#utility.yul\":2199:2312   */\n  iszero\n  tag_101\n  jumpi\n    /* \"#utility.yul\":2298:2299   */\n  dup1\n    /* \"#utility.yul\":2293:2296   */\n  dup3\n    /* \"#utility.yul\":2289:2300   */\n  add\n    /* \"#utility.yul\":2283:2301   */\n  mload\n    /* \"#utility.yul\":2279:2280   */\n  dup2\n    /* \"#utility.yul\":2274:2277   */\n  dup5\n    /* \"#utility.yul\":2270:2281   */\n  add\n    /* \"#utility.yul\":2263:2302   */\n  mstore\n    /* \"#utility.yul\":2235:2237   */\n  0x20\n    /* \"#utility.yul\":2232:2233   */\n  dup2\n    /* \"#utility.yul\":2228:2238   */\n  add\n    /* \"#utility.yul\":2223:2238   */\n  swap1\n  pop\n    /* \"#utility.yul\":2199:2312   */\n  jump(tag_99)\ntag_101:\n    /* \"#utility.yul\":2330:2336   */\n  dup4\n    /* \"#utility.yul\":2327:2328   */\n  dup2\n    /* \"#utility.yul\":2324:2337   */\n  gt\n    /* \"#utility.yul\":2321:2422   */\n  iszero\n  tag_102\n  jumpi\n    /* \"#utility.yul\":2410:2411   */\n  0x00\n    /* \"#utility.yul\":2401:2407   */\n  dup5\n    /* \"#utility.yul\":2396:2399   */\n  dup5\n    /* \"#utility.yul\":2392:2408   */\n  add\n    /* \"#utility.yul\":2385:2412   */\n  mstore\n    /* \"#utility.yul\":2321:2422   */\ntag_102:\n    /* \"#utility.yul\":2170:2428   */\n  pop\n    /* \"#utility.yul\":2121:2428   */\n  pop\n  pop\n  pop\n  jump\t// out\n    /* \"#utility.yul\":2434:2855   */\ntag_61:\n    /* \"#utility.yul\":2523:2528   */\n  0x00\n    /* \"#utility.yul\":2548:2614   */\n  tag_104\n    /* \"#utility.yul\":2564:2613   */\n  tag_105\n    /* \"#utility.yul\":2606:2612   */\n  dup5\n    /* \"#utility.yul\":2564:2613   */\n  tag_59\n  jump\t// in\ntag_105:\n    /* \"#utility.yul\":2548:2614   */\n  tag_58\n  jump\t// in\ntag_104:\n    /* \"#utility.yul\":2539:2614   */\n  swap1\n  pop\n    /* \"#utility.yul\":2637:2643   */\n  dup3\n    /* \"#utility.yul\":2630:2635   */\n  dup2\n    /* \"#utility.yul\":2623:2644   */\n  mstore\n    /* \"#utility.yul\":2675:2679   */\n  0x20\n    /* \"#utility.yul\":2668:2673   */\n  dup2\n    /* \"#utility.yul\":2664:2680   */\n  add\n    /* \"#utility.yul\":2713:2716   */\n  dup5\n    /* \"#utility.yul\":2704:2710   */\n  dup5\n    /* \"#utility.yul\":2699:2702   */\n  dup5\n    /* \"#utility.yul\":2695:2711   */\n  add\n    /* \"#utility.yul\":2692:2717   */\n  gt\n    /* \"#utility.yul\":2689:2801   */\n  iszero\n  tag_106\n  jumpi\n    /* \"#utility.yul\":2720:2799   */\n  tag_107\n  tag_55\n  jump\t// in\ntag_107:\n    /* \"#utility.yul\":2689:2801   */\ntag_106:\n    /* \"#utility.yul\":2810:2849   */\n  tag_108\n    /* \"#utility.yul\":2842:2848   */\n  dup5\n    /* \"#utility.yul\":2837:2840   */\n  dup3\n    /* \"#utility.yul\":2832:2835   */\n  dup6\n    /* \"#utility.yul\":2810:2849   */\n  tag_60\n  jump\t// in\ntag_108:\n    /* \"#utility.yul\":2529:2855   */\n  pop\n    /* \"#utility.yul\":2434:2855   */\n  swap4\n  swap3\n  pop\n  pop\n  pop\n  jump\t// out\n    /* \"#utility.yul\":2875:3230   */\ntag_62:\n    /* \"#utility.yul\":2942:2947   */\n  0x00\n    /* \"#utility.yul\":2991:2994   */\n  dup3\n    /* \"#utility.yul\":2984:2988   */\n  0x1f\n    /* \"#utility.yul\":2976:2982   */\n  dup4\n    /* \"#utility.yul\":2972:2989   */\n  add\n    /* \"#utility.yul\":2968:2995   */\n  slt\n    /* \"#utility.yul\":2958:3080   */\n  tag_110\n  jumpi\n    /* \"#utility.yul\":2999:3078   */\n  tag_111\n  tag_54\n  jump\t// in\ntag_111:\n    /* \"#utility.yul\":2958:3080   */\ntag_110:\n    /* \"#utility.yul\":3109:3115   */\n  dup2\n    /* \"#utility.yul\":3103:3116   */\n  mload\n    /* \"#utility.yul\":3134:3224   */\n  tag_112\n    /* \"#utility.yul\":3220:3223   */\n  dup5\n    /* \"#utility.yul\":3212:3218   */\n  dup3\n    /* \"#utility.yul\":3205:3209   */\n  0x20\n    /* \"#utility.yul\":3197:3203   */\n  dup7\n    /* \"#utility.yul\":3193:3210   */\n  add\n    /* \"#utility.yul\":3134:3224   */\n  tag_61\n  jump\t// in\ntag_112:\n    /* \"#utility.yul\":3125:3224   */\n  swap2\n  pop\n    /* \"#utility.yul\":2948:3230   */\n  pop\n    /* \"#utility.yul\":2875:3230   */\n  swap3\n  swap2\n  pop\n  pop\n  jump\t// out\n    /* \"#utility.yul\":3236:3557   */\ntag_63:\n    /* \"#utility.yul\":3323:3327   */\n  0x00\n    /* \"#utility.yul\":3413:3431   */\n  0xffffffffffffffff\n    /* \"#utility.yul\":3405:3411   */\n  dup3\n    /* \"#utility.yul\":3402:3432   */\n  gt\n    /* \"#utility.yul\":3399:3455   */\n  iszero\n  tag_114\n  jumpi\n    /* \"#utility.yul\":3435:3453   */\n  tag_115\n  tag_13\n  jump\t// in\ntag_115:\n    /* \"#utility.yul\":3399:3455   */\ntag_114:\n    /* \"#utility.yul\":3485:3489   */\n  0x20\n    /* \"#utility.yul\":3477:3483   */\n  dup3\n    /* \"#utility.yul\":3473:3490   */\n  mul\n    /* \"#utility.yul\":3465:3490   */\n  swap1\n  pop\n    /* \"#utility.yul\":3545:3549   */\n  0x20\n    /* \"#utility.yul\":3539:3543   */\n  dup2\n    /* \"#utility.yul\":3535:3550   */\n  add\n    /* \"#utility.yul\":3527:3550   */\n  swap1\n  pop\n    /* \"#utility.yul\":3236:3557   */\n  swap2\n  swap1\n  pop\n  jump\t// out\n    /* \"#utility.yul\":3563:3680   */\ntag_64:\n    /* \"#utility.yul\":3672:3673   */\n  0x00\n    /* \"#utility.yul\":3669:3670   */\n  dup1\n    /* \"#utility.yul\":3662:3674   */\n  revert\n    /* \"#utility.yul\":3702:4662   */\ntag_65:\n    /* \"#utility.yul\":3819:3824   */\n  0x00\n    /* \"#utility.yul\":3844:3935   */\n  tag_118\n    /* \"#utility.yul\":3860:3934   */\n  tag_119\n    /* \"#utility.yul\":3927:3933   */\n  dup5\n    /* \"#utility.yul\":3860:3934   */\n  tag_63\n  jump\t// in\ntag_119:\n    /* \"#utility.yul\":3844:3935   */\n  tag_58\n  jump\t// in\ntag_118:\n    /* \"#utility.yul\":3835:3935   */\n  swap1\n  pop\n    /* \"#utility.yul\":3955:3960   */\n  dup1\n    /* \"#utility.yul\":3984:3990   */\n  dup4\n    /* \"#utility.yul\":3977:3982   */\n  dup3\n    /* \"#utility.yul\":3970:3991   */\n  mstore\n    /* \"#utility.yul\":4018:4022   */\n  0x20\n    /* \"#utility.yul\":4011:4016   */\n  dup3\n    /* \"#utility.yul\":4007:4023   */\n  add\n    /* \"#utility.yul\":4000:4023   */\n  swap1\n  pop\n    /* \"#utility.yul\":4071:4075   */\n  0x20\n    /* \"#utility.yul\":4063:4069   */\n  dup5\n    /* \"#utility.yul\":4059:4076   */\n  mul\n    /* \"#utility.yul\":4051:4057   */\n  dup4\n    /* \"#utility.yul\":4047:4077   */\n  add\n    /* \"#utility.yul\":4100:4103   */\n  dup6\n    /* \"#utility.yul\":4092:4098   */\n  dup2\n    /* \"#utility.yul\":4089:4104   */\n  gt\n    /* \"#utility.yul\":4086:4208   */\n  iszero\n  tag_120\n  jumpi\n    /* \"#utility.yul\":4119:4198   */\n  tag_121\n  tag_64\n  jump\t// in\ntag_121:\n    /* \"#utility.yul\":4086:4208   */\ntag_120:\n    /* \"#utility.yul\":4234:4240   */\n  dup4\n    /* \"#utility.yul\":4217:4656   */\ntag_122:\n    /* \"#utility.yul\":4251:4257   */\n  dup2\n    /* \"#utility.yul\":4246:4249   */\n  dup2\n    /* \"#utility.yul\":4243:4258   */\n  lt\n    /* \"#utility.yul\":4217:4656   */\n  iszero\n  tag_124\n  jumpi\n    /* \"#utility.yul\":4333:4336   */\n  dup1\n    /* \"#utility.yul\":4327:4337   */\n  mload\n    /* \"#utility.yul\":4369:4387   */\n  0xffffffffffffffff\n    /* \"#utility.yul\":4356:4367   */\n  dup2\n    /* \"#utility.yul\":4353:4388   */\n  gt\n    /* \"#utility.yul\":4350:4472   */\n  iszero\n  tag_125\n  jumpi\n    /* \"#utility.yul\":4391:4470   */\n  tag_126\n  tag_54\n  jump\t// in\ntag_126:\n    /* \"#utility.yul\":4350:4472   */\ntag_125:\n    /* \"#utility.yul\":4515:4526   */\n  dup1\n    /* \"#utility.yul\":4507:4513   */\n  dup7\n    /* \"#utility.yul\":4503:4527   */\n  add\n    /* \"#utility.yul\":4553:4611   */\n  tag_127\n    /* \"#utility.yul\":4607:4610   */\n  dup10\n    /* \"#utility.yul\":4595:4605   */\n  dup3\n    /* \"#utility.yul\":4553:4611   */\n  tag_62\n  jump\t// in\ntag_127:\n    /* \"#utility.yul\":4548:4551   */\n  dup6\n    /* \"#utility.yul\":4541:4612   */\n  mstore\n    /* \"#utility.yul\":4641:4645   */\n  0x20\n    /* \"#utility.yul\":4636:4639   */\n  dup6\n    /* \"#utility.yul\":4632:4646   */\n  add\n    /* \"#utility.yul\":4625:4646   */\n  swap5\n  pop\n    /* \"#utility.yul\":4293:4656   */\n  pop\n  pop\n    /* \"#utility.yul\":4277:4281   */\n  0x20\n    /* \"#utility.yul\":4272:4275   */\n  dup2\n    /* \"#utility.yul\":4268:4282   */\n  add\n    /* \"#utility.yul\":4261:4282   */\n  swap1\n  pop\n    /* \"#utility.yul\":4217:4656   */\n  jump(tag_122)\ntag_124:\n    /* \"#utility.yul\":4221:4242   */\n  pop\n    /* \"#utility.yul\":3825:4662   */\n  pop\n  pop\n    /* \"#utility.yul\":3702:4662   */\n  swap4\n  swap3\n  pop\n  pop\n  pop\n  jump\t// out\n    /* \"#utility.yul\":4684:5089   */\ntag_66:\n    /* \"#utility.yul\":4776:4781   */\n  0x00\n    /* \"#utility.yul\":4825:4828   */\n  dup3\n    /* \"#utility.yul\":4818:4822   */\n  0x1f\n    /* \"#utility.yul\":4810:4816   */\n  dup4\n    /* \"#utility.yul\":4806:4823   */\n  add\n    /* \"#utility.yul\":4802:4829   */\n  slt\n    /* \"#utility.yul\":4792:4914   */\n  tag_129\n  jumpi\n    /* \"#utility.yul\":4833:4912   */\n  tag_130\n  tag_54\n  jump\t// in\ntag_130:\n    /* \"#utility.yul\":4792:4914   */\ntag_129:\n    /* \"#utility.yul\":4943:4949   */\n  dup2\n    /* \"#utility.yul\":4937:4950   */\n  mload\n    /* \"#utility.yul\":4968:5083   */\n  tag_131\n    /* \"#utility.yul\":5079:5082   */\n  dup5\n    /* \"#utility.yul\":5071:5077   */\n  dup3\n    /* \"#utility.yul\":5064:5068   */\n  0x20\n    /* \"#utility.yul\":5056:5062   */\n  dup7\n    /* \"#utility.yul\":5052:5069   */\n  add\n    /* \"#utility.yul\":4968:5083   */\n  tag_65\n  jump\t// in\ntag_131:\n    /* \"#utility.yul\":4959:5083   */\n  swap2\n  pop\n    /* \"#utility.yul\":4782:5089   */\n  pop\n    /* \"#utility.yul\":4684:5089   */\n  swap3\n  swap2\n  pop\n  pop\n  jump\t// out\n    /* \"#utility.yul\":5095:5209   */\ntag_67:\n    /* \"#utility.yul\":5150:5157   */\n  0x00\n    /* \"#utility.yul\":5179:5203   */\n  tag_133\n    /* \"#utility.yul\":5197:5202   */\n  dup3\n    /* \"#utility.yul\":5179:5203   */\n  tag_51\n  jump\t// in\ntag_133:\n    /* \"#utility.yul\":5168:5203   */\n  swap1\n  pop\n    /* \"#utility.yul\":5095:5209   */\n  swap2\n  swap1\n  pop\n  jump\t// out\n    /* \"#utility.yul\":5215:5373   */\ntag_68:\n    /* \"#utility.yul\":5306:5348   */\n  tag_135\n    /* \"#utility.yul\":5342:5347   */\n  dup2\n    /* \"#utility.yul\":5306:5348   */\n  tag_67\n  jump\t// in\ntag_135:\n    /* \"#utility.yul\":5299:5304   */\n  dup2\n    /* \"#utility.yul\":5296:5349   */\n  eq\n    /* \"#utility.yul\":5286:5367   */\n  tag_136\n  jumpi\n    /* \"#utility.yul\":5363:5364   */\n  0x00\n    /* \"#utility.yul\":5360:5361   */\n  dup1\n    /* \"#utility.yul\":5353:5365   */\n  revert\n    /* \"#utility.yul\":5286:5367   */\ntag_136:\n    /* \"#utility.yul\":5215:5373   */\n  pop\n  jump\t// out\n    /* \"#utility.yul\":5379:5558   */\ntag_69:\n    /* \"#utility.yul\":5454:5459   */\n  0x00\n    /* \"#utility.yul\":5485:5491   */\n  dup2\n    /* \"#utility.yul\":5479:5492   */\n  mload\n    /* \"#utility.yul\":5470:5492   */\n  swap1\n  pop\n    /* \"#utility.yul\":5501:5552   */\n  tag_138\n    /* \"#utility.yul\":5546:5551   */\n  dup2\n    /* \"#utility.yul\":5501:5552   */\n  tag_68\n  jump\t// in\ntag_138:\n    /* \"#utility.yul\":5379:5558   */\n  swap3\n  swap2\n  pop\n  pop\n  jump\t// out\n    /* \"#utility.yul\":5564:7146   */\ntag_3:\n    /* \"#utility.yul\":5743:5749   */\n  0x00\n    /* \"#utility.yul\":5751:5757   */\n  dup1\n    /* \"#utility.yul\":5759:5765   */\n  0x00\n    /* \"#utility.yul\":5767:5773   */\n  dup1\n    /* \"#utility.yul\":5775:5781   */\n  0x00\n    /* \"#utility.yul\":5824:5827   */\n  0xa0\n    /* \"#utility.yul\":5812:5821   */\n  dup7\n    /* \"#utility.yul\":5803:5810   */\n  dup9\n    /* \"#utility.yul\":5799:5822   */\n  sub\n    /* \"#utility.yul\":5795:5828   */\n  slt\n    /* \"#utility.yul\":5792:5912   */\n  iszero\n  tag_140\n  jumpi\n    /* \"#utility.yul\":5831:5910   */\n  tag_141\n  tag_48\n  jump\t// in\ntag_141:\n    /* \"#utility.yul\":5792:5912   */\ntag_140:\n    /* \"#utility.yul\":5951:5952   */\n  0x00\n    /* \"#utility.yul\":5976:6040   */\n  tag_142\n    /* \"#utility.yul\":6032:6039   */\n  dup9\n    /* \"#utility.yul\":6023:6029   */\n  dup3\n    /* \"#utility.yul\":6012:6021   */\n  dup10\n    /* \"#utility.yul\":6008:6030   */\n  add\n    /* \"#utility.yul\":5976:6040   */\n  tag_53\n  jump\t// in\ntag_142:\n    /* \"#utility.yul\":5966:6040   */\n  swap6\n  pop\n    /* \"#utility.yul\":5922:6050   */\n  pop\n    /* \"#utility.yul\":6110:6112   */\n  0x20\n    /* \"#utility.yul\":6099:6108   */\n  dup7\n    /* \"#utility.yul\":6095:6113   */\n  add\n    /* \"#utility.yul\":6089:6114   */\n  mload\n    /* \"#utility.yul\":6141:6159   */\n  0xffffffffffffffff\n    /* \"#utility.yul\":6133:6139   */\n  dup2\n    /* \"#utility.yul\":6130:6160   */\n  gt\n    /* \"#utility.yul\":6127:6244   */\n  iszero\n  tag_143\n  jumpi\n    /* \"#utility.yul\":6163:6242   */\n  tag_144\n  tag_49\n  jump\t// in\ntag_144:\n    /* \"#utility.yul\":6127:6244   */\ntag_143:\n    /* \"#utility.yul\":6268:6342   */\n  tag_145\n    /* \"#utility.yul\":6334:6341   */\n  dup9\n    /* \"#utility.yul\":6325:6331   */\n  dup3\n    /* \"#utility.yul\":6314:6323   */\n  dup10\n    /* \"#utility.yul\":6310:6332   */\n  add\n    /* \"#utility.yul\":6268:6342   */\n  tag_62\n  jump\t// in\ntag_145:\n    /* \"#utility.yul\":6258:6342   */\n  swap5\n  pop\n    /* \"#utility.yul\":6060:6352   */\n  pop\n    /* \"#utility.yul\":6412:6414   */\n  0x40\n    /* \"#utility.yul\":6401:6410   */\n  dup7\n    /* \"#utility.yul\":6397:6415   */\n  add\n    /* \"#utility.yul\":6391:6416   */\n  mload\n    /* \"#utility.yul\":6443:6461   */\n  0xffffffffffffffff\n    /* \"#utility.yul\":6435:6441   */\n  dup2\n    /* \"#utility.yul\":6432:6462   */\n  gt\n    /* \"#utility.yul\":6429:6546   */\n  iszero\n  tag_146\n  jumpi\n    /* \"#utility.yul\":6465:6544   */\n  tag_147\n  tag_49\n  jump\t// in\ntag_147:\n    /* \"#utility.yul\":6429:6546   */\ntag_146:\n    /* \"#utility.yul\":6570:6644   */\n  tag_148\n    /* \"#utility.yul\":6636:6643   */\n  dup9\n    /* \"#utility.yul\":6627:6633   */\n  dup3\n    /* \"#utility.yul\":6616:6625   */\n  dup10\n    /* \"#utility.yul\":6612:6634   */\n  add\n    /* \"#utility.yul\":6570:6644   */\n  tag_62\n  jump\t// in\ntag_148:\n    /* \"#utility.yul\":6560:6644   */\n  swap4\n  pop\n    /* \"#utility.yul\":6362:6654   */\n  pop\n    /* \"#utility.yul\":6714:6716   */\n  0x60\n    /* \"#utility.yul\":6703:6712   */\n  dup7\n    /* \"#utility.yul\":6699:6717   */\n  add\n    /* \"#utility.yul\":6693:6718   */\n  mload\n    /* \"#utility.yul\":6745:6763   */\n  0xffffffffffffffff\n    /* \"#utility.yul\":6737:6743   */\n  dup2\n    /* \"#utility.yul\":6734:6764   */\n  gt\n    /* \"#utility.yul\":6731:6848   */\n  iszero\n  tag_149\n  jumpi\n    /* \"#utility.yul\":6767:6846   */\n  tag_150\n  tag_49\n  jump\t// in\ntag_150:\n    /* \"#utility.yul\":6731:6848   */\ntag_149:\n    /* \"#utility.yul\":6872:6971   */\n  tag_151\n    /* \"#utility.yul\":6963:6970   */\n  dup9\n    /* \"#utility.yul\":6954:6960   */\n  dup3\n    /* \"#utility.yul\":6943:6952   */\n  dup10\n    /* \"#utility.yul\":6939:6961   */\n  add\n    /* \"#utility.yul\":6872:6971   */\n  tag_66\n  jump\t// in\ntag_151:\n    /* \"#utility.yul\":6862:6971   */\n  swap3\n  pop\n    /* \"#utility.yul\":6664:6981   */\n  pop\n    /* \"#utility.yul\":7020:7023   */\n  0x80\n    /* \"#utility.yul\":7047:7129   */\n  tag_152\n    /* \"#utility.yul\":7121:7128   */\n  dup9\n    /* \"#utility.yul\":7112:7118   */\n  dup3\n    /* \"#utility.yul\":7101:7110   */\n  dup10\n    /* \"#utility.yul\":7097:7119   */\n  add\n    /* \"#utility.yul\":7047:7129   */\n  tag_69\n  jump\t// in\ntag_152:\n    /* \"#utility.yul\":7037:7129   */\n  swap2\n  pop\n    /* \"#utility.yul\":6991:7139   */\n  pop\n    /* \"#utility.yul\":5564:7146   */\n  swap3\n  swap6\n  pop\n  swap3\n  swap6\n  swap1\n  swap4\n  pop\n  jump\t// out\n    /* \"#utility.yul\":7152:7332   */\ntag_70:\n    /* \"#utility.yul\":7200:7277   */\n  0x4e487b7100000000000000000000000000000000000000000000000000000000\n    /* \"#utility.yul\":7197:7198   */\n  0x00\n    /* \"#utility.yul\":7190:7278   */\n  mstore\n    /* \"#utility.yul\":7297:7301   */\n  0x22\n    /* \"#utility.yul\":7294:7295   */\n  0x04\n    /* \"#utility.yul\":7287:7302   */\n  mstore\n    /* \"#utility.yul\":7321:7325   */\n  0x24\n    /* \"#utility.yul\":7318:7319   */\n  0x00\n    /* \"#utility.yul\":7311:7326   */\n  revert\n    /* \"#utility.yul\":7338:7658   */\ntag_19:\n    /* \"#utility.yul\":7382:7388   */\n  0x00\n    /* \"#utility.yul\":7419:7420   */\n  0x02\n    /* \"#utility.yul\":7413:7417   */\n  dup3\n    /* \"#utility.yul\":7409:7421   */\n  div\n    /* \"#utility.yul\":7399:7421   */\n  swap1\n  pop\n    /* \"#utility.yul\":7466:7467   */\n  0x01\n    /* \"#utility.yul\":7460:7464   */\n  dup3\n    /* \"#utility.yul\":7456:7468   */\n  and\n    /* \"#utility.yul\":7487:7505   */\n  dup1\n    /* \"#utility.yul\":7477:7558   */\n  tag_155\n  jumpi\n    /* \"#utility.yul\":7543:7547   */\n  0x7f\n    /* \"#utility.yul\":7535:7541   */\n  dup3\n    /* \"#utility.yul\":7531:7548   */\n  and\n    /* \"#utility.yul\":7521:7548   */\n  swap2\n  pop\n    /* \"#utility.yul\":7477:7558   */\ntag_155:\n    /* \"#utility.yul\":7605:7607   */\n  0x20\n    /* \"#utility.yul\":7597:7603   */\n  dup3\n    /* \"#utility.yul\":7594:7608   */\n  lt\n    /* \"#utility.yul\":7574:7592   */\n  dup2\n    /* \"#utility.yul\":7571:7609   */\n  eq\n    /* \"#utility.yul\":7568:7652   */\n  iszero\n  tag_156\n  jumpi\n    /* \"#utility.yul\":7624:7642   */\n  tag_157\n  tag_70\n  jump\t// in\ntag_157:\n    /* \"#utility.yul\":7568:7652   */\ntag_156:\n    /* \"#utility.yul\":7389:7658   */\n  pop\n    /* \"#utility.yul\":7338:7658   */\n  swap2\n  swap1\n  pop\n  jump\t// out\n    /* \"Poll.sol\":670:3121  contract Poll {... */\ntag_17:\n  dataSize(sub_0)\n  dup1\n  dataOffset(sub_0)\n  0x00\n  codecopy\n  0x00\n  return\nstop\n\nsub_0: assembly {\n        /* \"Poll.sol\":670:3121  contract Poll {... */\n      mstore(0x40, 0x80)\n      callvalue\n      dup1\n      iszero\n      tag_1\n      jumpi\n      0x00\n      dup1\n      revert\n    tag_1:\n      pop\n      jumpi(tag_2, lt(calldatasize, 0x04))\n      shr(0xe0, calldataload(0x00))\n      dup1\n      0x597e1fb5\n      gt\n      tag_18\n      jumpi\n      dup1\n      0x8e7ea5b2\n      gt\n      tag_19\n      jumpi\n      dup1\n      0x8e7ea5b2\n      eq\n      tag_14\n      jumpi\n      dup1\n      0xaec2ccae\n      eq\n      tag_15\n      jumpi\n      dup1\n      0xcc2ee196\n      eq\n      tag_16\n      jumpi\n      dup1\n      0xdfbf53ae\n      eq\n      tag_17\n      jumpi\n      jump(tag_2)\n    tag_19:\n      dup1\n      0x597e1fb5\n      eq\n      tag_10\n      jumpi\n      dup1\n      0x5c975abb\n      eq\n      tag_11\n      jumpi\n      dup1\n      0x5df81330\n      eq\n      tag_12\n      jumpi\n      dup1\n      0x7284e416\n      eq\n      tag_13\n      jumpi\n      jump(tag_2)\n    tag_18:\n      dup1\n      0x4051ddac\n      gt\n      tag_20\n      jumpi\n      dup1\n      0x4051ddac\n      eq\n      tag_6\n      jumpi\n      dup1\n      0x409e2205\n      eq\n      tag_7\n      jumpi\n      dup1\n      0x481c6a75\n      eq\n      tag_8\n      jumpi\n      dup1\n      0x4a79d50c\n      eq\n      tag_9\n      jumpi\n      jump(tag_2)\n    tag_20:\n      dup1\n      0x0121b93f\n      eq\n      tag_3\n      jumpi\n      dup1\n      0x02329a29\n      eq\n      tag_4\n      jumpi\n      dup1\n      0x0dc96015\n      eq\n      tag_5\n      jumpi\n    tag_2:\n      0x00\n      dup1\n      revert\n        /* \"Poll.sol\":1478:1773  function vote(uint option) public verified {... */\n    tag_3:\n      tag_21\n      0x04\n      dup1\n      calldatasize\n      sub\n      dup2\n      add\n      swap1\n      tag_22\n      swap2\n      swap1\n      tag_23\n      jump\t// in\n    tag_22:\n      tag_24\n      jump\t// in\n    tag_21:\n      stop\n        /* \"Poll.sol\":1781:1895  function pause(bool state) public restricted {... */\n    tag_4:\n      tag_25\n      0x04\n      dup1\n      calldatasize\n      sub\n      dup2\n      add\n      swap1\n      tag_26\n      swap2\n      swap1\n      tag_27\n      jump\t// in\n    tag_26:\n      tag_28\n      jump\t// in\n    tag_25:\n      stop\n        /* \"Poll.sol\":2440:2527  function getVotes() public view returns (uint[] memory) {... */\n    tag_5:\n      tag_29\n      tag_30\n      jump\t// in\n    tag_29:\n      mload(0x40)\n      tag_31\n      swap2\n      swap1\n      tag_32\n      jump\t// in\n    tag_31:\n      mload(0x40)\n      dup1\n      swap2\n      sub\n      swap1\n      return\n        /* \"Poll.sol\":2535:2856  function getSummary() external view returns(bool, bool, uint, string memory, string memory, string[] memory,uint[] memory) {... */\n    tag_6:\n      tag_33\n      tag_34\n      jump\t// in\n    tag_33:\n      mload(0x40)\n      tag_35\n      swap8\n      swap7\n      swap6\n      swap5\n      swap4\n      swap3\n      swap2\n      swap1\n      tag_36\n      jump\t// in\n    tag_35:\n      mload(0x40)\n      dup1\n      swap2\n      sub\n      swap1\n      return\n        /* \"Poll.sol\":776:799  string[] public options */\n    tag_7:\n      tag_37\n      0x04\n      dup1\n      calldatasize\n      sub\n      dup2\n      add\n      swap1\n      tag_38\n      swap2\n      swap1\n      tag_23\n      jump\t// in\n    tag_38:\n      tag_39\n      jump\t// in\n    tag_37:\n      mload(0x40)\n      tag_40\n      swap2\n      swap1\n      tag_41\n      jump\t// in\n    tag_40:\n      mload(0x40)\n      dup1\n      swap2\n      sub\n      swap1\n      return\n        /* \"Poll.sol\":967:989  address public manager */\n    tag_8:\n      tag_42\n      tag_43\n      jump\t// in\n    tag_42:\n      mload(0x40)\n      tag_44\n      swap2\n      swap1\n      tag_45\n      jump\t// in\n    tag_44:\n      mload(0x40)\n      dup1\n      swap2\n      sub\n      swap1\n      return\n        /* \"Poll.sol\":806:825  string public title */\n    tag_9:\n      tag_46\n      tag_47\n      jump\t// in\n    tag_46:\n      mload(0x40)\n      tag_48\n      swap2\n      swap1\n      tag_41\n      jump\t// in\n    tag_48:\n      mload(0x40)\n      dup1\n      swap2\n      sub\n      swap1\n      return\n        /* \"Poll.sol\":915:933  bool public closed */\n    tag_10:\n      tag_49\n      tag_50\n      jump\t// in\n    tag_49:\n      mload(0x40)\n      tag_51\n      swap2\n      swap1\n      tag_52\n      jump\t// in\n    tag_51:\n      mload(0x40)\n      dup1\n      swap2\n      sub\n      swap1\n      return\n        /* \"Poll.sol\":940:958  bool public paused */\n    tag_11:\n      tag_53\n      tag_54\n      jump\t// in\n    tag_53:\n      mload(0x40)\n      tag_55\n      swap2\n      swap1\n      tag_52\n      jump\t// in\n    tag_55:\n      mload(0x40)\n      dup1\n      swap2\n      sub\n      swap1\n      return\n        /* \"Poll.sol\":864:883  uint[] public votes */\n    tag_12:\n      tag_56\n      0x04\n      dup1\n      calldatasize\n      sub\n      dup2\n      add\n      swap1\n      tag_57\n      swap2\n      swap1\n      tag_23\n      jump\t// in\n    tag_57:\n      tag_58\n      jump\t// in\n    tag_56:\n      mload(0x40)\n      tag_59\n      swap2\n      swap1\n      tag_60\n      jump\t// in\n    tag_59:\n      mload(0x40)\n      dup1\n      swap2\n      sub\n      swap1\n      return\n        /* \"Poll.sol\":832:857  string public description */\n    tag_13:\n      tag_61\n      tag_62\n      jump\t// in\n    tag_61:\n      mload(0x40)\n      tag_63\n      swap2\n      swap1\n      tag_41\n      jump\t// in\n    tag_63:\n      mload(0x40)\n      dup1\n      swap2\n      sub\n      swap1\n      return\n        /* \"Poll.sol\":1903:2331  function getWinner() public restricted {... */\n    tag_14:\n      tag_64\n      tag_65\n      jump\t// in\n    tag_64:\n      stop\n        /* \"Poll.sol\":731:769  mapping (address => bool) public voted */\n    tag_15:\n      tag_66\n      0x04\n      dup1\n      calldatasize\n      sub\n      dup2\n      add\n      swap1\n      tag_67\n      swap2\n      swap1\n      tag_68\n      jump\t// in\n    tag_67:\n      tag_69\n      jump\t// in\n    tag_66:\n      mload(0x40)\n      tag_70\n      swap2\n      swap1\n      tag_52\n      jump\t// in\n    tag_70:\n      mload(0x40)\n      dup1\n      swap2\n      sub\n      swap1\n      return\n        /* \"Poll.sol\":2339:2432  function getOptions() public view returns (string[] memory) {... */\n    tag_16:\n      tag_71\n      tag_72\n      jump\t// in\n    tag_71:\n      mload(0x40)\n      tag_73\n      swap2\n      swap1\n      tag_74\n      jump\t// in\n    tag_73:\n      mload(0x40)\n      dup1\n      swap2\n      sub\n      swap1\n      return\n        /* \"Poll.sol\":890:908  uint public winner */\n    tag_17:\n      tag_75\n      tag_76\n      jump\t// in\n    tag_75:\n      mload(0x40)\n      tag_77\n      swap2\n      swap1\n      tag_60\n      jump\t// in\n    tag_77:\n      mload(0x40)\n      dup1\n      swap2\n      sub\n      swap1\n      return\n        /* \"Poll.sol\":1478:1773  function vote(uint option) public verified {... */\n    tag_24:\n        /* \"Poll.sol\":3035:3046  pollFactory */\n      0x00\n      dup1\n      sload\n      swap1\n      0x0100\n      exp\n      swap1\n      div\n      0xffffffffffffffffffffffffffffffffffffffff\n      and\n        /* \"Poll.sol\":3035:3053  pollFactory.voters */\n      0xffffffffffffffffffffffffffffffffffffffff\n      and\n      0xa3ec138d\n        /* \"Poll.sol\":3054:3064  msg.sender */\n      caller\n        /* \"Poll.sol\":3035:3065  pollFactory.voters(msg.sender) */\n      mload(0x40)\n      dup3\n      0xffffffff\n      and\n      0xe0\n      shl\n      dup2\n      mstore\n      0x04\n      add\n      tag_79\n      swap2\n      swap1\n      tag_45\n      jump\t// in\n    tag_79:\n      0x20\n      mload(0x40)\n      dup1\n      dup4\n      sub\n      dup2\n      dup7\n      gas\n      staticcall\n      iszero\n      dup1\n      iszero\n      tag_81\n      jumpi\n      returndatasize\n      0x00\n      dup1\n      returndatacopy\n      revert(0x00, returndatasize)\n    tag_81:\n      pop\n      pop\n      pop\n      pop\n      mload(0x40)\n      returndatasize\n      not(0x1f)\n      0x1f\n      dup3\n      add\n      and\n      dup3\n      add\n      dup1\n      0x40\n      mstore\n      pop\n      dup2\n      add\n      swap1\n      tag_82\n      swap2\n      swap1\n      tag_83\n      jump\t// in\n    tag_82:\n        /* \"Poll.sol\":3027:3098  require(pollFactory.voters(msg.sender), \"This address is not verified\") */\n      tag_84\n      jumpi\n      mload(0x40)\n      0x08c379a000000000000000000000000000000000000000000000000000000000\n      dup2\n      mstore\n      0x04\n      add\n      tag_85\n      swap1\n      tag_86\n      jump\t// in\n    tag_85:\n      mload(0x40)\n      dup1\n      swap2\n      sub\n      swap1\n      revert\n    tag_84:\n        /* \"Poll.sol\":1541:1547  closed */\n      0x07\n      0x00\n      swap1\n      sload\n      swap1\n      0x0100\n      exp\n      swap1\n      div\n      0xff\n      and\n        /* \"Poll.sol\":1540:1547  !closed */\n      iszero\n        /* \"Poll.sol\":1532:1581  require(!closed, \"This poll is currently closed\") */\n      tag_88\n      jumpi\n      mload(0x40)\n      0x08c379a000000000000000000000000000000000000000000000000000000000\n      dup2\n      mstore\n      0x04\n      add\n      tag_89\n      swap1\n      tag_90\n      jump\t// in\n    tag_89:\n      mload(0x40)\n      dup1\n      swap2\n      sub\n      swap1\n      revert\n    tag_88:\n        /* \"Poll.sol\":1601:1606  voted */\n      0x01\n        /* \"Poll.sol\":1601:1618  voted[msg.sender] */\n      0x00\n        /* \"Poll.sol\":1607:1617  msg.sender */\n      caller\n        /* \"Poll.sol\":1601:1618  voted[msg.sender] */\n      0xffffffffffffffffffffffffffffffffffffffff\n      and\n      0xffffffffffffffffffffffffffffffffffffffff\n      and\n      dup2\n      mstore\n      0x20\n      add\n      swap1\n      dup2\n      mstore\n      0x20\n      add\n      0x00\n      keccak256\n      0x00\n      swap1\n      sload\n      swap1\n      0x0100\n      exp\n      swap1\n      div\n      0xff\n      and\n        /* \"Poll.sol\":1600:1618  !voted[msg.sender] */\n      iszero\n        /* \"Poll.sol\":1592:1649  require(!voted[msg.sender], \"This address already voted\") */\n      tag_91\n      jumpi\n      mload(0x40)\n      0x08c379a000000000000000000000000000000000000000000000000000000000\n      dup2\n      mstore\n      0x04\n      add\n      tag_92\n      swap1\n      tag_93\n      jump\t// in\n    tag_92:\n      mload(0x40)\n      dup1\n      swap2\n      sub\n      swap1\n      revert\n    tag_91:\n        /* \"Poll.sol\":1679:1680  1 */\n      0x01\n        /* \"Poll.sol\":1662:1667  votes */\n      0x05\n        /* \"Poll.sol\":1668:1674  option */\n      dup3\n        /* \"Poll.sol\":1662:1675  votes[option] */\n      dup2\n      sload\n      dup2\n      lt\n      tag_94\n      jumpi\n      tag_95\n      tag_96\n      jump\t// in\n    tag_95:\n    tag_94:\n      swap1\n      0x00\n      mstore\n      keccak256(0x00, 0x20)\n      add\n      0x00\n        /* \"Poll.sol\":1662:1680  votes[option] += 1 */\n      dup3\n      dup3\n      sload\n      tag_98\n      swap2\n      swap1\n      tag_99\n      jump\t// in\n    tag_98:\n      swap3\n      pop\n      pop\n      dup2\n      swap1\n      sstore\n      pop\n        /* \"Poll.sol\":1711:1715  true */\n      0x01\n        /* \"Poll.sol\":1691:1696  voted */\n      dup1\n        /* \"Poll.sol\":1691:1708  voted[msg.sender] */\n      0x00\n        /* \"Poll.sol\":1697:1707  msg.sender */\n      caller\n        /* \"Poll.sol\":1691:1708  voted[msg.sender] */\n      0xffffffffffffffffffffffffffffffffffffffff\n      and\n      0xffffffffffffffffffffffffffffffffffffffff\n      and\n      dup2\n      mstore\n      0x20\n      add\n      swap1\n      dup2\n      mstore\n      0x20\n      add\n      0x00\n      keccak256\n      0x00\n        /* \"Poll.sol\":1691:1715  voted[msg.sender] = true */\n      0x0100\n      exp\n      dup2\n      sload\n      dup2\n      0xff\n      mul\n      not\n      and\n      swap1\n      dup4\n      iszero\n      iszero\n      mul\n      or\n      swap1\n      sstore\n      pop\n        /* \"Poll.sol\":1733:1765  VoteEvent(option, votes[option]) */\n      0xd193833848b675d858c4a3354369c7ff9a3cf48d9f9fbbf0882944b88ff68591\n        /* \"Poll.sol\":1743:1749  option */\n      dup2\n        /* \"Poll.sol\":1751:1756  votes */\n      0x05\n        /* \"Poll.sol\":1757:1763  option */\n      dup4\n        /* \"Poll.sol\":1751:1764  votes[option] */\n      dup2\n      sload\n      dup2\n      lt\n      tag_100\n      jumpi\n      tag_101\n      tag_96\n      jump\t// in\n    tag_101:\n    tag_100:\n      swap1\n      0x00\n      mstore\n      keccak256(0x00, 0x20)\n      add\n      sload\n        /* \"Poll.sol\":1733:1765  VoteEvent(option, votes[option]) */\n      mload(0x40)\n      tag_103\n      swap3\n      swap2\n      swap1\n      tag_104\n      jump\t// in\n    tag_103:\n      mload(0x40)\n      dup1\n      swap2\n      sub\n      swap1\n      log1\n        /* \"Poll.sol\":1478:1773  function vote(uint option) public verified {... */\n      pop\n      jump\t// out\n        /* \"Poll.sol\":1781:1895  function pause(bool state) public restricted {... */\n    tag_28:\n        /* \"Poll.sol\":2919:2926  manager */\n      0x07\n      0x02\n      swap1\n      sload\n      swap1\n      0x0100\n      exp\n      swap1\n      div\n      0xffffffffffffffffffffffffffffffffffffffff\n      and\n        /* \"Poll.sol\":2905:2926  msg.sender == manager */\n      0xffffffffffffffffffffffffffffffffffffffff\n      and\n        /* \"Poll.sol\":2905:2915  msg.sender */\n      caller\n        /* \"Poll.sol\":2905:2926  msg.sender == manager */\n      0xffffffffffffffffffffffffffffffffffffffff\n      and\n      eq\n        /* \"Poll.sol\":2897:2968  require(msg.sender == manager, \"Only the manager can call this method\") */\n      tag_106\n      jumpi\n      mload(0x40)\n      0x08c379a000000000000000000000000000000000000000000000000000000000\n      dup2\n      mstore\n      0x04\n      add\n      tag_107\n      swap1\n      tag_108\n      jump\t// in\n    tag_107:\n      mload(0x40)\n      dup1\n      swap2\n      sub\n      swap1\n      revert\n    tag_106:\n        /* \"Poll.sol\":1846:1851  state */\n      dup1\n        /* \"Poll.sol\":1837:1843  paused */\n      0x07\n      0x01\n        /* \"Poll.sol\":1837:1851  paused = state */\n      0x0100\n      exp\n      dup2\n      sload\n      dup2\n      0xff\n      mul\n      not\n      and\n      swap1\n      dup4\n      iszero\n      iszero\n      mul\n      or\n      swap1\n      sstore\n      pop\n        /* \"Poll.sol\":1869:1887  PauseEvent(paused) */\n      0x10e1c3fcaff06b68391033547e8f9bb8067d7c4a2e32659b0629153814d242d3\n        /* \"Poll.sol\":1880:1886  paused */\n      0x07\n      0x01\n      swap1\n      sload\n      swap1\n      0x0100\n      exp\n      swap1\n      div\n      0xff\n      and\n        /* \"Poll.sol\":1869:1887  PauseEvent(paused) */\n      mload(0x40)\n      tag_110\n      swap2\n      swap1\n      tag_52\n      jump\t// in\n    tag_110:\n      mload(0x40)\n      dup1\n      swap2\n      sub\n      swap1\n      log1\n        /* \"Poll.sol\":1781:1895  function pause(bool state) public restricted {... */\n      pop\n      jump\t// out\n        /* \"Poll.sol\":2440:2527  function getVotes() public view returns (uint[] memory) {... */\n    tag_30:\n        /* \"Poll.sol\":2481:2494  uint[] memory */\n      0x60\n        /* \"Poll.sol\":2514:2519  votes */\n      0x05\n        /* \"Poll.sol\":2507:2519  return votes */\n      dup1\n      sload\n      dup1\n      0x20\n      mul\n      0x20\n      add\n      mload(0x40)\n      swap1\n      dup2\n      add\n      0x40\n      mstore\n      dup1\n      swap3\n      swap2\n      swap1\n      dup2\n      dup2\n      mstore\n      0x20\n      add\n      dup3\n      dup1\n      sload\n      dup1\n      iszero\n      tag_112\n      jumpi\n      0x20\n      mul\n      dup3\n      add\n      swap2\n      swap1\n      0x00\n      mstore\n      keccak256(0x00, 0x20)\n      swap1\n    tag_113:\n      dup2\n      sload\n      dup2\n      mstore\n      0x20\n      add\n      swap1\n      0x01\n      add\n      swap1\n      dup1\n      dup4\n      gt\n      tag_113\n      jumpi\n    tag_112:\n      pop\n      pop\n      pop\n      pop\n      pop\n      swap1\n      pop\n        /* \"Poll.sol\":2440:2527  function getVotes() public view returns (uint[] memory) {... */\n      swap1\n      jump\t// out\n        /* \"Poll.sol\":2535:2856  function getSummary() external view returns(bool, bool, uint, string memory, string memory, string[] memory,uint[] memory) {... */\n    tag_34:\n        /* \"Poll.sol\":2579:2583  bool */\n      0x00\n        /* \"Poll.sol\":2585:2589  bool */\n      dup1\n        /* \"Poll.sol\":2591:2595  uint */\n      0x00\n        /* \"Poll.sol\":2597:2610  string memory */\n      0x60\n        /* \"Poll.sol\":2612:2625  string memory */\n      dup1\n        /* \"Poll.sol\":2627:2642  string[] memory */\n      0x60\n        /* \"Poll.sol\":2643:2656  uint[] memory */\n      dup1\n        /* \"Poll.sol\":2691:2697  paused */\n      0x07\n      0x01\n      swap1\n      sload\n      swap1\n      0x0100\n      exp\n      swap1\n      div\n      0xff\n      and\n        /* \"Poll.sol\":2712:2718  closed */\n      0x07\n      0x00\n      swap1\n      sload\n      swap1\n      0x0100\n      exp\n      swap1\n      div\n      0xff\n      and\n        /* \"Poll.sol\":2733:2739  winner */\n      sload(0x06)\n        /* \"Poll.sol\":2754:2759  title */\n      0x03\n        /* \"Poll.sol\":2774:2785  description */\n      0x04\n        /* \"Poll.sol\":2800:2812  getOptions() */\n      tag_115\n        /* \"Poll.sol\":2800:2810  getOptions */\n      tag_72\n        /* \"Poll.sol\":2800:2812  getOptions() */\n      jump\t// in\n    tag_115:\n        /* \"Poll.sol\":2827:2837  getVotes() */\n      tag_116\n        /* \"Poll.sol\":2827:2835  getVotes */\n      tag_30\n        /* \"Poll.sol\":2827:2837  getVotes() */\n      jump\t// in\n    tag_116:\n        /* \"Poll.sol\":2669:2848  return (... */\n      dup4\n      dup1\n      sload\n      tag_117\n      swap1\n      tag_118\n      jump\t// in\n    tag_117:\n      dup1\n      0x1f\n      add\n      0x20\n      dup1\n      swap2\n      div\n      mul\n      0x20\n      add\n      mload(0x40)\n      swap1\n      dup2\n      add\n      0x40\n      mstore\n      dup1\n      swap3\n      swap2\n      swap1\n      dup2\n      dup2\n      mstore\n      0x20\n      add\n      dup3\n      dup1\n      sload\n      tag_119\n      swap1\n      tag_118\n      jump\t// in\n    tag_119:\n      dup1\n      iszero\n      tag_120\n      jumpi\n      dup1\n      0x1f\n      lt\n      tag_121\n      jumpi\n      0x0100\n      dup1\n      dup4\n      sload\n      div\n      mul\n      dup4\n      mstore\n      swap2\n      0x20\n      add\n      swap2\n      jump(tag_120)\n    tag_121:\n      dup3\n      add\n      swap2\n      swap1\n      0x00\n      mstore\n      keccak256(0x00, 0x20)\n      swap1\n    tag_122:\n      dup2\n      sload\n      dup2\n      mstore\n      swap1\n      0x01\n      add\n      swap1\n      0x20\n      add\n      dup1\n      dup4\n      gt\n      tag_122\n      jumpi\n      dup3\n      swap1\n      sub\n      0x1f\n      and\n      dup3\n      add\n      swap2\n    tag_120:\n      pop\n      pop\n      pop\n      pop\n      pop\n      swap4\n      pop\n      dup3\n      dup1\n      sload\n      tag_123\n      swap1\n      tag_118\n      jump\t// in\n    tag_123:\n      dup1\n      0x1f\n      add\n      0x20\n      dup1\n      swap2\n      div\n      mul\n      0x20\n      add\n      mload(0x40)\n      swap1\n      dup2\n      add\n      0x40\n      mstore\n      dup1\n      swap3\n      swap2\n      swap1\n      dup2\n      dup2\n      mstore\n      0x20\n      add\n      dup3\n      dup1\n      sload\n      tag_124\n      swap1\n      tag_118\n      jump\t// in\n    tag_124:\n      dup1\n      iszero\n      tag_125\n      jumpi\n      dup1\n      0x1f\n      lt\n      tag_126\n      jumpi\n      0x0100\n      dup1\n      dup4\n      sload\n      div\n      mul\n      dup4\n      mstore\n      swap2\n      0x20\n      add\n      swap2\n      jump(tag_125)\n    tag_126:\n      dup3\n      add\n      swap2\n      swap1\n      0x00\n      mstore\n      keccak256(0x00, 0x20)\n      swap1\n    tag_127:\n      dup2\n      sload\n      dup2\n      mstore\n      swap1\n      0x01\n      add\n      swap1\n      0x20\n      add\n      dup1\n      dup4\n      gt\n      tag_127\n      jumpi\n      dup3\n      swap1\n      sub\n      0x1f\n      and\n      dup3\n      add\n      swap2\n    tag_125:\n      pop\n      pop\n      pop\n      pop\n      pop\n      swap3\n      pop\n      swap7\n      pop\n      swap7\n      pop\n      swap7\n      pop\n      swap7\n      pop\n      swap7\n      pop\n      swap7\n      pop\n      swap7\n      pop\n        /* \"Poll.sol\":2535:2856  function getSummary() external view returns(bool, bool, uint, string memory, string memory, string[] memory,uint[] memory) {... */\n      swap1\n      swap2\n      swap3\n      swap4\n      swap5\n      swap6\n      swap7\n      jump\t// out\n        /* \"Poll.sol\":776:799  string[] public options */\n    tag_39:\n      0x02\n      dup2\n      dup2\n      sload\n      dup2\n      lt\n      tag_128\n      jumpi\n      0x00\n      dup1\n      revert\n    tag_128:\n      swap1\n      0x00\n      mstore\n      keccak256(0x00, 0x20)\n      add\n      0x00\n      swap2\n      pop\n      swap1\n      pop\n      dup1\n      sload\n      tag_130\n      swap1\n      tag_118\n      jump\t// in\n    tag_130:\n      dup1\n      0x1f\n      add\n      0x20\n      dup1\n      swap2\n      div\n      mul\n      0x20\n      add\n      mload(0x40)\n      swap1\n      dup2\n      add\n      0x40\n      mstore\n      dup1\n      swap3\n      swap2\n      swap1\n      dup2\n      dup2\n      mstore\n      0x20\n      add\n      dup3\n      dup1\n      sload\n      tag_131\n      swap1\n      tag_118\n      jump\t// in\n    tag_131:\n      dup1\n      iszero\n      tag_132\n      jumpi\n      dup1\n      0x1f\n      lt\n      tag_133\n      jumpi\n      0x0100\n      dup1\n      dup4\n      sload\n      div\n      mul\n      dup4\n      mstore\n      swap2\n      0x20\n      add\n      swap2\n      jump(tag_132)\n    tag_133:\n      dup3\n      add\n      swap2\n      swap1\n      0x00\n      mstore\n      keccak256(0x00, 0x20)\n      swap1\n    tag_134:\n      dup2\n      sload\n      dup2\n      mstore\n      swap1\n      0x01\n      add\n      swap1\n      0x20\n      add\n      dup1\n      dup4\n      gt\n      tag_134\n      jumpi\n      dup3\n      swap1\n      sub\n      0x1f\n      and\n      dup3\n      add\n      swap2\n    tag_132:\n      pop\n      pop\n      pop\n      pop\n      pop\n      dup2\n      jump\t// out\n        /* \"Poll.sol\":967:989  address public manager */\n    tag_43:\n      0x07\n      0x02\n      swap1\n      sload\n      swap1\n      0x0100\n      exp\n      swap1\n      div\n      0xffffffffffffffffffffffffffffffffffffffff\n      and\n      dup2\n      jump\t// out\n        /* \"Poll.sol\":806:825  string public title */\n    tag_47:\n      0x03\n      dup1\n      sload\n      tag_135\n      swap1\n      tag_118\n      jump\t// in\n    tag_135:\n      dup1\n      0x1f\n      add\n      0x20\n      dup1\n      swap2\n      div\n      mul\n      0x20\n      add\n      mload(0x40)\n      swap1\n      dup2\n      add\n      0x40\n      mstore\n      dup1\n      swap3\n      swap2\n      swap1\n      dup2\n      dup2\n      mstore\n      0x20\n      add\n      dup3\n      dup1\n      sload\n      tag_136\n      swap1\n      tag_118\n      jump\t// in\n    tag_136:\n      dup1\n      iszero\n      tag_137\n      jumpi\n      dup1\n      0x1f\n      lt\n      tag_138\n      jumpi\n      0x0100\n      dup1\n      dup4\n      sload\n      div\n      mul\n      dup4\n      mstore\n      swap2\n      0x20\n      add\n      swap2\n      jump(tag_137)\n    tag_138:\n      dup3\n      add\n      swap2\n      swap1\n      0x00\n      mstore\n      keccak256(0x00, 0x20)\n      swap1\n    tag_139:\n      dup2\n      sload\n      dup2\n      mstore\n      swap1\n      0x01\n      add\n      swap1\n      0x20\n      add\n      dup1\n      dup4\n      gt\n      tag_139\n      jumpi\n      dup3\n      swap1\n      sub\n      0x1f\n      and\n      dup3\n      add\n      swap2\n    tag_137:\n      pop\n      pop\n      pop\n      pop\n      pop\n      dup2\n      jump\t// out\n        /* \"Poll.sol\":915:933  bool public closed */\n    tag_50:\n      0x07\n      0x00\n      swap1\n      sload\n      swap1\n      0x0100\n      exp\n      swap1\n      div\n      0xff\n      and\n      dup2\n      jump\t// out\n        /* \"Poll.sol\":940:958  bool public paused */\n    tag_54:\n      0x07\n      0x01\n      swap1\n      sload\n      swap1\n      0x0100\n      exp\n      swap1\n      div\n      0xff\n      and\n      dup2\n      jump\t// out\n        /* \"Poll.sol\":864:883  uint[] public votes */\n    tag_58:\n      0x05\n      dup2\n      dup2\n      sload\n      dup2\n      lt\n      tag_140\n      jumpi\n      0x00\n      dup1\n      revert\n    tag_140:\n      swap1\n      0x00\n      mstore\n      keccak256(0x00, 0x20)\n      add\n      0x00\n      swap2\n      pop\n      swap1\n      pop\n      sload\n      dup2\n      jump\t// out\n        /* \"Poll.sol\":832:857  string public description */\n    tag_62:\n      0x04\n      dup1\n      sload\n      tag_142\n      swap1\n      tag_118\n      jump\t// in\n    tag_142:\n      dup1\n      0x1f\n      add\n      0x20\n      dup1\n      swap2\n      div\n      mul\n      0x20\n      add\n      mload(0x40)\n      swap1\n      dup2\n      add\n      0x40\n      mstore\n      dup1\n      swap3\n      swap2\n      swap1\n      dup2\n      dup2\n      mstore\n      0x20\n      add\n      dup3\n      dup1\n      sload\n      tag_143\n      swap1\n      tag_118\n      jump\t// in\n    tag_143:\n      dup1\n      iszero\n      tag_144\n      jumpi\n      dup1\n      0x1f\n      lt\n      tag_145\n      jumpi\n      0x0100\n      dup1\n      dup4\n      sload\n      div\n      mul\n      dup4\n      mstore\n      swap2\n      0x20\n      add\n      swap2\n      jump(tag_144)\n    tag_145:\n      dup3\n      add\n      swap2\n      swap1\n      0x00\n      mstore\n      keccak256(0x00, 0x20)\n      swap1\n    tag_146:\n      dup2\n      sload\n      dup2\n      mstore\n      swap1\n      0x01\n      add\n      swap1\n      0x20\n      add\n      dup1\n      dup4\n      gt\n      tag_146\n      jumpi\n      dup3\n      swap1\n      sub\n      0x1f\n      and\n      dup3\n      add\n      swap2\n    tag_144:\n      pop\n      pop\n      pop\n      pop\n      pop\n      dup2\n      jump\t// out\n        /* \"Poll.sol\":1903:2331  function getWinner() public restricted {... */\n    tag_65:\n        /* \"Poll.sol\":2919:2926  manager */\n      0x07\n      0x02\n      swap1\n      sload\n      swap1\n      0x0100\n      exp\n      swap1\n      div\n      0xffffffffffffffffffffffffffffffffffffffff\n      and\n        /* \"Poll.sol\":2905:2926  msg.sender == manager */\n      0xffffffffffffffffffffffffffffffffffffffff\n      and\n        /* \"Poll.sol\":2905:2915  msg.sender */\n      caller\n        /* \"Poll.sol\":2905:2926  msg.sender == manager */\n      0xffffffffffffffffffffffffffffffffffffffff\n      and\n      eq\n        /* \"Poll.sol\":2897:2968  require(msg.sender == manager, \"Only the manager can call this method\") */\n      tag_148\n      jumpi\n      mload(0x40)\n      0x08c379a000000000000000000000000000000000000000000000000000000000\n      dup2\n      mstore\n      0x04\n      add\n      tag_149\n      swap1\n      tag_108\n      jump\t// in\n    tag_149:\n      mload(0x40)\n      dup1\n      swap2\n      sub\n      swap1\n      revert\n    tag_148:\n        /* \"Poll.sol\":1953:1964  pause(true) */\n      tag_151\n        /* \"Poll.sol\":1959:1963  true */\n      0x01\n        /* \"Poll.sol\":1953:1958  pause */\n      tag_28\n        /* \"Poll.sol\":1953:1964  pause(true) */\n      jump\t// in\n    tag_151:\n        /* \"Poll.sol\":1984:1988  true */\n      0x01\n        /* \"Poll.sol\":1975:1981  closed */\n      0x07\n      0x00\n        /* \"Poll.sol\":1975:1988  closed = true */\n      0x0100\n      exp\n      dup2\n      sload\n      dup2\n      0xff\n      mul\n      not\n      and\n      swap1\n      dup4\n      iszero\n      iszero\n      mul\n      or\n      swap1\n      sstore\n      pop\n        /* \"Poll.sol\":2001:2017  uint winnerIndex */\n      0x00\n        /* \"Poll.sol\":2032:2049  uint highestCount */\n      dup1\n        /* \"Poll.sol\":2069:2075  uint i */\n      0x00\n        /* \"Poll.sol\":2064:2251  for (uint i = 0; i < votes.length; i++) {... */\n    tag_152:\n        /* \"Poll.sol\":2085:2090  votes */\n      0x05\n        /* \"Poll.sol\":2085:2097  votes.length */\n      dup1\n      sload\n      swap1\n      pop\n        /* \"Poll.sol\":2081:2082  i */\n      dup2\n        /* \"Poll.sol\":2081:2097  i < votes.length */\n      lt\n        /* \"Poll.sol\":2064:2251  for (uint i = 0; i < votes.length; i++) {... */\n      iszero\n      tag_153\n      jumpi\n        /* \"Poll.sol\":2134:2146  highestCount */\n      dup2\n        /* \"Poll.sol\":2123:2128  votes */\n      0x05\n        /* \"Poll.sol\":2129:2130  i */\n      dup3\n        /* \"Poll.sol\":2123:2131  votes[i] */\n      dup2\n      sload\n      dup2\n      lt\n      tag_155\n      jumpi\n      tag_156\n      tag_96\n      jump\t// in\n    tag_156:\n    tag_155:\n      swap1\n      0x00\n      mstore\n      keccak256(0x00, 0x20)\n      add\n      sload\n        /* \"Poll.sol\":2123:2146  votes[i] > highestCount */\n      gt\n        /* \"Poll.sol\":2119:2240  if (votes[i] > highestCount) {... */\n      iszero\n      tag_158\n      jumpi\n        /* \"Poll.sol\":2181:2182  i */\n      dup1\n        /* \"Poll.sol\":2167:2182  winnerIndex = i */\n      swap3\n      pop\n        /* \"Poll.sol\":2216:2221  votes */\n      0x05\n        /* \"Poll.sol\":2222:2223  i */\n      dup2\n        /* \"Poll.sol\":2216:2224  votes[i] */\n      dup2\n      sload\n      dup2\n      lt\n      tag_159\n      jumpi\n      tag_160\n      tag_96\n      jump\t// in\n    tag_160:\n    tag_159:\n      swap1\n      0x00\n      mstore\n      keccak256(0x00, 0x20)\n      add\n      sload\n        /* \"Poll.sol\":2201:2224  highestCount = votes[i] */\n      swap2\n      pop\n        /* \"Poll.sol\":2119:2240  if (votes[i] > highestCount) {... */\n    tag_158:\n        /* \"Poll.sol\":2099:2102  i++ */\n      dup1\n      dup1\n      tag_162\n      swap1\n      tag_163\n      jump\t// in\n    tag_162:\n      swap2\n      pop\n      pop\n        /* \"Poll.sol\":2064:2251  for (uint i = 0; i < votes.length; i++) {... */\n      jump(tag_152)\n    tag_153:\n      pop\n        /* \"Poll.sol\":2272:2283  winnerIndex */\n      dup2\n        /* \"Poll.sol\":2263:2269  winner */\n      0x06\n        /* \"Poll.sol\":2263:2283  winner = winnerIndex */\n      dup2\n      swap1\n      sstore\n      pop\n        /* \"Poll.sol\":2301:2323  GetWinnerEvent(winner) */\n      0xc7b97e48b9227dca976a22b97e05760371f6c612bfbb22adee0ce899d8c084fc\n        /* \"Poll.sol\":2316:2322  winner */\n      sload(0x06)\n        /* \"Poll.sol\":2301:2323  GetWinnerEvent(winner) */\n      mload(0x40)\n      tag_164\n      swap2\n      swap1\n      tag_60\n      jump\t// in\n    tag_164:\n      mload(0x40)\n      dup1\n      swap2\n      sub\n      swap1\n      log1\n        /* \"Poll.sol\":1942:2331  {... */\n      pop\n      pop\n        /* \"Poll.sol\":1903:2331  function getWinner() public restricted {... */\n      jump\t// out\n        /* \"Poll.sol\":731:769  mapping (address => bool) public voted */\n    tag_69:\n      mstore(0x20, 0x01)\n      dup1\n      0x00\n      mstore\n      keccak256(0x00, 0x40)\n      0x00\n      swap2\n      pop\n      sload\n      swap1\n      0x0100\n      exp\n      swap1\n      div\n      0xff\n      and\n      dup2\n      jump\t// out\n        /* \"Poll.sol\":2339:2432  function getOptions() public view returns (string[] memory) {... */\n    tag_72:\n        /* \"Poll.sol\":2382:2397  string[] memory */\n      0x60\n        /* \"Poll.sol\":2417:2424  options */\n      0x02\n        /* \"Poll.sol\":2410:2424  return options */\n      dup1\n      sload\n      dup1\n      0x20\n      mul\n      0x20\n      add\n      mload(0x40)\n      swap1\n      dup2\n      add\n      0x40\n      mstore\n      dup1\n      swap3\n      swap2\n      swap1\n      dup2\n      dup2\n      mstore\n      0x20\n      add\n      0x00\n      swap1\n    tag_166:\n      dup3\n      dup3\n      lt\n      iszero\n      tag_167\n      jumpi\n      dup4\n      dup3\n      swap1\n      0x00\n      mstore\n      keccak256(0x00, 0x20)\n      add\n      dup1\n      sload\n      tag_169\n      swap1\n      tag_118\n      jump\t// in\n    tag_169:\n      dup1\n      0x1f\n      add\n      0x20\n      dup1\n      swap2\n      div\n      mul\n      0x20\n      add\n      mload(0x40)\n      swap1\n      dup2\n      add\n      0x40\n      mstore\n      dup1\n      swap3\n      swap2\n      swap1\n      dup2\n      dup2\n      mstore\n      0x20\n      add\n      dup3\n      dup1\n      sload\n      tag_170\n      swap1\n      tag_118\n      jump\t// in\n    tag_170:\n      dup1\n      iszero\n      tag_171\n      jumpi\n      dup1\n      0x1f\n      lt\n      tag_172\n      jumpi\n      0x0100\n      dup1\n      dup4\n      sload\n      div\n      mul\n      dup4\n      mstore\n      swap2\n      0x20\n      add\n      swap2\n      jump(tag_171)\n    tag_172:\n      dup3\n      add\n      swap2\n      swap1\n      0x00\n      mstore\n      keccak256(0x00, 0x20)\n      swap1\n    tag_173:\n      dup2\n      sload\n      dup2\n      mstore\n      swap1\n      0x01\n      add\n      swap1\n      0x20\n      add\n      dup1\n      dup4\n      gt\n      tag_173\n      jumpi\n      dup3\n      swap1\n      sub\n      0x1f\n      and\n      dup3\n      add\n      swap2\n    tag_171:\n      pop\n      pop\n      pop\n      pop\n      pop\n      dup2\n      mstore\n      0x20\n      add\n      swap1\n      0x01\n      add\n      swap1\n      jump(tag_166)\n    tag_167:\n      pop\n      pop\n      pop\n      pop\n      swap1\n      pop\n        /* \"Poll.sol\":2339:2432  function getOptions() public view returns (string[] memory) {... */\n      swap1\n      jump\t// out\n        /* \"Poll.sol\":890:908  uint public winner */\n    tag_76:\n      sload(0x06)\n      dup2\n      jump\t// out\n        /* \"#utility.yul\":88:205   */\n    tag_175:\n        /* \"#utility.yul\":197:198   */\n      0x00\n        /* \"#utility.yul\":194:195   */\n      dup1\n        /* \"#utility.yul\":187:199   */\n      revert\n        /* \"#utility.yul\":334:411   */\n    tag_177:\n        /* \"#utility.yul\":371:378   */\n      0x00\n        /* \"#utility.yul\":400:405   */\n      dup2\n        /* \"#utility.yul\":389:405   */\n      swap1\n      pop\n        /* \"#utility.yul\":334:411   */\n      swap2\n      swap1\n      pop\n      jump\t// out\n        /* \"#utility.yul\":417:539   */\n    tag_178:\n        /* \"#utility.yul\":490:514   */\n      tag_227\n        /* \"#utility.yul\":508:513   */\n      dup2\n        /* \"#utility.yul\":490:514   */\n      tag_177\n      jump\t// in\n    tag_227:\n        /* \"#utility.yul\":483:488   */\n      dup2\n        /* \"#utility.yul\":480:515   */\n      eq\n        /* \"#utility.yul\":470:533   */\n      tag_228\n      jumpi\n        /* \"#utility.yul\":529:530   */\n      0x00\n        /* \"#utility.yul\":526:527   */\n      dup1\n        /* \"#utility.yul\":519:531   */\n      revert\n        /* \"#utility.yul\":470:533   */\n    tag_228:\n        /* \"#utility.yul\":417:539   */\n      pop\n      jump\t// out\n        /* \"#utility.yul\":545:684   */\n    tag_179:\n        /* \"#utility.yul\":591:596   */\n      0x00\n        /* \"#utility.yul\":629:635   */\n      dup2\n        /* \"#utility.yul\":616:636   */\n      calldataload\n        /* \"#utility.yul\":607:636   */\n      swap1\n      pop\n        /* \"#utility.yul\":645:678   */\n      tag_230\n        /* \"#utility.yul\":672:677   */\n      dup2\n        /* \"#utility.yul\":645:678   */\n      tag_178\n      jump\t// in\n    tag_230:\n        /* \"#utility.yul\":545:684   */\n      swap3\n      swap2\n      pop\n      pop\n      jump\t// out\n        /* \"#utility.yul\":690:1019   */\n    tag_23:\n        /* \"#utility.yul\":749:755   */\n      0x00\n        /* \"#utility.yul\":798:800   */\n      0x20\n        /* \"#utility.yul\":786:795   */\n      dup3\n        /* \"#utility.yul\":777:784   */\n      dup5\n        /* \"#utility.yul\":773:796   */\n      sub\n        /* \"#utility.yul\":769:801   */\n      slt\n        /* \"#utility.yul\":766:885   */\n      iszero\n      tag_232\n      jumpi\n        /* \"#utility.yul\":804:883   */\n      tag_233\n      tag_175\n      jump\t// in\n    tag_233:\n        /* \"#utility.yul\":766:885   */\n    tag_232:\n        /* \"#utility.yul\":924:925   */\n      0x00\n        /* \"#utility.yul\":949:1002   */\n      tag_234\n        /* \"#utility.yul\":994:1001   */\n      dup5\n        /* \"#utility.yul\":985:991   */\n      dup3\n        /* \"#utility.yul\":974:983   */\n      dup6\n        /* \"#utility.yul\":970:992   */\n      add\n        /* \"#utility.yul\":949:1002   */\n      tag_179\n      jump\t// in\n    tag_234:\n        /* \"#utility.yul\":939:1002   */\n      swap2\n      pop\n        /* \"#utility.yul\":895:1012   */\n      pop\n        /* \"#utility.yul\":690:1019   */\n      swap3\n      swap2\n      pop\n      pop\n      jump\t// out\n        /* \"#utility.yul\":1025:1115   */\n    tag_180:\n        /* \"#utility.yul\":1059:1066   */\n      0x00\n        /* \"#utility.yul\":1102:1107   */\n      dup2\n        /* \"#utility.yul\":1095:1108   */\n      iszero\n        /* \"#utility.yul\":1088:1109   */\n      iszero\n        /* \"#utility.yul\":1077:1109   */\n      swap1\n      pop\n        /* \"#utility.yul\":1025:1115   */\n      swap2\n      swap1\n      pop\n      jump\t// out\n        /* \"#utility.yul\":1121:1237   */\n    tag_181:\n        /* \"#utility.yul\":1191:1212   */\n      tag_237\n        /* \"#utility.yul\":1206:1211   */\n      dup2\n        /* \"#utility.yul\":1191:1212   */\n      tag_180\n      jump\t// in\n    tag_237:\n        /* \"#utility.yul\":1184:1189   */\n      dup2\n        /* \"#utility.yul\":1181:1213   */\n      eq\n        /* \"#utility.yul\":1171:1231   */\n      tag_238\n      jumpi\n        /* \"#utility.yul\":1227:1228   */\n      0x00\n        /* \"#utility.yul\":1224:1225   */\n      dup1\n        /* \"#utility.yul\":1217:1229   */\n      revert\n        /* \"#utility.yul\":1171:1231   */\n    tag_238:\n        /* \"#utility.yul\":1121:1237   */\n      pop\n      jump\t// out\n        /* \"#utility.yul\":1243:1376   */\n    tag_182:\n        /* \"#utility.yul\":1286:1291   */\n      0x00\n        /* \"#utility.yul\":1324:1330   */\n      dup2\n        /* \"#utility.yul\":1311:1331   */\n      calldataload\n        /* \"#utility.yul\":1302:1331   */\n      swap1\n      pop\n        /* \"#utility.yul\":1340:1370   */\n      tag_240\n        /* \"#utility.yul\":1364:1369   */\n      dup2\n        /* \"#utility.yul\":1340:1370   */\n      tag_181\n      jump\t// in\n    tag_240:\n        /* \"#utility.yul\":1243:1376   */\n      swap3\n      swap2\n      pop\n      pop\n      jump\t// out\n        /* \"#utility.yul\":1382:1705   */\n    tag_27:\n        /* \"#utility.yul\":1438:1444   */\n      0x00\n        /* \"#utility.yul\":1487:1489   */\n      0x20\n        /* \"#utility.yul\":1475:1484   */\n      dup3\n        /* \"#utility.yul\":1466:1473   */\n      dup5\n        /* \"#utility.yul\":1462:1485   */\n      sub\n        /* \"#utility.yul\":1458:1490   */\n      slt\n        /* \"#utility.yul\":1455:1574   */\n      iszero\n      tag_242\n      jumpi\n        /* \"#utility.yul\":1493:1572   */\n      tag_243\n      tag_175\n      jump\t// in\n    tag_243:\n        /* \"#utility.yul\":1455:1574   */\n    tag_242:\n        /* \"#utility.yul\":1613:1614   */\n      0x00\n        /* \"#utility.yul\":1638:1688   */\n      tag_244\n        /* \"#utility.yul\":1680:1687   */\n      dup5\n        /* \"#utility.yul\":1671:1677   */\n      dup3\n        /* \"#utility.yul\":1660:1669   */\n      dup6\n        /* \"#utility.yul\":1656:1678   */\n      add\n        /* \"#utility.yul\":1638:1688   */\n      tag_182\n      jump\t// in\n    tag_244:\n        /* \"#utility.yul\":1628:1688   */\n      swap2\n      pop\n        /* \"#utility.yul\":1584:1698   */\n      pop\n        /* \"#utility.yul\":1382:1705   */\n      swap3\n      swap2\n      pop\n      pop\n      jump\t// out\n        /* \"#utility.yul\":1711:1825   */\n    tag_183:\n        /* \"#utility.yul\":1778:1784   */\n      0x00\n        /* \"#utility.yul\":1812:1817   */\n      dup2\n        /* \"#utility.yul\":1806:1818   */\n      mload\n        /* \"#utility.yul\":1796:1818   */\n      swap1\n      pop\n        /* \"#utility.yul\":1711:1825   */\n      swap2\n      swap1\n      pop\n      jump\t// out\n        /* \"#utility.yul\":1831:2015   */\n    tag_184:\n        /* \"#utility.yul\":1930:1941   */\n      0x00\n        /* \"#utility.yul\":1964:1970   */\n      dup3\n        /* \"#utility.yul\":1959:1962   */\n      dup3\n        /* \"#utility.yul\":1952:1971   */\n      mstore\n        /* \"#utility.yul\":2004:2008   */\n      0x20\n        /* \"#utility.yul\":1999:2002   */\n      dup3\n        /* \"#utility.yul\":1995:2009   */\n      add\n        /* \"#utility.yul\":1980:2009   */\n      swap1\n      pop\n        /* \"#utility.yul\":1831:2015   */\n      swap3\n      swap2\n      pop\n      pop\n      jump\t// out\n        /* \"#utility.yul\":2021:2153   */\n    tag_185:\n        /* \"#utility.yul\":2088:2092   */\n      0x00\n        /* \"#utility.yul\":2111:2114   */\n      dup2\n        /* \"#utility.yul\":2103:2114   */\n      swap1\n      pop\n        /* \"#utility.yul\":2141:2145   */\n      0x20\n        /* \"#utility.yul\":2136:2139   */\n      dup3\n        /* \"#utility.yul\":2132:2146   */\n      add\n        /* \"#utility.yul\":2124:2146   */\n      swap1\n      pop\n        /* \"#utility.yul\":2021:2153   */\n      swap2\n      swap1\n      pop\n      jump\t// out\n        /* \"#utility.yul\":2159:2267   */\n    tag_186:\n        /* \"#utility.yul\":2236:2260   */\n      tag_249\n        /* \"#utility.yul\":2254:2259   */\n      dup2\n        /* \"#utility.yul\":2236:2260   */\n      tag_177\n      jump\t// in\n    tag_249:\n        /* \"#utility.yul\":2231:2234   */\n      dup3\n        /* \"#utility.yul\":2224:2261   */\n      mstore\n        /* \"#utility.yul\":2159:2267   */\n      pop\n      pop\n      jump\t// out\n        /* \"#utility.yul\":2273:2452   */\n    tag_187:\n        /* \"#utility.yul\":2342:2352   */\n      0x00\n        /* \"#utility.yul\":2363:2409   */\n      tag_251\n        /* \"#utility.yul\":2405:2408   */\n      dup4\n        /* \"#utility.yul\":2397:2403   */\n      dup4\n        /* \"#utility.yul\":2363:2409   */\n      tag_186\n      jump\t// in\n    tag_251:\n        /* \"#utility.yul\":2441:2445   */\n      0x20\n        /* \"#utility.yul\":2436:2439   */\n      dup4\n        /* \"#utility.yul\":2432:2446   */\n      add\n        /* \"#utility.yul\":2418:2446   */\n      swap1\n      pop\n        /* \"#utility.yul\":2273:2452   */\n      swap3\n      swap2\n      pop\n      pop\n      jump\t// out\n        /* \"#utility.yul\":2458:2571   */\n    tag_188:\n        /* \"#utility.yul\":2528:2532   */\n      0x00\n        /* \"#utility.yul\":2560:2564   */\n      0x20\n        /* \"#utility.yul\":2555:2558   */\n      dup3\n        /* \"#utility.yul\":2551:2565   */\n      add\n        /* \"#utility.yul\":2543:2565   */\n      swap1\n      pop\n        /* \"#utility.yul\":2458:2571   */\n      swap2\n      swap1\n      pop\n      jump\t// out\n        /* \"#utility.yul\":2607:3339   */\n    tag_189:\n        /* \"#utility.yul\":2726:2729   */\n      0x00\n        /* \"#utility.yul\":2755:2809   */\n      tag_254\n        /* \"#utility.yul\":2803:2808   */\n      dup3\n        /* \"#utility.yul\":2755:2809   */\n      tag_183\n      jump\t// in\n    tag_254:\n        /* \"#utility.yul\":2825:2911   */\n      tag_255\n        /* \"#utility.yul\":2904:2910   */\n      dup2\n        /* \"#utility.yul\":2899:2902   */\n      dup6\n        /* \"#utility.yul\":2825:2911   */\n      tag_184\n      jump\t// in\n    tag_255:\n        /* \"#utility.yul\":2818:2911   */\n      swap4\n      pop\n        /* \"#utility.yul\":2935:2991   */\n      tag_256\n        /* \"#utility.yul\":2985:2990   */\n      dup4\n        /* \"#utility.yul\":2935:2991   */\n      tag_185\n      jump\t// in\n    tag_256:\n        /* \"#utility.yul\":3014:3021   */\n      dup1\n        /* \"#utility.yul\":3045:3046   */\n      0x00\n        /* \"#utility.yul\":3030:3314   */\n    tag_257:\n        /* \"#utility.yul\":3055:3061   */\n      dup4\n        /* \"#utility.yul\":3052:3053   */\n      dup2\n        /* \"#utility.yul\":3049:3062   */\n      lt\n        /* \"#utility.yul\":3030:3314   */\n      iszero\n      tag_259\n      jumpi\n        /* \"#utility.yul\":3131:3137   */\n      dup2\n        /* \"#utility.yul\":3125:3138   */\n      mload\n        /* \"#utility.yul\":3158:3221   */\n      tag_260\n        /* \"#utility.yul\":3217:3220   */\n      dup9\n        /* \"#utility.yul\":3202:3215   */\n      dup3\n        /* \"#utility.yul\":3158:3221   */\n      tag_187\n      jump\t// in\n    tag_260:\n        /* \"#utility.yul\":3151:3221   */\n      swap8\n      pop\n        /* \"#utility.yul\":3244:3304   */\n      tag_261\n        /* \"#utility.yul\":3297:3303   */\n      dup4\n        /* \"#utility.yul\":3244:3304   */\n      tag_188\n      jump\t// in\n    tag_261:\n        /* \"#utility.yul\":3234:3304   */\n      swap3\n      pop\n        /* \"#utility.yul\":3090:3314   */\n      pop\n        /* \"#utility.yul\":3077:3078   */\n      0x01\n        /* \"#utility.yul\":3074:3075   */\n      dup2\n        /* \"#utility.yul\":3070:3079   */\n      add\n        /* \"#utility.yul\":3065:3079   */\n      swap1\n      pop\n        /* \"#utility.yul\":3030:3314   */\n      jump(tag_257)\n    tag_259:\n        /* \"#utility.yul\":3034:3048   */\n      pop\n        /* \"#utility.yul\":3330:3333   */\n      dup6\n        /* \"#utility.yul\":3323:3333   */\n      swap4\n      pop\n        /* \"#utility.yul\":2731:3339   */\n      pop\n      pop\n      pop\n        /* \"#utility.yul\":2607:3339   */\n      swap3\n      swap2\n      pop\n      pop\n      jump\t// out\n        /* \"#utility.yul\":3345:3718   */\n    tag_32:\n        /* \"#utility.yul\":3488:3492   */\n      0x00\n        /* \"#utility.yul\":3526:3528   */\n      0x20\n        /* \"#utility.yul\":3515:3524   */\n      dup3\n        /* \"#utility.yul\":3511:3529   */\n      add\n        /* \"#utility.yul\":3503:3529   */\n      swap1\n      pop\n        /* \"#utility.yul\":3575:3584   */\n      dup2\n        /* \"#utility.yul\":3569:3573   */\n      dup2\n        /* \"#utility.yul\":3565:3585   */\n      sub\n        /* \"#utility.yul\":3561:3562   */\n      0x00\n        /* \"#utility.yul\":3550:3559   */\n      dup4\n        /* \"#utility.yul\":3546:3563   */\n      add\n        /* \"#utility.yul\":3539:3586   */\n      mstore\n        /* \"#utility.yul\":3603:3711   */\n      tag_263\n        /* \"#utility.yul\":3706:3710   */\n      dup2\n        /* \"#utility.yul\":3697:3703   */\n      dup5\n        /* \"#utility.yul\":3603:3711   */\n      tag_189\n      jump\t// in\n    tag_263:\n        /* \"#utility.yul\":3595:3711   */\n      swap1\n      pop\n        /* \"#utility.yul\":3345:3718   */\n      swap3\n      swap2\n      pop\n      pop\n      jump\t// out\n        /* \"#utility.yul\":3724:3833   */\n    tag_190:\n        /* \"#utility.yul\":3805:3826   */\n      tag_265\n        /* \"#utility.yul\":3820:3825   */\n      dup2\n        /* \"#utility.yul\":3805:3826   */\n      tag_180\n      jump\t// in\n    tag_265:\n        /* \"#utility.yul\":3800:3803   */\n      dup3\n        /* \"#utility.yul\":3793:3827   */\n      mstore\n        /* \"#utility.yul\":3724:3833   */\n      pop\n      pop\n      jump\t// out\n        /* \"#utility.yul\":3839:3957   */\n    tag_191:\n        /* \"#utility.yul\":3926:3950   */\n      tag_267\n        /* \"#utility.yul\":3944:3949   */\n      dup2\n        /* \"#utility.yul\":3926:3950   */\n      tag_177\n      jump\t// in\n    tag_267:\n        /* \"#utility.yul\":3921:3924   */\n      dup3\n        /* \"#utility.yul\":3914:3951   */\n      mstore\n        /* \"#utility.yul\":3839:3957   */\n      pop\n      pop\n      jump\t// out\n        /* \"#utility.yul\":3963:4062   */\n    tag_192:\n        /* \"#utility.yul\":4015:4021   */\n      0x00\n        /* \"#utility.yul\":4049:4054   */\n      dup2\n        /* \"#utility.yul\":4043:4055   */\n      mload\n        /* \"#utility.yul\":4033:4055   */\n      swap1\n      pop\n        /* \"#utility.yul\":3963:4062   */\n      swap2\n      swap1\n      pop\n      jump\t// out\n        /* \"#utility.yul\":4068:4237   */\n    tag_193:\n        /* \"#utility.yul\":4152:4163   */\n      0x00\n        /* \"#utility.yul\":4186:4192   */\n      dup3\n        /* \"#utility.yul\":4181:4184   */\n      dup3\n        /* \"#utility.yul\":4174:4193   */\n      mstore\n        /* \"#utility.yul\":4226:4230   */\n      0x20\n        /* \"#utility.yul\":4221:4224   */\n      dup3\n        /* \"#utility.yul\":4217:4231   */\n      add\n        /* \"#utility.yul\":4202:4231   */\n      swap1\n      pop\n        /* \"#utility.yul\":4068:4237   */\n      swap3\n      swap2\n      pop\n      pop\n      jump\t// out\n        /* \"#utility.yul\":4243:4550   */\n    tag_194:\n        /* \"#utility.yul\":4311:4312   */\n      0x00\n        /* \"#utility.yul\":4321:4434   */\n    tag_271:\n        /* \"#utility.yul\":4335:4341   */\n      dup4\n        /* \"#utility.yul\":4332:4333   */\n      dup2\n        /* \"#utility.yul\":4329:4342   */\n      lt\n        /* \"#utility.yul\":4321:4434   */\n      iszero\n      tag_273\n      jumpi\n        /* \"#utility.yul\":4420:4421   */\n      dup1\n        /* \"#utility.yul\":4415:4418   */\n      dup3\n        /* \"#utility.yul\":4411:4422   */\n      add\n        /* \"#utility.yul\":4405:4423   */\n      mload\n        /* \"#utility.yul\":4401:4402   */\n      dup2\n        /* \"#utility.yul\":4396:4399   */\n      dup5\n        /* \"#utility.yul\":4392:4403   */\n      add\n        /* \"#utility.yul\":4385:4424   */\n      mstore\n        /* \"#utility.yul\":4357:4359   */\n      0x20\n        /* \"#utility.yul\":4354:4355   */\n      dup2\n        /* \"#utility.yul\":4350:4360   */\n      add\n        /* \"#utility.yul\":4345:4360   */\n      swap1\n      pop\n        /* \"#utility.yul\":4321:4434   */\n      jump(tag_271)\n    tag_273:\n        /* \"#utility.yul\":4452:4458   */\n      dup4\n        /* \"#utility.yul\":4449:4450   */\n      dup2\n        /* \"#utility.yul\":4446:4459   */\n      gt\n        /* \"#utility.yul\":4443:4544   */\n      iszero\n      tag_274\n      jumpi\n        /* \"#utility.yul\":4532:4533   */\n      0x00\n        /* \"#utility.yul\":4523:4529   */\n      dup5\n        /* \"#utility.yul\":4518:4521   */\n      dup5\n        /* \"#utility.yul\":4514:4530   */\n      add\n        /* \"#utility.yul\":4507:4534   */\n      mstore\n        /* \"#utility.yul\":4443:4544   */\n    tag_274:\n        /* \"#utility.yul\":4292:4550   */\n      pop\n        /* \"#utility.yul\":4243:4550   */\n      pop\n      pop\n      pop\n      jump\t// out\n        /* \"#utility.yul\":4556:4658   */\n    tag_195:\n        /* \"#utility.yul\":4597:4603   */\n      0x00\n        /* \"#utility.yul\":4648:4650   */\n      0x1f\n        /* \"#utility.yul\":4644:4651   */\n      not\n        /* \"#utility.yul\":4639:4641   */\n      0x1f\n        /* \"#utility.yul\":4632:4637   */\n      dup4\n        /* \"#utility.yul\":4628:4642   */\n      add\n        /* \"#utility.yul\":4624:4652   */\n      and\n        /* \"#utility.yul\":4614:4652   */\n      swap1\n      pop\n        /* \"#utility.yul\":4556:4658   */\n      swap2\n      swap1\n      pop\n      jump\t// out\n        /* \"#utility.yul\":4664:5028   */\n    tag_196:\n        /* \"#utility.yul\":4752:4755   */\n      0x00\n        /* \"#utility.yul\":4780:4819   */\n      tag_277\n        /* \"#utility.yul\":4813:4818   */\n      dup3\n        /* \"#utility.yul\":4780:4819   */\n      tag_192\n      jump\t// in\n    tag_277:\n        /* \"#utility.yul\":4835:4906   */\n      tag_278\n        /* \"#utility.yul\":4899:4905   */\n      dup2\n        /* \"#utility.yul\":4894:4897   */\n      dup6\n        /* \"#utility.yul\":4835:4906   */\n      tag_193\n      jump\t// in\n    tag_278:\n        /* \"#utility.yul\":4828:4906   */\n      swap4\n      pop\n        /* \"#utility.yul\":4915:4967   */\n      tag_279\n        /* \"#utility.yul\":4960:4966   */\n      dup2\n        /* \"#utility.yul\":4955:4958   */\n      dup6\n        /* \"#utility.yul\":4948:4952   */\n      0x20\n        /* \"#utility.yul\":4941:4946   */\n      dup7\n        /* \"#utility.yul\":4937:4953   */\n      add\n        /* \"#utility.yul\":4915:4967   */\n      tag_194\n      jump\t// in\n    tag_279:\n        /* \"#utility.yul\":4992:5021   */\n      tag_280\n        /* \"#utility.yul\":5014:5020   */\n      dup2\n        /* \"#utility.yul\":4992:5021   */\n      tag_195\n      jump\t// in\n    tag_280:\n        /* \"#utility.yul\":4987:4990   */\n      dup5\n        /* \"#utility.yul\":4983:5022   */\n      add\n        /* \"#utility.yul\":4976:5022   */\n      swap2\n      pop\n        /* \"#utility.yul\":4756:5028   */\n      pop\n        /* \"#utility.yul\":4664:5028   */\n      swap3\n      swap2\n      pop\n      pop\n      jump\t// out\n        /* \"#utility.yul\":5034:5158   */\n    tag_197:\n        /* \"#utility.yul\":5111:5117   */\n      0x00\n        /* \"#utility.yul\":5145:5150   */\n      dup2\n        /* \"#utility.yul\":5139:5151   */\n      mload\n        /* \"#utility.yul\":5129:5151   */\n      swap1\n      pop\n        /* \"#utility.yul\":5034:5158   */\n      swap2\n      swap1\n      pop\n      jump\t// out\n        /* \"#utility.yul\":5164:5358   */\n    tag_198:\n        /* \"#utility.yul\":5273:5284   */\n      0x00\n        /* \"#utility.yul\":5307:5313   */\n      dup3\n        /* \"#utility.yul\":5302:5305   */\n      dup3\n        /* \"#utility.yul\":5295:5314   */\n      mstore\n        /* \"#utility.yul\":5347:5351   */\n      0x20\n        /* \"#utility.yul\":5342:5345   */\n      dup3\n        /* \"#utility.yul\":5338:5352   */\n      add\n        /* \"#utility.yul\":5323:5352   */\n      swap1\n      pop\n        /* \"#utility.yul\":5164:5358   */\n      swap3\n      swap2\n      pop\n      pop\n      jump\t// out\n        /* \"#utility.yul\":5364:5506   */\n    tag_199:\n        /* \"#utility.yul\":5441:5445   */\n      0x00\n        /* \"#utility.yul\":5464:5467   */\n      dup2\n        /* \"#utility.yul\":5456:5467   */\n      swap1\n      pop\n        /* \"#utility.yul\":5494:5498   */\n      0x20\n        /* \"#utility.yul\":5489:5492   */\n      dup3\n        /* \"#utility.yul\":5485:5499   */\n      add\n        /* \"#utility.yul\":5477:5499   */\n      swap1\n      pop\n        /* \"#utility.yul\":5364:5506   */\n      swap2\n      swap1\n      pop\n      jump\t// out\n        /* \"#utility.yul\":5512:5671   */\n    tag_200:\n        /* \"#utility.yul\":5586:5597   */\n      0x00\n        /* \"#utility.yul\":5620:5626   */\n      dup3\n        /* \"#utility.yul\":5615:5618   */\n      dup3\n        /* \"#utility.yul\":5608:5627   */\n      mstore\n        /* \"#utility.yul\":5660:5664   */\n      0x20\n        /* \"#utility.yul\":5655:5658   */\n      dup3\n        /* \"#utility.yul\":5651:5665   */\n      add\n        /* \"#utility.yul\":5636:5665   */\n      swap1\n      pop\n        /* \"#utility.yul\":5512:5671   */\n      swap3\n      swap2\n      pop\n      pop\n      jump\t// out\n        /* \"#utility.yul\":5677:6021   */\n    tag_201:\n        /* \"#utility.yul\":5755:5758   */\n      0x00\n        /* \"#utility.yul\":5783:5822   */\n      tag_286\n        /* \"#utility.yul\":5816:5821   */\n      dup3\n        /* \"#utility.yul\":5783:5822   */\n      tag_192\n      jump\t// in\n    tag_286:\n        /* \"#utility.yul\":5838:5899   */\n      tag_287\n        /* \"#utility.yul\":5892:5898   */\n      dup2\n        /* \"#utility.yul\":5887:5890   */\n      dup6\n        /* \"#utility.yul\":5838:5899   */\n      tag_200\n      jump\t// in\n    tag_287:\n        /* \"#utility.yul\":5831:5899   */\n      swap4\n      pop\n        /* \"#utility.yul\":5908:5960   */\n      tag_288\n        /* \"#utility.yul\":5953:5959   */\n      dup2\n        /* \"#utility.yul\":5948:5951   */\n      dup6\n        /* \"#utility.yul\":5941:5945   */\n      0x20\n        /* \"#utility.yul\":5934:5939   */\n      dup7\n        /* \"#utility.yul\":5930:5946   */\n      add\n        /* \"#utility.yul\":5908:5960   */\n      tag_194\n      jump\t// in\n    tag_288:\n        /* \"#utility.yul\":5985:6014   */\n      tag_289\n        /* \"#utility.yul\":6007:6013   */\n      dup2\n        /* \"#utility.yul\":5985:6014   */\n      tag_195\n      jump\t// in\n    tag_289:\n        /* \"#utility.yul\":5980:5983   */\n      dup5\n        /* \"#utility.yul\":5976:6015   */\n      add\n        /* \"#utility.yul\":5969:6015   */\n      swap2\n      pop\n        /* \"#utility.yul\":5759:6021   */\n      pop\n        /* \"#utility.yul\":5677:6021   */\n      swap3\n      swap2\n      pop\n      pop\n      jump\t// out\n        /* \"#utility.yul\":6027:6223   */\n    tag_202:\n        /* \"#utility.yul\":6116:6126   */\n      0x00\n        /* \"#utility.yul\":6151:6217   */\n      tag_291\n        /* \"#utility.yul\":6213:6216   */\n      dup4\n        /* \"#utility.yul\":6205:6211   */\n      dup4\n        /* \"#utility.yul\":6151:6217   */\n      tag_201\n      jump\t// in\n    tag_291:\n        /* \"#utility.yul\":6137:6217   */\n      swap1\n      pop\n        /* \"#utility.yul\":6027:6223   */\n      swap3\n      swap2\n      pop\n      pop\n      jump\t// out\n        /* \"#utility.yul\":6229:6352   */\n    tag_203:\n        /* \"#utility.yul\":6309:6313   */\n      0x00\n        /* \"#utility.yul\":6341:6345   */\n      0x20\n        /* \"#utility.yul\":6336:6339   */\n      dup3\n        /* \"#utility.yul\":6332:6346   */\n      add\n        /* \"#utility.yul\":6324:6346   */\n      swap1\n      pop\n        /* \"#utility.yul\":6229:6352   */\n      swap2\n      swap1\n      pop\n      jump\t// out\n        /* \"#utility.yul\":6386:7377   */\n    tag_204:\n        /* \"#utility.yul\":6525:6528   */\n      0x00\n        /* \"#utility.yul\":6554:6618   */\n      tag_294\n        /* \"#utility.yul\":6612:6617   */\n      dup3\n        /* \"#utility.yul\":6554:6618   */\n      tag_197\n      jump\t// in\n    tag_294:\n        /* \"#utility.yul\":6634:6730   */\n      tag_295\n        /* \"#utility.yul\":6723:6729   */\n      dup2\n        /* \"#utility.yul\":6718:6721   */\n      dup6\n        /* \"#utility.yul\":6634:6730   */\n      tag_198\n      jump\t// in\n    tag_295:\n        /* \"#utility.yul\":6627:6730   */\n      swap4\n      pop\n        /* \"#utility.yul\":6756:6759   */\n      dup4\n        /* \"#utility.yul\":6801:6805   */\n      0x20\n        /* \"#utility.yul\":6793:6799   */\n      dup3\n        /* \"#utility.yul\":6789:6806   */\n      mul\n        /* \"#utility.yul\":6784:6787   */\n      dup6\n        /* \"#utility.yul\":6780:6807   */\n      add\n        /* \"#utility.yul\":6831:6897   */\n      tag_296\n        /* \"#utility.yul\":6891:6896   */\n      dup6\n        /* \"#utility.yul\":6831:6897   */\n      tag_199\n      jump\t// in\n    tag_296:\n        /* \"#utility.yul\":6920:6927   */\n      dup1\n        /* \"#utility.yul\":6951:6952   */\n      0x00\n        /* \"#utility.yul\":6936:7332   */\n    tag_297:\n        /* \"#utility.yul\":6961:6967   */\n      dup6\n        /* \"#utility.yul\":6958:6959   */\n      dup2\n        /* \"#utility.yul\":6955:6968   */\n      lt\n        /* \"#utility.yul\":6936:7332   */\n      iszero\n      tag_299\n      jumpi\n        /* \"#utility.yul\":7032:7041   */\n      dup5\n        /* \"#utility.yul\":7026:7030   */\n      dup5\n        /* \"#utility.yul\":7022:7042   */\n      sub\n        /* \"#utility.yul\":7017:7020   */\n      dup10\n        /* \"#utility.yul\":7010:7043   */\n      mstore\n        /* \"#utility.yul\":7083:7089   */\n      dup2\n        /* \"#utility.yul\":7077:7090   */\n      mload\n        /* \"#utility.yul\":7111:7195   */\n      tag_300\n        /* \"#utility.yul\":7190:7194   */\n      dup6\n        /* \"#utility.yul\":7175:7188   */\n      dup3\n        /* \"#utility.yul\":7111:7195   */\n      tag_202\n      jump\t// in\n    tag_300:\n        /* \"#utility.yul\":7103:7195   */\n      swap5\n      pop\n        /* \"#utility.yul\":7218:7288   */\n      tag_301\n        /* \"#utility.yul\":7281:7287   */\n      dup4\n        /* \"#utility.yul\":7218:7288   */\n      tag_203\n      jump\t// in\n    tag_301:\n        /* \"#utility.yul\":7208:7288   */\n      swap3\n      pop\n        /* \"#utility.yul\":7317:7321   */\n      0x20\n        /* \"#utility.yul\":7312:7315   */\n      dup11\n        /* \"#utility.yul\":7308:7322   */\n      add\n        /* \"#utility.yul\":7301:7322   */\n      swap10\n      pop\n        /* \"#utility.yul\":6996:7332   */\n      pop\n        /* \"#utility.yul\":6983:6984   */\n      0x01\n        /* \"#utility.yul\":6980:6981   */\n      dup2\n        /* \"#utility.yul\":6976:6985   */\n      add\n        /* \"#utility.yul\":6971:6985   */\n      swap1\n      pop\n        /* \"#utility.yul\":6936:7332   */\n      jump(tag_297)\n    tag_299:\n        /* \"#utility.yul\":6940:6954   */\n      pop\n        /* \"#utility.yul\":7348:7352   */\n      dup3\n        /* \"#utility.yul\":7341:7352   */\n      swap8\n      pop\n        /* \"#utility.yul\":7368:7371   */\n      dup8\n        /* \"#utility.yul\":7361:7371   */\n      swap6\n      pop\n        /* \"#utility.yul\":6530:7377   */\n      pop\n      pop\n      pop\n      pop\n      pop\n        /* \"#utility.yul\":6386:7377   */\n      swap3\n      swap2\n      pop\n      pop\n      jump\t// out\n        /* \"#utility.yul\":7383:8769   */\n    tag_36:\n        /* \"#utility.yul\":7792:7796   */\n      0x00\n        /* \"#utility.yul\":7830:7833   */\n      0xe0\n        /* \"#utility.yul\":7819:7828   */\n      dup3\n        /* \"#utility.yul\":7815:7834   */\n      add\n        /* \"#utility.yul\":7807:7834   */\n      swap1\n      pop\n        /* \"#utility.yul\":7844:7909   */\n      tag_303\n        /* \"#utility.yul\":7906:7907   */\n      0x00\n        /* \"#utility.yul\":7895:7904   */\n      dup4\n        /* \"#utility.yul\":7891:7908   */\n      add\n        /* \"#utility.yul\":7882:7888   */\n      dup11\n        /* \"#utility.yul\":7844:7909   */\n      tag_190\n      jump\t// in\n    tag_303:\n        /* \"#utility.yul\":7919:7985   */\n      tag_304\n        /* \"#utility.yul\":7981:7983   */\n      0x20\n        /* \"#utility.yul\":7970:7979   */\n      dup4\n        /* \"#utility.yul\":7966:7984   */\n      add\n        /* \"#utility.yul\":7957:7963   */\n      dup10\n        /* \"#utility.yul\":7919:7985   */\n      tag_190\n      jump\t// in\n    tag_304:\n        /* \"#utility.yul\":7995:8067   */\n      tag_305\n        /* \"#utility.yul\":8063:8065   */\n      0x40\n        /* \"#utility.yul\":8052:8061   */\n      dup4\n        /* \"#utility.yul\":8048:8066   */\n      add\n        /* \"#utility.yul\":8039:8045   */\n      dup9\n        /* \"#utility.yul\":7995:8067   */\n      tag_191\n      jump\t// in\n    tag_305:\n        /* \"#utility.yul\":8114:8123   */\n      dup2\n        /* \"#utility.yul\":8108:8112   */\n      dup2\n        /* \"#utility.yul\":8104:8124   */\n      sub\n        /* \"#utility.yul\":8099:8101   */\n      0x60\n        /* \"#utility.yul\":8088:8097   */\n      dup4\n        /* \"#utility.yul\":8084:8102   */\n      add\n        /* \"#utility.yul\":8077:8125   */\n      mstore\n        /* \"#utility.yul\":8142:8220   */\n      tag_306\n        /* \"#utility.yul\":8215:8219   */\n      dup2\n        /* \"#utility.yul\":8206:8212   */\n      dup8\n        /* \"#utility.yul\":8142:8220   */\n      tag_196\n      jump\t// in\n    tag_306:\n        /* \"#utility.yul\":8134:8220   */\n      swap1\n      pop\n        /* \"#utility.yul\":8268:8277   */\n      dup2\n        /* \"#utility.yul\":8262:8266   */\n      dup2\n        /* \"#utility.yul\":8258:8278   */\n      sub\n        /* \"#utility.yul\":8252:8255   */\n      0x80\n        /* \"#utility.yul\":8241:8250   */\n      dup4\n        /* \"#utility.yul\":8237:8256   */\n      add\n        /* \"#utility.yul\":8230:8279   */\n      mstore\n        /* \"#utility.yul\":8296:8374   */\n      tag_307\n        /* \"#utility.yul\":8369:8373   */\n      dup2\n        /* \"#utility.yul\":8360:8366   */\n      dup7\n        /* \"#utility.yul\":8296:8374   */\n      tag_196\n      jump\t// in\n    tag_307:\n        /* \"#utility.yul\":8288:8374   */\n      swap1\n      pop\n        /* \"#utility.yul\":8422:8431   */\n      dup2\n        /* \"#utility.yul\":8416:8420   */\n      dup2\n        /* \"#utility.yul\":8412:8432   */\n      sub\n        /* \"#utility.yul\":8406:8409   */\n      0xa0\n        /* \"#utility.yul\":8395:8404   */\n      dup4\n        /* \"#utility.yul\":8391:8410   */\n      add\n        /* \"#utility.yul\":8384:8433   */\n      mstore\n        /* \"#utility.yul\":8450:8578   */\n      tag_308\n        /* \"#utility.yul\":8573:8577   */\n      dup2\n        /* \"#utility.yul\":8564:8570   */\n      dup6\n        /* \"#utility.yul\":8450:8578   */\n      tag_204\n      jump\t// in\n    tag_308:\n        /* \"#utility.yul\":8442:8578   */\n      swap1\n      pop\n        /* \"#utility.yul\":8626:8635   */\n      dup2\n        /* \"#utility.yul\":8620:8624   */\n      dup2\n        /* \"#utility.yul\":8616:8636   */\n      sub\n        /* \"#utility.yul\":8610:8613   */\n      0xc0\n        /* \"#utility.yul\":8599:8608   */\n      dup4\n        /* \"#utility.yul\":8595:8614   */\n      add\n        /* \"#utility.yul\":8588:8637   */\n      mstore\n        /* \"#utility.yul\":8654:8762   */\n      tag_309\n        /* \"#utility.yul\":8757:8761   */\n      dup2\n        /* \"#utility.yul\":8748:8754   */\n      dup5\n        /* \"#utility.yul\":8654:8762   */\n      tag_189\n      jump\t// in\n    tag_309:\n        /* \"#utility.yul\":8646:8762   */\n      swap1\n      pop\n        /* \"#utility.yul\":7383:8769   */\n      swap9\n      swap8\n      pop\n      pop\n      pop\n      pop\n      pop\n      pop\n      pop\n      pop\n      jump\t// out\n        /* \"#utility.yul\":8775:9088   */\n    tag_41:\n        /* \"#utility.yul\":8888:8892   */\n      0x00\n        /* \"#utility.yul\":8926:8928   */\n      0x20\n        /* \"#utility.yul\":8915:8924   */\n      dup3\n        /* \"#utility.yul\":8911:8929   */\n      add\n        /* \"#utility.yul\":8903:8929   */\n      swap1\n      pop\n        /* \"#utility.yul\":8975:8984   */\n      dup2\n        /* \"#utility.yul\":8969:8973   */\n      dup2\n        /* \"#utility.yul\":8965:8985   */\n      sub\n        /* \"#utility.yul\":8961:8962   */\n      0x00\n        /* \"#utility.yul\":8950:8959   */\n      dup4\n        /* \"#utility.yul\":8946:8963   */\n      add\n        /* \"#utility.yul\":8939:8986   */\n      mstore\n        /* \"#utility.yul\":9003:9081   */\n      tag_311\n        /* \"#utility.yul\":9076:9080   */\n      dup2\n        /* \"#utility.yul\":9067:9073   */\n      dup5\n        /* \"#utility.yul\":9003:9081   */\n      tag_196\n      jump\t// in\n    tag_311:\n        /* \"#utility.yul\":8995:9081   */\n      swap1\n      pop\n        /* \"#utility.yul\":8775:9088   */\n      swap3\n      swap2\n      pop\n      pop\n      jump\t// out\n        /* \"#utility.yul\":9094:9220   */\n    tag_205:\n        /* \"#utility.yul\":9131:9138   */\n      0x00\n        /* \"#utility.yul\":9171:9213   */\n      0xffffffffffffffffffffffffffffffffffffffff\n        /* \"#utility.yul\":9164:9169   */\n      dup3\n        /* \"#utility.yul\":9160:9214   */\n      and\n        /* \"#utility.yul\":9149:9214   */\n      swap1\n      pop\n        /* \"#utility.yul\":9094:9220   */\n      swap2\n      swap1\n      pop\n      jump\t// out\n        /* \"#utility.yul\":9226:9322   */\n    tag_206:\n        /* \"#utility.yul\":9263:9270   */\n      0x00\n        /* \"#utility.yul\":9292:9316   */\n      tag_314\n        /* \"#utility.yul\":9310:9315   */\n      dup3\n        /* \"#utility.yul\":9292:9316   */\n      tag_205\n      jump\t// in\n    tag_314:\n        /* \"#utility.yul\":9281:9316   */\n      swap1\n      pop\n        /* \"#utility.yul\":9226:9322   */\n      swap2\n      swap1\n      pop\n      jump\t// out\n        /* \"#utility.yul\":9328:9446   */\n    tag_207:\n        /* \"#utility.yul\":9415:9439   */\n      tag_316\n        /* \"#utility.yul\":9433:9438   */\n      dup2\n        /* \"#utility.yul\":9415:9439   */\n      tag_206\n      jump\t// in\n    tag_316:\n        /* \"#utility.yul\":9410:9413   */\n      dup3\n        /* \"#utility.yul\":9403:9440   */\n      mstore\n        /* \"#utility.yul\":9328:9446   */\n      pop\n      pop\n      jump\t// out\n        /* \"#utility.yul\":9452:9674   */\n    tag_45:\n        /* \"#utility.yul\":9545:9549   */\n      0x00\n        /* \"#utility.yul\":9583:9585   */\n      0x20\n        /* \"#utility.yul\":9572:9581   */\n      dup3\n        /* \"#utility.yul\":9568:9586   */\n      add\n        /* \"#utility.yul\":9560:9586   */\n      swap1\n      pop\n        /* \"#utility.yul\":9596:9667   */\n      tag_318\n        /* \"#utility.yul\":9664:9665   */\n      0x00\n        /* \"#utility.yul\":9653:9662   */\n      dup4\n        /* \"#utility.yul\":9649:9666   */\n      add\n        /* \"#utility.yul\":9640:9646   */\n      dup5\n        /* \"#utility.yul\":9596:9667   */\n      tag_207\n      jump\t// in\n    tag_318:\n        /* \"#utility.yul\":9452:9674   */\n      swap3\n      swap2\n      pop\n      pop\n      jump\t// out\n        /* \"#utility.yul\":9680:9890   */\n    tag_52:\n        /* \"#utility.yul\":9767:9771   */\n      0x00\n        /* \"#utility.yul\":9805:9807   */\n      0x20\n        /* \"#utility.yul\":9794:9803   */\n      dup3\n        /* \"#utility.yul\":9790:9808   */\n      add\n        /* \"#utility.yul\":9782:9808   */\n      swap1\n      pop\n        /* \"#utility.yul\":9818:9883   */\n      tag_320\n        /* \"#utility.yul\":9880:9881   */\n      0x00\n        /* \"#utility.yul\":9869:9878   */\n      dup4\n        /* \"#utility.yul\":9865:9882   */\n      add\n        /* \"#utility.yul\":9856:9862   */\n      dup5\n        /* \"#utility.yul\":9818:9883   */\n      tag_190\n      jump\t// in\n    tag_320:\n        /* \"#utility.yul\":9680:9890   */\n      swap3\n      swap2\n      pop\n      pop\n      jump\t// out\n        /* \"#utility.yul\":9896:10118   */\n    tag_60:\n        /* \"#utility.yul\":9989:9993   */\n      0x00\n        /* \"#utility.yul\":10027:10029   */\n      0x20\n        /* \"#utility.yul\":10016:10025   */\n      dup3\n        /* \"#utility.yul\":10012:10030   */\n      add\n        /* \"#utility.yul\":10004:10030   */\n      swap1\n      pop\n        /* \"#utility.yul\":10040:10111   */\n      tag_322\n        /* \"#utility.yul\":10108:10109   */\n      0x00\n        /* \"#utility.yul\":10097:10106   */\n      dup4\n        /* \"#utility.yul\":10093:10110   */\n      add\n        /* \"#utility.yul\":10084:10090   */\n      dup5\n        /* \"#utility.yul\":10040:10111   */\n      tag_191\n      jump\t// in\n    tag_322:\n        /* \"#utility.yul\":9896:10118   */\n      swap3\n      swap2\n      pop\n      pop\n      jump\t// out\n        /* \"#utility.yul\":10124:10246   */\n    tag_208:\n        /* \"#utility.yul\":10197:10221   */\n      tag_324\n        /* \"#utility.yul\":10215:10220   */\n      dup2\n        /* \"#utility.yul\":10197:10221   */\n      tag_206\n      jump\t// in\n    tag_324:\n        /* \"#utility.yul\":10190:10195   */\n      dup2\n        /* \"#utility.yul\":10187:10222   */\n      eq\n        /* \"#utility.yul\":10177:10240   */\n      tag_325\n      jumpi\n        /* \"#utility.yul\":10236:10237   */\n      0x00\n        /* \"#utility.yul\":10233:10234   */\n      dup1\n        /* \"#utility.yul\":10226:10238   */\n      revert\n        /* \"#utility.yul\":10177:10240   */\n    tag_325:\n        /* \"#utility.yul\":10124:10246   */\n      pop\n      jump\t// out\n        /* \"#utility.yul\":10252:10391   */\n    tag_209:\n        /* \"#utility.yul\":10298:10303   */\n      0x00\n        /* \"#utility.yul\":10336:10342   */\n      dup2\n        /* \"#utility.yul\":10323:10343   */\n      calldataload\n        /* \"#utility.yul\":10314:10343   */\n      swap1\n      pop\n        /* \"#utility.yul\":10352:10385   */\n      tag_327\n        /* \"#utility.yul\":10379:10384   */\n      dup2\n        /* \"#utility.yul\":10352:10385   */\n      tag_208\n      jump\t// in\n    tag_327:\n        /* \"#utility.yul\":10252:10391   */\n      swap3\n      swap2\n      pop\n      pop\n      jump\t// out\n        /* \"#utility.yul\":10397:10726   */\n    tag_68:\n        /* \"#utility.yul\":10456:10462   */\n      0x00\n        /* \"#utility.yul\":10505:10507   */\n      0x20\n        /* \"#utility.yul\":10493:10502   */\n      dup3\n        /* \"#utility.yul\":10484:10491   */\n      dup5\n        /* \"#utility.yul\":10480:10503   */\n      sub\n        /* \"#utility.yul\":10476:10508   */\n      slt\n        /* \"#utility.yul\":10473:10592   */\n      iszero\n      tag_329\n      jumpi\n        /* \"#utility.yul\":10511:10590   */\n      tag_330\n      tag_175\n      jump\t// in\n    tag_330:\n        /* \"#utility.yul\":10473:10592   */\n    tag_329:\n        /* \"#utility.yul\":10631:10632   */\n      0x00\n        /* \"#utility.yul\":10656:10709   */\n      tag_331\n        /* \"#utility.yul\":10701:10708   */\n      dup5\n        /* \"#utility.yul\":10692:10698   */\n      dup3\n        /* \"#utility.yul\":10681:10690   */\n      dup6\n        /* \"#utility.yul\":10677:10699   */\n      add\n        /* \"#utility.yul\":10656:10709   */\n      tag_209\n      jump\t// in\n    tag_331:\n        /* \"#utility.yul\":10646:10709   */\n      swap2\n      pop\n        /* \"#utility.yul\":10602:10719   */\n      pop\n        /* \"#utility.yul\":10397:10726   */\n      swap3\n      swap2\n      pop\n      pop\n      jump\t// out\n        /* \"#utility.yul\":10732:11145   */\n    tag_74:\n        /* \"#utility.yul\":10895:10899   */\n      0x00\n        /* \"#utility.yul\":10933:10935   */\n      0x20\n        /* \"#utility.yul\":10922:10931   */\n      dup3\n        /* \"#utility.yul\":10918:10936   */\n      add\n        /* \"#utility.yul\":10910:10936   */\n      swap1\n      pop\n        /* \"#utility.yul\":10982:10991   */\n      dup2\n        /* \"#utility.yul\":10976:10980   */\n      dup2\n        /* \"#utility.yul\":10972:10992   */\n      sub\n        /* \"#utility.yul\":10968:10969   */\n      0x00\n        /* \"#utility.yul\":10957:10966   */\n      dup4\n        /* \"#utility.yul\":10953:10970   */\n      add\n        /* \"#utility.yul\":10946:10993   */\n      mstore\n        /* \"#utility.yul\":11010:11138   */\n      tag_333\n        /* \"#utility.yul\":11133:11137   */\n      dup2\n        /* \"#utility.yul\":11124:11130   */\n      dup5\n        /* \"#utility.yul\":11010:11138   */\n      tag_204\n      jump\t// in\n    tag_333:\n        /* \"#utility.yul\":11002:11138   */\n      swap1\n      pop\n        /* \"#utility.yul\":10732:11145   */\n      swap3\n      swap2\n      pop\n      pop\n      jump\t// out\n        /* \"#utility.yul\":11151:11288   */\n    tag_210:\n        /* \"#utility.yul\":11205:11210   */\n      0x00\n        /* \"#utility.yul\":11236:11242   */\n      dup2\n        /* \"#utility.yul\":11230:11243   */\n      mload\n        /* \"#utility.yul\":11221:11243   */\n      swap1\n      pop\n        /* \"#utility.yul\":11252:11282   */\n      tag_335\n        /* \"#utility.yul\":11276:11281   */\n      dup2\n        /* \"#utility.yul\":11252:11282   */\n      tag_181\n      jump\t// in\n    tag_335:\n        /* \"#utility.yul\":11151:11288   */\n      swap3\n      swap2\n      pop\n      pop\n      jump\t// out\n        /* \"#utility.yul\":11294:11639   */\n    tag_83:\n        /* \"#utility.yul\":11361:11367   */\n      0x00\n        /* \"#utility.yul\":11410:11412   */\n      0x20\n        /* \"#utility.yul\":11398:11407   */\n      dup3\n        /* \"#utility.yul\":11389:11396   */\n      dup5\n        /* \"#utility.yul\":11385:11408   */\n      sub\n        /* \"#utility.yul\":11381:11413   */\n      slt\n        /* \"#utility.yul\":11378:11497   */\n      iszero\n      tag_337\n      jumpi\n        /* \"#utility.yul\":11416:11495   */\n      tag_338\n      tag_175\n      jump\t// in\n    tag_338:\n        /* \"#utility.yul\":11378:11497   */\n    tag_337:\n        /* \"#utility.yul\":11536:11537   */\n      0x00\n        /* \"#utility.yul\":11561:11622   */\n      tag_339\n        /* \"#utility.yul\":11614:11621   */\n      dup5\n        /* \"#utility.yul\":11605:11611   */\n      dup3\n        /* \"#utility.yul\":11594:11603   */\n      dup6\n        /* \"#utility.yul\":11590:11612   */\n      add\n        /* \"#utility.yul\":11561:11622   */\n      tag_210\n      jump\t// in\n    tag_339:\n        /* \"#utility.yul\":11551:11622   */\n      swap2\n      pop\n        /* \"#utility.yul\":11507:11632   */\n      pop\n        /* \"#utility.yul\":11294:11639   */\n      swap3\n      swap2\n      pop\n      pop\n      jump\t// out\n        /* \"#utility.yul\":11645:11823   */\n    tag_211:\n        /* \"#utility.yul\":11785:11815   */\n      0x546869732061646472657373206973206e6f7420766572696669656400000000\n        /* \"#utility.yul\":11781:11782   */\n      0x00\n        /* \"#utility.yul\":11773:11779   */\n      dup3\n        /* \"#utility.yul\":11769:11783   */\n      add\n        /* \"#utility.yul\":11762:11816   */\n      mstore\n        /* \"#utility.yul\":11645:11823   */\n      pop\n      jump\t// out\n        /* \"#utility.yul\":11829:12195   */\n    tag_212:\n        /* \"#utility.yul\":11971:11974   */\n      0x00\n        /* \"#utility.yul\":11992:12059   */\n      tag_342\n        /* \"#utility.yul\":12056:12058   */\n      0x1c\n        /* \"#utility.yul\":12051:12054   */\n      dup4\n        /* \"#utility.yul\":11992:12059   */\n      tag_193\n      jump\t// in\n    tag_342:\n        /* \"#utility.yul\":11985:12059   */\n      swap2\n      pop\n        /* \"#utility.yul\":12068:12161   */\n      tag_343\n        /* \"#utility.yul\":12157:12160   */\n      dup3\n        /* \"#utility.yul\":12068:12161   */\n      tag_211\n      jump\t// in\n    tag_343:\n        /* \"#utility.yul\":12186:12188   */\n      0x20\n        /* \"#utility.yul\":12181:12184   */\n      dup3\n        /* \"#utility.yul\":12177:12189   */\n      add\n        /* \"#utility.yul\":12170:12189   */\n      swap1\n      pop\n        /* \"#utility.yul\":11829:12195   */\n      swap2\n      swap1\n      pop\n      jump\t// out\n        /* \"#utility.yul\":12201:12620   */\n    tag_86:\n        /* \"#utility.yul\":12367:12371   */\n      0x00\n        /* \"#utility.yul\":12405:12407   */\n      0x20\n        /* \"#utility.yul\":12394:12403   */\n      dup3\n        /* \"#utility.yul\":12390:12408   */\n      add\n        /* \"#utility.yul\":12382:12408   */\n      swap1\n      pop\n        /* \"#utility.yul\":12454:12463   */\n      dup2\n        /* \"#utility.yul\":12448:12452   */\n      dup2\n        /* \"#utility.yul\":12444:12464   */\n      sub\n        /* \"#utility.yul\":12440:12441   */\n      0x00\n        /* \"#utility.yul\":12429:12438   */\n      dup4\n        /* \"#utility.yul\":12425:12442   */\n      add\n        /* \"#utility.yul\":12418:12465   */\n      mstore\n        /* \"#utility.yul\":12482:12613   */\n      tag_345\n        /* \"#utility.yul\":12608:12612   */\n      dup2\n        /* \"#utility.yul\":12482:12613   */\n      tag_212\n      jump\t// in\n    tag_345:\n        /* \"#utility.yul\":12474:12613   */\n      swap1\n      pop\n        /* \"#utility.yul\":12201:12620   */\n      swap2\n      swap1\n      pop\n      jump\t// out\n        /* \"#utility.yul\":12626:12805   */\n    tag_213:\n        /* \"#utility.yul\":12766:12797   */\n      0x5468697320706f6c6c2069732063757272656e746c7920636c6f736564000000\n        /* \"#utility.yul\":12762:12763   */\n      0x00\n        /* \"#utility.yul\":12754:12760   */\n      dup3\n        /* \"#utility.yul\":12750:12764   */\n      add\n        /* \"#utility.yul\":12743:12798   */\n      mstore\n        /* \"#utility.yul\":12626:12805   */\n      pop\n      jump\t// out\n        /* \"#utility.yul\":12811:13177   */\n    tag_214:\n        /* \"#utility.yul\":12953:12956   */\n      0x00\n        /* \"#utility.yul\":12974:13041   */\n      tag_348\n        /* \"#utility.yul\":13038:13040   */\n      0x1d\n        /* \"#utility.yul\":13033:13036   */\n      dup4\n        /* \"#utility.yul\":12974:13041   */\n      tag_193\n      jump\t// in\n    tag_348:\n        /* \"#utility.yul\":12967:13041   */\n      swap2\n      pop\n        /* \"#utility.yul\":13050:13143   */\n      tag_349\n        /* \"#utility.yul\":13139:13142   */\n      dup3\n        /* \"#utility.yul\":13050:13143   */\n      tag_213\n      jump\t// in\n    tag_349:\n        /* \"#utility.yul\":13168:13170   */\n      0x20\n        /* \"#utility.yul\":13163:13166   */\n      dup3\n        /* \"#utility.yul\":13159:13171   */\n      add\n        /* \"#utility.yul\":13152:13171   */\n      swap1\n      pop\n        /* \"#utility.yul\":12811:13177   */\n      swap2\n      swap1\n      pop\n      jump\t// out\n        /* \"#utility.yul\":13183:13602   */\n    tag_90:\n        /* \"#utility.yul\":13349:13353   */\n      0x00\n        /* \"#utility.yul\":13387:13389   */\n      0x20\n        /* \"#utility.yul\":13376:13385   */\n      dup3\n        /* \"#utility.yul\":13372:13390   */\n      add\n        /* \"#utility.yul\":13364:13390   */\n      swap1\n      pop\n        /* \"#utility.yul\":13436:13445   */\n      dup2\n        /* \"#utility.yul\":13430:13434   */\n      dup2\n        /* \"#utility.yul\":13426:13446   */\n      sub\n        /* \"#utility.yul\":13422:13423   */\n      0x00\n        /* \"#utility.yul\":13411:13420   */\n      dup4\n        /* \"#utility.yul\":13407:13424   */\n      add\n        /* \"#utility.yul\":13400:13447   */\n      mstore\n        /* \"#utility.yul\":13464:13595   */\n      tag_351\n        /* \"#utility.yul\":13590:13594   */\n      dup2\n        /* \"#utility.yul\":13464:13595   */\n      tag_214\n      jump\t// in\n    tag_351:\n        /* \"#utility.yul\":13456:13595   */\n      swap1\n      pop\n        /* \"#utility.yul\":13183:13602   */\n      swap2\n      swap1\n      pop\n      jump\t// out\n        /* \"#utility.yul\":13608:13784   */\n    tag_215:\n        /* \"#utility.yul\":13748:13776   */\n      0x54686973206164647265737320616c726561647920766f746564000000000000\n        /* \"#utility.yul\":13744:13745   */\n      0x00\n        /* \"#utility.yul\":13736:13742   */\n      dup3\n        /* \"#utility.yul\":13732:13746   */\n      add\n        /* \"#utility.yul\":13725:13777   */\n      mstore\n        /* \"#utility.yul\":13608:13784   */\n      pop\n      jump\t// out\n        /* \"#utility.yul\":13790:14156   */\n    tag_216:\n        /* \"#utility.yul\":13932:13935   */\n      0x00\n        /* \"#utility.yul\":13953:14020   */\n      tag_354\n        /* \"#utility.yul\":14017:14019   */\n      0x1a\n        /* \"#utility.yul\":14012:14015   */\n      dup4\n        /* \"#utility.yul\":13953:14020   */\n      tag_193\n      jump\t// in\n    tag_354:\n        /* \"#utility.yul\":13946:14020   */\n      swap2\n      pop\n        /* \"#utility.yul\":14029:14122   */\n      tag_355\n        /* \"#utility.yul\":14118:14121   */\n      dup3\n        /* \"#utility.yul\":14029:14122   */\n      tag_215\n      jump\t// in\n    tag_355:\n        /* \"#utility.yul\":14147:14149   */\n      0x20\n        /* \"#utility.yul\":14142:14145   */\n      dup3\n        /* \"#utility.yul\":14138:14150   */\n      add\n        /* \"#utility.yul\":14131:14150   */\n      swap1\n      pop\n        /* \"#utility.yul\":13790:14156   */\n      swap2\n      swap1\n      pop\n      jump\t// out\n        /* \"#utility.yul\":14162:14581   */\n    tag_93:\n        /* \"#utility.yul\":14328:14332   */\n      0x00\n        /* \"#utility.yul\":14366:14368   */\n      0x20\n        /* \"#utility.yul\":14355:14364   */\n      dup3\n        /* \"#utility.yul\":14351:14369   */\n      add\n        /* \"#utility.yul\":14343:14369   */\n      swap1\n      pop\n        /* \"#utility.yul\":14415:14424   */\n      dup2\n        /* \"#utility.yul\":14409:14413   */\n      dup2\n        /* \"#utility.yul\":14405:14425   */\n      sub\n        /* \"#utility.yul\":14401:14402   */\n      0x00\n        /* \"#utility.yul\":14390:14399   */\n      dup4\n        /* \"#utility.yul\":14386:14403   */\n      add\n        /* \"#utility.yul\":14379:14426   */\n      mstore\n        /* \"#utility.yul\":14443:14574   */\n      tag_357\n        /* \"#utility.yul\":14569:14573   */\n      dup2\n        /* \"#utility.yul\":14443:14574   */\n      tag_216\n      jump\t// in\n    tag_357:\n        /* \"#utility.yul\":14435:14574   */\n      swap1\n      pop\n        /* \"#utility.yul\":14162:14581   */\n      swap2\n      swap1\n      pop\n      jump\t// out\n        /* \"#utility.yul\":14587:14767   */\n    tag_96:\n        /* \"#utility.yul\":14635:14712   */\n      0x4e487b7100000000000000000000000000000000000000000000000000000000\n        /* \"#utility.yul\":14632:14633   */\n      0x00\n        /* \"#utility.yul\":14625:14713   */\n      mstore\n        /* \"#utility.yul\":14732:14736   */\n      0x32\n        /* \"#utility.yul\":14729:14730   */\n      0x04\n        /* \"#utility.yul\":14722:14737   */\n      mstore\n        /* \"#utility.yul\":14756:14760   */\n      0x24\n        /* \"#utility.yul\":14753:14754   */\n      0x00\n        /* \"#utility.yul\":14746:14761   */\n      revert\n        /* \"#utility.yul\":14773:14953   */\n    tag_217:\n        /* \"#utility.yul\":14821:14898   */\n      0x4e487b7100000000000000000000000000000000000000000000000000000000\n        /* \"#utility.yul\":14818:14819   */\n      0x00\n        /* \"#utility.yul\":14811:14899   */\n      mstore\n        /* \"#utility.yul\":14918:14922   */\n      0x11\n        /* \"#utility.yul\":14915:14916   */\n      0x04\n        /* \"#utility.yul\":14908:14923   */\n      mstore\n        /* \"#utility.yul\":14942:14946   */\n      0x24\n        /* \"#utility.yul\":14939:14940   */\n      0x00\n        /* \"#utility.yul\":14932:14947   */\n      revert\n        /* \"#utility.yul\":14959:15264   */\n    tag_99:\n        /* \"#utility.yul\":14999:15002   */\n      0x00\n        /* \"#utility.yul\":15018:15038   */\n      tag_361\n        /* \"#utility.yul\":15036:15037   */\n      dup3\n        /* \"#utility.yul\":15018:15038   */\n      tag_177\n      jump\t// in\n    tag_361:\n        /* \"#utility.yul\":15013:15038   */\n      swap2\n      pop\n        /* \"#utility.yul\":15052:15072   */\n      tag_362\n        /* \"#utility.yul\":15070:15071   */\n      dup4\n        /* \"#utility.yul\":15052:15072   */\n      tag_177\n      jump\t// in\n    tag_362:\n        /* \"#utility.yul\":15047:15072   */\n      swap3\n      pop\n        /* \"#utility.yul\":15206:15207   */\n      dup3\n        /* \"#utility.yul\":15138:15204   */\n      0xffffffffffffffffffffffffffffffffffffffffffffffffffffffffffffffff\n        /* \"#utility.yul\":15134:15208   */\n      sub\n        /* \"#utility.yul\":15131:15132   */\n      dup3\n        /* \"#utility.yul\":15128:15209   */\n      gt\n        /* \"#utility.yul\":15125:15232   */\n      iszero\n      tag_363\n      jumpi\n        /* \"#utility.yul\":15212:15230   */\n      tag_364\n      tag_217\n      jump\t// in\n    tag_364:\n        /* \"#utility.yul\":15125:15232   */\n    tag_363:\n        /* \"#utility.yul\":15256:15257   */\n      dup3\n        /* \"#utility.yul\":15253:15254   */\n      dup3\n        /* \"#utility.yul\":15249:15258   */\n      add\n        /* \"#utility.yul\":15242:15258   */\n      swap1\n      pop\n        /* \"#utility.yul\":14959:15264   */\n      swap3\n      swap2\n      pop\n      pop\n      jump\t// out\n        /* \"#utility.yul\":15270:15602   */\n    tag_104:\n        /* \"#utility.yul\":15391:15395   */\n      0x00\n        /* \"#utility.yul\":15429:15431   */\n      0x40\n        /* \"#utility.yul\":15418:15427   */\n      dup3\n        /* \"#utility.yul\":15414:15432   */\n      add\n        /* \"#utility.yul\":15406:15432   */\n      swap1\n      pop\n        /* \"#utility.yul\":15442:15513   */\n      tag_366\n        /* \"#utility.yul\":15510:15511   */\n      0x00\n        /* \"#utility.yul\":15499:15508   */\n      dup4\n        /* \"#utility.yul\":15495:15512   */\n      add\n        /* \"#utility.yul\":15486:15492   */\n      dup6\n        /* \"#utility.yul\":15442:15513   */\n      tag_191\n      jump\t// in\n    tag_366:\n        /* \"#utility.yul\":15523:15595   */\n      tag_367\n        /* \"#utility.yul\":15591:15593   */\n      0x20\n        /* \"#utility.yul\":15580:15589   */\n      dup4\n        /* \"#utility.yul\":15576:15594   */\n      add\n        /* \"#utility.yul\":15567:15573   */\n      dup5\n        /* \"#utility.yul\":15523:15595   */\n      tag_191\n      jump\t// in\n    tag_367:\n        /* \"#utility.yul\":15270:15602   */\n      swap4\n      swap3\n      pop\n      pop\n      pop\n      jump\t// out\n        /* \"#utility.yul\":15608:15832   */\n    tag_218:\n        /* \"#utility.yul\":15748:15782   */\n      0x4f6e6c7920746865206d616e616765722063616e2063616c6c2074686973206d\n        /* \"#utility.yul\":15744:15745   */\n      0x00\n        /* \"#utility.yul\":15736:15742   */\n      dup3\n        /* \"#utility.yul\":15732:15746   */\n      add\n        /* \"#utility.yul\":15725:15783   */\n      mstore\n        /* \"#utility.yul\":15817:15824   */\n      0x6574686f64000000000000000000000000000000000000000000000000000000\n        /* \"#utility.yul\":15812:15814   */\n      0x20\n        /* \"#utility.yul\":15804:15810   */\n      dup3\n        /* \"#utility.yul\":15800:15815   */\n      add\n        /* \"#utility.yul\":15793:15825   */\n      mstore\n        /* \"#utility.yul\":15608:15832   */\n      pop\n      jump\t// out\n        /* \"#utility.yul\":15838:16204   */\n    tag_219:\n        /* \"#utility.yul\":15980:15983   */\n      0x00\n        /* \"#utility.yul\":16001:16068   */\n      tag_370\n        /* \"#utility.yul\":16065:16067   */\n      0x25\n        /* \"#utility.yul\":16060:16063   */\n      dup4\n        /* \"#utility.yul\":16001:16068   */\n      tag_193\n      jump\t// in\n    tag_370:\n        /* \"#utility.yul\":15994:16068   */\n      swap2\n      pop\n        /* \"#utility.yul\":16077:16170   */\n      tag_371\n        /* \"#utility.yul\":16166:16169   */\n      dup3\n        /* \"#utility.yul\":16077:16170   */\n      tag_218\n      jump\t// in\n    tag_371:\n        /* \"#utility.yul\":16195:16197   */\n      0x40\n        /* \"#utility.yul\":16190:16193   */\n      dup3\n        /* \"#utility.yul\":16186:16198   */\n      add\n        /* \"#utility.yul\":16179:16198   */\n      swap1\n      pop\n        /* \"#utility.yul\":15838:16204   */\n      swap2\n      swap1\n      pop\n      jump\t// out\n        /* \"#utility.yul\":16210:16629   */\n    tag_108:\n        /* \"#utility.yul\":16376:16380   */\n      0x00\n        /* \"#utility.yul\":16414:16416   */\n      0x20\n        /* \"#utility.yul\":16403:16412   */\n      dup3\n        /* \"#utility.yul\":16399:16417   */\n      add\n        /* \"#utility.yul\":16391:16417   */\n      swap1\n      pop\n        /* \"#utility.yul\":16463:16472   */\n      dup2\n        /* \"#utility.yul\":16457:16461   */\n      dup2\n        /* \"#utility.yul\":16453:16473   */\n      sub\n        /* \"#utility.yul\":16449:16450   */\n      0x00\n        /* \"#utility.yul\":16438:16447   */\n      dup4\n        /* \"#utility.yul\":16434:16451   */\n      add\n        /* \"#utility.yul\":16427:16474   */\n      mstore\n        /* \"#utility.yul\":16491:16622   */\n      tag_373\n        /* \"#utility.yul\":16617:16621   */\n      dup2\n        /* \"#utility.yul\":16491:16622   */\n      tag_219\n      jump\t// in\n    tag_373:\n        /* \"#utility.yul\":16483:16622   */\n      swap1\n      pop\n        /* \"#utility.yul\":16210:16629   */\n      swap2\n      swap1\n      pop\n      jump\t// out\n        /* \"#utility.yul\":16635:16815   */\n    tag_220:\n        /* \"#utility.yul\":16683:16760   */\n      0x4e487b7100000000000000000000000000000000000000000000000000000000\n        /* \"#utility.yul\":16680:16681   */\n      0x00\n        /* \"#utility.yul\":16673:16761   */\n      mstore\n        /* \"#utility.yul\":16780:16784   */\n      0x22\n        /* \"#utility.yul\":16777:16778   */\n      0x04\n        /* \"#utility.yul\":16770:16785   */\n      mstore\n        /* \"#utility.yul\":16804:16808   */\n      0x24\n        /* \"#utility.yul\":16801:16802   */\n      0x00\n        /* \"#utility.yul\":16794:16809   */\n      revert\n        /* \"#utility.yul\":16821:17141   */\n    tag_118:\n        /* \"#utility.yul\":16865:16871   */\n      0x00\n        /* \"#utility.yul\":16902:16903   */\n      0x02\n        /* \"#utility.yul\":16896:16900   */\n      dup3\n        /* \"#utility.yul\":16892:16904   */\n      div\n        /* \"#utility.yul\":16882:16904   */\n      swap1\n      pop\n        /* \"#utility.yul\":16949:16950   */\n      0x01\n        /* \"#utility.yul\":16943:16947   */\n      dup3\n        /* \"#utility.yul\":16939:16951   */\n      and\n        /* \"#utility.yul\":16970:16988   */\n      dup1\n        /* \"#utility.yul\":16960:17041   */\n      tag_376\n      jumpi\n        /* \"#utility.yul\":17026:17030   */\n      0x7f\n        /* \"#utility.yul\":17018:17024   */\n      dup3\n        /* \"#utility.yul\":17014:17031   */\n      and\n        /* \"#utility.yul\":17004:17031   */\n      swap2\n      pop\n        /* \"#utility.yul\":16960:17041   */\n    tag_376:\n        /* \"#utility.yul\":17088:17090   */\n      0x20\n        /* \"#utility.yul\":17080:17086   */\n      dup3\n        /* \"#utility.yul\":17077:17091   */\n      lt\n        /* \"#utility.yul\":17057:17075   */\n      dup2\n        /* \"#utility.yul\":17054:17092   */\n      eq\n        /* \"#utility.yul\":17051:17135   */\n      iszero\n      tag_377\n      jumpi\n        /* \"#utility.yul\":17107:17125   */\n      tag_378\n      tag_220\n      jump\t// in\n    tag_378:\n        /* \"#utility.yul\":17051:17135   */\n    tag_377:\n        /* \"#utility.yul\":16872:17141   */\n      pop\n        /* \"#utility.yul\":16821:17141   */\n      swap2\n      swap1\n      pop\n      jump\t// out\n        /* \"#utility.yul\":17147:17380   */\n    tag_163:\n        /* \"#utility.yul\":17186:17189   */\n      0x00\n        /* \"#utility.yul\":17209:17233   */\n      tag_380\n        /* \"#utility.yul\":17227:17232   */\n      dup3\n        /* \"#utility.yul\":17209:17233   */\n      tag_177\n      jump\t// in\n    tag_380:\n        /* \"#utility.yul\":17200:17233   */\n      swap2\n      pop\n        /* \"#utility.yul\":17255:17321   */\n      0xffffffffffffffffffffffffffffffffffffffffffffffffffffffffffffffff\n        /* \"#utility.yul\":17248:17253   */\n      dup3\n        /* \"#utility.yul\":17245:17322   */\n      eq\n        /* \"#utility.yul\":17242:17345   */\n      iszero\n      tag_381\n      jumpi\n        /* \"#utility.yul\":17325:17343   */\n      tag_382\n      tag_217\n      jump\t// in\n    tag_382:\n        /* \"#utility.yul\":17242:17345   */\n    tag_381:\n        /* \"#utility.yul\":17372:17373   */\n      0x01\n        /* \"#utility.yul\":17365:17370   */\n      dup3\n        /* \"#utility.yul\":17361:17374   */\n      add\n        /* \"#utility.yul\":17354:17374   */\n      swap1\n      pop\n        /* \"#utility.yul\":17147:17380   */\n      swap2\n      swap1\n      pop\n      jump\t// out\n\n    auxdata: 0xa26469706673582212201ac84667f63246f6f7d2f77b52dd8c0f1f144cc7bab2ca8eac943652607dee7d64736f6c634300080b0033\n}\n",
    "bytecode": {
      "linkReferences": {},
      "object": "60806040523480156200001157600080fd5b5060405162001dc638038062001dc6833981810160405281019062000037919062000692565b84600760026101000a81548173ffffffffffffffffffffffffffffffffffffffff021916908373ffffffffffffffffffffffffffffffffffffffff16021790555083600390805190602001906200009092919062000178565b508260049080519060200190620000a992919062000178565b508160029080519060200190620000c292919062000209565b5060028054905067ffffffffffffffff811115620000e557620000e4620003e3565b5b604051908082528060200260200182016040528015620001145781602001602082028036833780820191505090505b50600590805190602001906200012c92919062000270565b50806000806101000a81548173ffffffffffffffffffffffffffffffffffffffff021916908373ffffffffffffffffffffffffffffffffffffffff1602179055505050505050620007dc565b8280546200018690620007a6565b90600052602060002090601f016020900481019282620001aa5760008555620001f6565b82601f10620001c557805160ff1916838001178555620001f6565b82800160010185558215620001f6579182015b82811115620001f5578251825591602001919060010190620001d8565b5b509050620002059190620002c2565b5090565b8280548282559060005260206000209081019282156200025d579160200282015b828111156200025c5782518290805190602001906200024b92919062000178565b50916020019190600101906200022a565b5b5090506200026c9190620002e1565b5090565b828054828255906000526020600020908101928215620002af579160200282015b82811115620002ae57825182559160200191906001019062000291565b5b509050620002be9190620002c2565b5090565b5b80821115620002dd576000816000905550600101620002c3565b5090565b5b80821115620003055760008181620002fb919062000309565b50600101620002e2565b5090565b5080546200031790620007a6565b6000825580601f106200032b57506200034c565b601f0160209004906000526020600020908101906200034b9190620002c2565b5b50565b6000604051905090565b600080fd5b600080fd5b600073ffffffffffffffffffffffffffffffffffffffff82169050919050565b6000620003908262000363565b9050919050565b620003a28162000383565b8114620003ae57600080fd5b50565b600081519050620003c28162000397565b92915050565b600080fd5b600080fd5b6000601f19601f8301169050919050565b7f4e487b7100000000000000000000000000000000000000000000000000000000600052604160045260246000fd5b6200041d82620003d2565b810181811067ffffffffffffffff821117156200043f576200043e620003e3565b5b80604052505050565b6000620004546200034f565b905062000462828262000412565b919050565b600067ffffffffffffffff821115620004855762000484620003e3565b5b6200049082620003d2565b9050602081019050919050565b60005b83811015620004bd578082015181840152602081019050620004a0565b83811115620004cd576000848401525b50505050565b6000620004ea620004e48462000467565b62000448565b905082815260208101848484011115620005095762000508620003cd565b5b620005168482856200049d565b509392505050565b600082601f830112620005365762000535620003c8565b5b815162000548848260208601620004d3565b91505092915050565b600067ffffffffffffffff8211156200056f576200056e620003e3565b5b602082029050602081019050919050565b600080fd5b60006200059c620005968462000551565b62000448565b90508083825260208201905060208402830185811115620005c257620005c162000580565b5b835b818110156200061057805167ffffffffffffffff811115620005eb57620005ea620003c8565b5b808601620005fa89826200051e565b85526020850194505050602081019050620005c4565b5050509392505050565b600082601f830112620006325762000631620003c8565b5b81516200064484826020860162000585565b91505092915050565b60006200065a8262000383565b9050919050565b6200066c816200064d565b81146200067857600080fd5b50565b6000815190506200068c8162000661565b92915050565b600080600080600060a08688031215620006b157620006b062000359565b5b6000620006c188828901620003b1565b955050602086015167ffffffffffffffff811115620006e557620006e46200035e565b5b620006f3888289016200051e565b945050604086015167ffffffffffffffff8111156200071757620007166200035e565b5b62000725888289016200051e565b935050606086015167ffffffffffffffff8111156200074957620007486200035e565b5b62000757888289016200061a565b92505060806200076a888289016200067b565b9150509295509295909350565b7f4e487b7100000000000000000000000000000000000000000000000000000000600052602260045260246000fd5b60006002820490506001821680620007bf57607f821691505b60208210811415620007d657620007d562000777565b5b50919050565b6115da80620007ec6000396000f3fe608060405234801561001057600080fd5b50600436106100f55760003560e01c8063597e1fb5116100975780638e7ea5b2116100665780638e7ea5b21461026a578063aec2ccae14610274578063cc2ee196146102a4578063dfbf53ae146102c2576100f5565b8063597e1fb5146101e05780635c975abb146101fe5780635df813301461021c5780637284e4161461024c576100f5565b80634051ddac116100d35780634051ddac14610150578063409e220514610174578063481c6a75146101a45780634a79d50c146101c2576100f5565b80630121b93f146100fa57806302329a29146101165780630dc9601514610132575b600080fd5b610114600480360381019061010f9190610d16565b6102e0565b005b610130600480360381019061012b9190610d7b565b61057d565b005b61013a610670565b6040516101479190610e66565b60405180910390f35b6101586106c8565b60405161016b979695949392919061104b565b60405180910390f35b61018e60048036038101906101899190610d16565b610839565b60405161019b91906110d6565b60405180910390f35b6101ac6108e5565b6040516101b99190611139565b60405180910390f35b6101ca61090b565b6040516101d791906110d6565b60405180910390f35b6101e8610999565b6040516101f59190611154565b60405180910390f35b6102066109ac565b6040516102139190611154565b60405180910390f35b61023660048036038101906102319190610d16565b6109bf565b604051610243919061116f565b60405180910390f35b6102546109e3565b60405161026191906110d6565b60405180910390f35b610272610a71565b005b61028e600480360381019061028991906111b6565b610bdc565b60405161029b9190611154565b60405180910390f35b6102ac610bfc565b6040516102b991906111e3565b60405180910390f35b6102ca610cd5565b6040516102d7919061116f565b60405180910390f35b60008054906101000a900473ffffffffffffffffffffffffffffffffffffffff1673ffffffffffffffffffffffffffffffffffffffff1663a3ec138d336040518263ffffffff1660e01b81526004016103399190611139565b602060405180830381865afa158015610356573d6000803e3d6000fd5b505050506040513d601f19601f8201168201806040525081019061037a919061121a565b6103b9576040517f08c379a00000000000000000000000000000000000000000000000000000000081526004016103b090611293565b60405180910390fd5b600760009054906101000a900460ff1615610409576040517f08c379a0000000000000000000000000000000000000000000000000000000008152600401610400906112ff565b60405180910390fd5b600160003373ffffffffffffffffffffffffffffffffffffffff1673ffffffffffffffffffffffffffffffffffffffff16815260200190815260200160002060009054906101000a900460ff1615610496576040517f08c379a000000000000000000000000000000000000000000000000000000000815260040161048d9061136b565b60405180910390fd5b6001600582815481106104ac576104ab61138b565b5b9060005260206000200160008282546104c591906113e9565b9250508190555060018060003373ffffffffffffffffffffffffffffffffffffffff1673ffffffffffffffffffffffffffffffffffffffff16815260200190815260200160002060006101000a81548160ff0219169083151502179055507fd193833848b675d858c4a3354369c7ff9a3cf48d9f9fbbf0882944b88ff6859181600583815481106105595761055861138b565b5b906000526020600020015460405161057292919061143f565b60405180910390a150565b600760029054906101000a900473ffffffffffffffffffffffffffffffffffffffff1673ffffffffffffffffffffffffffffffffffffffff163373ffffffffffffffffffffffffffffffffffffffff161461060d576040517f08c379a0000000000000000000000000000000000000000000000000000000008152600401610604906114da565b60405180910390fd5b80600760016101000a81548160ff0219169083151502179055507f10e1c3fcaff06b68391033547e8f9bb8067d7c4a2e32659b0629153814d242d3600760019054906101000a900460ff166040516106659190611154565b60405180910390a150565b606060058054806020026020016040519081016040528092919081815260200182805480156106be57602002820191906000526020600020905b8154815260200190600101908083116106aa575b5050505050905090565b6000806000606080606080600760019054906101000a900460ff16600760009054906101000a900460ff1660065460036004610702610bfc565b61070a610670565b83805461071690611529565b80601f016020809104026020016040519081016040528092919081815260200182805461074290611529565b801561078f5780601f106107645761010080835404028352916020019161078f565b820191906000526020600020905b81548152906001019060200180831161077257829003601f168201915b505050505093508280546107a290611529565b80601f01602080910402602001604051908101604052809291908181526020018280546107ce90611529565b801561081b5780601f106107f05761010080835404028352916020019161081b565b820191906000526020600020905b8154815290600101906020018083116107fe57829003601f168201915b50505050509250965096509650965096509650965090919293949596565b6002818154811061084957600080fd5b90600052602060002001600091509050805461086490611529565b80601f016020809104026020016040519081016040528092919081815260200182805461089090611529565b80156108dd5780601f106108b2576101008083540402835291602001916108dd565b820191906000526020600020905b8154815290600101906020018083116108c057829003601f168201915b505050505081565b600760029054906101000a900473ffffffffffffffffffffffffffffffffffffffff1681565b6003805461091890611529565b80601f016020809104026020016040519081016040528092919081815260200182805461094490611529565b80156109915780601f1061096657610100808354040283529160200191610991565b820191906000526020600020905b81548152906001019060200180831161097457829003601f168201915b505050505081565b600760009054906101000a900460ff1681565b600760019054906101000a900460ff1681565b600581815481106109cf57600080fd5b906000526020600020016000915090505481565b600480546109f090611529565b80601f0160208091040260200160405190810160405280929190818152602001828054610a1c90611529565b8015610a695780601f10610a3e57610100808354040283529160200191610a69565b820191906000526020600020905b815481529060010190602001808311610a4c57829003601f168201915b505050505081565b600760029054906101000a900473ffffffffffffffffffffffffffffffffffffffff1673ffffffffffffffffffffffffffffffffffffffff163373ffffffffffffffffffffffffffffffffffffffff1614610b01576040517f08c379a0000000000000000000000000000000000000000000000000000000008152600401610af8906114da565b60405180910390fd5b610b0b600161057d565b6001600760006101000a81548160ff02191690831515021790555060008060005b600580549050811015610b97578160058281548110610b4e57610b4d61138b565b5b90600052602060002001541115610b845780925060058181548110610b7657610b7561138b565b5b906000526020600020015491505b8080610b8f9061155b565b915050610b2c565b50816006819055507fc7b97e48b9227dca976a22b97e05760371f6c612bfbb22adee0ce899d8c084fc600654604051610bd0919061116f565b60405180910390a15050565b60016020528060005260406000206000915054906101000a900460ff1681565b60606002805480602002602001604051908101604052809291908181526020016000905b82821015610ccc578382906000526020600020018054610c3f90611529565b80601f0160208091040260200160405190810160405280929190818152602001828054610c6b90611529565b8015610cb85780601f10610c8d57610100808354040283529160200191610cb8565b820191906000526020600020905b815481529060010190602001808311610c9b57829003601f168201915b505050505081526020019060010190610c20565b50505050905090565b60065481565b600080fd5b6000819050919050565b610cf381610ce0565b8114610cfe57600080fd5b50565b600081359050610d1081610cea565b92915050565b600060208284031215610d2c57610d2b610cdb565b5b6000610d3a84828501610d01565b91505092915050565b60008115159050919050565b610d5881610d43565b8114610d6357600080fd5b50565b600081359050610d7581610d4f565b92915050565b600060208284031215610d9157610d90610cdb565b5b6000610d9f84828501610d66565b91505092915050565b600081519050919050565b600082825260208201905092915050565b6000819050602082019050919050565b610ddd81610ce0565b82525050565b6000610def8383610dd4565b60208301905092915050565b6000602082019050919050565b6000610e1382610da8565b610e1d8185610db3565b9350610e2883610dc4565b8060005b83811015610e59578151610e408882610de3565b9750610e4b83610dfb565b925050600181019050610e2c565b5085935050505092915050565b60006020820190508181036000830152610e808184610e08565b905092915050565b610e9181610d43565b82525050565b610ea081610ce0565b82525050565b600081519050919050565b600082825260208201905092915050565b60005b83811015610ee0578082015181840152602081019050610ec5565b83811115610eef576000848401525b50505050565b6000601f19601f8301169050919050565b6000610f1182610ea6565b610f1b8185610eb1565b9350610f2b818560208601610ec2565b610f3481610ef5565b840191505092915050565b600081519050919050565b600082825260208201905092915050565b6000819050602082019050919050565b600082825260208201905092915050565b6000610f8782610ea6565b610f918185610f6b565b9350610fa1818560208601610ec2565b610faa81610ef5565b840191505092915050565b6000610fc18383610f7c565b905092915050565b6000602082019050919050565b6000610fe182610f3f565b610feb8185610f4a565b935083602082028501610ffd85610f5b565b8060005b85811015611039578484038952815161101a8582610fb5565b945061102583610fc9565b925060208a01995050600181019050611001565b50829750879550505050505092915050565b600060e082019050611060600083018a610e88565b61106d6020830189610e88565b61107a6040830188610e97565b818103606083015261108c8187610f06565b905081810360808301526110a08186610f06565b905081810360a08301526110b48185610fd6565b905081810360c08301526110c88184610e08565b905098975050505050505050565b600060208201905081810360008301526110f08184610f06565b905092915050565b600073ffffffffffffffffffffffffffffffffffffffff82169050919050565b6000611123826110f8565b9050919050565b61113381611118565b82525050565b600060208201905061114e600083018461112a565b92915050565b60006020820190506111696000830184610e88565b92915050565b60006020820190506111846000830184610e97565b92915050565b61119381611118565b811461119e57600080fd5b50565b6000813590506111b08161118a565b92915050565b6000602082840312156111cc576111cb610cdb565b5b60006111da848285016111a1565b91505092915050565b600060208201905081810360008301526111fd8184610fd6565b905092915050565b60008151905061121481610d4f565b92915050565b6000602082840312156112305761122f610cdb565b5b600061123e84828501611205565b91505092915050565b7f546869732061646472657373206973206e6f7420766572696669656400000000600082015250565b600061127d601c83610eb1565b915061128882611247565b602082019050919050565b600060208201905081810360008301526112ac81611270565b9050919050565b7f5468697320706f6c6c2069732063757272656e746c7920636c6f736564000000600082015250565b60006112e9601d83610eb1565b91506112f4826112b3565b602082019050919050565b60006020820190508181036000830152611318816112dc565b9050919050565b7f54686973206164647265737320616c726561647920766f746564000000000000600082015250565b6000611355601a83610eb1565b91506113608261131f565b602082019050919050565b6000602082019050818103600083015261138481611348565b9050919050565b7f4e487b7100000000000000000000000000000000000000000000000000000000600052603260045260246000fd5b7f4e487b7100000000000000000000000000000000000000000000000000000000600052601160045260246000fd5b60006113f482610ce0565b91506113ff83610ce0565b9250827fffffffffffffffffffffffffffffffffffffffffffffffffffffffffffffffff03821115611434576114336113ba565b5b828201905092915050565b60006040820190506114546000830185610e97565b6114616020830184610e97565b9392505050565b7f4f6e6c7920746865206d616e616765722063616e2063616c6c2074686973206d60008201527f6574686f64000000000000000000000000000000000000000000000000000000602082015250565b60006114c4602583610eb1565b91506114cf82611468565b604082019050919050565b600060208201905081810360008301526114f3816114b7565b9050919050565b7f4e487b7100000000000000000000000000000000000000000000000000000000600052602260045260246000fd5b6000600282049050600182168061154157607f821691505b60208210811415611555576115546114fa565b5b50919050565b600061156682610ce0565b91507fffffffffffffffffffffffffffffffffffffffffffffffffffffffffffffffff821415611599576115986113ba565b5b60018201905091905056fea26469706673582212201ac84667f63246f6f7d2f77b52dd8c0f1f144cc7bab2ca8eac943652607dee7d64736f6c634300080b0033",
      "opcodes": "PUSH1 0x80 PUSH1 0x40 MSTORE CALLVALUE DUP1 ISZERO PUSH3 0x11 JUMPI PUSH1 0x0 DUP1 REVERT JUMPDEST POP PUSH1 0x40 MLOAD PUSH3 0x1DC6 CODESIZE SUB DUP1 PUSH3 0x1DC6 DUP4 CODECOPY DUP2 DUP2 ADD PUSH1 0x40 MSTORE DUP2 ADD SWAP1 PUSH3 0x37 SWAP2 SWAP1 PUSH3 0x692 JUMP JUMPDEST DUP5 PUSH1 0x7 PUSH1 0x2 PUSH2 0x100 EXP DUP2 SLOAD DUP2 PUSH20 0xFFFFFFFFFFFFFFFFFFFFFFFFFFFFFFFFFFFFFFFF MUL NOT AND SWAP1 DUP4 PUSH20 0xFFFFFFFFFFFFFFFFFFFFFFFFFFFFFFFFFFFFFFFF AND MUL OR SWAP1 SSTORE POP DUP4 PUSH1 0x3 SWAP1 DUP1 MLOAD SWAP1 PUSH1 0x20 ADD SWAP1 PUSH3 0x90 SWAP3 SWAP2 SWAP1 PUSH3 0x178 JUMP JUMPDEST POP DUP3 PUSH1 0x4 SWAP1 DUP1 MLOAD SWAP1 PUSH1 0x20 ADD SWAP1 PUSH3 0xA9 SWAP3 SWAP2 SWAP1 PUSH3 0x178 JUMP JUMPDEST POP DUP2 PUSH1 0x2 SWAP1 DUP1 MLOAD SWAP1 PUSH1 0x20 ADD SWAP1 PUSH3 0xC2 SWAP3 SWAP2 SWAP1 PUSH3 0x209 JUMP JUMPDEST POP PUSH1 0x2 DUP1 SLOAD SWAP1 POP PUSH8 0xFFFFFFFFFFFFFFFF DUP2 GT ISZERO PUSH3 0xE5 JUMPI PUSH3 0xE4 PUSH3 0x3E3 JUMP JUMPDEST JUMPDEST PUSH1 0x40 MLOAD SWAP1 DUP1 DUP3 MSTORE DUP1 PUSH1 0x20 MUL PUSH1 0x20 ADD DUP3 ADD PUSH1 0x40 MSTORE DUP1 ISZERO PUSH3 0x114 JUMPI DUP2 PUSH1 0x20 ADD PUSH1 0x20 DUP3 MUL DUP1 CALLDATASIZE DUP4 CALLDATACOPY DUP1 DUP3 ADD SWAP2 POP POP SWAP1 POP JUMPDEST POP PUSH1 0x5 SWAP1 DUP1 MLOAD SWAP1 PUSH1 0x20 ADD SWAP1 PUSH3 0x12C SWAP3 SWAP2 SWAP1 PUSH3 0x270 JUMP JUMPDEST POP DUP1 PUSH1 0x0 DUP1 PUSH2 0x100 EXP DUP2 SLOAD DUP2 PUSH20 0xFFFFFFFFFFFFFFFFFFFFFFFFFFFFFFFFFFFFFFFF MUL NOT AND SWAP1 DUP4 PUSH20 0xFFFFFFFFFFFFFFFFFFFFFFFFFFFFFFFFFFFFFFFF AND MUL OR SWAP1 SSTORE POP POP POP POP POP POP PUSH3 0x7DC JUMP JUMPDEST DUP3 DUP1 SLOAD PUSH3 0x186 SWAP1 PUSH3 0x7A6 JUMP JUMPDEST SWAP1 PUSH1 0x0 MSTORE PUSH1 0x20 PUSH1 0x0 KECCAK256 SWAP1 PUSH1 0x1F ADD PUSH1 0x20 SWAP1 DIV DUP2 ADD SWAP3 DUP3 PUSH3 0x1AA JUMPI PUSH1 0x0 DUP6 SSTORE PUSH3 0x1F6 JUMP JUMPDEST DUP3 PUSH1 0x1F LT PUSH3 0x1C5 JUMPI DUP1 MLOAD PUSH1 0xFF NOT AND DUP4 DUP1 ADD OR DUP6 SSTORE PUSH3 0x1F6 JUMP JUMPDEST DUP3 DUP1 ADD PUSH1 0x1 ADD DUP6 SSTORE DUP3 ISZERO PUSH3 0x1F6 JUMPI SWAP2 DUP3 ADD JUMPDEST DUP3 DUP2 GT ISZERO PUSH3 0x1F5 JUMPI DUP3 MLOAD DUP3 SSTORE SWAP2 PUSH1 0x20 ADD SWAP2 SWAP1 PUSH1 0x1 ADD SWAP1 PUSH3 0x1D8 JUMP JUMPDEST JUMPDEST POP SWAP1 POP PUSH3 0x205 SWAP2 SWAP1 PUSH3 0x2C2 JUMP JUMPDEST POP SWAP1 JUMP JUMPDEST DUP3 DUP1 SLOAD DUP3 DUP3 SSTORE SWAP1 PUSH1 0x0 MSTORE PUSH1 0x20 PUSH1 0x0 KECCAK256 SWAP1 DUP2 ADD SWAP3 DUP3 ISZERO PUSH3 0x25D JUMPI SWAP2 PUSH1 0x20 MUL DUP3 ADD JUMPDEST DUP3 DUP2 GT ISZERO PUSH3 0x25C JUMPI DUP3 MLOAD DUP3 SWAP1 DUP1 MLOAD SWAP1 PUSH1 0x20 ADD SWAP1 PUSH3 0x24B SWAP3 SWAP2 SWAP1 PUSH3 0x178 JUMP JUMPDEST POP SWAP2 PUSH1 0x20 ADD SWAP2 SWAP1 PUSH1 0x1 ADD SWAP1 PUSH3 0x22A JUMP JUMPDEST JUMPDEST POP SWAP1 POP PUSH3 0x26C SWAP2 SWAP1 PUSH3 0x2E1 JUMP JUMPDEST POP SWAP1 JUMP JUMPDEST DUP3 DUP1 SLOAD DUP3 DUP3 SSTORE SWAP1 PUSH1 0x0 MSTORE PUSH1 0x20 PUSH1 0x0 KECCAK256 SWAP1 DUP2 ADD SWAP3 DUP3 ISZERO PUSH3 0x2AF JUMPI SWAP2 PUSH1 0x20 MUL DUP3 ADD JUMPDEST DUP3 DUP2 GT ISZERO PUSH3 0x2AE JUMPI DUP3 MLOAD DUP3 SSTORE SWAP2 PUSH1 0x20 ADD SWAP2 SWAP1 PUSH1 0x1 ADD SWAP1 PUSH3 0x291 JUMP JUMPDEST JUMPDEST POP SWAP1 POP PUSH3 0x2BE SWAP2 SWAP1 PUSH3 0x2C2 JUMP JUMPDEST POP SWAP1 JUMP JUMPDEST JUMPDEST DUP1 DUP3 GT ISZERO PUSH3 0x2DD JUMPI PUSH1 0x0 DUP2 PUSH1 0x0 SWAP1 SSTORE POP PUSH1 0x1 ADD PUSH3 0x2C3 JUMP JUMPDEST POP SWAP1 JUMP JUMPDEST JUMPDEST DUP1 DUP3 GT ISZERO PUSH3 0x305 JUMPI PUSH1 0x0 DUP2 DUP2 PUSH3 0x2FB SWAP2 SWAP1 PUSH3 0x309 JUMP JUMPDEST POP PUSH1 0x1 ADD PUSH3 0x2E2 JUMP JUMPDEST POP SWAP1 JUMP JUMPDEST POP DUP1 SLOAD PUSH3 0x317 SWAP1 PUSH3 0x7A6 JUMP JUMPDEST PUSH1 0x0 DUP3 SSTORE DUP1 PUSH1 0x1F LT PUSH3 0x32B JUMPI POP PUSH3 0x34C JUMP JUMPDEST PUSH1 0x1F ADD PUSH1 0x20 SWAP1 DIV SWAP1 PUSH1 0x0 MSTORE PUSH1 0x20 PUSH1 0x0 KECCAK256 SWAP1 DUP2 ADD SWAP1 PUSH3 0x34B SWAP2 SWAP1 PUSH3 0x2C2 JUMP JUMPDEST JUMPDEST POP JUMP JUMPDEST PUSH1 0x0 PUSH1 0x40 MLOAD SWAP1 POP SWAP1 JUMP JUMPDEST PUSH1 0x0 DUP1 REVERT JUMPDEST PUSH1 0x0 DUP1 REVERT JUMPDEST PUSH1 0x0 PUSH20 0xFFFFFFFFFFFFFFFFFFFFFFFFFFFFFFFFFFFFFFFF DUP3 AND SWAP1 POP SWAP2 SWAP1 POP JUMP JUMPDEST PUSH1 0x0 PUSH3 0x390 DUP3 PUSH3 0x363 JUMP JUMPDEST SWAP1 POP SWAP2 SWAP1 POP JUMP JUMPDEST PUSH3 0x3A2 DUP2 PUSH3 0x383 JUMP JUMPDEST DUP2 EQ PUSH3 0x3AE JUMPI PUSH1 0x0 DUP1 REVERT JUMPDEST POP JUMP JUMPDEST PUSH1 0x0 DUP2 MLOAD SWAP1 POP PUSH3 0x3C2 DUP2 PUSH3 0x397 JUMP JUMPDEST SWAP3 SWAP2 POP POP JUMP JUMPDEST PUSH1 0x0 DUP1 REVERT JUMPDEST PUSH1 0x0 DUP1 REVERT JUMPDEST PUSH1 0x0 PUSH1 0x1F NOT PUSH1 0x1F DUP4 ADD AND SWAP1 POP SWAP2 SWAP1 POP JUMP JUMPDEST PUSH32 0x4E487B7100000000000000000000000000000000000000000000000000000000 PUSH1 0x0 MSTORE PUSH1 0x41 PUSH1 0x4 MSTORE PUSH1 0x24 PUSH1 0x0 REVERT JUMPDEST PUSH3 0x41D DUP3 PUSH3 0x3D2 JUMP JUMPDEST DUP2 ADD DUP2 DUP2 LT PUSH8 0xFFFFFFFFFFFFFFFF DUP3 GT OR ISZERO PUSH3 0x43F JUMPI PUSH3 0x43E PUSH3 0x3E3 JUMP JUMPDEST JUMPDEST DUP1 PUSH1 0x40 MSTORE POP POP POP JUMP JUMPDEST PUSH1 0x0 PUSH3 0x454 PUSH3 0x34F JUMP JUMPDEST SWAP1 POP PUSH3 0x462 DUP3 DUP3 PUSH3 0x412 JUMP JUMPDEST SWAP2 SWAP1 POP JUMP JUMPDEST PUSH1 0x0 PUSH8 0xFFFFFFFFFFFFFFFF DUP3 GT ISZERO PUSH3 0x485 JUMPI PUSH3 0x484 PUSH3 0x3E3 JUMP JUMPDEST JUMPDEST PUSH3 0x490 DUP3 PUSH3 0x3D2 JUMP JUMPDEST SWAP1 POP PUSH1 0x20 DUP2 ADD SWAP1 POP SWAP2 SWAP1 POP JUMP JUMPDEST PUSH1 0x0 JUMPDEST DUP4 DUP2 LT ISZERO PUSH3 0x4BD JUMPI DUP1 DUP3 ADD MLOAD DUP2 DUP5 ADD MSTORE PUSH1 0x20 DUP2 ADD SWAP1 POP PUSH3 0x4A0 JUMP JUMPDEST DUP4 DUP2 GT ISZERO PUSH3 0x4CD JUMPI PUSH1 0x0 DUP5 DUP5 ADD MSTORE JUMPDEST POP POP POP POP JUMP JUMPDEST PUSH1 0x0 PUSH3 0x4EA PUSH3 0x4E4 DUP5 PUSH3 0x467 JUMP JUMPDEST PUSH3 0x448 JUMP JUMPDEST SWAP1 POP DUP3 DUP2 MSTORE PUSH1 0x20 DUP2 ADD DUP5 DUP5 DUP5 ADD GT ISZERO PUSH3 0x509 JUMPI PUSH3 0x508 PUSH3 0x3CD JUMP JUMPDEST JUMPDEST PUSH3 0x516 DUP5 DUP3 DUP6 PUSH3 0x49D JUMP JUMPDEST POP SWAP4 SWAP3 POP POP POP JUMP JUMPDEST PUSH1 0x0 DUP3 PUSH1 0x1F DUP4 ADD SLT PUSH3 0x536 JUMPI PUSH3 0x535 PUSH3 0x3C8 JUMP JUMPDEST JUMPDEST DUP2 MLOAD PUSH3 0x548 DUP5 DUP3 PUSH1 0x20 DUP7 ADD PUSH3 0x4D3 JUMP JUMPDEST SWAP2 POP POP SWAP3 SWAP2 POP POP JUMP JUMPDEST PUSH1 0x0 PUSH8 0xFFFFFFFFFFFFFFFF DUP3 GT ISZERO PUSH3 0x56F JUMPI PUSH3 0x56E PUSH3 0x3E3 JUMP JUMPDEST JUMPDEST PUSH1 0x20 DUP3 MUL SWAP1 POP PUSH1 0x20 DUP2 ADD SWAP1 POP SWAP2 SWAP1 POP JUMP JUMPDEST PUSH1 0x0 DUP1 REVERT JUMPDEST PUSH1 0x0 PUSH3 0x59C PUSH3 0x596 DUP5 PUSH3 0x551 JUMP JUMPDEST PUSH3 0x448 JUMP JUMPDEST SWAP1 POP DUP1 DUP4 DUP3 MSTORE PUSH1 0x20 DUP3 ADD SWAP1 POP PUSH1 0x20 DUP5 MUL DUP4 ADD DUP6 DUP2 GT ISZERO PUSH3 0x5C2 JUMPI PUSH3 0x5C1 PUSH3 0x580 JUMP JUMPDEST JUMPDEST DUP4 JUMPDEST DUP2 DUP2 LT ISZERO PUSH3 0x610 JUMPI DUP1 MLOAD PUSH8 0xFFFFFFFFFFFFFFFF DUP2 GT ISZERO PUSH3 0x5EB JUMPI PUSH3 0x5EA PUSH3 0x3C8 JUMP JUMPDEST JUMPDEST DUP1 DUP7 ADD PUSH3 0x5FA DUP10 DUP3 PUSH3 0x51E JUMP JUMPDEST DUP6 MSTORE PUSH1 0x20 DUP6 ADD SWAP5 POP POP POP PUSH1 0x20 DUP2 ADD SWAP1 POP PUSH3 0x5C4 JUMP JUMPDEST POP POP POP SWAP4 SWAP3 POP POP POP JUMP JUMPDEST PUSH1 0x0 DUP3 PUSH1 0x1F DUP4 ADD SLT PUSH3 0x632 JUMPI PUSH3 0x631 PUSH3 0x3C8 JUMP JUMPDEST JUMPDEST DUP2 MLOAD PUSH3 0x644 DUP5 DUP3 PUSH1 0x20 DUP7 ADD PUSH3 0x585 JUMP JUMPDEST SWAP2 POP POP SWAP3 SWAP2 POP POP JUMP JUMPDEST PUSH1 0x0 PUSH3 0x65A DUP3 PUSH3 0x383 JUMP JUMPDEST SWAP1 POP SWAP2 SWAP1 POP JUMP JUMPDEST PUSH3 0x66C DUP2 PUSH3 0x64D JUMP JUMPDEST DUP2 EQ PUSH3 0x678 JUMPI PUSH1 0x0 DUP1 REVERT JUMPDEST POP JUMP JUMPDEST PUSH1 0x0 DUP2 MLOAD SWAP1 POP PUSH3 0x68C DUP2 PUSH3 0x661 JUMP JUMPDEST SWAP3 SWAP2 POP POP JUMP JUMPDEST PUSH1 0x0 DUP1 PUSH1 0x0 DUP1 PUSH1 0x0 PUSH1 0xA0 DUP7 DUP9 SUB SLT ISZERO PUSH3 0x6B1 JUMPI PUSH3 0x6B0 PUSH3 0x359 JUMP JUMPDEST JUMPDEST PUSH1 0x0 PUSH3 0x6C1 DUP9 DUP3 DUP10 ADD PUSH3 0x3B1 JUMP JUMPDEST SWAP6 POP POP PUSH1 0x20 DUP7 ADD MLOAD PUSH8 0xFFFFFFFFFFFFFFFF DUP2 GT ISZERO PUSH3 0x6E5 JUMPI PUSH3 0x6E4 PUSH3 0x35E JUMP JUMPDEST JUMPDEST PUSH3 0x6F3 DUP9 DUP3 DUP10 ADD PUSH3 0x51E JUMP JUMPDEST SWAP5 POP POP PUSH1 0x40 DUP7 ADD MLOAD PUSH8 0xFFFFFFFFFFFFFFFF DUP2 GT ISZERO PUSH3 0x717 JUMPI PUSH3 0x716 PUSH3 0x35E JUMP JUMPDEST JUMPDEST PUSH3 0x725 DUP9 DUP3 DUP10 ADD PUSH3 0x51E JUMP JUMPDEST SWAP4 POP POP PUSH1 0x60 DUP7 ADD MLOAD PUSH8 0xFFFFFFFFFFFFFFFF DUP2 GT ISZERO PUSH3 0x749 JUMPI PUSH3 0x748 PUSH3 0x35E JUMP JUMPDEST JUMPDEST PUSH3 0x757 DUP9 DUP3 DUP10 ADD PUSH3 0x61A JUMP JUMPDEST SWAP3 POP POP PUSH1 0x80 PUSH3 0x76A DUP9 DUP3 DUP10 ADD PUSH3 0x67B JUMP JUMPDEST SWAP2 POP POP SWAP3 SWAP6 POP SWAP3 SWAP6 SWAP1 SWAP4 POP JUMP JUMPDEST PUSH32 0x4E487B7100000000000000000000000000000000000000000000000000000000 PUSH1 0x0 MSTORE PUSH1 0x22 PUSH1 0x4 MSTORE PUSH1 0x24 PUSH1 0x0 REVERT JUMPDEST PUSH1 0x0 PUSH1 0x2 DUP3 DIV SWAP1 POP PUSH1 0x1 DUP3 AND DUP1 PUSH3 0x7BF JUMPI PUSH1 0x7F DUP3 AND SWAP2 POP JUMPDEST PUSH1 0x20 DUP3 LT DUP2 EQ ISZERO PUSH3 0x7D6 JUMPI PUSH3 0x7D5 PUSH3 0x777 JUMP JUMPDEST JUMPDEST POP SWAP2 SWAP1 POP JUMP JUMPDEST PUSH2 0x15DA DUP1 PUSH3 0x7EC PUSH1 0x0 CODECOPY PUSH1 0x0 RETURN INVALID PUSH1 0x80 PUSH1 0x40 MSTORE CALLVALUE DUP1 ISZERO PUSH2 0x10 JUMPI PUSH1 0x0 DUP1 REVERT JUMPDEST POP PUSH1 0x4 CALLDATASIZE LT PUSH2 0xF5 JUMPI PUSH1 0x0 CALLDATALOAD PUSH1 0xE0 SHR DUP1 PUSH4 0x597E1FB5 GT PUSH2 0x97 JUMPI DUP1 PUSH4 0x8E7EA5B2 GT PUSH2 0x66 JUMPI DUP1 PUSH4 0x8E7EA5B2 EQ PUSH2 0x26A JUMPI DUP1 PUSH4 0xAEC2CCAE EQ PUSH2 0x274 JUMPI DUP1 PUSH4 0xCC2EE196 EQ PUSH2 0x2A4 JUMPI DUP1 PUSH4 0xDFBF53AE EQ PUSH2 0x2C2 JUMPI PUSH2 0xF5 JUMP JUMPDEST DUP1 PUSH4 0x597E1FB5 EQ PUSH2 0x1E0 JUMPI DUP1 PUSH4 0x5C975ABB EQ PUSH2 0x1FE JUMPI DUP1 PUSH4 0x5DF81330 EQ PUSH2 0x21C JUMPI DUP1 PUSH4 0x7284E416 EQ PUSH2 0x24C JUMPI PUSH2 0xF5 JUMP JUMPDEST DUP1 PUSH4 0x4051DDAC GT PUSH2 0xD3 JUMPI DUP1 PUSH4 0x4051DDAC EQ PUSH2 0x150 JUMPI DUP1 PUSH4 0x409E2205 EQ PUSH2 0x174 JUMPI DUP1 PUSH4 0x481C6A75 EQ PUSH2 0x1A4 JUMPI DUP1 PUSH4 0x4A79D50C EQ PUSH2 0x1C2 JUMPI PUSH2 0xF5 JUMP JUMPDEST DUP1 PUSH4 0x121B93F EQ PUSH2 0xFA JUMPI DUP1 PUSH4 0x2329A29 EQ PUSH2 0x116 JUMPI DUP1 PUSH4 0xDC96015 EQ PUSH2 0x132 JUMPI JUMPDEST PUSH1 0x0 DUP1 REVERT JUMPDEST PUSH2 0x114 PUSH1 0x4 DUP1 CALLDATASIZE SUB DUP2 ADD SWAP1 PUSH2 0x10F SWAP2 SWAP1 PUSH2 0xD16 JUMP JUMPDEST PUSH2 0x2E0 JUMP JUMPDEST STOP JUMPDEST PUSH2 0x130 PUSH1 0x4 DUP1 CALLDATASIZE SUB DUP2 ADD SWAP1 PUSH2 0x12B SWAP2 SWAP1 PUSH2 0xD7B JUMP JUMPDEST PUSH2 0x57D JUMP JUMPDEST STOP JUMPDEST PUSH2 0x13A PUSH2 0x670 JUMP JUMPDEST PUSH1 0x40 MLOAD PUSH2 0x147 SWAP2 SWAP1 PUSH2 0xE66 JUMP JUMPDEST PUSH1 0x40 MLOAD DUP1 SWAP2 SUB SWAP1 RETURN JUMPDEST PUSH2 0x158 PUSH2 0x6C8 JUMP JUMPDEST PUSH1 0x40 MLOAD PUSH2 0x16B SWAP8 SWAP7 SWAP6 SWAP5 SWAP4 SWAP3 SWAP2 SWAP1 PUSH2 0x104B JUMP JUMPDEST PUSH1 0x40 MLOAD DUP1 SWAP2 SUB SWAP1 RETURN JUMPDEST PUSH2 0x18E PUSH1 0x4 DUP1 CALLDATASIZE SUB DUP2 ADD SWAP1 PUSH2 0x189 SWAP2 SWAP1 PUSH2 0xD16 JUMP JUMPDEST PUSH2 0x839 JUMP JUMPDEST PUSH1 0x40 MLOAD PUSH2 0x19B SWAP2 SWAP1 PUSH2 0x10D6 JUMP JUMPDEST PUSH1 0x40 MLOAD DUP1 SWAP2 SUB SWAP1 RETURN JUMPDEST PUSH2 0x1AC PUSH2 0x8E5 JUMP JUMPDEST PUSH1 0x40 MLOAD PUSH2 0x1B9 SWAP2 SWAP1 PUSH2 0x1139 JUMP JUMPDEST PUSH1 0x40 MLOAD DUP1 SWAP2 SUB SWAP1 RETURN JUMPDEST PUSH2 0x1CA PUSH2 0x90B JUMP JUMPDEST PUSH1 0x40 MLOAD PUSH2 0x1D7 SWAP2 SWAP1 PUSH2 0x10D6 JUMP JUMPDEST PUSH1 0x40 MLOAD DUP1 SWAP2 SUB SWAP1 RETURN JUMPDEST PUSH2 0x1E8 PUSH2 0x999 JUMP JUMPDEST PUSH1 0x40 MLOAD PUSH2 0x1F5 SWAP2 SWAP1 PUSH2 0x1154 JUMP JUMPDEST PUSH1 0x40 MLOAD DUP1 SWAP2 SUB SWAP1 RETURN JUMPDEST PUSH2 0x206 PUSH2 0x9AC JUMP JUMPDEST PUSH1 0x40 MLOAD PUSH2 0x213 SWAP2 SWAP1 PUSH2 0x1154 JUMP JUMPDEST PUSH1 0x40 MLOAD DUP1 SWAP2 SUB SWAP1 RETURN JUMPDEST PUSH2 0x236 PUSH1 0x4 DUP1 CALLDATASIZE SUB DUP2 ADD SWAP1 PUSH2 0x231 SWAP2 SWAP1 PUSH2 0xD16 JUMP JUMPDEST PUSH2 0x9BF JUMP JUMPDEST PUSH1 0x40 MLOAD PUSH2 0x243 SWAP2 SWAP1 PUSH2 0x116F JUMP JUMPDEST PUSH1 0x40 MLOAD DUP1 SWAP2 SUB SWAP1 RETURN JUMPDEST PUSH2 0x254 PUSH2 0x9E3 JUMP JUMPDEST PUSH1 0x40 MLOAD PUSH2 0x261 SWAP2 SWAP1 PUSH2 0x10D6 JUMP JUMPDEST PUSH1 0x40 MLOAD DUP1 SWAP2 SUB SWAP1 RETURN JUMPDEST PUSH2 0x272 PUSH2 0xA71 JUMP JUMPDEST STOP JUMPDEST PUSH2 0x28E PUSH1 0x4 DUP1 CALLDATASIZE SUB DUP2 ADD SWAP1 PUSH2 0x289 SWAP2 SWAP1 PUSH2 0x11B6 JUMP JUMPDEST PUSH2 0xBDC JUMP JUMPDEST PUSH1 0x40 MLOAD PUSH2 0x29B SWAP2 SWAP1 PUSH2 0x1154 JUMP JUMPDEST PUSH1 0x40 MLOAD DUP1 SWAP2 SUB SWAP1 RETURN JUMPDEST PUSH2 0x2AC PUSH2 0xBFC JUMP JUMPDEST PUSH1 0x40 MLOAD PUSH2 0x2B9 SWAP2 SWAP1 PUSH2 0x11E3 JUMP JUMPDEST PUSH1 0x40 MLOAD DUP1 SWAP2 SUB SWAP1 RETURN JUMPDEST PUSH2 0x2CA PUSH2 0xCD5 JUMP JUMPDEST PUSH1 0x40 MLOAD PUSH2 0x2D7 SWAP2 SWAP1 PUSH2 0x116F JUMP JUMPDEST PUSH1 0x40 MLOAD DUP1 SWAP2 SUB SWAP1 RETURN JUMPDEST PUSH1 0x0 DUP1 SLOAD SWAP1 PUSH2 0x100 EXP SWAP1 DIV PUSH20 0xFFFFFFFFFFFFFFFFFFFFFFFFFFFFFFFFFFFFFFFF AND PUSH20 0xFFFFFFFFFFFFFFFFFFFFFFFFFFFFFFFFFFFFFFFF AND PUSH4 0xA3EC138D CALLER PUSH1 0x40 MLOAD DUP3 PUSH4 0xFFFFFFFF AND PUSH1 0xE0 SHL DUP2 MSTORE PUSH1 0x4 ADD PUSH2 0x339 SWAP2 SWAP1 PUSH2 0x1139 JUMP JUMPDEST PUSH1 0x20 PUSH1 0x40 MLOAD DUP1 DUP4 SUB DUP2 DUP7 GAS STATICCALL ISZERO DUP1 ISZERO PUSH2 0x356 JUMPI RETURNDATASIZE PUSH1 0x0 DUP1 RETURNDATACOPY RETURNDATASIZE PUSH1 0x0 REVERT JUMPDEST POP POP POP POP PUSH1 0x40 MLOAD RETURNDATASIZE PUSH1 0x1F NOT PUSH1 0x1F DUP3 ADD AND DUP3 ADD DUP1 PUSH1 0x40 MSTORE POP DUP2 ADD SWAP1 PUSH2 0x37A SWAP2 SWAP1 PUSH2 0x121A JUMP JUMPDEST PUSH2 0x3B9 JUMPI PUSH1 0x40 MLOAD PUSH32 0x8C379A000000000000000000000000000000000000000000000000000000000 DUP2 MSTORE PUSH1 0x4 ADD PUSH2 0x3B0 SWAP1 PUSH2 0x1293 JUMP JUMPDEST PUSH1 0x40 MLOAD DUP1 SWAP2 SUB SWAP1 REVERT JUMPDEST PUSH1 0x7 PUSH1 0x0 SWAP1 SLOAD SWAP1 PUSH2 0x100 EXP SWAP1 DIV PUSH1 0xFF AND ISZERO PUSH2 0x409 JUMPI PUSH1 0x40 MLOAD PUSH32 0x8C379A000000000000000000000000000000000000000000000000000000000 DUP2 MSTORE PUSH1 0x4 ADD PUSH2 0x400 SWAP1 PUSH2 0x12FF JUMP JUMPDEST PUSH1 0x40 MLOAD DUP1 SWAP2 SUB SWAP1 REVERT JUMPDEST PUSH1 0x1 PUSH1 0x0 CALLER PUSH20 0xFFFFFFFFFFFFFFFFFFFFFFFFFFFFFFFFFFFFFFFF AND PUSH20 0xFFFFFFFFFFFFFFFFFFFFFFFFFFFFFFFFFFFFFFFF AND DUP2 MSTORE PUSH1 0x20 ADD SWAP1 DUP2 MSTORE PUSH1 0x20 ADD PUSH1 0x0 KECCAK256 PUSH1 0x0 SWAP1 SLOAD SWAP1 PUSH2 0x100 EXP SWAP1 DIV PUSH1 0xFF AND ISZERO PUSH2 0x496 JUMPI PUSH1 0x40 MLOAD PUSH32 0x8C379A000000000000000000000000000000000000000000000000000000000 DUP2 MSTORE PUSH1 0x4 ADD PUSH2 0x48D SWAP1 PUSH2 0x136B JUMP JUMPDEST PUSH1 0x40 MLOAD DUP1 SWAP2 SUB SWAP1 REVERT JUMPDEST PUSH1 0x1 PUSH1 0x5 DUP3 DUP2 SLOAD DUP2 LT PUSH2 0x4AC JUMPI PUSH2 0x4AB PUSH2 0x138B JUMP JUMPDEST JUMPDEST SWAP1 PUSH1 0x0 MSTORE PUSH1 0x20 PUSH1 0x0 KECCAK256 ADD PUSH1 0x0 DUP3 DUP3 SLOAD PUSH2 0x4C5 SWAP2 SWAP1 PUSH2 0x13E9 JUMP JUMPDEST SWAP3 POP POP DUP2 SWAP1 SSTORE POP PUSH1 0x1 DUP1 PUSH1 0x0 CALLER PUSH20 0xFFFFFFFFFFFFFFFFFFFFFFFFFFFFFFFFFFFFFFFF AND PUSH20 0xFFFFFFFFFFFFFFFFFFFFFFFFFFFFFFFFFFFFFFFF AND DUP2 MSTORE PUSH1 0x20 ADD SWAP1 DUP2 MSTORE PUSH1 0x20 ADD PUSH1 0x0 KECCAK256 PUSH1 0x0 PUSH2 0x100 EXP DUP2 SLOAD DUP2 PUSH1 0xFF MUL NOT AND SWAP1 DUP4 ISZERO ISZERO MUL OR SWAP1 SSTORE POP PUSH32 0xD193833848B675D858C4A3354369C7FF9A3CF48D9F9FBBF0882944B88FF68591 DUP2 PUSH1 0x5 DUP4 DUP2 SLOAD DUP2 LT PUSH2 0x559 JUMPI PUSH2 0x558 PUSH2 0x138B JUMP JUMPDEST JUMPDEST SWAP1 PUSH1 0x0 MSTORE PUSH1 0x20 PUSH1 0x0 KECCAK256 ADD SLOAD PUSH1 0x40 MLOAD PUSH2 0x572 SWAP3 SWAP2 SWAP1 PUSH2 0x143F JUMP JUMPDEST PUSH1 0x40 MLOAD DUP1 SWAP2 SUB SWAP1 LOG1 POP JUMP JUMPDEST PUSH1 0x7 PUSH1 0x2 SWAP1 SLOAD SWAP1 PUSH2 0x100 EXP SWAP1 DIV PUSH20 0xFFFFFFFFFFFFFFFFFFFFFFFFFFFFFFFFFFFFFFFF AND PUSH20 0xFFFFFFFFFFFFFFFFFFFFFFFFFFFFFFFFFFFFFFFF AND CALLER PUSH20 0xFFFFFFFFFFFFFFFFFFFFFFFFFFFFFFFFFFFFFFFF AND EQ PUSH2 0x60D JUMPI PUSH1 0x40 MLOAD PUSH32 0x8C379A000000000000000000000000000000000000000000000000000000000 DUP2 MSTORE PUSH1 0x4 ADD PUSH2 0x604 SWAP1 PUSH2 0x14DA JUMP JUMPDEST PUSH1 0x40 MLOAD DUP1 SWAP2 SUB SWAP1 REVERT JUMPDEST DUP1 PUSH1 0x7 PUSH1 0x1 PUSH2 0x100 EXP DUP2 SLOAD DUP2 PUSH1 0xFF MUL NOT AND SWAP1 DUP4 ISZERO ISZERO MUL OR SWAP1 SSTORE POP PUSH32 0x10E1C3FCAFF06B68391033547E8F9BB8067D7C4A2E32659B0629153814D242D3 PUSH1 0x7 PUSH1 0x1 SWAP1 SLOAD SWAP1 PUSH2 0x100 EXP SWAP1 DIV PUSH1 0xFF AND PUSH1 0x40 MLOAD PUSH2 0x665 SWAP2 SWAP1 PUSH2 0x1154 JUMP JUMPDEST PUSH1 0x40 MLOAD DUP1 SWAP2 SUB SWAP1 LOG1 POP JUMP JUMPDEST PUSH1 0x60 PUSH1 0x5 DUP1 SLOAD DUP1 PUSH1 0x20 MUL PUSH1 0x20 ADD PUSH1 0x40 MLOAD SWAP1 DUP2 ADD PUSH1 0x40 MSTORE DUP1 SWAP3 SWAP2 SWAP1 DUP2 DUP2 MSTORE PUSH1 0x20 ADD DUP3 DUP1 SLOAD DUP1 ISZERO PUSH2 0x6BE JUMPI PUSH1 0x20 MUL DUP3 ADD SWAP2 SWAP1 PUSH1 0x0 MSTORE PUSH1 0x20 PUSH1 0x0 KECCAK256 SWAP1 JUMPDEST DUP2 SLOAD DUP2 MSTORE PUSH1 0x20 ADD SWAP1 PUSH1 0x1 ADD SWAP1 DUP1 DUP4 GT PUSH2 0x6AA JUMPI JUMPDEST POP POP POP POP POP SWAP1 POP SWAP1 JUMP JUMPDEST PUSH1 0x0 DUP1 PUSH1 0x0 PUSH1 0x60 DUP1 PUSH1 0x60 DUP1 PUSH1 0x7 PUSH1 0x1 SWAP1 SLOAD SWAP1 PUSH2 0x100 EXP SWAP1 DIV PUSH1 0xFF AND PUSH1 0x7 PUSH1 0x0 SWAP1 SLOAD SWAP1 PUSH2 0x100 EXP SWAP1 DIV PUSH1 0xFF AND PUSH1 0x6 SLOAD PUSH1 0x3 PUSH1 0x4 PUSH2 0x702 PUSH2 0xBFC JUMP JUMPDEST PUSH2 0x70A PUSH2 0x670 JUMP JUMPDEST DUP4 DUP1 SLOAD PUSH2 0x716 SWAP1 PUSH2 0x1529 JUMP JUMPDEST DUP1 PUSH1 0x1F ADD PUSH1 0x20 DUP1 SWAP2 DIV MUL PUSH1 0x20 ADD PUSH1 0x40 MLOAD SWAP1 DUP2 ADD PUSH1 0x40 MSTORE DUP1 SWAP3 SWAP2 SWAP1 DUP2 DUP2 MSTORE PUSH1 0x20 ADD DUP3 DUP1 SLOAD PUSH2 0x742 SWAP1 PUSH2 0x1529 JUMP JUMPDEST DUP1 ISZERO PUSH2 0x78F JUMPI DUP1 PUSH1 0x1F LT PUSH2 0x764 JUMPI PUSH2 0x100 DUP1 DUP4 SLOAD DIV MUL DUP4 MSTORE SWAP2 PUSH1 0x20 ADD SWAP2 PUSH2 0x78F JUMP JUMPDEST DUP3 ADD SWAP2 SWAP1 PUSH1 0x0 MSTORE PUSH1 0x20 PUSH1 0x0 KECCAK256 SWAP1 JUMPDEST DUP2 SLOAD DUP2 MSTORE SWAP1 PUSH1 0x1 ADD SWAP1 PUSH1 0x20 ADD DUP1 DUP4 GT PUSH2 0x772 JUMPI DUP3 SWAP1 SUB PUSH1 0x1F AND DUP3 ADD SWAP2 JUMPDEST POP POP POP POP POP SWAP4 POP DUP3 DUP1 SLOAD PUSH2 0x7A2 SWAP1 PUSH2 0x1529 JUMP JUMPDEST DUP1 PUSH1 0x1F ADD PUSH1 0x20 DUP1 SWAP2 DIV MUL PUSH1 0x20 ADD PUSH1 0x40 MLOAD SWAP1 DUP2 ADD PUSH1 0x40 MSTORE DUP1 SWAP3 SWAP2 SWAP1 DUP2 DUP2 MSTORE PUSH1 0x20 ADD DUP3 DUP1 SLOAD PUSH2 0x7CE SWAP1 PUSH2 0x1529 JUMP JUMPDEST DUP1 ISZERO PUSH2 0x81B JUMPI DUP1 PUSH1 0x1F LT PUSH2 0x7F0 JUMPI PUSH2 0x100 DUP1 DUP4 SLOAD DIV MUL DUP4 MSTORE SWAP2 PUSH1 0x20 ADD SWAP2 PUSH2 0x81B JUMP JUMPDEST DUP3 ADD SWAP2 SWAP1 PUSH1 0x0 MSTORE PUSH1 0x20 PUSH1 0x0 KECCAK256 SWAP1 JUMPDEST DUP2 SLOAD DUP2 MSTORE SWAP1 PUSH1 0x1 ADD SWAP1 PUSH1 0x20 ADD DUP1 DUP4 GT PUSH2 0x7FE JUMPI DUP3 SWAP1 SUB PUSH1 0x1F AND DUP3 ADD SWAP2 JUMPDEST POP POP POP POP POP SWAP3 POP SWAP7 POP SWAP7 POP SWAP7 POP SWAP7 POP SWAP7 POP SWAP7 POP SWAP7 POP SWAP1 SWAP2 SWAP3 SWAP4 SWAP5 SWAP6 SWAP7 JUMP JUMPDEST PUSH1 0x2 DUP2 DUP2 SLOAD DUP2 LT PUSH2 0x849 JUMPI PUSH1 0x0 DUP1 REVERT JUMPDEST SWAP1 PUSH1 0x0 MSTORE PUSH1 0x20 PUSH1 0x0 KECCAK256 ADD PUSH1 0x0 SWAP2 POP SWAP1 POP DUP1 SLOAD PUSH2 0x864 SWAP1 PUSH2 0x1529 JUMP JUMPDEST DUP1 PUSH1 0x1F ADD PUSH1 0x20 DUP1 SWAP2 DIV MUL PUSH1 0x20 ADD PUSH1 0x40 MLOAD SWAP1 DUP2 ADD PUSH1 0x40 MSTORE DUP1 SWAP3 SWAP2 SWAP1 DUP2 DUP2 MSTORE PUSH1 0x20 ADD DUP3 DUP1 SLOAD PUSH2 0x890 SWAP1 PUSH2 0x1529 JUMP JUMPDEST DUP1 ISZERO PUSH2 0x8DD JUMPI DUP1 PUSH1 0x1F LT PUSH2 0x8B2 JUMPI PUSH2 0x100 DUP1 DUP4 SLOAD DIV MUL DUP4 MSTORE SWAP2 PUSH1 0x20 ADD SWAP2 PUSH2 0x8DD JUMP JUMPDEST DUP3 ADD SWAP2 SWAP1 PUSH1 0x0 MSTORE PUSH1 0x20 PUSH1 0x0 KECCAK256 SWAP1 JUMPDEST DUP2 SLOAD DUP2 MSTORE SWAP1 PUSH1 0x1 ADD SWAP1 PUSH1 0x20 ADD DUP1 DUP4 GT PUSH2 0x8C0 JUMPI DUP3 SWAP1 SUB PUSH1 0x1F AND DUP3 ADD SWAP2 JUMPDEST POP POP POP POP POP DUP2 JUMP JUMPDEST PUSH1 0x7 PUSH1 0x2 SWAP1 SLOAD SWAP1 PUSH2 0x100 EXP SWAP1 DIV PUSH20 0xFFFFFFFFFFFFFFFFFFFFFFFFFFFFFFFFFFFFFFFF AND DUP2 JUMP JUMPDEST PUSH1 0x3 DUP1 SLOAD PUSH2 0x918 SWAP1 PUSH2 0x1529 JUMP JUMPDEST DUP1 PUSH1 0x1F ADD PUSH1 0x20 DUP1 SWAP2 DIV MUL PUSH1 0x20 ADD PUSH1 0x40 MLOAD SWAP1 DUP2 ADD PUSH1 0x40 MSTORE DUP1 SWAP3 SWAP2 SWAP1 DUP2 DUP2 MSTORE PUSH1 0x20 ADD DUP3 DUP1 SLOAD PUSH2 0x944 SWAP1 PUSH2 0x1529 JUMP JUMPDEST DUP1 ISZERO PUSH2 0x991 JUMPI DUP1 PUSH1 0x1F LT PUSH2 0x966 JUMPI PUSH2 0x100 DUP1 DUP4 SLOAD DIV MUL DUP4 MSTORE SWAP2 PUSH1 0x20 ADD SWAP2 PUSH2 0x991 JUMP JUMPDEST DUP3 ADD SWAP2 SWAP1 PUSH1 0x0 MSTORE PUSH1 0x20 PUSH1 0x0 KECCAK256 SWAP1 JUMPDEST DUP2 SLOAD DUP2 MSTORE SWAP1 PUSH1 0x1 ADD SWAP1 PUSH1 0x20 ADD DUP1 DUP4 GT PUSH2 0x974 JUMPI DUP3 SWAP1 SUB PUSH1 0x1F AND DUP3 ADD SWAP2 JUMPDEST POP POP POP POP POP DUP2 JUMP JUMPDEST PUSH1 0x7 PUSH1 0x0 SWAP1 SLOAD SWAP1 PUSH2 0x100 EXP SWAP1 DIV PUSH1 0xFF AND DUP2 JUMP JUMPDEST PUSH1 0x7 PUSH1 0x1 SWAP1 SLOAD SWAP1 PUSH2 0x100 EXP SWAP1 DIV PUSH1 0xFF AND DUP2 JUMP JUMPDEST PUSH1 0x5 DUP2 DUP2 SLOAD DUP2 LT PUSH2 0x9CF JUMPI PUSH1 0x0 DUP1 REVERT JUMPDEST SWAP1 PUSH1 0x0 MSTORE PUSH1 0x20 PUSH1 0x0 KECCAK256 ADD PUSH1 0x0 SWAP2 POP SWAP1 POP SLOAD DUP2 JUMP JUMPDEST PUSH1 0x4 DUP1 SLOAD PUSH2 0x9F0 SWAP1 PUSH2 0x1529 JUMP JUMPDEST DUP1 PUSH1 0x1F ADD PUSH1 0x20 DUP1 SWAP2 DIV MUL PUSH1 0x20 ADD PUSH1 0x40 MLOAD SWAP1 DUP2 ADD PUSH1 0x40 MSTORE DUP1 SWAP3 SWAP2 SWAP1 DUP2 DUP2 MSTORE PUSH1 0x20 ADD DUP3 DUP1 SLOAD PUSH2 0xA1C SWAP1 PUSH2 0x1529 JUMP JUMPDEST DUP1 ISZERO PUSH2 0xA69 JUMPI DUP1 PUSH1 0x1F LT PUSH2 0xA3E JUMPI PUSH2 0x100 DUP1 DUP4 SLOAD DIV MUL DUP4 MSTORE SWAP2 PUSH1 0x20 ADD SWAP2 PUSH2 0xA69 JUMP JUMPDEST DUP3 ADD SWAP2 SWAP1 PUSH1 0x0 MSTORE PUSH1 0x20 PUSH1 0x0 KECCAK256 SWAP1 JUMPDEST DUP2 SLOAD DUP2 MSTORE SWAP1 PUSH1 0x1 ADD SWAP1 PUSH1 0x20 ADD DUP1 DUP4 GT PUSH2 0xA4C JUMPI DUP3 SWAP1 SUB PUSH1 0x1F AND DUP3 ADD SWAP2 JUMPDEST POP POP POP POP POP DUP2 JUMP JUMPDEST PUSH1 0x7 PUSH1 0x2 SWAP1 SLOAD SWAP1 PUSH2 0x100 EXP SWAP1 DIV PUSH20 0xFFFFFFFFFFFFFFFFFFFFFFFFFFFFFFFFFFFFFFFF AND PUSH20 0xFFFFFFFFFFFFFFFFFFFFFFFFFFFFFFFFFFFFFFFF AND CALLER PUSH20 0xFFFFFFFFFFFFFFFFFFFFFFFFFFFFFFFFFFFFFFFF AND EQ PUSH2 0xB01 JUMPI PUSH1 0x40 MLOAD PUSH32 0x8C379A000000000000000000000000000000000000000000000000000000000 DUP2 MSTORE PUSH1 0x4 ADD PUSH2 0xAF8 SWAP1 PUSH2 0x14DA JUMP JUMPDEST PUSH1 0x40 MLOAD DUP1 SWAP2 SUB SWAP1 REVERT JUMPDEST PUSH2 0xB0B PUSH1 0x1 PUSH2 0x57D JUMP JUMPDEST PUSH1 0x1 PUSH1 0x7 PUSH1 0x0 PUSH2 0x100 EXP DUP2 SLOAD DUP2 PUSH1 0xFF MUL NOT AND SWAP1 DUP4 ISZERO ISZERO MUL OR SWAP1 SSTORE POP PUSH1 0x0 DUP1 PUSH1 0x0 JUMPDEST PUSH1 0x5 DUP1 SLOAD SWAP1 POP DUP2 LT ISZERO PUSH2 0xB97 JUMPI DUP2 PUSH1 0x5 DUP3 DUP2 SLOAD DUP2 LT PUSH2 0xB4E JUMPI PUSH2 0xB4D PUSH2 0x138B JUMP JUMPDEST JUMPDEST SWAP1 PUSH1 0x0 MSTORE PUSH1 0x20 PUSH1 0x0 KECCAK256 ADD SLOAD GT ISZERO PUSH2 0xB84 JUMPI DUP1 SWAP3 POP PUSH1 0x5 DUP2 DUP2 SLOAD DUP2 LT PUSH2 0xB76 JUMPI PUSH2 0xB75 PUSH2 0x138B JUMP JUMPDEST JUMPDEST SWAP1 PUSH1 0x0 MSTORE PUSH1 0x20 PUSH1 0x0 KECCAK256 ADD SLOAD SWAP2 POP JUMPDEST DUP1 DUP1 PUSH2 0xB8F SWAP1 PUSH2 0x155B JUMP JUMPDEST SWAP2 POP POP PUSH2 0xB2C JUMP JUMPDEST POP DUP2 PUSH1 0x6 DUP2 SWAP1 SSTORE POP PUSH32 0xC7B97E48B9227DCA976A22B97E05760371F6C612BFBB22ADEE0CE899D8C084FC PUSH1 0x6 SLOAD PUSH1 0x40 MLOAD PUSH2 0xBD0 SWAP2 SWAP1 PUSH2 0x116F JUMP JUMPDEST PUSH1 0x40 MLOAD DUP1 SWAP2 SUB SWAP1 LOG1 POP POP JUMP JUMPDEST PUSH1 0x1 PUSH1 0x20 MSTORE DUP1 PUSH1 0x0 MSTORE PUSH1 0x40 PUSH1 0x0 KECCAK256 PUSH1 0x0 SWAP2 POP SLOAD SWAP1 PUSH2 0x100 EXP SWAP1 DIV PUSH1 0xFF AND DUP2 JUMP JUMPDEST PUSH1 0x60 PUSH1 0x2 DUP1 SLOAD DUP1 PUSH1 0x20 MUL PUSH1 0x20 ADD PUSH1 0x40 MLOAD SWAP1 DUP2 ADD PUSH1 0x40 MSTORE DUP1 SWAP3 SWAP2 SWAP1 DUP2 DUP2 MSTORE PUSH1 0x20 ADD PUSH1 0x0 SWAP1 JUMPDEST DUP3 DUP3 LT ISZERO PUSH2 0xCCC JUMPI DUP4 DUP3 SWAP1 PUSH1 0x0 MSTORE PUSH1 0x20 PUSH1 0x0 KECCAK256 ADD DUP1 SLOAD PUSH2 0xC3F SWAP1 PUSH2 0x1529 JUMP JUMPDEST DUP1 PUSH1 0x1F ADD PUSH1 0x20 DUP1 SWAP2 DIV MUL PUSH1 0x20 ADD PUSH1 0x40 MLOAD SWAP1 DUP2 ADD PUSH1 0x40 MSTORE DUP1 SWAP3 SWAP2 SWAP1 DUP2 DUP2 MSTORE PUSH1 0x20 ADD DUP3 DUP1 SLOAD PUSH2 0xC6B SWAP1 PUSH2 0x1529 JUMP JUMPDEST DUP1 ISZERO PUSH2 0xCB8 JUMPI DUP1 PUSH1 0x1F LT PUSH2 0xC8D JUMPI PUSH2 0x100 DUP1 DUP4 SLOAD DIV MUL DUP4 MSTORE SWAP2 PUSH1 0x20 ADD SWAP2 PUSH2 0xCB8 JUMP JUMPDEST DUP3 ADD SWAP2 SWAP1 PUSH1 0x0 MSTORE PUSH1 0x20 PUSH1 0x0 KECCAK256 SWAP1 JUMPDEST DUP2 SLOAD DUP2 MSTORE SWAP1 PUSH1 0x1 ADD SWAP1 PUSH1 0x20 ADD DUP1 DUP4 GT PUSH2 0xC9B JUMPI DUP3 SWAP1 SUB PUSH1 0x1F AND DUP3 ADD SWAP2 JUMPDEST POP POP POP POP POP DUP2 MSTORE PUSH1 0x20 ADD SWAP1 PUSH1 0x1 ADD SWAP1 PUSH2 0xC20 JUMP JUMPDEST POP POP POP POP SWAP1 POP SWAP1 JUMP JUMPDEST PUSH1 0x6 SLOAD DUP2 JUMP JUMPDEST PUSH1 0x0 DUP1 REVERT JUMPDEST PUSH1 0x0 DUP2 SWAP1 POP SWAP2 SWAP1 POP JUMP JUMPDEST PUSH2 0xCF3 DUP2 PUSH2 0xCE0 JUMP JUMPDEST DUP2 EQ PUSH2 0xCFE JUMPI PUSH1 0x0 DUP1 REVERT JUMPDEST POP JUMP JUMPDEST PUSH1 0x0 DUP2 CALLDATALOAD SWAP1 POP PUSH2 0xD10 DUP2 PUSH2 0xCEA JUMP JUMPDEST SWAP3 SWAP2 POP POP JUMP JUMPDEST PUSH1 0x0 PUSH1 0x20 DUP3 DUP5 SUB SLT ISZERO PUSH2 0xD2C JUMPI PUSH2 0xD2B PUSH2 0xCDB JUMP JUMPDEST JUMPDEST PUSH1 0x0 PUSH2 0xD3A DUP5 DUP3 DUP6 ADD PUSH2 0xD01 JUMP JUMPDEST SWAP2 POP POP SWAP3 SWAP2 POP POP JUMP JUMPDEST PUSH1 0x0 DUP2 ISZERO ISZERO SWAP1 POP SWAP2 SWAP1 POP JUMP JUMPDEST PUSH2 0xD58 DUP2 PUSH2 0xD43 JUMP JUMPDEST DUP2 EQ PUSH2 0xD63 JUMPI PUSH1 0x0 DUP1 REVERT JUMPDEST POP JUMP JUMPDEST PUSH1 0x0 DUP2 CALLDATALOAD SWAP1 POP PUSH2 0xD75 DUP2 PUSH2 0xD4F JUMP JUMPDEST SWAP3 SWAP2 POP POP JUMP JUMPDEST PUSH1 0x0 PUSH1 0x20 DUP3 DUP5 SUB SLT ISZERO PUSH2 0xD91 JUMPI PUSH2 0xD90 PUSH2 0xCDB JUMP JUMPDEST JUMPDEST PUSH1 0x0 PUSH2 0xD9F DUP5 DUP3 DUP6 ADD PUSH2 0xD66 JUMP JUMPDEST SWAP2 POP POP SWAP3 SWAP2 POP POP JUMP JUMPDEST PUSH1 0x0 DUP2 MLOAD SWAP1 POP SWAP2 SWAP1 POP JUMP JUMPDEST PUSH1 0x0 DUP3 DUP3 MSTORE PUSH1 0x20 DUP3 ADD SWAP1 POP SWAP3 SWAP2 POP POP JUMP JUMPDEST PUSH1 0x0 DUP2 SWAP1 POP PUSH1 0x20 DUP3 ADD SWAP1 POP SWAP2 SWAP1 POP JUMP JUMPDEST PUSH2 0xDDD DUP2 PUSH2 0xCE0 JUMP JUMPDEST DUP3 MSTORE POP POP JUMP JUMPDEST PUSH1 0x0 PUSH2 0xDEF DUP4 DUP4 PUSH2 0xDD4 JUMP JUMPDEST PUSH1 0x20 DUP4 ADD SWAP1 POP SWAP3 SWAP2 POP POP JUMP JUMPDEST PUSH1 0x0 PUSH1 0x20 DUP3 ADD SWAP1 POP SWAP2 SWAP1 POP JUMP JUMPDEST PUSH1 0x0 PUSH2 0xE13 DUP3 PUSH2 0xDA8 JUMP JUMPDEST PUSH2 0xE1D DUP2 DUP6 PUSH2 0xDB3 JUMP JUMPDEST SWAP4 POP PUSH2 0xE28 DUP4 PUSH2 0xDC4 JUMP JUMPDEST DUP1 PUSH1 0x0 JUMPDEST DUP4 DUP2 LT ISZERO PUSH2 0xE59 JUMPI DUP2 MLOAD PUSH2 0xE40 DUP9 DUP3 PUSH2 0xDE3 JUMP JUMPDEST SWAP8 POP PUSH2 0xE4B DUP4 PUSH2 0xDFB JUMP JUMPDEST SWAP3 POP POP PUSH1 0x1 DUP2 ADD SWAP1 POP PUSH2 0xE2C JUMP JUMPDEST POP DUP6 SWAP4 POP POP POP POP SWAP3 SWAP2 POP POP JUMP JUMPDEST PUSH1 0x0 PUSH1 0x20 DUP3 ADD SWAP1 POP DUP2 DUP2 SUB PUSH1 0x0 DUP4 ADD MSTORE PUSH2 0xE80 DUP2 DUP5 PUSH2 0xE08 JUMP JUMPDEST SWAP1 POP SWAP3 SWAP2 POP POP JUMP JUMPDEST PUSH2 0xE91 DUP2 PUSH2 0xD43 JUMP JUMPDEST DUP3 MSTORE POP POP JUMP JUMPDEST PUSH2 0xEA0 DUP2 PUSH2 0xCE0 JUMP JUMPDEST DUP3 MSTORE POP POP JUMP JUMPDEST PUSH1 0x0 DUP2 MLOAD SWAP1 POP SWAP2 SWAP1 POP JUMP JUMPDEST PUSH1 0x0 DUP3 DUP3 MSTORE PUSH1 0x20 DUP3 ADD SWAP1 POP SWAP3 SWAP2 POP POP JUMP JUMPDEST PUSH1 0x0 JUMPDEST DUP4 DUP2 LT ISZERO PUSH2 0xEE0 JUMPI DUP1 DUP3 ADD MLOAD DUP2 DUP5 ADD MSTORE PUSH1 0x20 DUP2 ADD SWAP1 POP PUSH2 0xEC5 JUMP JUMPDEST DUP4 DUP2 GT ISZERO PUSH2 0xEEF JUMPI PUSH1 0x0 DUP5 DUP5 ADD MSTORE JUMPDEST POP POP POP POP JUMP JUMPDEST PUSH1 0x0 PUSH1 0x1F NOT PUSH1 0x1F DUP4 ADD AND SWAP1 POP SWAP2 SWAP1 POP JUMP JUMPDEST PUSH1 0x0 PUSH2 0xF11 DUP3 PUSH2 0xEA6 JUMP JUMPDEST PUSH2 0xF1B DUP2 DUP6 PUSH2 0xEB1 JUMP JUMPDEST SWAP4 POP PUSH2 0xF2B DUP2 DUP6 PUSH1 0x20 DUP7 ADD PUSH2 0xEC2 JUMP JUMPDEST PUSH2 0xF34 DUP2 PUSH2 0xEF5 JUMP JUMPDEST DUP5 ADD SWAP2 POP POP SWAP3 SWAP2 POP POP JUMP JUMPDEST PUSH1 0x0 DUP2 MLOAD SWAP1 POP SWAP2 SWAP1 POP JUMP JUMPDEST PUSH1 0x0 DUP3 DUP3 MSTORE PUSH1 0x20 DUP3 ADD SWAP1 POP SWAP3 SWAP2 POP POP JUMP JUMPDEST PUSH1 0x0 DUP2 SWAP1 POP PUSH1 0x20 DUP3 ADD SWAP1 POP SWAP2 SWAP1 POP JUMP JUMPDEST PUSH1 0x0 DUP3 DUP3 MSTORE PUSH1 0x20 DUP3 ADD SWAP1 POP SWAP3 SWAP2 POP POP JUMP JUMPDEST PUSH1 0x0 PUSH2 0xF87 DUP3 PUSH2 0xEA6 JUMP JUMPDEST PUSH2 0xF91 DUP2 DUP6 PUSH2 0xF6B JUMP JUMPDEST SWAP4 POP PUSH2 0xFA1 DUP2 DUP6 PUSH1 0x20 DUP7 ADD PUSH2 0xEC2 JUMP JUMPDEST PUSH2 0xFAA DUP2 PUSH2 0xEF5 JUMP JUMPDEST DUP5 ADD SWAP2 POP POP SWAP3 SWAP2 POP POP JUMP JUMPDEST PUSH1 0x0 PUSH2 0xFC1 DUP4 DUP4 PUSH2 0xF7C JUMP JUMPDEST SWAP1 POP SWAP3 SWAP2 POP POP JUMP JUMPDEST PUSH1 0x0 PUSH1 0x20 DUP3 ADD SWAP1 POP SWAP2 SWAP1 POP JUMP JUMPDEST PUSH1 0x0 PUSH2 0xFE1 DUP3 PUSH2 0xF3F JUMP JUMPDEST PUSH2 0xFEB DUP2 DUP6 PUSH2 0xF4A JUMP JUMPDEST SWAP4 POP DUP4 PUSH1 0x20 DUP3 MUL DUP6 ADD PUSH2 0xFFD DUP6 PUSH2 0xF5B JUMP JUMPDEST DUP1 PUSH1 0x0 JUMPDEST DUP6 DUP2 LT ISZERO PUSH2 0x1039 JUMPI DUP5 DUP5 SUB DUP10 MSTORE DUP2 MLOAD PUSH2 0x101A DUP6 DUP3 PUSH2 0xFB5 JUMP JUMPDEST SWAP5 POP PUSH2 0x1025 DUP4 PUSH2 0xFC9 JUMP JUMPDEST SWAP3 POP PUSH1 0x20 DUP11 ADD SWAP10 POP POP PUSH1 0x1 DUP2 ADD SWAP1 POP PUSH2 0x1001 JUMP JUMPDEST POP DUP3 SWAP8 POP DUP8 SWAP6 POP POP POP POP POP POP SWAP3 SWAP2 POP POP JUMP JUMPDEST PUSH1 0x0 PUSH1 0xE0 DUP3 ADD SWAP1 POP PUSH2 0x1060 PUSH1 0x0 DUP4 ADD DUP11 PUSH2 0xE88 JUMP JUMPDEST PUSH2 0x106D PUSH1 0x20 DUP4 ADD DUP10 PUSH2 0xE88 JUMP JUMPDEST PUSH2 0x107A PUSH1 0x40 DUP4 ADD DUP9 PUSH2 0xE97 JUMP JUMPDEST DUP2 DUP2 SUB PUSH1 0x60 DUP4 ADD MSTORE PUSH2 0x108C DUP2 DUP8 PUSH2 0xF06 JUMP JUMPDEST SWAP1 POP DUP2 DUP2 SUB PUSH1 0x80 DUP4 ADD MSTORE PUSH2 0x10A0 DUP2 DUP7 PUSH2 0xF06 JUMP JUMPDEST SWAP1 POP DUP2 DUP2 SUB PUSH1 0xA0 DUP4 ADD MSTORE PUSH2 0x10B4 DUP2 DUP6 PUSH2 0xFD6 JUMP JUMPDEST SWAP1 POP DUP2 DUP2 SUB PUSH1 0xC0 DUP4 ADD MSTORE PUSH2 0x10C8 DUP2 DUP5 PUSH2 0xE08 JUMP JUMPDEST SWAP1 POP SWAP9 SWAP8 POP POP POP POP POP POP POP POP JUMP JUMPDEST PUSH1 0x0 PUSH1 0x20 DUP3 ADD SWAP1 POP DUP2 DUP2 SUB PUSH1 0x0 DUP4 ADD MSTORE PUSH2 0x10F0 DUP2 DUP5 PUSH2 0xF06 JUMP JUMPDEST SWAP1 POP SWAP3 SWAP2 POP POP JUMP JUMPDEST PUSH1 0x0 PUSH20 0xFFFFFFFFFFFFFFFFFFFFFFFFFFFFFFFFFFFFFFFF DUP3 AND SWAP1 POP SWAP2 SWAP1 POP JUMP JUMPDEST PUSH1 0x0 PUSH2 0x1123 DUP3 PUSH2 0x10F8 JUMP JUMPDEST SWAP1 POP SWAP2 SWAP1 POP JUMP JUMPDEST PUSH2 0x1133 DUP2 PUSH2 0x1118 JUMP JUMPDEST DUP3 MSTORE POP POP JUMP JUMPDEST PUSH1 0x0 PUSH1 0x20 DUP3 ADD SWAP1 POP PUSH2 0x114E PUSH1 0x0 DUP4 ADD DUP5 PUSH2 0x112A JUMP JUMPDEST SWAP3 SWAP2 POP POP JUMP JUMPDEST PUSH1 0x0 PUSH1 0x20 DUP3 ADD SWAP1 POP PUSH2 0x1169 PUSH1 0x0 DUP4 ADD DUP5 PUSH2 0xE88 JUMP JUMPDEST SWAP3 SWAP2 POP POP JUMP JUMPDEST PUSH1 0x0 PUSH1 0x20 DUP3 ADD SWAP1 POP PUSH2 0x1184 PUSH1 0x0 DUP4 ADD DUP5 PUSH2 0xE97 JUMP JUMPDEST SWAP3 SWAP2 POP POP JUMP JUMPDEST PUSH2 0x1193 DUP2 PUSH2 0x1118 JUMP JUMPDEST DUP2 EQ PUSH2 0x119E JUMPI PUSH1 0x0 DUP1 REVERT JUMPDEST POP JUMP JUMPDEST PUSH1 0x0 DUP2 CALLDATALOAD SWAP1 POP PUSH2 0x11B0 DUP2 PUSH2 0x118A JUMP JUMPDEST SWAP3 SWAP2 POP POP JUMP JUMPDEST PUSH1 0x0 PUSH1 0x20 DUP3 DUP5 SUB SLT ISZERO PUSH2 0x11CC JUMPI PUSH2 0x11CB PUSH2 0xCDB JUMP JUMPDEST JUMPDEST PUSH1 0x0 PUSH2 0x11DA DUP5 DUP3 DUP6 ADD PUSH2 0x11A1 JUMP JUMPDEST SWAP2 POP POP SWAP3 SWAP2 POP POP JUMP JUMPDEST PUSH1 0x0 PUSH1 0x20 DUP3 ADD SWAP1 POP DUP2 DUP2 SUB PUSH1 0x0 DUP4 ADD MSTORE PUSH2 0x11FD DUP2 DUP5 PUSH2 0xFD6 JUMP JUMPDEST SWAP1 POP SWAP3 SWAP2 POP POP JUMP JUMPDEST PUSH1 0x0 DUP2 MLOAD SWAP1 POP PUSH2 0x1214 DUP2 PUSH2 0xD4F JUMP JUMPDEST SWAP3 SWAP2 POP POP JUMP JUMPDEST PUSH1 0x0 PUSH1 0x20 DUP3 DUP5 SUB SLT ISZERO PUSH2 0x1230 JUMPI PUSH2 0x122F PUSH2 0xCDB JUMP JUMPDEST JUMPDEST PUSH1 0x0 PUSH2 0x123E DUP5 DUP3 DUP6 ADD PUSH2 0x1205 JUMP JUMPDEST SWAP2 POP POP SWAP3 SWAP2 POP POP JUMP JUMPDEST PUSH32 0x546869732061646472657373206973206E6F7420766572696669656400000000 PUSH1 0x0 DUP3 ADD MSTORE POP JUMP JUMPDEST PUSH1 0x0 PUSH2 0x127D PUSH1 0x1C DUP4 PUSH2 0xEB1 JUMP JUMPDEST SWAP2 POP PUSH2 0x1288 DUP3 PUSH2 0x1247 JUMP JUMPDEST PUSH1 0x20 DUP3 ADD SWAP1 POP SWAP2 SWAP1 POP JUMP JUMPDEST PUSH1 0x0 PUSH1 0x20 DUP3 ADD SWAP1 POP DUP2 DUP2 SUB PUSH1 0x0 DUP4 ADD MSTORE PUSH2 0x12AC DUP2 PUSH2 0x1270 JUMP JUMPDEST SWAP1 POP SWAP2 SWAP1 POP JUMP JUMPDEST PUSH32 0x5468697320706F6C6C2069732063757272656E746C7920636C6F736564000000 PUSH1 0x0 DUP3 ADD MSTORE POP JUMP JUMPDEST PUSH1 0x0 PUSH2 0x12E9 PUSH1 0x1D DUP4 PUSH2 0xEB1 JUMP JUMPDEST SWAP2 POP PUSH2 0x12F4 DUP3 PUSH2 0x12B3 JUMP JUMPDEST PUSH1 0x20 DUP3 ADD SWAP1 POP SWAP2 SWAP1 POP JUMP JUMPDEST PUSH1 0x0 PUSH1 0x20 DUP3 ADD SWAP1 POP DUP2 DUP2 SUB PUSH1 0x0 DUP4 ADD MSTORE PUSH2 0x1318 DUP2 PUSH2 0x12DC JUMP JUMPDEST SWAP1 POP SWAP2 SWAP1 POP JUMP JUMPDEST PUSH32 0x54686973206164647265737320616C726561647920766F746564000000000000 PUSH1 0x0 DUP3 ADD MSTORE POP JUMP JUMPDEST PUSH1 0x0 PUSH2 0x1355 PUSH1 0x1A DUP4 PUSH2 0xEB1 JUMP JUMPDEST SWAP2 POP PUSH2 0x1360 DUP3 PUSH2 0x131F JUMP JUMPDEST PUSH1 0x20 DUP3 ADD SWAP1 POP SWAP2 SWAP1 POP JUMP JUMPDEST PUSH1 0x0 PUSH1 0x20 DUP3 ADD SWAP1 POP DUP2 DUP2 SUB PUSH1 0x0 DUP4 ADD MSTORE PUSH2 0x1384 DUP2 PUSH2 0x1348 JUMP JUMPDEST SWAP1 POP SWAP2 SWAP1 POP JUMP JUMPDEST PUSH32 0x4E487B7100000000000000000000000000000000000000000000000000000000 PUSH1 0x0 MSTORE PUSH1 0x32 PUSH1 0x4 MSTORE PUSH1 0x24 PUSH1 0x0 REVERT JUMPDEST PUSH32 0x4E487B7100000000000000000000000000000000000000000000000000000000 PUSH1 0x0 MSTORE PUSH1 0x11 PUSH1 0x4 MSTORE PUSH1 0x24 PUSH1 0x0 REVERT JUMPDEST PUSH1 0x0 PUSH2 0x13F4 DUP3 PUSH2 0xCE0 JUMP JUMPDEST SWAP2 POP PUSH2 0x13FF DUP4 PUSH2 0xCE0 JUMP JUMPDEST SWAP3 POP DUP3 PUSH32 0xFFFFFFFFFFFFFFFFFFFFFFFFFFFFFFFFFFFFFFFFFFFFFFFFFFFFFFFFFFFFFFFF SUB DUP3 GT ISZERO PUSH2 0x1434 JUMPI PUSH2 0x1433 PUSH2 0x13BA JUMP JUMPDEST JUMPDEST DUP3 DUP3 ADD SWAP1 POP SWAP3 SWAP2 POP POP JUMP JUMPDEST PUSH1 0x0 PUSH1 0x40 DUP3 ADD SWAP1 POP PUSH2 0x1454 PUSH1 0x0 DUP4 ADD DUP6 PUSH2 0xE97 JUMP JUMPDEST PUSH2 0x1461 PUSH1 0x20 DUP4 ADD DUP5 PUSH2 0xE97 JUMP JUMPDEST SWAP4 SWAP3 POP POP POP JUMP JUMPDEST PUSH32 0x4F6E6C7920746865206D616E616765722063616E2063616C6C2074686973206D PUSH1 0x0 DUP3 ADD MSTORE PUSH32 0x6574686F64000000000000000000000000000000000000000000000000000000 PUSH1 0x20 DUP3 ADD MSTORE POP JUMP JUMPDEST PUSH1 0x0 PUSH2 0x14C4 PUSH1 0x25 DUP4 PUSH2 0xEB1 JUMP JUMPDEST SWAP2 POP PUSH2 0x14CF DUP3 PUSH2 0x1468 JUMP JUMPDEST PUSH1 0x40 DUP3 ADD SWAP1 POP SWAP2 SWAP1 POP JUMP JUMPDEST PUSH1 0x0 PUSH1 0x20 DUP3 ADD SWAP1 POP DUP2 DUP2 SUB PUSH1 0x0 DUP4 ADD MSTORE PUSH2 0x14F3 DUP2 PUSH2 0x14B7 JUMP JUMPDEST SWAP1 POP SWAP2 SWAP1 POP JUMP JUMPDEST PUSH32 0x4E487B7100000000000000000000000000000000000000000000000000000000 PUSH1 0x0 MSTORE PUSH1 0x22 PUSH1 0x4 MSTORE PUSH1 0x24 PUSH1 0x0 REVERT JUMPDEST PUSH1 0x0 PUSH1 0x2 DUP3 DIV SWAP1 POP PUSH1 0x1 DUP3 AND DUP1 PUSH2 0x1541 JUMPI PUSH1 0x7F DUP3 AND SWAP2 POP JUMPDEST PUSH1 0x20 DUP3 LT DUP2 EQ ISZERO PUSH2 0x1555 JUMPI PUSH2 0x1554 PUSH2 0x14FA JUMP JUMPDEST JUMPDEST POP SWAP2 SWAP1 POP JUMP JUMPDEST PUSH1 0x0 PUSH2 0x1566 DUP3 PUSH2 0xCE0 JUMP JUMPDEST SWAP2 POP PUSH32 0xFFFFFFFFFFFFFFFFFFFFFFFFFFFFFFFFFFFFFFFFFFFFFFFFFFFFFFFFFFFFFFFF DUP3 EQ ISZERO PUSH2 0x1599 JUMPI PUSH2 0x1598 PUSH2 0x13BA JUMP JUMPDEST JUMPDEST PUSH1 0x1 DUP3 ADD SWAP1 POP SWAP2 SWAP1 POP JUMP INVALID LOG2 PUSH5 0x6970667358 0x22 SLT KECCAK256 BYTE 0xC8 CHAINID PUSH8 0xF63246F6F7D2F77B MSTORE 0xDD DUP13 0xF 0x1F EQ 0x4C 0xC7 0xBA 0xB2 0xCA DUP15 0xAC SWAP5 CALLDATASIZE MSTORE PUSH1 0x7D 0xEE PUSH30 0x64736F6C634300080B003300000000000000000000000000000000000000 "
    },
    "gasEstimates": {
      "creation": {
        "codeDepositCost": "1118800",
        "executionCost": "infinite",
        "totalCost": "infinite"
      },
      "external": {
        "closed()": "2494",
        "description()": "infinite",
        "getOptions()": "infinite",
        "getSummary()": "infinite",
        "getVotes()": "infinite",
        "getWinner()": "infinite",
        "manager()": "2631",
        "options(uint256)": "infinite",
        "pause(bool)": "infinite",
        "paused()": "2566",
        "title()": "infinite",
        "vote(uint256)": "infinite",
        "voted(address)": "2889",
        "votes(uint256)": "infinite",
        "winner()": "2517"
      }
    },
    "methodIdentifiers": {
      "closed()": "597e1fb5",
      "description()": "7284e416",
      "getOptions()": "cc2ee196",
      "getSummary()": "4051ddac",
      "getVotes()": "0dc96015",
      "getWinner()": "8e7ea5b2",
      "manager()": "481c6a75",
      "options(uint256)": "409e2205",
      "pause(bool)": "02329a29",
      "paused()": "5c975abb",
      "title()": "4a79d50c",
      "vote(uint256)": "0121b93f",
      "voted(address)": "aec2ccae",
      "votes(uint256)": "5df81330",
      "winner()": "dfbf53ae"
    }
  },
  "storageLayout": {
    "storage": [
      {
        "astId": 80,
        "contract": "Poll.sol:Poll",
        "label": "pollFactory",
        "offset": 0,
        "slot": "0",
        "type": "t_contract(PollFactory)77"
      },
      {
        "astId": 84,
        "contract": "Poll.sol:Poll",
        "label": "voted",
        "offset": 0,
        "slot": "1",
        "type": "t_mapping(t_address,t_bool)"
      },
      {
        "astId": 87,
        "contract": "Poll.sol:Poll",
        "label": "options",
        "offset": 0,
        "slot": "2",
        "type": "t_array(t_string_storage)dyn_storage"
      },
      {
        "astId": 89,
        "contract": "Poll.sol:Poll",
        "label": "title",
        "offset": 0,
        "slot": "3",
        "type": "t_string_storage"
      },
      {
        "astId": 91,
        "contract": "Poll.sol:Poll",
        "label": "description",
        "offset": 0,
        "slot": "4",
        "type": "t_string_storage"
      },
      {
        "astId": 94,
        "contract": "Poll.sol:Poll",
        "label": "votes",
        "offset": 0,
        "slot": "5",
        "type": "t_array(t_uint256)dyn_storage"
      },
      {
        "astId": 96,
        "contract": "Poll.sol:Poll",
        "label": "winner",
        "offset": 0,
        "slot": "6",
        "type": "t_uint256"
      },
      {
        "astId": 98,
        "contract": "Poll.sol:Poll",
        "label": "closed",
        "offset": 0,
        "slot": "7",
        "type": "t_bool"
      },
      {
        "astId": 100,
        "contract": "Poll.sol:Poll",
        "label": "paused",
        "offset": 1,
        "slot": "7",
        "type": "t_bool"
      },
      {
        "astId": 102,
        "contract": "Poll.sol:Poll",
        "label": "manager",
        "offset": 2,
        "slot": "7",
        "type": "t_address"
      }
    ],
    "types": {
      "t_address": {
        "encoding": "inplace",
        "label": "address",
        "numberOfBytes": "20"
      },
      "t_array(t_string_storage)dyn_storage": {
        "base": "t_string_storage",
        "encoding": "dynamic_array",
        "label": "string[]",
        "numberOfBytes": "32"
      },
      "t_array(t_uint256)dyn_storage": {
        "base": "t_uint256",
        "encoding": "dynamic_array",
        "label": "uint256[]",
        "numberOfBytes": "32"
      },
      "t_bool": {
        "encoding": "inplace",
        "label": "bool",
        "numberOfBytes": "1"
      },
      "t_contract(PollFactory)77": {
        "encoding": "inplace",
        "label": "contract PollFactory",
        "numberOfBytes": "20"
      },
      "t_mapping(t_address,t_bool)": {
        "encoding": "mapping",
        "key": "t_address",
        "label": "mapping(address => bool)",
        "numberOfBytes": "32",
        "value": "t_bool"
      },
      "t_string_storage": {
        "encoding": "bytes",
        "label": "string",
        "numberOfBytes": "32"
      },
      "t_uint256": {
        "encoding": "inplace",
        "label": "uint256",
        "numberOfBytes": "32"
      }
    }
  },
  "userdoc": {
    "kind": "user",
    "methods": {},
    "version": 1
  }
}