{
  "abi": [
    {
      "inputs": [
        {
          "internalType": "string",
          "name": "title",
          "type": "string"
        },
        {
          "internalType": "string",
          "name": "description",
          "type": "string"
        },
        {
          "internalType": "string[]",
          "name": "options",
          "type": "string[]"
        }
      ],
      "name": "createPoll",
      "outputs": [],
      "stateMutability": "nonpayable",
      "type": "function"
    },
    {
      "inputs": [
        {
          "internalType": "uint256",
          "name": "",
          "type": "uint256"
        }
      ],
      "name": "deployedPolls",
      "outputs": [
        {
          "internalType": "address",
          "name": "",
          "type": "address"
        }
      ],
      "stateMutability": "view",
      "type": "function"
    },
    {
      "inputs": [],
      "name": "getDeployedPolls",
      "outputs": [
        {
          "internalType": "address[]",
          "name": "",
          "type": "address[]"
        }
      ],
      "stateMutability": "view",
      "type": "function"
    },
    {
      "inputs": [],
      "name": "verify",
      "outputs": [],
      "stateMutability": "payable",
      "type": "function"
    },
    {
      "inputs": [
        {
          "internalType": "address",
          "name": "",
          "type": "address"
        }
      ],
      "name": "voters",
      "outputs": [
        {
          "internalType": "bool",
          "name": "",
          "type": "bool"
        }
      ],
      "stateMutability": "view",
      "type": "function"
    }
  ],
  "devdoc": {
    "kind": "dev",
    "methods": {},
    "version": 1
  },
  "evm": {
    "assembly": "    /* \"Poll.sol\":28:666  contract PollFactory {... */\n  mstore(0x40, 0x80)\n  callvalue\n  dup1\n  iszero\n  tag_1\n  jumpi\n  0x00\n  dup1\n  revert\ntag_1:\n  pop\n  dataSize(sub_0)\n  dup1\n  dataOffset(sub_0)\n  0x00\n  codecopy\n  0x00\n  return\nstop\n\nsub_0: assembly {\n        /* \"Poll.sol\":28:666  contract PollFactory {... */\n      mstore(0x40, 0x80)\n      jumpi(tag_1, lt(calldatasize, 0x04))\n      shr(0xe0, calldataload(0x00))\n      dup1\n      0x98460be7\n      eq\n      tag_2\n      jumpi\n      dup1\n      0xa3ec138d\n      eq\n      tag_3\n      jumpi\n      dup1\n      0xcfba7a09\n      eq\n      tag_4\n      jumpi\n      dup1\n      0xed819151\n      eq\n      tag_5\n      jumpi\n      dup1\n      0xfc735e99\n      eq\n      tag_6\n      jumpi\n    tag_1:\n      0x00\n      dup1\n      revert\n        /* \"Poll.sol\":557:663  function getDeployedPolls() public view returns (address[] memory) {... */\n    tag_2:\n      callvalue\n      dup1\n      iszero\n      tag_7\n      jumpi\n      0x00\n      dup1\n      revert\n    tag_7:\n      pop\n      tag_8\n      tag_9\n      jump\t// in\n    tag_8:\n      mload(0x40)\n      tag_10\n      swap2\n      swap1\n      tag_11\n      jump\t// in\n    tag_10:\n      mload(0x40)\n      dup1\n      swap2\n      sub\n      swap1\n      return\n        /* \"Poll.sol\":93:131  mapping(address => bool) public voters */\n    tag_3:\n      callvalue\n      dup1\n      iszero\n      tag_12\n      jumpi\n      0x00\n      dup1\n      revert\n    tag_12:\n      pop\n      tag_13\n      0x04\n      dup1\n      calldatasize\n      sub\n      dup2\n      add\n      swap1\n      tag_14\n      swap2\n      swap1\n      tag_15\n      jump\t// in\n    tag_14:\n      tag_16\n      jump\t// in\n    tag_13:\n      mload(0x40)\n      tag_17\n      swap2\n      swap1\n      tag_18\n      jump\t// in\n    tag_17:\n      mload(0x40)\n      dup1\n      swap2\n      sub\n      swap1\n      return\n        /* \"Poll.sol\":140:379  function createPoll(string calldata title, string calldata description, string[] calldata options) public {... */\n    tag_4:\n      callvalue\n      dup1\n      iszero\n      tag_19\n      jumpi\n      0x00\n      dup1\n      revert\n    tag_19:\n      pop\n      tag_20\n      0x04\n      dup1\n      calldatasize\n      sub\n      dup2\n      add\n      swap1\n      tag_21\n      swap2\n      swap1\n      tag_22\n      jump\t// in\n    tag_21:\n      tag_23\n      jump\t// in\n    tag_20:\n      stop\n        /* \"Poll.sol\":56:86  address[] public deployedPolls */\n    tag_5:\n      callvalue\n      dup1\n      iszero\n      tag_24\n      jumpi\n      0x00\n      dup1\n      revert\n    tag_24:\n      pop\n      tag_25\n      0x04\n      dup1\n      calldatasize\n      sub\n      dup2\n      add\n      swap1\n      tag_26\n      swap2\n      swap1\n      tag_27\n      jump\t// in\n    tag_26:\n      tag_28\n      jump\t// in\n    tag_25:\n      mload(0x40)\n      tag_29\n      swap2\n      swap1\n      tag_30\n      jump\t// in\n    tag_29:\n      mload(0x40)\n      dup1\n      swap2\n      sub\n      swap1\n      return\n        /* \"Poll.sol\":387:549  function verify() public payable {... */\n    tag_6:\n      tag_31\n      tag_32\n      jump\t// in\n    tag_31:\n      stop\n        /* \"Poll.sol\":557:663  function getDeployedPolls() public view returns (address[] memory) {... */\n    tag_9:\n        /* \"Poll.sol\":606:622  address[] memory */\n      0x60\n        /* \"Poll.sol\":642:655  deployedPolls */\n      0x00\n        /* \"Poll.sol\":635:655  return deployedPolls */\n      dup1\n      sload\n      dup1\n      0x20\n      mul\n      0x20\n      add\n      mload(0x40)\n      swap1\n      dup2\n      add\n      0x40\n      mstore\n      dup1\n      swap3\n      swap2\n      swap1\n      dup2\n      dup2\n      mstore\n      0x20\n      add\n      dup3\n      dup1\n      sload\n      dup1\n      iszero\n      tag_34\n      jumpi\n      0x20\n      mul\n      dup3\n      add\n      swap2\n      swap1\n      0x00\n      mstore\n      keccak256(0x00, 0x20)\n      swap1\n    tag_35:\n      dup2\n      0x00\n      swap1\n      sload\n      swap1\n      0x0100\n      exp\n      swap1\n      div\n      0xffffffffffffffffffffffffffffffffffffffff\n      and\n      0xffffffffffffffffffffffffffffffffffffffff\n      and\n      dup2\n      mstore\n      0x20\n      add\n      swap1\n      0x01\n      add\n      swap1\n      dup1\n      dup4\n      gt\n      tag_35\n      jumpi\n    tag_34:\n      pop\n      pop\n      pop\n      pop\n      pop\n      swap1\n      pop\n        /* \"Poll.sol\":557:663  function getDeployedPolls() public view returns (address[] memory) {... */\n      swap1\n      jump\t// out\n        /* \"Poll.sol\":93:131  mapping(address => bool) public voters */\n    tag_16:\n      mstore(0x20, 0x01)\n      dup1\n      0x00\n      mstore\n      keccak256(0x00, 0x40)\n      0x00\n      swap2\n      pop\n      sload\n      swap1\n      0x0100\n      exp\n      swap1\n      div\n      0xff\n      and\n      dup2\n      jump\t// out\n        /* \"Poll.sol\":140:379  function createPoll(string calldata title, string calldata description, string[] calldata options) public {... */\n    tag_23:\n        /* \"Poll.sol\":257:269  address poll */\n      0x00\n        /* \"Poll.sol\":289:299  msg.sender */\n      caller\n        /* \"Poll.sol\":301:306  title */\n      dup8\n      dup8\n        /* \"Poll.sol\":308:319  description */\n      dup8\n      dup8\n        /* \"Poll.sol\":321:328  options */\n      dup8\n      dup8\n        /* \"Poll.sol\":330:334  this */\n      address\n        /* \"Poll.sol\":280:335  new Poll(msg.sender, title, description, options, this) */\n      mload(0x40)\n      tag_37\n      swap1\n      tag_38\n      jump\t// in\n    tag_37:\n      tag_39\n      swap9\n      swap8\n      swap7\n      swap6\n      swap5\n      swap4\n      swap3\n      swap2\n      swap1\n      tag_40\n      jump\t// in\n    tag_39:\n      mload(0x40)\n      dup1\n      swap2\n      sub\n      swap1\n      0x00\n      create\n      dup1\n      iszero\n      dup1\n      iszero\n      tag_41\n      jumpi\n      returndatasize\n      0x00\n      dup1\n      returndatacopy\n      revert(0x00, returndatasize)\n    tag_41:\n      pop\n        /* \"Poll.sol\":257:336  address poll = address(new Poll(msg.sender, title, description, options, this)) */\n      swap1\n      pop\n        /* \"Poll.sol\":347:360  deployedPolls */\n      0x00\n        /* \"Poll.sol\":366:370  poll */\n      dup2\n        /* \"Poll.sol\":347:371  deployedPolls.push(poll) */\n      swap1\n      dup1\n      0x01\n      dup2\n      sload\n      add\n      dup1\n      dup3\n      sstore\n      dup1\n      swap2\n      pop\n      pop\n      0x01\n      swap1\n      sub\n      swap1\n      0x00\n      mstore\n      keccak256(0x00, 0x20)\n      add\n      0x00\n      swap1\n      swap2\n      swap1\n      swap2\n      swap1\n      swap2\n      0x0100\n      exp\n      dup2\n      sload\n      dup2\n      0xffffffffffffffffffffffffffffffffffffffff\n      mul\n      not\n      and\n      swap1\n      dup4\n      0xffffffffffffffffffffffffffffffffffffffff\n      and\n      mul\n      or\n      swap1\n      sstore\n      pop\n        /* \"Poll.sol\":246:379  {... */\n      pop\n        /* \"Poll.sol\":140:379  function createPoll(string calldata title, string calldata description, string[] calldata options) public {... */\n      pop\n      pop\n      pop\n      pop\n      pop\n      pop\n      jump\t// out\n        /* \"Poll.sol\":56:86  address[] public deployedPolls */\n    tag_28:\n      0x00\n      dup2\n      dup2\n      sload\n      dup2\n      lt\n      tag_43\n      jumpi\n      0x00\n      dup1\n      revert\n    tag_43:\n      swap1\n      0x00\n      mstore\n      keccak256(0x00, 0x20)\n      add\n      0x00\n      swap2\n      pop\n      sload\n      swap1\n      0x0100\n      exp\n      swap1\n      div\n      0xffffffffffffffffffffffffffffffffffffffff\n      and\n      dup2\n      jump\t// out\n        /* \"Poll.sol\":387:549  function verify() public payable {... */\n    tag_32:\n        /* \"Poll.sol\":452:463  0.001 ether */\n      0x038d7ea4c68000\n        /* \"Poll.sol\":439:448  msg.value */\n      callvalue\n        /* \"Poll.sol\":439:463  msg.value == 0.001 ether */\n      eq\n        /* \"Poll.sol\":431:464  require(msg.value == 0.001 ether) */\n      tag_46\n      jumpi\n      0x00\n      dup1\n      revert\n    tag_46:\n        /* \"Poll.sol\":484:490  voters */\n      0x01\n        /* \"Poll.sol\":484:502  voters[msg.sender] */\n      0x00\n        /* \"Poll.sol\":491:501  msg.sender */\n      caller\n        /* \"Poll.sol\":484:502  voters[msg.sender] */\n      0xffffffffffffffffffffffffffffffffffffffff\n      and\n      0xffffffffffffffffffffffffffffffffffffffff\n      and\n      dup2\n      mstore\n      0x20\n      add\n      swap1\n      dup2\n      mstore\n      0x20\n      add\n      0x00\n      keccak256\n      0x00\n      swap1\n      sload\n      swap1\n      0x0100\n      exp\n      swap1\n      div\n      0xff\n      and\n        /* \"Poll.sol\":483:502  !voters[msg.sender] */\n      iszero\n        /* \"Poll.sol\":475:503  require(!voters[msg.sender]) */\n      tag_47\n      jumpi\n      0x00\n      dup1\n      revert\n    tag_47:\n        /* \"Poll.sol\":537:541  true */\n      0x01\n        /* \"Poll.sol\":516:522  voters */\n      dup1\n        /* \"Poll.sol\":516:534  voters[msg.sender] */\n      0x00\n        /* \"Poll.sol\":523:533  msg.sender */\n      caller\n        /* \"Poll.sol\":516:534  voters[msg.sender] */\n      0xffffffffffffffffffffffffffffffffffffffff\n      and\n      0xffffffffffffffffffffffffffffffffffffffff\n      and\n      dup2\n      mstore\n      0x20\n      add\n      swap1\n      dup2\n      mstore\n      0x20\n      add\n      0x00\n      keccak256\n      0x00\n        /* \"Poll.sol\":516:541  voters[msg.sender] = true */\n      0x0100\n      exp\n      dup2\n      sload\n      dup2\n      0xff\n      mul\n      not\n      and\n      swap1\n      dup4\n      iszero\n      iszero\n      mul\n      or\n      swap1\n      sstore\n      pop\n        /* \"Poll.sol\":387:549  function verify() public payable {... */\n      jump\t// out\n    tag_38:\n      dataSize(sub_0)\n      dup1\n      dataOffset(sub_0)\n      dup4\n      codecopy\n      add\n      swap1\n      jump\t// out\n        /* \"#utility.yul\":7:121   */\n    tag_48:\n        /* \"#utility.yul\":74:80   */\n      0x00\n        /* \"#utility.yul\":108:113   */\n      dup2\n        /* \"#utility.yul\":102:114   */\n      mload\n        /* \"#utility.yul\":92:114   */\n      swap1\n      pop\n        /* \"#utility.yul\":7:121   */\n      swap2\n      swap1\n      pop\n      jump\t// out\n        /* \"#utility.yul\":127:311   */\n    tag_49:\n        /* \"#utility.yul\":226:237   */\n      0x00\n        /* \"#utility.yul\":260:266   */\n      dup3\n        /* \"#utility.yul\":255:258   */\n      dup3\n        /* \"#utility.yul\":248:267   */\n      mstore\n        /* \"#utility.yul\":300:304   */\n      0x20\n        /* \"#utility.yul\":295:298   */\n      dup3\n        /* \"#utility.yul\":291:305   */\n      add\n        /* \"#utility.yul\":276:305   */\n      swap1\n      pop\n        /* \"#utility.yul\":127:311   */\n      swap3\n      swap2\n      pop\n      pop\n      jump\t// out\n        /* \"#utility.yul\":317:449   */\n    tag_50:\n        /* \"#utility.yul\":384:388   */\n      0x00\n        /* \"#utility.yul\":407:410   */\n      dup2\n        /* \"#utility.yul\":399:410   */\n      swap1\n      pop\n        /* \"#utility.yul\":437:441   */\n      0x20\n        /* \"#utility.yul\":432:435   */\n      dup3\n        /* \"#utility.yul\":428:442   */\n      add\n        /* \"#utility.yul\":420:442   */\n      swap1\n      pop\n        /* \"#utility.yul\":317:449   */\n      swap2\n      swap1\n      pop\n      jump\t// out\n        /* \"#utility.yul\":455:581   */\n    tag_51:\n        /* \"#utility.yul\":492:499   */\n      0x00\n        /* \"#utility.yul\":532:574   */\n      0xffffffffffffffffffffffffffffffffffffffff\n        /* \"#utility.yul\":525:530   */\n      dup3\n        /* \"#utility.yul\":521:575   */\n      and\n        /* \"#utility.yul\":510:575   */\n      swap1\n      pop\n        /* \"#utility.yul\":455:581   */\n      swap2\n      swap1\n      pop\n      jump\t// out\n        /* \"#utility.yul\":587:683   */\n    tag_52:\n        /* \"#utility.yul\":624:631   */\n      0x00\n        /* \"#utility.yul\":653:677   */\n      tag_99\n        /* \"#utility.yul\":671:676   */\n      dup3\n        /* \"#utility.yul\":653:677   */\n      tag_51\n      jump\t// in\n    tag_99:\n        /* \"#utility.yul\":642:677   */\n      swap1\n      pop\n        /* \"#utility.yul\":587:683   */\n      swap2\n      swap1\n      pop\n      jump\t// out\n        /* \"#utility.yul\":689:797   */\n    tag_53:\n        /* \"#utility.yul\":766:790   */\n      tag_101\n        /* \"#utility.yul\":784:789   */\n      dup2\n        /* \"#utility.yul\":766:790   */\n      tag_52\n      jump\t// in\n    tag_101:\n        /* \"#utility.yul\":761:764   */\n      dup3\n        /* \"#utility.yul\":754:791   */\n      mstore\n        /* \"#utility.yul\":689:797   */\n      pop\n      pop\n      jump\t// out\n        /* \"#utility.yul\":803:982   */\n    tag_54:\n        /* \"#utility.yul\":872:882   */\n      0x00\n        /* \"#utility.yul\":893:939   */\n      tag_103\n        /* \"#utility.yul\":935:938   */\n      dup4\n        /* \"#utility.yul\":927:933   */\n      dup4\n        /* \"#utility.yul\":893:939   */\n      tag_53\n      jump\t// in\n    tag_103:\n        /* \"#utility.yul\":971:975   */\n      0x20\n        /* \"#utility.yul\":966:969   */\n      dup4\n        /* \"#utility.yul\":962:976   */\n      add\n        /* \"#utility.yul\":948:976   */\n      swap1\n      pop\n        /* \"#utility.yul\":803:982   */\n      swap3\n      swap2\n      pop\n      pop\n      jump\t// out\n        /* \"#utility.yul\":988:1101   */\n    tag_55:\n        /* \"#utility.yul\":1058:1062   */\n      0x00\n        /* \"#utility.yul\":1090:1094   */\n      0x20\n        /* \"#utility.yul\":1085:1088   */\n      dup3\n        /* \"#utility.yul\":1081:1095   */\n      add\n        /* \"#utility.yul\":1073:1095   */\n      swap1\n      pop\n        /* \"#utility.yul\":988:1101   */\n      swap2\n      swap1\n      pop\n      jump\t// out\n        /* \"#utility.yul\":1137:1869   */\n    tag_56:\n        /* \"#utility.yul\":1256:1259   */\n      0x00\n        /* \"#utility.yul\":1285:1339   */\n      tag_106\n        /* \"#utility.yul\":1333:1338   */\n      dup3\n        /* \"#utility.yul\":1285:1339   */\n      tag_48\n      jump\t// in\n    tag_106:\n        /* \"#utility.yul\":1355:1441   */\n      tag_107\n        /* \"#utility.yul\":1434:1440   */\n      dup2\n        /* \"#utility.yul\":1429:1432   */\n      dup6\n        /* \"#utility.yul\":1355:1441   */\n      tag_49\n      jump\t// in\n    tag_107:\n        /* \"#utility.yul\":1348:1441   */\n      swap4\n      pop\n        /* \"#utility.yul\":1465:1521   */\n      tag_108\n        /* \"#utility.yul\":1515:1520   */\n      dup4\n        /* \"#utility.yul\":1465:1521   */\n      tag_50\n      jump\t// in\n    tag_108:\n        /* \"#utility.yul\":1544:1551   */\n      dup1\n        /* \"#utility.yul\":1575:1576   */\n      0x00\n        /* \"#utility.yul\":1560:1844   */\n    tag_109:\n        /* \"#utility.yul\":1585:1591   */\n      dup4\n        /* \"#utility.yul\":1582:1583   */\n      dup2\n        /* \"#utility.yul\":1579:1592   */\n      lt\n        /* \"#utility.yul\":1560:1844   */\n      iszero\n      tag_111\n      jumpi\n        /* \"#utility.yul\":1661:1667   */\n      dup2\n        /* \"#utility.yul\":1655:1668   */\n      mload\n        /* \"#utility.yul\":1688:1751   */\n      tag_112\n        /* \"#utility.yul\":1747:1750   */\n      dup9\n        /* \"#utility.yul\":1732:1745   */\n      dup3\n        /* \"#utility.yul\":1688:1751   */\n      tag_54\n      jump\t// in\n    tag_112:\n        /* \"#utility.yul\":1681:1751   */\n      swap8\n      pop\n        /* \"#utility.yul\":1774:1834   */\n      tag_113\n        /* \"#utility.yul\":1827:1833   */\n      dup4\n        /* \"#utility.yul\":1774:1834   */\n      tag_55\n      jump\t// in\n    tag_113:\n        /* \"#utility.yul\":1764:1834   */\n      swap3\n      pop\n        /* \"#utility.yul\":1620:1844   */\n      pop\n        /* \"#utility.yul\":1607:1608   */\n      0x01\n        /* \"#utility.yul\":1604:1605   */\n      dup2\n        /* \"#utility.yul\":1600:1609   */\n      add\n        /* \"#utility.yul\":1595:1609   */\n      swap1\n      pop\n        /* \"#utility.yul\":1560:1844   */\n      jump(tag_109)\n    tag_111:\n        /* \"#utility.yul\":1564:1578   */\n      pop\n        /* \"#utility.yul\":1860:1863   */\n      dup6\n        /* \"#utility.yul\":1853:1863   */\n      swap4\n      pop\n        /* \"#utility.yul\":1261:1869   */\n      pop\n      pop\n      pop\n        /* \"#utility.yul\":1137:1869   */\n      swap3\n      swap2\n      pop\n      pop\n      jump\t// out\n        /* \"#utility.yul\":1875:2248   */\n    tag_11:\n        /* \"#utility.yul\":2018:2022   */\n      0x00\n        /* \"#utility.yul\":2056:2058   */\n      0x20\n        /* \"#utility.yul\":2045:2054   */\n      dup3\n        /* \"#utility.yul\":2041:2059   */\n      add\n        /* \"#utility.yul\":2033:2059   */\n      swap1\n      pop\n        /* \"#utility.yul\":2105:2114   */\n      dup2\n        /* \"#utility.yul\":2099:2103   */\n      dup2\n        /* \"#utility.yul\":2095:2115   */\n      sub\n        /* \"#utility.yul\":2091:2092   */\n      0x00\n        /* \"#utility.yul\":2080:2089   */\n      dup4\n        /* \"#utility.yul\":2076:2093   */\n      add\n        /* \"#utility.yul\":2069:2116   */\n      mstore\n        /* \"#utility.yul\":2133:2241   */\n      tag_115\n        /* \"#utility.yul\":2236:2240   */\n      dup2\n        /* \"#utility.yul\":2227:2233   */\n      dup5\n        /* \"#utility.yul\":2133:2241   */\n      tag_56\n      jump\t// in\n    tag_115:\n        /* \"#utility.yul\":2125:2241   */\n      swap1\n      pop\n        /* \"#utility.yul\":1875:2248   */\n      swap3\n      swap2\n      pop\n      pop\n      jump\t// out\n        /* \"#utility.yul\":2335:2452   */\n    tag_58:\n        /* \"#utility.yul\":2444:2445   */\n      0x00\n        /* \"#utility.yul\":2441:2442   */\n      dup1\n        /* \"#utility.yul\":2434:2446   */\n      revert\n        /* \"#utility.yul\":2458:2575   */\n    tag_59:\n        /* \"#utility.yul\":2567:2568   */\n      0x00\n        /* \"#utility.yul\":2564:2565   */\n      dup1\n        /* \"#utility.yul\":2557:2569   */\n      revert\n        /* \"#utility.yul\":2581:2703   */\n    tag_60:\n        /* \"#utility.yul\":2654:2678   */\n      tag_120\n        /* \"#utility.yul\":2672:2677   */\n      dup2\n        /* \"#utility.yul\":2654:2678   */\n      tag_52\n      jump\t// in\n    tag_120:\n        /* \"#utility.yul\":2647:2652   */\n      dup2\n        /* \"#utility.yul\":2644:2679   */\n      eq\n        /* \"#utility.yul\":2634:2697   */\n      tag_121\n      jumpi\n        /* \"#utility.yul\":2693:2694   */\n      0x00\n        /* \"#utility.yul\":2690:2691   */\n      dup1\n        /* \"#utility.yul\":2683:2695   */\n      revert\n        /* \"#utility.yul\":2634:2697   */\n    tag_121:\n        /* \"#utility.yul\":2581:2703   */\n      pop\n      jump\t// out\n        /* \"#utility.yul\":2709:2848   */\n    tag_61:\n        /* \"#utility.yul\":2755:2760   */\n      0x00\n        /* \"#utility.yul\":2793:2799   */\n      dup2\n        /* \"#utility.yul\":2780:2800   */\n      calldataload\n        /* \"#utility.yul\":2771:2800   */\n      swap1\n      pop\n        /* \"#utility.yul\":2809:2842   */\n      tag_123\n        /* \"#utility.yul\":2836:2841   */\n      dup2\n        /* \"#utility.yul\":2809:2842   */\n      tag_60\n      jump\t// in\n    tag_123:\n        /* \"#utility.yul\":2709:2848   */\n      swap3\n      swap2\n      pop\n      pop\n      jump\t// out\n        /* \"#utility.yul\":2854:3183   */\n    tag_15:\n        /* \"#utility.yul\":2913:2919   */\n      0x00\n        /* \"#utility.yul\":2962:2964   */\n      0x20\n        /* \"#utility.yul\":2950:2959   */\n      dup3\n        /* \"#utility.yul\":2941:2948   */\n      dup5\n        /* \"#utility.yul\":2937:2960   */\n      sub\n        /* \"#utility.yul\":2933:2965   */\n      slt\n        /* \"#utility.yul\":2930:3049   */\n      iszero\n      tag_125\n      jumpi\n        /* \"#utility.yul\":2968:3047   */\n      tag_126\n      tag_58\n      jump\t// in\n    tag_126:\n        /* \"#utility.yul\":2930:3049   */\n    tag_125:\n        /* \"#utility.yul\":3088:3089   */\n      0x00\n        /* \"#utility.yul\":3113:3166   */\n      tag_127\n        /* \"#utility.yul\":3158:3165   */\n      dup5\n        /* \"#utility.yul\":3149:3155   */\n      dup3\n        /* \"#utility.yul\":3138:3147   */\n      dup6\n        /* \"#utility.yul\":3134:3156   */\n      add\n        /* \"#utility.yul\":3113:3166   */\n      tag_61\n      jump\t// in\n    tag_127:\n        /* \"#utility.yul\":3103:3166   */\n      swap2\n      pop\n        /* \"#utility.yul\":3059:3176   */\n      pop\n        /* \"#utility.yul\":2854:3183   */\n      swap3\n      swap2\n      pop\n      pop\n      jump\t// out\n        /* \"#utility.yul\":3189:3279   */\n    tag_62:\n        /* \"#utility.yul\":3223:3230   */\n      0x00\n        /* \"#utility.yul\":3266:3271   */\n      dup2\n        /* \"#utility.yul\":3259:3272   */\n      iszero\n        /* \"#utility.yul\":3252:3273   */\n      iszero\n        /* \"#utility.yul\":3241:3273   */\n      swap1\n      pop\n        /* \"#utility.yul\":3189:3279   */\n      swap2\n      swap1\n      pop\n      jump\t// out\n        /* \"#utility.yul\":3285:3394   */\n    tag_63:\n        /* \"#utility.yul\":3366:3387   */\n      tag_130\n        /* \"#utility.yul\":3381:3386   */\n      dup2\n        /* \"#utility.yul\":3366:3387   */\n      tag_62\n      jump\t// in\n    tag_130:\n        /* \"#utility.yul\":3361:3364   */\n      dup3\n        /* \"#utility.yul\":3354:3388   */\n      mstore\n        /* \"#utility.yul\":3285:3394   */\n      pop\n      pop\n      jump\t// out\n        /* \"#utility.yul\":3400:3610   */\n    tag_18:\n        /* \"#utility.yul\":3487:3491   */\n      0x00\n        /* \"#utility.yul\":3525:3527   */\n      0x20\n        /* \"#utility.yul\":3514:3523   */\n      dup3\n        /* \"#utility.yul\":3510:3528   */\n      add\n        /* \"#utility.yul\":3502:3528   */\n      swap1\n      pop\n        /* \"#utility.yul\":3538:3603   */\n      tag_132\n        /* \"#utility.yul\":3600:3601   */\n      0x00\n        /* \"#utility.yul\":3589:3598   */\n      dup4\n        /* \"#utility.yul\":3585:3602   */\n      add\n        /* \"#utility.yul\":3576:3582   */\n      dup5\n        /* \"#utility.yul\":3538:3603   */\n      tag_63\n      jump\t// in\n    tag_132:\n        /* \"#utility.yul\":3400:3610   */\n      swap3\n      swap2\n      pop\n      pop\n      jump\t// out\n        /* \"#utility.yul\":3616:3733   */\n    tag_64:\n        /* \"#utility.yul\":3725:3726   */\n      0x00\n        /* \"#utility.yul\":3722:3723   */\n      dup1\n        /* \"#utility.yul\":3715:3727   */\n      revert\n        /* \"#utility.yul\":3739:3856   */\n    tag_65:\n        /* \"#utility.yul\":3848:3849   */\n      0x00\n        /* \"#utility.yul\":3845:3846   */\n      dup1\n        /* \"#utility.yul\":3838:3850   */\n      revert\n        /* \"#utility.yul\":3862:3979   */\n    tag_66:\n        /* \"#utility.yul\":3971:3972   */\n      0x00\n        /* \"#utility.yul\":3968:3969   */\n      dup1\n        /* \"#utility.yul\":3961:3973   */\n      revert\n        /* \"#utility.yul\":3999:4552   */\n    tag_67:\n        /* \"#utility.yul\":4057:4065   */\n      0x00\n        /* \"#utility.yul\":4067:4073   */\n      dup1\n        /* \"#utility.yul\":4117:4120   */\n      dup4\n        /* \"#utility.yul\":4110:4114   */\n      0x1f\n        /* \"#utility.yul\":4102:4108   */\n      dup5\n        /* \"#utility.yul\":4098:4115   */\n      add\n        /* \"#utility.yul\":4094:4121   */\n      slt\n        /* \"#utility.yul\":4084:4206   */\n      tag_137\n      jumpi\n        /* \"#utility.yul\":4125:4204   */\n      tag_138\n      tag_64\n      jump\t// in\n    tag_138:\n        /* \"#utility.yul\":4084:4206   */\n    tag_137:\n        /* \"#utility.yul\":4238:4244   */\n      dup3\n        /* \"#utility.yul\":4225:4245   */\n      calldataload\n        /* \"#utility.yul\":4215:4245   */\n      swap1\n      pop\n        /* \"#utility.yul\":4268:4286   */\n      0xffffffffffffffff\n        /* \"#utility.yul\":4260:4266   */\n      dup2\n        /* \"#utility.yul\":4257:4287   */\n      gt\n        /* \"#utility.yul\":4254:4371   */\n      iszero\n      tag_139\n      jumpi\n        /* \"#utility.yul\":4290:4369   */\n      tag_140\n      tag_65\n      jump\t// in\n    tag_140:\n        /* \"#utility.yul\":4254:4371   */\n    tag_139:\n        /* \"#utility.yul\":4404:4408   */\n      0x20\n        /* \"#utility.yul\":4396:4402   */\n      dup4\n        /* \"#utility.yul\":4392:4409   */\n      add\n        /* \"#utility.yul\":4380:4409   */\n      swap2\n      pop\n        /* \"#utility.yul\":4458:4461   */\n      dup4\n        /* \"#utility.yul\":4450:4454   */\n      0x01\n        /* \"#utility.yul\":4442:4448   */\n      dup3\n        /* \"#utility.yul\":4438:4455   */\n      mul\n        /* \"#utility.yul\":4428:4436   */\n      dup4\n        /* \"#utility.yul\":4424:4456   */\n      add\n        /* \"#utility.yul\":4421:4462   */\n      gt\n        /* \"#utility.yul\":4418:4546   */\n      iszero\n      tag_141\n      jumpi\n        /* \"#utility.yul\":4465:4544   */\n      tag_142\n      tag_66\n      jump\t// in\n    tag_142:\n        /* \"#utility.yul\":4418:4546   */\n    tag_141:\n        /* \"#utility.yul\":3999:4552   */\n      swap3\n      pop\n      swap3\n      swap1\n      pop\n      jump\t// out\n        /* \"#utility.yul\":4574:5154   */\n    tag_68:\n        /* \"#utility.yul\":4659:4667   */\n      0x00\n        /* \"#utility.yul\":4669:4675   */\n      dup1\n        /* \"#utility.yul\":4719:4722   */\n      dup4\n        /* \"#utility.yul\":4712:4716   */\n      0x1f\n        /* \"#utility.yul\":4704:4710   */\n      dup5\n        /* \"#utility.yul\":4700:4717   */\n      add\n        /* \"#utility.yul\":4696:4723   */\n      slt\n        /* \"#utility.yul\":4686:4808   */\n      tag_144\n      jumpi\n        /* \"#utility.yul\":4727:4806   */\n      tag_145\n      tag_64\n      jump\t// in\n    tag_145:\n        /* \"#utility.yul\":4686:4808   */\n    tag_144:\n        /* \"#utility.yul\":4840:4846   */\n      dup3\n        /* \"#utility.yul\":4827:4847   */\n      calldataload\n        /* \"#utility.yul\":4817:4847   */\n      swap1\n      pop\n        /* \"#utility.yul\":4870:4888   */\n      0xffffffffffffffff\n        /* \"#utility.yul\":4862:4868   */\n      dup2\n        /* \"#utility.yul\":4859:4889   */\n      gt\n        /* \"#utility.yul\":4856:4973   */\n      iszero\n      tag_146\n      jumpi\n        /* \"#utility.yul\":4892:4971   */\n      tag_147\n      tag_65\n      jump\t// in\n    tag_147:\n        /* \"#utility.yul\":4856:4973   */\n    tag_146:\n        /* \"#utility.yul\":5006:5010   */\n      0x20\n        /* \"#utility.yul\":4998:5004   */\n      dup4\n        /* \"#utility.yul\":4994:5011   */\n      add\n        /* \"#utility.yul\":4982:5011   */\n      swap2\n      pop\n        /* \"#utility.yul\":5060:5063   */\n      dup4\n        /* \"#utility.yul\":5052:5056   */\n      0x20\n        /* \"#utility.yul\":5044:5050   */\n      dup3\n        /* \"#utility.yul\":5040:5057   */\n      mul\n        /* \"#utility.yul\":5030:5038   */\n      dup4\n        /* \"#utility.yul\":5026:5058   */\n      add\n        /* \"#utility.yul\":5023:5064   */\n      gt\n        /* \"#utility.yul\":5020:5148   */\n      iszero\n      tag_148\n      jumpi\n        /* \"#utility.yul\":5067:5146   */\n      tag_149\n      tag_66\n      jump\t// in\n    tag_149:\n        /* \"#utility.yul\":5020:5148   */\n    tag_148:\n        /* \"#utility.yul\":4574:5154   */\n      swap3\n      pop\n      swap3\n      swap1\n      pop\n      jump\t// out\n        /* \"#utility.yul\":5160:6433   */\n    tag_22:\n        /* \"#utility.yul\":5300:5306   */\n      0x00\n        /* \"#utility.yul\":5308:5314   */\n      dup1\n        /* \"#utility.yul\":5316:5322   */\n      0x00\n        /* \"#utility.yul\":5324:5330   */\n      dup1\n        /* \"#utility.yul\":5332:5338   */\n      0x00\n        /* \"#utility.yul\":5340:5346   */\n      dup1\n        /* \"#utility.yul\":5389:5391   */\n      0x60\n        /* \"#utility.yul\":5377:5386   */\n      dup8\n        /* \"#utility.yul\":5368:5375   */\n      dup10\n        /* \"#utility.yul\":5364:5387   */\n      sub\n        /* \"#utility.yul\":5360:5392   */\n      slt\n        /* \"#utility.yul\":5357:5476   */\n      iszero\n      tag_151\n      jumpi\n        /* \"#utility.yul\":5395:5474   */\n      tag_152\n      tag_58\n      jump\t// in\n    tag_152:\n        /* \"#utility.yul\":5357:5476   */\n    tag_151:\n        /* \"#utility.yul\":5543:5544   */\n      0x00\n        /* \"#utility.yul\":5532:5541   */\n      dup8\n        /* \"#utility.yul\":5528:5545   */\n      add\n        /* \"#utility.yul\":5515:5546   */\n      calldataload\n        /* \"#utility.yul\":5573:5591   */\n      0xffffffffffffffff\n        /* \"#utility.yul\":5565:5571   */\n      dup2\n        /* \"#utility.yul\":5562:5592   */\n      gt\n        /* \"#utility.yul\":5559:5676   */\n      iszero\n      tag_153\n      jumpi\n        /* \"#utility.yul\":5595:5674   */\n      tag_154\n      tag_59\n      jump\t// in\n    tag_154:\n        /* \"#utility.yul\":5559:5676   */\n    tag_153:\n        /* \"#utility.yul\":5708:5773   */\n      tag_155\n        /* \"#utility.yul\":5765:5772   */\n      dup10\n        /* \"#utility.yul\":5756:5762   */\n      dup3\n        /* \"#utility.yul\":5745:5754   */\n      dup11\n        /* \"#utility.yul\":5741:5763   */\n      add\n        /* \"#utility.yul\":5708:5773   */\n      tag_67\n      jump\t// in\n    tag_155:\n        /* \"#utility.yul\":5690:5773   */\n      swap7\n      pop\n      swap7\n      pop\n        /* \"#utility.yul\":5486:5783   */\n      pop\n        /* \"#utility.yul\":5850:5852   */\n      0x20\n        /* \"#utility.yul\":5839:5848   */\n      dup8\n        /* \"#utility.yul\":5835:5853   */\n      add\n        /* \"#utility.yul\":5822:5854   */\n      calldataload\n        /* \"#utility.yul\":5881:5899   */\n      0xffffffffffffffff\n        /* \"#utility.yul\":5873:5879   */\n      dup2\n        /* \"#utility.yul\":5870:5900   */\n      gt\n        /* \"#utility.yul\":5867:5984   */\n      iszero\n      tag_156\n      jumpi\n        /* \"#utility.yul\":5903:5982   */\n      tag_157\n      tag_59\n      jump\t// in\n    tag_157:\n        /* \"#utility.yul\":5867:5984   */\n    tag_156:\n        /* \"#utility.yul\":6016:6081   */\n      tag_158\n        /* \"#utility.yul\":6073:6080   */\n      dup10\n        /* \"#utility.yul\":6064:6070   */\n      dup3\n        /* \"#utility.yul\":6053:6062   */\n      dup11\n        /* \"#utility.yul\":6049:6071   */\n      add\n        /* \"#utility.yul\":6016:6081   */\n      tag_67\n      jump\t// in\n    tag_158:\n        /* \"#utility.yul\":5998:6081   */\n      swap5\n      pop\n      swap5\n      pop\n        /* \"#utility.yul\":5793:6091   */\n      pop\n        /* \"#utility.yul\":6158:6160   */\n      0x40\n        /* \"#utility.yul\":6147:6156   */\n      dup8\n        /* \"#utility.yul\":6143:6161   */\n      add\n        /* \"#utility.yul\":6130:6162   */\n      calldataload\n        /* \"#utility.yul\":6189:6207   */\n      0xffffffffffffffff\n        /* \"#utility.yul\":6181:6187   */\n      dup2\n        /* \"#utility.yul\":6178:6208   */\n      gt\n        /* \"#utility.yul\":6175:6292   */\n      iszero\n      tag_159\n      jumpi\n        /* \"#utility.yul\":6211:6290   */\n      tag_160\n      tag_59\n      jump\t// in\n    tag_160:\n        /* \"#utility.yul\":6175:6292   */\n    tag_159:\n        /* \"#utility.yul\":6324:6416   */\n      tag_161\n        /* \"#utility.yul\":6408:6415   */\n      dup10\n        /* \"#utility.yul\":6399:6405   */\n      dup3\n        /* \"#utility.yul\":6388:6397   */\n      dup11\n        /* \"#utility.yul\":6384:6406   */\n      add\n        /* \"#utility.yul\":6324:6416   */\n      tag_68\n      jump\t// in\n    tag_161:\n        /* \"#utility.yul\":6306:6416   */\n      swap3\n      pop\n      swap3\n      pop\n        /* \"#utility.yul\":6101:6426   */\n      pop\n        /* \"#utility.yul\":5160:6433   */\n      swap3\n      swap6\n      pop\n      swap3\n      swap6\n      pop\n      swap3\n      swap6\n      jump\t// out\n        /* \"#utility.yul\":6439:6516   */\n    tag_69:\n        /* \"#utility.yul\":6476:6483   */\n      0x00\n        /* \"#utility.yul\":6505:6510   */\n      dup2\n        /* \"#utility.yul\":6494:6510   */\n      swap1\n      pop\n        /* \"#utility.yul\":6439:6516   */\n      swap2\n      swap1\n      pop\n      jump\t// out\n        /* \"#utility.yul\":6522:6644   */\n    tag_70:\n        /* \"#utility.yul\":6595:6619   */\n      tag_164\n        /* \"#utility.yul\":6613:6618   */\n      dup2\n        /* \"#utility.yul\":6595:6619   */\n      tag_69\n      jump\t// in\n    tag_164:\n        /* \"#utility.yul\":6588:6593   */\n      dup2\n        /* \"#utility.yul\":6585:6620   */\n      eq\n        /* \"#utility.yul\":6575:6638   */\n      tag_165\n      jumpi\n        /* \"#utility.yul\":6634:6635   */\n      0x00\n        /* \"#utility.yul\":6631:6632   */\n      dup1\n        /* \"#utility.yul\":6624:6636   */\n      revert\n        /* \"#utility.yul\":6575:6638   */\n    tag_165:\n        /* \"#utility.yul\":6522:6644   */\n      pop\n      jump\t// out\n        /* \"#utility.yul\":6650:6789   */\n    tag_71:\n        /* \"#utility.yul\":6696:6701   */\n      0x00\n        /* \"#utility.yul\":6734:6740   */\n      dup2\n        /* \"#utility.yul\":6721:6741   */\n      calldataload\n        /* \"#utility.yul\":6712:6741   */\n      swap1\n      pop\n        /* \"#utility.yul\":6750:6783   */\n      tag_167\n        /* \"#utility.yul\":6777:6782   */\n      dup2\n        /* \"#utility.yul\":6750:6783   */\n      tag_70\n      jump\t// in\n    tag_167:\n        /* \"#utility.yul\":6650:6789   */\n      swap3\n      swap2\n      pop\n      pop\n      jump\t// out\n        /* \"#utility.yul\":6795:7124   */\n    tag_27:\n        /* \"#utility.yul\":6854:6860   */\n      0x00\n        /* \"#utility.yul\":6903:6905   */\n      0x20\n        /* \"#utility.yul\":6891:6900   */\n      dup3\n        /* \"#utility.yul\":6882:6889   */\n      dup5\n        /* \"#utility.yul\":6878:6901   */\n      sub\n        /* \"#utility.yul\":6874:6906   */\n      slt\n        /* \"#utility.yul\":6871:6990   */\n      iszero\n      tag_169\n      jumpi\n        /* \"#utility.yul\":6909:6988   */\n      tag_170\n      tag_58\n      jump\t// in\n    tag_170:\n        /* \"#utility.yul\":6871:6990   */\n    tag_169:\n        /* \"#utility.yul\":7029:7030   */\n      0x00\n        /* \"#utility.yul\":7054:7107   */\n      tag_171\n        /* \"#utility.yul\":7099:7106   */\n      dup5\n        /* \"#utility.yul\":7090:7096   */\n      dup3\n        /* \"#utility.yul\":7079:7088   */\n      dup6\n        /* \"#utility.yul\":7075:7097   */\n      add\n        /* \"#utility.yul\":7054:7107   */\n      tag_71\n      jump\t// in\n    tag_171:\n        /* \"#utility.yul\":7044:7107   */\n      swap2\n      pop\n        /* \"#utility.yul\":7000:7117   */\n      pop\n        /* \"#utility.yul\":6795:7124   */\n      swap3\n      swap2\n      pop\n      pop\n      jump\t// out\n        /* \"#utility.yul\":7130:7248   */\n    tag_72:\n        /* \"#utility.yul\":7217:7241   */\n      tag_173\n        /* \"#utility.yul\":7235:7240   */\n      dup2\n        /* \"#utility.yul\":7217:7241   */\n      tag_52\n      jump\t// in\n    tag_173:\n        /* \"#utility.yul\":7212:7215   */\n      dup3\n        /* \"#utility.yul\":7205:7242   */\n      mstore\n        /* \"#utility.yul\":7130:7248   */\n      pop\n      pop\n      jump\t// out\n        /* \"#utility.yul\":7254:7476   */\n    tag_30:\n        /* \"#utility.yul\":7347:7351   */\n      0x00\n        /* \"#utility.yul\":7385:7387   */\n      0x20\n        /* \"#utility.yul\":7374:7383   */\n      dup3\n        /* \"#utility.yul\":7370:7388   */\n      add\n        /* \"#utility.yul\":7362:7388   */\n      swap1\n      pop\n        /* \"#utility.yul\":7398:7469   */\n      tag_175\n        /* \"#utility.yul\":7466:7467   */\n      0x00\n        /* \"#utility.yul\":7455:7464   */\n      dup4\n        /* \"#utility.yul\":7451:7468   */\n      add\n        /* \"#utility.yul\":7442:7448   */\n      dup5\n        /* \"#utility.yul\":7398:7469   */\n      tag_72\n      jump\t// in\n    tag_175:\n        /* \"#utility.yul\":7254:7476   */\n      swap3\n      swap2\n      pop\n      pop\n      jump\t// out\n        /* \"#utility.yul\":7482:7651   */\n    tag_73:\n        /* \"#utility.yul\":7566:7577   */\n      0x00\n        /* \"#utility.yul\":7600:7606   */\n      dup3\n        /* \"#utility.yul\":7595:7598   */\n      dup3\n        /* \"#utility.yul\":7588:7607   */\n      mstore\n        /* \"#utility.yul\":7640:7644   */\n      0x20\n        /* \"#utility.yul\":7635:7638   */\n      dup3\n        /* \"#utility.yul\":7631:7645   */\n      add\n        /* \"#utility.yul\":7616:7645   */\n      swap1\n      pop\n        /* \"#utility.yul\":7482:7651   */\n      swap3\n      swap2\n      pop\n      pop\n      jump\t// out\n        /* \"#utility.yul\":7657:7811   */\n    tag_74:\n        /* \"#utility.yul\":7741:7747   */\n      dup3\n        /* \"#utility.yul\":7736:7739   */\n      dup2\n        /* \"#utility.yul\":7731:7734   */\n      dup4\n        /* \"#utility.yul\":7718:7748   */\n      calldatacopy\n        /* \"#utility.yul\":7803:7804   */\n      0x00\n        /* \"#utility.yul\":7794:7800   */\n      dup4\n        /* \"#utility.yul\":7789:7792   */\n      dup4\n        /* \"#utility.yul\":7785:7801   */\n      add\n        /* \"#utility.yul\":7778:7805   */\n      mstore\n        /* \"#utility.yul\":7657:7811   */\n      pop\n      pop\n      pop\n      jump\t// out\n        /* \"#utility.yul\":7817:7919   */\n    tag_75:\n        /* \"#utility.yul\":7858:7864   */\n      0x00\n        /* \"#utility.yul\":7909:7911   */\n      0x1f\n        /* \"#utility.yul\":7905:7912   */\n      not\n        /* \"#utility.yul\":7900:7902   */\n      0x1f\n        /* \"#utility.yul\":7893:7898   */\n      dup4\n        /* \"#utility.yul\":7889:7903   */\n      add\n        /* \"#utility.yul\":7885:7913   */\n      and\n        /* \"#utility.yul\":7875:7913   */\n      swap1\n      pop\n        /* \"#utility.yul\":7817:7919   */\n      swap2\n      swap1\n      pop\n      jump\t// out\n        /* \"#utility.yul\":7949:8253   */\n    tag_76:\n        /* \"#utility.yul\":8047:8050   */\n      0x00\n        /* \"#utility.yul\":8068:8139   */\n      tag_180\n        /* \"#utility.yul\":8132:8138   */\n      dup4\n        /* \"#utility.yul\":8127:8130   */\n      dup6\n        /* \"#utility.yul\":8068:8139   */\n      tag_73\n      jump\t// in\n    tag_180:\n        /* \"#utility.yul\":8061:8139   */\n      swap4\n      pop\n        /* \"#utility.yul\":8149:8192   */\n      tag_181\n        /* \"#utility.yul\":8185:8191   */\n      dup4\n        /* \"#utility.yul\":8180:8183   */\n      dup6\n        /* \"#utility.yul\":8173:8178   */\n      dup5\n        /* \"#utility.yul\":8149:8192   */\n      tag_74\n      jump\t// in\n    tag_181:\n        /* \"#utility.yul\":8217:8246   */\n      tag_182\n        /* \"#utility.yul\":8239:8245   */\n      dup4\n        /* \"#utility.yul\":8217:8246   */\n      tag_75\n      jump\t// in\n    tag_182:\n        /* \"#utility.yul\":8212:8215   */\n      dup5\n        /* \"#utility.yul\":8208:8247   */\n      add\n        /* \"#utility.yul\":8201:8247   */\n      swap1\n      pop\n        /* \"#utility.yul\":7949:8253   */\n      swap4\n      swap3\n      pop\n      pop\n      pop\n      jump\t// out\n        /* \"#utility.yul\":8259:8453   */\n    tag_77:\n        /* \"#utility.yul\":8368:8379   */\n      0x00\n        /* \"#utility.yul\":8402:8408   */\n      dup3\n        /* \"#utility.yul\":8397:8400   */\n      dup3\n        /* \"#utility.yul\":8390:8409   */\n      mstore\n        /* \"#utility.yul\":8442:8446   */\n      0x20\n        /* \"#utility.yul\":8437:8440   */\n      dup3\n        /* \"#utility.yul\":8433:8447   */\n      add\n        /* \"#utility.yul\":8418:8447   */\n      swap1\n      pop\n        /* \"#utility.yul\":8259:8453   */\n      swap3\n      swap2\n      pop\n      pop\n      jump\t// out\n        /* \"#utility.yul\":8459:8573   */\n    tag_78:\n        /* \"#utility.yul\":8540:8544   */\n      0x00\n        /* \"#utility.yul\":8563:8566   */\n      dup2\n        /* \"#utility.yul\":8555:8566   */\n      swap1\n      pop\n        /* \"#utility.yul\":8459:8573   */\n      swap2\n      swap1\n      pop\n      jump\t// out\n        /* \"#utility.yul\":8579:8738   */\n    tag_79:\n        /* \"#utility.yul\":8653:8664   */\n      0x00\n        /* \"#utility.yul\":8687:8693   */\n      dup3\n        /* \"#utility.yul\":8682:8685   */\n      dup3\n        /* \"#utility.yul\":8675:8694   */\n      mstore\n        /* \"#utility.yul\":8727:8731   */\n      0x20\n        /* \"#utility.yul\":8722:8725   */\n      dup3\n        /* \"#utility.yul\":8718:8732   */\n      add\n        /* \"#utility.yul\":8703:8732   */\n      swap1\n      pop\n        /* \"#utility.yul\":8579:8738   */\n      swap3\n      swap2\n      pop\n      pop\n      jump\t// out\n        /* \"#utility.yul\":8768:9052   */\n    tag_80:\n        /* \"#utility.yul\":8856:8859   */\n      0x00\n        /* \"#utility.yul\":8877:8938   */\n      tag_187\n        /* \"#utility.yul\":8931:8937   */\n      dup4\n        /* \"#utility.yul\":8926:8929   */\n      dup6\n        /* \"#utility.yul\":8877:8938   */\n      tag_79\n      jump\t// in\n    tag_187:\n        /* \"#utility.yul\":8870:8938   */\n      swap4\n      pop\n        /* \"#utility.yul\":8948:8991   */\n      tag_188\n        /* \"#utility.yul\":8984:8990   */\n      dup4\n        /* \"#utility.yul\":8979:8982   */\n      dup6\n        /* \"#utility.yul\":8972:8977   */\n      dup5\n        /* \"#utility.yul\":8948:8991   */\n      tag_74\n      jump\t// in\n    tag_188:\n        /* \"#utility.yul\":9016:9045   */\n      tag_189\n        /* \"#utility.yul\":9038:9044   */\n      dup4\n        /* \"#utility.yul\":9016:9045   */\n      tag_75\n      jump\t// in\n    tag_189:\n        /* \"#utility.yul\":9011:9014   */\n      dup5\n        /* \"#utility.yul\":9007:9046   */\n      add\n        /* \"#utility.yul\":9000:9046   */\n      swap1\n      pop\n        /* \"#utility.yul\":8768:9052   */\n      swap4\n      swap3\n      pop\n      pop\n      pop\n      jump\t// out\n        /* \"#utility.yul\":9058:9274   */\n    tag_81:\n        /* \"#utility.yul\":9157:9167   */\n      0x00\n        /* \"#utility.yul\":9192:9268   */\n      tag_191\n        /* \"#utility.yul\":9264:9267   */\n      dup5\n        /* \"#utility.yul\":9256:9262   */\n      dup5\n        /* \"#utility.yul\":9248:9254   */\n      dup5\n        /* \"#utility.yul\":9192:9268   */\n      tag_80\n      jump\t// in\n    tag_191:\n        /* \"#utility.yul\":9178:9268   */\n      swap1\n      pop\n        /* \"#utility.yul\":9058:9274   */\n      swap4\n      swap3\n      pop\n      pop\n      pop\n      jump\t// out\n        /* \"#utility.yul\":9280:9397   */\n    tag_82:\n        /* \"#utility.yul\":9389:9390   */\n      0x00\n        /* \"#utility.yul\":9386:9387   */\n      dup1\n        /* \"#utility.yul\":9379:9391   */\n      revert\n        /* \"#utility.yul\":9403:9520   */\n    tag_83:\n        /* \"#utility.yul\":9512:9513   */\n      0x00\n        /* \"#utility.yul\":9509:9510   */\n      dup1\n        /* \"#utility.yul\":9502:9514   */\n      revert\n        /* \"#utility.yul\":9526:9643   */\n    tag_84:\n        /* \"#utility.yul\":9635:9636   */\n      0x00\n        /* \"#utility.yul\":9632:9633   */\n      dup1\n        /* \"#utility.yul\":9625:9637   */\n      revert\n        /* \"#utility.yul\":9649:10364   */\n    tag_85:\n        /* \"#utility.yul\":9714:9719   */\n      0x00\n        /* \"#utility.yul\":9721:9727   */\n      dup1\n        /* \"#utility.yul\":9777:9780   */\n      dup4\n        /* \"#utility.yul\":9764:9781   */\n      calldataload\n        /* \"#utility.yul\":9869:9870   */\n      0x01\n        /* \"#utility.yul\":9863:9867   */\n      0x20\n        /* \"#utility.yul\":9859:9871   */\n      sub\n        /* \"#utility.yul\":9848:9856   */\n      dup5\n        /* \"#utility.yul\":9832:9846   */\n      calldatasize\n        /* \"#utility.yul\":9828:9857   */\n      sub\n        /* \"#utility.yul\":9824:9872   */\n      sub\n        /* \"#utility.yul\":9804:9822   */\n      dup2\n        /* \"#utility.yul\":9800:9873   */\n      slt\n        /* \"#utility.yul\":9790:9958   */\n      tag_196\n      jumpi\n        /* \"#utility.yul\":9877:9956   */\n      tag_197\n      tag_84\n      jump\t// in\n    tag_197:\n        /* \"#utility.yul\":9790:9958   */\n    tag_196:\n        /* \"#utility.yul\":10000:10008   */\n      dup4\n        /* \"#utility.yul\":9980:9998   */\n      dup2\n        /* \"#utility.yul\":9976:10009   */\n      add\n        /* \"#utility.yul\":9967:10009   */\n      swap3\n      pop\n        /* \"#utility.yul\":10042:10047   */\n      dup3\n        /* \"#utility.yul\":10029:10048   */\n      calldataload\n        /* \"#utility.yul\":10019:10048   */\n      swap2\n      pop\n        /* \"#utility.yul\":10077:10081   */\n      0x20\n        /* \"#utility.yul\":10070:10075   */\n      dup4\n        /* \"#utility.yul\":10066:10082   */\n      add\n        /* \"#utility.yul\":10057:10082   */\n      swap3\n      pop\n        /* \"#utility.yul\":10105:10123   */\n      0xffffffffffffffff\n        /* \"#utility.yul\":10097:10103   */\n      dup3\n        /* \"#utility.yul\":10094:10124   */\n      gt\n        /* \"#utility.yul\":10091:10208   */\n      iszero\n      tag_198\n      jumpi\n        /* \"#utility.yul\":10127:10206   */\n      tag_199\n      tag_82\n      jump\t// in\n    tag_199:\n        /* \"#utility.yul\":10091:10208   */\n    tag_198:\n        /* \"#utility.yul\":10266:10270   */\n      0x01\n        /* \"#utility.yul\":10258:10264   */\n      dup3\n        /* \"#utility.yul\":10254:10271   */\n      mul\n        /* \"#utility.yul\":10238:10252   */\n      calldatasize\n        /* \"#utility.yul\":10234:10272   */\n      sub\n        /* \"#utility.yul\":10224:10232   */\n      dup5\n        /* \"#utility.yul\":10220:10273   */\n      sgt\n        /* \"#utility.yul\":10217:10357   */\n      iszero\n      tag_200\n      jumpi\n        /* \"#utility.yul\":10276:10355   */\n      tag_201\n      tag_83\n      jump\t// in\n    tag_201:\n        /* \"#utility.yul\":10217:10357   */\n    tag_200:\n        /* \"#utility.yul\":9728:10364   */\n      pop\n        /* \"#utility.yul\":9649:10364   */\n      swap3\n      pop\n      swap3\n      swap1\n      pop\n      jump\t// out\n        /* \"#utility.yul\":10370:10497   */\n    tag_86:\n        /* \"#utility.yul\":10454:10458   */\n      0x00\n        /* \"#utility.yul\":10486:10490   */\n      0x20\n        /* \"#utility.yul\":10481:10484   */\n      dup3\n        /* \"#utility.yul\":10477:10491   */\n      add\n        /* \"#utility.yul\":10469:10491   */\n      swap1\n      pop\n        /* \"#utility.yul\":10370:10497   */\n      swap2\n      swap1\n      pop\n      jump\t// out\n        /* \"#utility.yul\":10531:11529   */\n    tag_87:\n        /* \"#utility.yul\":10682:10685   */\n      0x00\n        /* \"#utility.yul\":10705:10801   */\n      tag_204\n        /* \"#utility.yul\":10794:10800   */\n      dup4\n        /* \"#utility.yul\":10789:10792   */\n      dup6\n        /* \"#utility.yul\":10705:10801   */\n      tag_77\n      jump\t// in\n    tag_204:\n        /* \"#utility.yul\":10698:10801   */\n      swap4\n      pop\n        /* \"#utility.yul\":10827:10830   */\n      dup4\n        /* \"#utility.yul\":10872:10876   */\n      0x20\n        /* \"#utility.yul\":10864:10870   */\n      dup5\n        /* \"#utility.yul\":10860:10877   */\n      mul\n        /* \"#utility.yul\":10855:10858   */\n      dup6\n        /* \"#utility.yul\":10851:10878   */\n      add\n        /* \"#utility.yul\":10902:10972   */\n      tag_205\n        /* \"#utility.yul\":10966:10971   */\n      dup5\n        /* \"#utility.yul\":10902:10972   */\n      tag_78\n      jump\t// in\n    tag_205:\n        /* \"#utility.yul\":10995:11002   */\n      dup1\n        /* \"#utility.yul\":11026:11027   */\n      0x00\n        /* \"#utility.yul\":11011:11484   */\n    tag_206:\n        /* \"#utility.yul\":11036:11042   */\n      dup8\n        /* \"#utility.yul\":11033:11034   */\n      dup2\n        /* \"#utility.yul\":11030:11043   */\n      lt\n        /* \"#utility.yul\":11011:11484   */\n      iszero\n      tag_208\n      jumpi\n        /* \"#utility.yul\":11107:11116   */\n      dup5\n        /* \"#utility.yul\":11101:11105   */\n      dup5\n        /* \"#utility.yul\":11097:11117   */\n      sub\n        /* \"#utility.yul\":11092:11095   */\n      dup10\n        /* \"#utility.yul\":11085:11118   */\n      mstore\n        /* \"#utility.yul\":11167:11221   */\n      tag_209\n        /* \"#utility.yul\":11214:11220   */\n      dup3\n        /* \"#utility.yul\":11205:11212   */\n      dup5\n        /* \"#utility.yul\":11167:11221   */\n      tag_85\n      jump\t// in\n    tag_209:\n        /* \"#utility.yul\":11242:11343   */\n      tag_210\n        /* \"#utility.yul\":11338:11342   */\n      dup7\n        /* \"#utility.yul\":11323:11336   */\n      dup3\n        /* \"#utility.yul\":11308:11321   */\n      dup5\n        /* \"#utility.yul\":11242:11343   */\n      tag_81\n      jump\t// in\n    tag_210:\n        /* \"#utility.yul\":11234:11343   */\n      swap6\n      pop\n        /* \"#utility.yul\":11366:11440   */\n      tag_211\n        /* \"#utility.yul\":11433:11439   */\n      dup5\n        /* \"#utility.yul\":11366:11440   */\n      tag_86\n      jump\t// in\n    tag_211:\n        /* \"#utility.yul\":11356:11440   */\n      swap4\n      pop\n        /* \"#utility.yul\":11469:11473   */\n      0x20\n        /* \"#utility.yul\":11464:11467   */\n      dup12\n        /* \"#utility.yul\":11460:11474   */\n      add\n        /* \"#utility.yul\":11453:11474   */\n      swap11\n      pop\n        /* \"#utility.yul\":11071:11484   */\n      pop\n      pop\n        /* \"#utility.yul\":11058:11059   */\n      0x01\n        /* \"#utility.yul\":11055:11056   */\n      dup2\n        /* \"#utility.yul\":11051:11060   */\n      add\n        /* \"#utility.yul\":11046:11060   */\n      swap1\n      pop\n        /* \"#utility.yul\":11011:11484   */\n      jump(tag_206)\n    tag_208:\n        /* \"#utility.yul\":11015:11029   */\n      pop\n        /* \"#utility.yul\":11500:11504   */\n      dup3\n        /* \"#utility.yul\":11493:11504   */\n      swap8\n      pop\n        /* \"#utility.yul\":11520:11523   */\n      dup8\n        /* \"#utility.yul\":11513:11523   */\n      swap5\n      pop\n        /* \"#utility.yul\":10687:11529   */\n      pop\n      pop\n      pop\n      pop\n        /* \"#utility.yul\":10531:11529   */\n      swap4\n      swap3\n      pop\n      pop\n      pop\n      jump\t// out\n        /* \"#utility.yul\":11535:11595   */\n    tag_88:\n        /* \"#utility.yul\":11563:11566   */\n      0x00\n        /* \"#utility.yul\":11584:11589   */\n      dup2\n        /* \"#utility.yul\":11577:11589   */\n      swap1\n      pop\n        /* \"#utility.yul\":11535:11595   */\n      swap2\n      swap1\n      pop\n      jump\t// out\n        /* \"#utility.yul\":11601:11743   */\n    tag_89:\n        /* \"#utility.yul\":11651:11660   */\n      0x00\n        /* \"#utility.yul\":11684:11737   */\n      tag_214\n        /* \"#utility.yul\":11702:11736   */\n      tag_215\n        /* \"#utility.yul\":11711:11735   */\n      tag_216\n        /* \"#utility.yul\":11729:11734   */\n      dup5\n        /* \"#utility.yul\":11711:11735   */\n      tag_51\n      jump\t// in\n    tag_216:\n        /* \"#utility.yul\":11702:11736   */\n      tag_88\n      jump\t// in\n    tag_215:\n        /* \"#utility.yul\":11684:11737   */\n      tag_51\n      jump\t// in\n    tag_214:\n        /* \"#utility.yul\":11671:11737   */\n      swap1\n      pop\n        /* \"#utility.yul\":11601:11743   */\n      swap2\n      swap1\n      pop\n      jump\t// out\n        /* \"#utility.yul\":11749:11875   */\n    tag_90:\n        /* \"#utility.yul\":11799:11808   */\n      0x00\n        /* \"#utility.yul\":11832:11869   */\n      tag_218\n        /* \"#utility.yul\":11863:11868   */\n      dup3\n        /* \"#utility.yul\":11832:11869   */\n      tag_89\n      jump\t// in\n    tag_218:\n        /* \"#utility.yul\":11819:11869   */\n      swap1\n      pop\n        /* \"#utility.yul\":11749:11875   */\n      swap2\n      swap1\n      pop\n      jump\t// out\n        /* \"#utility.yul\":11881:12025   */\n    tag_91:\n        /* \"#utility.yul\":11949:11958   */\n      0x00\n        /* \"#utility.yul\":11982:12019   */\n      tag_220\n        /* \"#utility.yul\":12013:12018   */\n      dup3\n        /* \"#utility.yul\":11982:12019   */\n      tag_90\n      jump\t// in\n    tag_220:\n        /* \"#utility.yul\":11969:12019   */\n      swap1\n      pop\n        /* \"#utility.yul\":11881:12025   */\n      swap2\n      swap1\n      pop\n      jump\t// out\n        /* \"#utility.yul\":12031:12198   */\n    tag_92:\n        /* \"#utility.yul\":12136:12191   */\n      tag_222\n        /* \"#utility.yul\":12185:12190   */\n      dup2\n        /* \"#utility.yul\":12136:12191   */\n      tag_91\n      jump\t// in\n    tag_222:\n        /* \"#utility.yul\":12131:12134   */\n      dup3\n        /* \"#utility.yul\":12124:12192   */\n      mstore\n        /* \"#utility.yul\":12031:12198   */\n      pop\n      pop\n      jump\t// out\n        /* \"#utility.yul\":12204:13341   */\n    tag_40:\n        /* \"#utility.yul\":12569:12573   */\n      0x00\n        /* \"#utility.yul\":12607:12610   */\n      0xa0\n        /* \"#utility.yul\":12596:12605   */\n      dup3\n        /* \"#utility.yul\":12592:12611   */\n      add\n        /* \"#utility.yul\":12584:12611   */\n      swap1\n      pop\n        /* \"#utility.yul\":12621:12692   */\n      tag_224\n        /* \"#utility.yul\":12689:12690   */\n      0x00\n        /* \"#utility.yul\":12678:12687   */\n      dup4\n        /* \"#utility.yul\":12674:12691   */\n      add\n        /* \"#utility.yul\":12665:12671   */\n      dup12\n        /* \"#utility.yul\":12621:12692   */\n      tag_72\n      jump\t// in\n    tag_224:\n        /* \"#utility.yul\":12739:12748   */\n      dup2\n        /* \"#utility.yul\":12733:12737   */\n      dup2\n        /* \"#utility.yul\":12729:12749   */\n      sub\n        /* \"#utility.yul\":12724:12726   */\n      0x20\n        /* \"#utility.yul\":12713:12722   */\n      dup4\n        /* \"#utility.yul\":12709:12727   */\n      add\n        /* \"#utility.yul\":12702:12750   */\n      mstore\n        /* \"#utility.yul\":12767:12855   */\n      tag_225\n        /* \"#utility.yul\":12850:12854   */\n      dup2\n        /* \"#utility.yul\":12841:12847   */\n      dup10\n        /* \"#utility.yul\":12833:12839   */\n      dup12\n        /* \"#utility.yul\":12767:12855   */\n      tag_76\n      jump\t// in\n    tag_225:\n        /* \"#utility.yul\":12759:12855   */\n      swap1\n      pop\n        /* \"#utility.yul\":12902:12911   */\n      dup2\n        /* \"#utility.yul\":12896:12900   */\n      dup2\n        /* \"#utility.yul\":12892:12912   */\n      sub\n        /* \"#utility.yul\":12887:12889   */\n      0x40\n        /* \"#utility.yul\":12876:12885   */\n      dup4\n        /* \"#utility.yul\":12872:12890   */\n      add\n        /* \"#utility.yul\":12865:12913   */\n      mstore\n        /* \"#utility.yul\":12930:13018   */\n      tag_226\n        /* \"#utility.yul\":13013:13017   */\n      dup2\n        /* \"#utility.yul\":13004:13010   */\n      dup8\n        /* \"#utility.yul\":12996:13002   */\n      dup10\n        /* \"#utility.yul\":12930:13018   */\n      tag_76\n      jump\t// in\n    tag_226:\n        /* \"#utility.yul\":12922:13018   */\n      swap1\n      pop\n        /* \"#utility.yul\":13065:13074   */\n      dup2\n        /* \"#utility.yul\":13059:13063   */\n      dup2\n        /* \"#utility.yul\":13055:13075   */\n      sub\n        /* \"#utility.yul\":13050:13052   */\n      0x60\n        /* \"#utility.yul\":13039:13048   */\n      dup4\n        /* \"#utility.yul\":13035:13053   */\n      add\n        /* \"#utility.yul\":13028:13076   */\n      mstore\n        /* \"#utility.yul\":13093:13233   */\n      tag_227\n        /* \"#utility.yul\":13228:13232   */\n      dup2\n        /* \"#utility.yul\":13219:13225   */\n      dup6\n        /* \"#utility.yul\":13211:13217   */\n      dup8\n        /* \"#utility.yul\":13093:13233   */\n      tag_87\n      jump\t// in\n    tag_227:\n        /* \"#utility.yul\":13085:13233   */\n      swap1\n      pop\n        /* \"#utility.yul\":13243:13334   */\n      tag_228\n        /* \"#utility.yul\":13329:13332   */\n      0x80\n        /* \"#utility.yul\":13318:13327   */\n      dup4\n        /* \"#utility.yul\":13314:13333   */\n      add\n        /* \"#utility.yul\":13305:13311   */\n      dup5\n        /* \"#utility.yul\":13243:13334   */\n      tag_92\n      jump\t// in\n    tag_228:\n        /* \"#utility.yul\":12204:13341   */\n      swap10\n      swap9\n      pop\n      pop\n      pop\n      pop\n      pop\n      pop\n      pop\n      pop\n      pop\n      jump\t// out\n    stop\n\n    sub_0: assembly {\n            /* \"Poll.sol\":670:3153  contract Poll {... */\n          mstore(0x40, 0x80)\n            /* \"Poll.sol\":998:1340  constructor(address _manager, string memory _title, string memory _description, string[] memory _options, PollFactory _pollFactory) {... */\n          callvalue\n          dup1\n          iszero\n          tag_1\n          jumpi\n          0x00\n          dup1\n          revert\n        tag_1:\n          pop\n          mload(0x40)\n          sub(codesize, bytecodeSize)\n          dup1\n          bytecodeSize\n          dup4\n          codecopy\n          dup2\n          dup2\n          add\n          0x40\n          mstore\n          dup2\n          add\n          swap1\n          tag_2\n          swap2\n          swap1\n          tag_3\n          jump\t// in\n        tag_2:\n            /* \"Poll.sol\":1151:1159  _manager */\n          dup5\n            /* \"Poll.sol\":1141:1148  manager */\n          0x07\n          0x02\n            /* \"Poll.sol\":1141:1159  manager = _manager */\n          0x0100\n          exp\n          dup2\n          sload\n          dup2\n          0xffffffffffffffffffffffffffffffffffffffff\n          mul\n          not\n          and\n          swap1\n          dup4\n          0xffffffffffffffffffffffffffffffffffffffff\n          and\n          mul\n          or\n          swap1\n          sstore\n          pop\n            /* \"Poll.sol\":1178:1184  _title */\n          dup4\n            /* \"Poll.sol\":1170:1175  title */\n          0x03\n            /* \"Poll.sol\":1170:1184  title = _title */\n          swap1\n          dup1\n          mload\n          swap1\n          0x20\n          add\n          swap1\n          tag_6\n          swap3\n          swap2\n          swap1\n          tag_7\n          jump\t// in\n        tag_6:\n          pop\n            /* \"Poll.sol\":1209:1221  _description */\n          dup3\n            /* \"Poll.sol\":1195:1206  description */\n          0x04\n            /* \"Poll.sol\":1195:1221  description = _description */\n          swap1\n          dup1\n          mload\n          swap1\n          0x20\n          add\n          swap1\n          tag_8\n          swap3\n          swap2\n          swap1\n          tag_7\n          jump\t// in\n        tag_8:\n          pop\n            /* \"Poll.sol\":1242:1250  _options */\n          dup2\n            /* \"Poll.sol\":1232:1239  options */\n          0x02\n            /* \"Poll.sol\":1232:1250  options = _options */\n          swap1\n          dup1\n          mload\n          swap1\n          0x20\n          add\n          swap1\n          tag_9\n          swap3\n          swap2\n          swap1\n          tag_10\n          jump\t// in\n        tag_9:\n          pop\n            /* \"Poll.sol\":1280:1287  options */\n          0x02\n            /* \"Poll.sol\":1280:1294  options.length */\n          dup1\n          sload\n          swap1\n          pop\n            /* \"Poll.sol\":1269:1295  new uint[](options.length) */\n          0xffffffffffffffff\n          dup2\n          gt\n          iszero\n          tag_11\n          jumpi\n          tag_12\n          tag_13\n          jump\t// in\n        tag_12:\n        tag_11:\n          mload(0x40)\n          swap1\n          dup1\n          dup3\n          mstore\n          dup1\n          0x20\n          mul\n          0x20\n          add\n          dup3\n          add\n          0x40\n          mstore\n          dup1\n          iszero\n          tag_14\n          jumpi\n          dup2\n          0x20\n          add\n          0x20\n          dup3\n          mul\n          dup1\n          calldatasize\n          dup4\n          calldatacopy\n          dup1\n          dup3\n          add\n          swap2\n          pop\n          pop\n          swap1\n          pop\n        tag_14:\n          pop\n            /* \"Poll.sol\":1261:1266  votes */\n          0x05\n            /* \"Poll.sol\":1261:1295  votes = new uint[](options.length) */\n          swap1\n          dup1\n          mload\n          swap1\n          0x20\n          add\n          swap1\n          tag_15\n          swap3\n          swap2\n          swap1\n          tag_16\n          jump\t// in\n        tag_15:\n          pop\n            /* \"Poll.sol\":1320:1332  _pollFactory */\n          dup1\n            /* \"Poll.sol\":1306:1317  pollFactory */\n          0x00\n          dup1\n            /* \"Poll.sol\":1306:1332  pollFactory = _pollFactory */\n          0x0100\n          exp\n          dup2\n          sload\n          dup2\n          0xffffffffffffffffffffffffffffffffffffffff\n          mul\n          not\n          and\n          swap1\n          dup4\n          0xffffffffffffffffffffffffffffffffffffffff\n          and\n          mul\n          or\n          swap1\n          sstore\n          pop\n            /* \"Poll.sol\":998:1340  constructor(address _manager, string memory _title, string memory _description, string[] memory _options, PollFactory _pollFactory) {... */\n          pop\n          pop\n          pop\n          pop\n          pop\n            /* \"Poll.sol\":670:3153  contract Poll {... */\n          jump(tag_17)\n        tag_7:\n          dup3\n          dup1\n          sload\n          tag_18\n          swap1\n          tag_19\n          jump\t// in\n        tag_18:\n          swap1\n          0x00\n          mstore\n          keccak256(0x00, 0x20)\n          swap1\n          0x1f\n          add\n          0x20\n          swap1\n          div\n          dup2\n          add\n          swap3\n          dup3\n          tag_21\n          jumpi\n          0x00\n          dup6\n          sstore\n          jump(tag_20)\n        tag_21:\n          dup3\n          0x1f\n          lt\n          tag_22\n          jumpi\n          dup1\n          mload\n          not(0xff)\n          and\n          dup4\n          dup1\n          add\n          or\n          dup6\n          sstore\n          jump(tag_20)\n        tag_22:\n          dup3\n          dup1\n          add\n          0x01\n          add\n          dup6\n          sstore\n          dup3\n          iszero\n          tag_20\n          jumpi\n          swap2\n          dup3\n          add\n        tag_23:\n          dup3\n          dup2\n          gt\n          iszero\n          tag_24\n          jumpi\n          dup3\n          mload\n          dup3\n          sstore\n          swap2\n          0x20\n          add\n          swap2\n          swap1\n          0x01\n          add\n          swap1\n          jump(tag_23)\n        tag_24:\n        tag_20:\n          pop\n          swap1\n          pop\n          tag_25\n          swap2\n          swap1\n          tag_26\n          jump\t// in\n        tag_25:\n          pop\n          swap1\n          jump\t// out\n        tag_10:\n          dup3\n          dup1\n          sload\n          dup3\n          dup3\n          sstore\n          swap1\n          0x00\n          mstore\n          keccak256(0x00, 0x20)\n          swap1\n          dup2\n          add\n          swap3\n          dup3\n          iszero\n          tag_27\n          jumpi\n          swap2\n          0x20\n          mul\n          dup3\n          add\n        tag_28:\n          dup3\n          dup2\n          gt\n          iszero\n          tag_29\n          jumpi\n          dup3\n          mload\n          dup3\n          swap1\n          dup1\n          mload\n          swap1\n          0x20\n          add\n          swap1\n          tag_30\n          swap3\n          swap2\n          swap1\n          tag_7\n          jump\t// in\n        tag_30:\n          pop\n          swap2\n          0x20\n          add\n          swap2\n          swap1\n          0x01\n          add\n          swap1\n          jump(tag_28)\n        tag_29:\n        tag_27:\n          pop\n          swap1\n          pop\n          tag_31\n          swap2\n          swap1\n          tag_32\n          jump\t// in\n        tag_31:\n          pop\n          swap1\n          jump\t// out\n        tag_16:\n          dup3\n          dup1\n          sload\n          dup3\n          dup3\n          sstore\n          swap1\n          0x00\n          mstore\n          keccak256(0x00, 0x20)\n          swap1\n          dup2\n          add\n          swap3\n          dup3\n          iszero\n          tag_33\n          jumpi\n          swap2\n          0x20\n          mul\n          dup3\n          add\n        tag_34:\n          dup3\n          dup2\n          gt\n          iszero\n          tag_35\n          jumpi\n          dup3\n          mload\n          dup3\n          sstore\n          swap2\n          0x20\n          add\n          swap2\n          swap1\n          0x01\n          add\n          swap1\n          jump(tag_34)\n        tag_35:\n        tag_33:\n          pop\n          swap1\n          pop\n          tag_36\n          swap2\n          swap1\n          tag_26\n          jump\t// in\n        tag_36:\n          pop\n          swap1\n          jump\t// out\n        tag_26:\n        tag_37:\n          dup1\n          dup3\n          gt\n          iszero\n          tag_38\n          jumpi\n          0x00\n          dup2\n          0x00\n          swap1\n          sstore\n          pop\n          0x01\n          add\n          jump(tag_37)\n        tag_38:\n          pop\n          swap1\n          jump\t// out\n        tag_32:\n        tag_39:\n          dup1\n          dup3\n          gt\n          iszero\n          tag_40\n          jumpi\n          0x00\n          dup2\n          dup2\n          tag_41\n          swap2\n          swap1\n          tag_42\n          jump\t// in\n        tag_41:\n          pop\n          0x01\n          add\n          jump(tag_39)\n        tag_40:\n          pop\n          swap1\n          jump\t// out\n        tag_42:\n          pop\n          dup1\n          sload\n          tag_43\n          swap1\n          tag_19\n          jump\t// in\n        tag_43:\n          0x00\n          dup3\n          sstore\n          dup1\n          0x1f\n          lt\n          tag_45\n          jumpi\n          pop\n          jump(tag_44)\n        tag_45:\n          0x1f\n          add\n          0x20\n          swap1\n          div\n          swap1\n          0x00\n          mstore\n          keccak256(0x00, 0x20)\n          swap1\n          dup2\n          add\n          swap1\n          tag_46\n          swap2\n          swap1\n          tag_26\n          jump\t// in\n        tag_46:\n        tag_44:\n          pop\n          jump\t// out\n            /* \"#utility.yul\":7:82   */\n        tag_47:\n            /* \"#utility.yul\":40:46   */\n          0x00\n            /* \"#utility.yul\":73:75   */\n          0x40\n            /* \"#utility.yul\":67:76   */\n          mload\n            /* \"#utility.yul\":57:76   */\n          swap1\n          pop\n            /* \"#utility.yul\":7:82   */\n          swap1\n          jump\t// out\n            /* \"#utility.yul\":88:205   */\n        tag_48:\n            /* \"#utility.yul\":197:198   */\n          0x00\n            /* \"#utility.yul\":194:195   */\n          dup1\n            /* \"#utility.yul\":187:199   */\n          revert\n            /* \"#utility.yul\":211:328   */\n        tag_49:\n            /* \"#utility.yul\":320:321   */\n          0x00\n            /* \"#utility.yul\":317:318   */\n          dup1\n            /* \"#utility.yul\":310:322   */\n          revert\n            /* \"#utility.yul\":334:460   */\n        tag_50:\n            /* \"#utility.yul\":371:378   */\n          0x00\n            /* \"#utility.yul\":411:453   */\n          0xffffffffffffffffffffffffffffffffffffffff\n            /* \"#utility.yul\":404:409   */\n          dup3\n            /* \"#utility.yul\":400:454   */\n          and\n            /* \"#utility.yul\":389:454   */\n          swap1\n          pop\n            /* \"#utility.yul\":334:460   */\n          swap2\n          swap1\n          pop\n          jump\t// out\n            /* \"#utility.yul\":466:562   */\n        tag_51:\n            /* \"#utility.yul\":503:510   */\n          0x00\n            /* \"#utility.yul\":532:556   */\n          tag_77\n            /* \"#utility.yul\":550:555   */\n          dup3\n            /* \"#utility.yul\":532:556   */\n          tag_50\n          jump\t// in\n        tag_77:\n            /* \"#utility.yul\":521:556   */\n          swap1\n          pop\n            /* \"#utility.yul\":466:562   */\n          swap2\n          swap1\n          pop\n          jump\t// out\n            /* \"#utility.yul\":568:690   */\n        tag_52:\n            /* \"#utility.yul\":641:665   */\n          tag_79\n            /* \"#utility.yul\":659:664   */\n          dup2\n            /* \"#utility.yul\":641:665   */\n          tag_51\n          jump\t// in\n        tag_79:\n            /* \"#utility.yul\":634:639   */\n          dup2\n            /* \"#utility.yul\":631:666   */\n          eq\n            /* \"#utility.yul\":621:684   */\n          tag_80\n          jumpi\n            /* \"#utility.yul\":680:681   */\n          0x00\n            /* \"#utility.yul\":677:678   */\n          dup1\n            /* \"#utility.yul\":670:682   */\n          revert\n            /* \"#utility.yul\":621:684   */\n        tag_80:\n            /* \"#utility.yul\":568:690   */\n          pop\n          jump\t// out\n            /* \"#utility.yul\":696:839   */\n        tag_53:\n            /* \"#utility.yul\":753:758   */\n          0x00\n            /* \"#utility.yul\":784:790   */\n          dup2\n            /* \"#utility.yul\":778:791   */\n          mload\n            /* \"#utility.yul\":769:791   */\n          swap1\n          pop\n            /* \"#utility.yul\":800:833   */\n          tag_82\n            /* \"#utility.yul\":827:832   */\n          dup2\n            /* \"#utility.yul\":800:833   */\n          tag_52\n          jump\t// in\n        tag_82:\n            /* \"#utility.yul\":696:839   */\n          swap3\n          swap2\n          pop\n          pop\n          jump\t// out\n            /* \"#utility.yul\":845:962   */\n        tag_54:\n            /* \"#utility.yul\":954:955   */\n          0x00\n            /* \"#utility.yul\":951:952   */\n          dup1\n            /* \"#utility.yul\":944:956   */\n          revert\n            /* \"#utility.yul\":968:1085   */\n        tag_55:\n            /* \"#utility.yul\":1077:1078   */\n          0x00\n            /* \"#utility.yul\":1074:1075   */\n          dup1\n            /* \"#utility.yul\":1067:1079   */\n          revert\n            /* \"#utility.yul\":1091:1193   */\n        tag_56:\n            /* \"#utility.yul\":1132:1138   */\n          0x00\n            /* \"#utility.yul\":1183:1185   */\n          0x1f\n            /* \"#utility.yul\":1179:1186   */\n          not\n            /* \"#utility.yul\":1174:1176   */\n          0x1f\n            /* \"#utility.yul\":1167:1172   */\n          dup4\n            /* \"#utility.yul\":1163:1177   */\n          add\n            /* \"#utility.yul\":1159:1187   */\n          and\n            /* \"#utility.yul\":1149:1187   */\n          swap1\n          pop\n            /* \"#utility.yul\":1091:1193   */\n          swap2\n          swap1\n          pop\n          jump\t// out\n            /* \"#utility.yul\":1199:1379   */\n        tag_13:\n            /* \"#utility.yul\":1247:1324   */\n          0x4e487b7100000000000000000000000000000000000000000000000000000000\n            /* \"#utility.yul\":1244:1245   */\n          0x00\n            /* \"#utility.yul\":1237:1325   */\n          mstore\n            /* \"#utility.yul\":1344:1348   */\n          0x41\n            /* \"#utility.yul\":1341:1342   */\n          0x04\n            /* \"#utility.yul\":1334:1349   */\n          mstore\n            /* \"#utility.yul\":1368:1372   */\n          0x24\n            /* \"#utility.yul\":1365:1366   */\n          0x00\n            /* \"#utility.yul\":1358:1373   */\n          revert\n            /* \"#utility.yul\":1385:1666   */\n        tag_57:\n            /* \"#utility.yul\":1468:1495   */\n          tag_88\n            /* \"#utility.yul\":1490:1494   */\n          dup3\n            /* \"#utility.yul\":1468:1495   */\n          tag_56\n          jump\t// in\n        tag_88:\n            /* \"#utility.yul\":1460:1466   */\n          dup2\n            /* \"#utility.yul\":1456:1496   */\n          add\n            /* \"#utility.yul\":1598:1604   */\n          dup2\n            /* \"#utility.yul\":1586:1596   */\n          dup2\n            /* \"#utility.yul\":1583:1605   */\n          lt\n            /* \"#utility.yul\":1562:1580   */\n          0xffffffffffffffff\n            /* \"#utility.yul\":1550:1560   */\n          dup3\n            /* \"#utility.yul\":1547:1581   */\n          gt\n            /* \"#utility.yul\":1544:1606   */\n          or\n            /* \"#utility.yul\":1541:1629   */\n          iszero\n          tag_89\n          jumpi\n            /* \"#utility.yul\":1609:1627   */\n          tag_90\n          tag_13\n          jump\t// in\n        tag_90:\n            /* \"#utility.yul\":1541:1629   */\n        tag_89:\n            /* \"#utility.yul\":1649:1659   */\n          dup1\n            /* \"#utility.yul\":1645:1647   */\n          0x40\n            /* \"#utility.yul\":1638:1660   */\n          mstore\n            /* \"#utility.yul\":1428:1666   */\n          pop\n            /* \"#utility.yul\":1385:1666   */\n          pop\n          pop\n          jump\t// out\n            /* \"#utility.yul\":1672:1801   */\n        tag_58:\n            /* \"#utility.yul\":1706:1712   */\n          0x00\n            /* \"#utility.yul\":1733:1753   */\n          tag_92\n          tag_47\n          jump\t// in\n        tag_92:\n            /* \"#utility.yul\":1723:1753   */\n          swap1\n          pop\n            /* \"#utility.yul\":1762:1795   */\n          tag_93\n            /* \"#utility.yul\":1790:1794   */\n          dup3\n            /* \"#utility.yul\":1782:1788   */\n          dup3\n            /* \"#utility.yul\":1762:1795   */\n          tag_57\n          jump\t// in\n        tag_93:\n            /* \"#utility.yul\":1672:1801   */\n          swap2\n          swap1\n          pop\n          jump\t// out\n            /* \"#utility.yul\":1807:2115   */\n        tag_59:\n            /* \"#utility.yul\":1869:1873   */\n          0x00\n            /* \"#utility.yul\":1959:1977   */\n          0xffffffffffffffff\n            /* \"#utility.yul\":1951:1957   */\n          dup3\n            /* \"#utility.yul\":1948:1978   */\n          gt\n            /* \"#utility.yul\":1945:2001   */\n          iszero\n          tag_95\n          jumpi\n            /* \"#utility.yul\":1981:1999   */\n          tag_96\n          tag_13\n          jump\t// in\n        tag_96:\n            /* \"#utility.yul\":1945:2001   */\n        tag_95:\n            /* \"#utility.yul\":2019:2048   */\n          tag_97\n            /* \"#utility.yul\":2041:2047   */\n          dup3\n            /* \"#utility.yul\":2019:2048   */\n          tag_56\n          jump\t// in\n        tag_97:\n            /* \"#utility.yul\":2011:2048   */\n          swap1\n          pop\n            /* \"#utility.yul\":2103:2107   */\n          0x20\n            /* \"#utility.yul\":2097:2101   */\n          dup2\n            /* \"#utility.yul\":2093:2108   */\n          add\n            /* \"#utility.yul\":2085:2108   */\n          swap1\n          pop\n            /* \"#utility.yul\":1807:2115   */\n          swap2\n          swap1\n          pop\n          jump\t// out\n            /* \"#utility.yul\":2121:2428   */\n        tag_60:\n            /* \"#utility.yul\":2189:2190   */\n          0x00\n            /* \"#utility.yul\":2199:2312   */\n        tag_99:\n            /* \"#utility.yul\":2213:2219   */\n          dup4\n            /* \"#utility.yul\":2210:2211   */\n          dup2\n            /* \"#utility.yul\":2207:2220   */\n          lt\n            /* \"#utility.yul\":2199:2312   */\n          iszero\n          tag_101\n          jumpi\n            /* \"#utility.yul\":2298:2299   */\n          dup1\n            /* \"#utility.yul\":2293:2296   */\n          dup3\n            /* \"#utility.yul\":2289:2300   */\n          add\n            /* \"#utility.yul\":2283:2301   */\n          mload\n            /* \"#utility.yul\":2279:2280   */\n          dup2\n            /* \"#utility.yul\":2274:2277   */\n          dup5\n            /* \"#utility.yul\":2270:2281   */\n          add\n            /* \"#utility.yul\":2263:2302   */\n          mstore\n            /* \"#utility.yul\":2235:2237   */\n          0x20\n            /* \"#utility.yul\":2232:2233   */\n          dup2\n            /* \"#utility.yul\":2228:2238   */\n          add\n            /* \"#utility.yul\":2223:2238   */\n          swap1\n          pop\n            /* \"#utility.yul\":2199:2312   */\n          jump(tag_99)\n        tag_101:\n            /* \"#utility.yul\":2330:2336   */\n          dup4\n            /* \"#utility.yul\":2327:2328   */\n          dup2\n            /* \"#utility.yul\":2324:2337   */\n          gt\n            /* \"#utility.yul\":2321:2422   */\n          iszero\n          tag_102\n          jumpi\n            /* \"#utility.yul\":2410:2411   */\n          0x00\n            /* \"#utility.yul\":2401:2407   */\n          dup5\n            /* \"#utility.yul\":2396:2399   */\n          dup5\n            /* \"#utility.yul\":2392:2408   */\n          add\n            /* \"#utility.yul\":2385:2412   */\n          mstore\n            /* \"#utility.yul\":2321:2422   */\n        tag_102:\n            /* \"#utility.yul\":2170:2428   */\n          pop\n            /* \"#utility.yul\":2121:2428   */\n          pop\n          pop\n          pop\n          jump\t// out\n            /* \"#utility.yul\":2434:2855   */\n        tag_61:\n            /* \"#utility.yul\":2523:2528   */\n          0x00\n            /* \"#utility.yul\":2548:2614   */\n          tag_104\n            /* \"#utility.yul\":2564:2613   */\n          tag_105\n            /* \"#utility.yul\":2606:2612   */\n          dup5\n            /* \"#utility.yul\":2564:2613   */\n          tag_59\n          jump\t// in\n        tag_105:\n            /* \"#utility.yul\":2548:2614   */\n          tag_58\n          jump\t// in\n        tag_104:\n            /* \"#utility.yul\":2539:2614   */\n          swap1\n          pop\n            /* \"#utility.yul\":2637:2643   */\n          dup3\n            /* \"#utility.yul\":2630:2635   */\n          dup2\n            /* \"#utility.yul\":2623:2644   */\n          mstore\n            /* \"#utility.yul\":2675:2679   */\n          0x20\n            /* \"#utility.yul\":2668:2673   */\n          dup2\n            /* \"#utility.yul\":2664:2680   */\n          add\n            /* \"#utility.yul\":2713:2716   */\n          dup5\n            /* \"#utility.yul\":2704:2710   */\n          dup5\n            /* \"#utility.yul\":2699:2702   */\n          dup5\n            /* \"#utility.yul\":2695:2711   */\n          add\n            /* \"#utility.yul\":2692:2717   */\n          gt\n            /* \"#utility.yul\":2689:2801   */\n          iszero\n          tag_106\n          jumpi\n            /* \"#utility.yul\":2720:2799   */\n          tag_107\n          tag_55\n          jump\t// in\n        tag_107:\n            /* \"#utility.yul\":2689:2801   */\n        tag_106:\n            /* \"#utility.yul\":2810:2849   */\n          tag_108\n            /* \"#utility.yul\":2842:2848   */\n          dup5\n            /* \"#utility.yul\":2837:2840   */\n          dup3\n            /* \"#utility.yul\":2832:2835   */\n          dup6\n            /* \"#utility.yul\":2810:2849   */\n          tag_60\n          jump\t// in\n        tag_108:\n            /* \"#utility.yul\":2529:2855   */\n          pop\n            /* \"#utility.yul\":2434:2855   */\n          swap4\n          swap3\n          pop\n          pop\n          pop\n          jump\t// out\n            /* \"#utility.yul\":2875:3230   */\n        tag_62:\n            /* \"#utility.yul\":2942:2947   */\n          0x00\n            /* \"#utility.yul\":2991:2994   */\n          dup3\n            /* \"#utility.yul\":2984:2988   */\n          0x1f\n            /* \"#utility.yul\":2976:2982   */\n          dup4\n            /* \"#utility.yul\":2972:2989   */\n          add\n            /* \"#utility.yul\":2968:2995   */\n          slt\n            /* \"#utility.yul\":2958:3080   */\n          tag_110\n          jumpi\n            /* \"#utility.yul\":2999:3078   */\n          tag_111\n          tag_54\n          jump\t// in\n        tag_111:\n            /* \"#utility.yul\":2958:3080   */\n        tag_110:\n            /* \"#utility.yul\":3109:3115   */\n          dup2\n            /* \"#utility.yul\":3103:3116   */\n          mload\n            /* \"#utility.yul\":3134:3224   */\n          tag_112\n            /* \"#utility.yul\":3220:3223   */\n          dup5\n            /* \"#utility.yul\":3212:3218   */\n          dup3\n            /* \"#utility.yul\":3205:3209   */\n          0x20\n            /* \"#utility.yul\":3197:3203   */\n          dup7\n            /* \"#utility.yul\":3193:3210   */\n          add\n            /* \"#utility.yul\":3134:3224   */\n          tag_61\n          jump\t// in\n        tag_112:\n            /* \"#utility.yul\":3125:3224   */\n          swap2\n          pop\n            /* \"#utility.yul\":2948:3230   */\n          pop\n            /* \"#utility.yul\":2875:3230   */\n          swap3\n          swap2\n          pop\n          pop\n          jump\t// out\n            /* \"#utility.yul\":3236:3557   */\n        tag_63:\n            /* \"#utility.yul\":3323:3327   */\n          0x00\n            /* \"#utility.yul\":3413:3431   */\n          0xffffffffffffffff\n            /* \"#utility.yul\":3405:3411   */\n          dup3\n            /* \"#utility.yul\":3402:3432   */\n          gt\n            /* \"#utility.yul\":3399:3455   */\n          iszero\n          tag_114\n          jumpi\n            /* \"#utility.yul\":3435:3453   */\n          tag_115\n          tag_13\n          jump\t// in\n        tag_115:\n            /* \"#utility.yul\":3399:3455   */\n        tag_114:\n            /* \"#utility.yul\":3485:3489   */\n          0x20\n            /* \"#utility.yul\":3477:3483   */\n          dup3\n            /* \"#utility.yul\":3473:3490   */\n          mul\n            /* \"#utility.yul\":3465:3490   */\n          swap1\n          pop\n            /* \"#utility.yul\":3545:3549   */\n          0x20\n            /* \"#utility.yul\":3539:3543   */\n          dup2\n            /* \"#utility.yul\":3535:3550   */\n          add\n            /* \"#utility.yul\":3527:3550   */\n          swap1\n          pop\n            /* \"#utility.yul\":3236:3557   */\n          swap2\n          swap1\n          pop\n          jump\t// out\n            /* \"#utility.yul\":3563:3680   */\n        tag_64:\n            /* \"#utility.yul\":3672:3673   */\n          0x00\n            /* \"#utility.yul\":3669:3670   */\n          dup1\n            /* \"#utility.yul\":3662:3674   */\n          revert\n            /* \"#utility.yul\":3702:4662   */\n        tag_65:\n            /* \"#utility.yul\":3819:3824   */\n          0x00\n            /* \"#utility.yul\":3844:3935   */\n          tag_118\n            /* \"#utility.yul\":3860:3934   */\n          tag_119\n            /* \"#utility.yul\":3927:3933   */\n          dup5\n            /* \"#utility.yul\":3860:3934   */\n          tag_63\n          jump\t// in\n        tag_119:\n            /* \"#utility.yul\":3844:3935   */\n          tag_58\n          jump\t// in\n        tag_118:\n            /* \"#utility.yul\":3835:3935   */\n          swap1\n          pop\n            /* \"#utility.yul\":3955:3960   */\n          dup1\n            /* \"#utility.yul\":3984:3990   */\n          dup4\n            /* \"#utility.yul\":3977:3982   */\n          dup3\n            /* \"#utility.yul\":3970:3991   */\n          mstore\n            /* \"#utility.yul\":4018:4022   */\n          0x20\n            /* \"#utility.yul\":4011:4016   */\n          dup3\n            /* \"#utility.yul\":4007:4023   */\n          add\n            /* \"#utility.yul\":4000:4023   */\n          swap1\n          pop\n            /* \"#utility.yul\":4071:4075   */\n          0x20\n            /* \"#utility.yul\":4063:4069   */\n          dup5\n            /* \"#utility.yul\":4059:4076   */\n          mul\n            /* \"#utility.yul\":4051:4057   */\n          dup4\n            /* \"#utility.yul\":4047:4077   */\n          add\n            /* \"#utility.yul\":4100:4103   */\n          dup6\n            /* \"#utility.yul\":4092:4098   */\n          dup2\n            /* \"#utility.yul\":4089:4104   */\n          gt\n            /* \"#utility.yul\":4086:4208   */\n          iszero\n          tag_120\n          jumpi\n            /* \"#utility.yul\":4119:4198   */\n          tag_121\n          tag_64\n          jump\t// in\n        tag_121:\n            /* \"#utility.yul\":4086:4208   */\n        tag_120:\n            /* \"#utility.yul\":4234:4240   */\n          dup4\n            /* \"#utility.yul\":4217:4656   */\n        tag_122:\n            /* \"#utility.yul\":4251:4257   */\n          dup2\n            /* \"#utility.yul\":4246:4249   */\n          dup2\n            /* \"#utility.yul\":4243:4258   */\n          lt\n            /* \"#utility.yul\":4217:4656   */\n          iszero\n          tag_124\n          jumpi\n            /* \"#utility.yul\":4333:4336   */\n          dup1\n            /* \"#utility.yul\":4327:4337   */\n          mload\n            /* \"#utility.yul\":4369:4387   */\n          0xffffffffffffffff\n            /* \"#utility.yul\":4356:4367   */\n          dup2\n            /* \"#utility.yul\":4353:4388   */\n          gt\n            /* \"#utility.yul\":4350:4472   */\n          iszero\n          tag_125\n          jumpi\n            /* \"#utility.yul\":4391:4470   */\n          tag_126\n          tag_54\n          jump\t// in\n        tag_126:\n            /* \"#utility.yul\":4350:4472   */\n        tag_125:\n            /* \"#utility.yul\":4515:4526   */\n          dup1\n            /* \"#utility.yul\":4507:4513   */\n          dup7\n            /* \"#utility.yul\":4503:4527   */\n          add\n            /* \"#utility.yul\":4553:4611   */\n          tag_127\n            /* \"#utility.yul\":4607:4610   */\n          dup10\n            /* \"#utility.yul\":4595:4605   */\n          dup3\n            /* \"#utility.yul\":4553:4611   */\n          tag_62\n          jump\t// in\n        tag_127:\n            /* \"#utility.yul\":4548:4551   */\n          dup6\n            /* \"#utility.yul\":4541:4612   */\n          mstore\n            /* \"#utility.yul\":4641:4645   */\n          0x20\n            /* \"#utility.yul\":4636:4639   */\n          dup6\n            /* \"#utility.yul\":4632:4646   */\n          add\n            /* \"#utility.yul\":4625:4646   */\n          swap5\n          pop\n            /* \"#utility.yul\":4293:4656   */\n          pop\n          pop\n            /* \"#utility.yul\":4277:4281   */\n          0x20\n            /* \"#utility.yul\":4272:4275   */\n          dup2\n            /* \"#utility.yul\":4268:4282   */\n          add\n            /* \"#utility.yul\":4261:4282   */\n          swap1\n          pop\n            /* \"#utility.yul\":4217:4656   */\n          jump(tag_122)\n        tag_124:\n            /* \"#utility.yul\":4221:4242   */\n          pop\n            /* \"#utility.yul\":3825:4662   */\n          pop\n          pop\n            /* \"#utility.yul\":3702:4662   */\n          swap4\n          swap3\n          pop\n          pop\n          pop\n          jump\t// out\n            /* \"#utility.yul\":4684:5089   */\n        tag_66:\n            /* \"#utility.yul\":4776:4781   */\n          0x00\n            /* \"#utility.yul\":4825:4828   */\n          dup3\n            /* \"#utility.yul\":4818:4822   */\n          0x1f\n            /* \"#utility.yul\":4810:4816   */\n          dup4\n            /* \"#utility.yul\":4806:4823   */\n          add\n            /* \"#utility.yul\":4802:4829   */\n          slt\n            /* \"#utility.yul\":4792:4914   */\n          tag_129\n          jumpi\n            /* \"#utility.yul\":4833:4912   */\n          tag_130\n          tag_54\n          jump\t// in\n        tag_130:\n            /* \"#utility.yul\":4792:4914   */\n        tag_129:\n            /* \"#utility.yul\":4943:4949   */\n          dup2\n            /* \"#utility.yul\":4937:4950   */\n          mload\n            /* \"#utility.yul\":4968:5083   */\n          tag_131\n            /* \"#utility.yul\":5079:5082   */\n          dup5\n            /* \"#utility.yul\":5071:5077   */\n          dup3\n            /* \"#utility.yul\":5064:5068   */\n          0x20\n            /* \"#utility.yul\":5056:5062   */\n          dup7\n            /* \"#utility.yul\":5052:5069   */\n          add\n            /* \"#utility.yul\":4968:5083   */\n          tag_65\n          jump\t// in\n        tag_131:\n            /* \"#utility.yul\":4959:5083   */\n          swap2\n          pop\n            /* \"#utility.yul\":4782:5089   */\n          pop\n            /* \"#utility.yul\":4684:5089   */\n          swap3\n          swap2\n          pop\n          pop\n          jump\t// out\n            /* \"#utility.yul\":5095:5209   */\n        tag_67:\n            /* \"#utility.yul\":5150:5157   */\n          0x00\n            /* \"#utility.yul\":5179:5203   */\n          tag_133\n            /* \"#utility.yul\":5197:5202   */\n          dup3\n            /* \"#utility.yul\":5179:5203   */\n          tag_51\n          jump\t// in\n        tag_133:\n            /* \"#utility.yul\":5168:5203   */\n          swap1\n          pop\n            /* \"#utility.yul\":5095:5209   */\n          swap2\n          swap1\n          pop\n          jump\t// out\n            /* \"#utility.yul\":5215:5373   */\n        tag_68:\n            /* \"#utility.yul\":5306:5348   */\n          tag_135\n            /* \"#utility.yul\":5342:5347   */\n          dup2\n            /* \"#utility.yul\":5306:5348   */\n          tag_67\n          jump\t// in\n        tag_135:\n            /* \"#utility.yul\":5299:5304   */\n          dup2\n            /* \"#utility.yul\":5296:5349   */\n          eq\n            /* \"#utility.yul\":5286:5367   */\n          tag_136\n          jumpi\n            /* \"#utility.yul\":5363:5364   */\n          0x00\n            /* \"#utility.yul\":5360:5361   */\n          dup1\n            /* \"#utility.yul\":5353:5365   */\n          revert\n            /* \"#utility.yul\":5286:5367   */\n        tag_136:\n            /* \"#utility.yul\":5215:5373   */\n          pop\n          jump\t// out\n            /* \"#utility.yul\":5379:5558   */\n        tag_69:\n            /* \"#utility.yul\":5454:5459   */\n          0x00\n            /* \"#utility.yul\":5485:5491   */\n          dup2\n            /* \"#utility.yul\":5479:5492   */\n          mload\n            /* \"#utility.yul\":5470:5492   */\n          swap1\n          pop\n            /* \"#utility.yul\":5501:5552   */\n          tag_138\n            /* \"#utility.yul\":5546:5551   */\n          dup2\n            /* \"#utility.yul\":5501:5552   */\n          tag_68\n          jump\t// in\n        tag_138:\n            /* \"#utility.yul\":5379:5558   */\n          swap3\n          swap2\n          pop\n          pop\n          jump\t// out\n            /* \"#utility.yul\":5564:7146   */\n        tag_3:\n            /* \"#utility.yul\":5743:5749   */\n          0x00\n            /* \"#utility.yul\":5751:5757   */\n          dup1\n            /* \"#utility.yul\":5759:5765   */\n          0x00\n            /* \"#utility.yul\":5767:5773   */\n          dup1\n            /* \"#utility.yul\":5775:5781   */\n          0x00\n            /* \"#utility.yul\":5824:5827   */\n          0xa0\n            /* \"#utility.yul\":5812:5821   */\n          dup7\n            /* \"#utility.yul\":5803:5810   */\n          dup9\n            /* \"#utility.yul\":5799:5822   */\n          sub\n            /* \"#utility.yul\":5795:5828   */\n          slt\n            /* \"#utility.yul\":5792:5912   */\n          iszero\n          tag_140\n          jumpi\n            /* \"#utility.yul\":5831:5910   */\n          tag_141\n          tag_48\n          jump\t// in\n        tag_141:\n            /* \"#utility.yul\":5792:5912   */\n        tag_140:\n            /* \"#utility.yul\":5951:5952   */\n          0x00\n            /* \"#utility.yul\":5976:6040   */\n          tag_142\n            /* \"#utility.yul\":6032:6039   */\n          dup9\n            /* \"#utility.yul\":6023:6029   */\n          dup3\n            /* \"#utility.yul\":6012:6021   */\n          dup10\n            /* \"#utility.yul\":6008:6030   */\n          add\n            /* \"#utility.yul\":5976:6040   */\n          tag_53\n          jump\t// in\n        tag_142:\n            /* \"#utility.yul\":5966:6040   */\n          swap6\n          pop\n            /* \"#utility.yul\":5922:6050   */\n          pop\n            /* \"#utility.yul\":6110:6112   */\n          0x20\n            /* \"#utility.yul\":6099:6108   */\n          dup7\n            /* \"#utility.yul\":6095:6113   */\n          add\n            /* \"#utility.yul\":6089:6114   */\n          mload\n            /* \"#utility.yul\":6141:6159   */\n          0xffffffffffffffff\n            /* \"#utility.yul\":6133:6139   */\n          dup2\n            /* \"#utility.yul\":6130:6160   */\n          gt\n            /* \"#utility.yul\":6127:6244   */\n          iszero\n          tag_143\n          jumpi\n            /* \"#utility.yul\":6163:6242   */\n          tag_144\n          tag_49\n          jump\t// in\n        tag_144:\n            /* \"#utility.yul\":6127:6244   */\n        tag_143:\n            /* \"#utility.yul\":6268:6342   */\n          tag_145\n            /* \"#utility.yul\":6334:6341   */\n          dup9\n            /* \"#utility.yul\":6325:6331   */\n          dup3\n            /* \"#utility.yul\":6314:6323   */\n          dup10\n            /* \"#utility.yul\":6310:6332   */\n          add\n            /* \"#utility.yul\":6268:6342   */\n          tag_62\n          jump\t// in\n        tag_145:\n            /* \"#utility.yul\":6258:6342   */\n          swap5\n          pop\n            /* \"#utility.yul\":6060:6352   */\n          pop\n            /* \"#utility.yul\":6412:6414   */\n          0x40\n            /* \"#utility.yul\":6401:6410   */\n          dup7\n            /* \"#utility.yul\":6397:6415   */\n          add\n            /* \"#utility.yul\":6391:6416   */\n          mload\n            /* \"#utility.yul\":6443:6461   */\n          0xffffffffffffffff\n            /* \"#utility.yul\":6435:6441   */\n          dup2\n            /* \"#utility.yul\":6432:6462   */\n          gt\n            /* \"#utility.yul\":6429:6546   */\n          iszero\n          tag_146\n          jumpi\n            /* \"#utility.yul\":6465:6544   */\n          tag_147\n          tag_49\n          jump\t// in\n        tag_147:\n            /* \"#utility.yul\":6429:6546   */\n        tag_146:\n            /* \"#utility.yul\":6570:6644   */\n          tag_148\n            /* \"#utility.yul\":6636:6643   */\n          dup9\n            /* \"#utility.yul\":6627:6633   */\n          dup3\n            /* \"#utility.yul\":6616:6625   */\n          dup10\n            /* \"#utility.yul\":6612:6634   */\n          add\n            /* \"#utility.yul\":6570:6644   */\n          tag_62\n          jump\t// in\n        tag_148:\n            /* \"#utility.yul\":6560:6644   */\n          swap4\n          pop\n            /* \"#utility.yul\":6362:6654   */\n          pop\n            /* \"#utility.yul\":6714:6716   */\n          0x60\n            /* \"#utility.yul\":6703:6712   */\n          dup7\n            /* \"#utility.yul\":6699:6717   */\n          add\n            /* \"#utility.yul\":6693:6718   */\n          mload\n            /* \"#utility.yul\":6745:6763   */\n          0xffffffffffffffff\n            /* \"#utility.yul\":6737:6743   */\n          dup2\n            /* \"#utility.yul\":6734:6764   */\n          gt\n            /* \"#utility.yul\":6731:6848   */\n          iszero\n          tag_149\n          jumpi\n            /* \"#utility.yul\":6767:6846   */\n          tag_150\n          tag_49\n          jump\t// in\n        tag_150:\n            /* \"#utility.yul\":6731:6848   */\n        tag_149:\n            /* \"#utility.yul\":6872:6971   */\n          tag_151\n            /* \"#utility.yul\":6963:6970   */\n          dup9\n            /* \"#utility.yul\":6954:6960   */\n          dup3\n            /* \"#utility.yul\":6943:6952   */\n          dup10\n            /* \"#utility.yul\":6939:6961   */\n          add\n            /* \"#utility.yul\":6872:6971   */\n          tag_66\n          jump\t// in\n        tag_151:\n            /* \"#utility.yul\":6862:6971   */\n          swap3\n          pop\n            /* \"#utility.yul\":6664:6981   */\n          pop\n            /* \"#utility.yul\":7020:7023   */\n          0x80\n            /* \"#utility.yul\":7047:7129   */\n          tag_152\n            /* \"#utility.yul\":7121:7128   */\n          dup9\n            /* \"#utility.yul\":7112:7118   */\n          dup3\n            /* \"#utility.yul\":7101:7110   */\n          dup10\n            /* \"#utility.yul\":7097:7119   */\n          add\n            /* \"#utility.yul\":7047:7129   */\n          tag_69\n          jump\t// in\n        tag_152:\n            /* \"#utility.yul\":7037:7129   */\n          swap2\n          pop\n            /* \"#utility.yul\":6991:7139   */\n          pop\n            /* \"#utility.yul\":5564:7146   */\n          swap3\n          swap6\n          pop\n          swap3\n          swap6\n          swap1\n          swap4\n          pop\n          jump\t// out\n            /* \"#utility.yul\":7152:7332   */\n        tag_70:\n            /* \"#utility.yul\":7200:7277   */\n          0x4e487b7100000000000000000000000000000000000000000000000000000000\n            /* \"#utility.yul\":7197:7198   */\n          0x00\n            /* \"#utility.yul\":7190:7278   */\n          mstore\n            /* \"#utility.yul\":7297:7301   */\n          0x22\n            /* \"#utility.yul\":7294:7295   */\n          0x04\n            /* \"#utility.yul\":7287:7302   */\n          mstore\n            /* \"#utility.yul\":7321:7325   */\n          0x24\n            /* \"#utility.yul\":7318:7319   */\n          0x00\n            /* \"#utility.yul\":7311:7326   */\n          revert\n            /* \"#utility.yul\":7338:7658   */\n        tag_19:\n            /* \"#utility.yul\":7382:7388   */\n          0x00\n            /* \"#utility.yul\":7419:7420   */\n          0x02\n            /* \"#utility.yul\":7413:7417   */\n          dup3\n            /* \"#utility.yul\":7409:7421   */\n          div\n            /* \"#utility.yul\":7399:7421   */\n          swap1\n          pop\n            /* \"#utility.yul\":7466:7467   */\n          0x01\n            /* \"#utility.yul\":7460:7464   */\n          dup3\n            /* \"#utility.yul\":7456:7468   */\n          and\n            /* \"#utility.yul\":7487:7505   */\n          dup1\n            /* \"#utility.yul\":7477:7558   */\n          tag_155\n          jumpi\n            /* \"#utility.yul\":7543:7547   */\n          0x7f\n            /* \"#utility.yul\":7535:7541   */\n          dup3\n            /* \"#utility.yul\":7531:7548   */\n          and\n            /* \"#utility.yul\":7521:7548   */\n          swap2\n          pop\n            /* \"#utility.yul\":7477:7558   */\n        tag_155:\n            /* \"#utility.yul\":7605:7607   */\n          0x20\n            /* \"#utility.yul\":7597:7603   */\n          dup3\n            /* \"#utility.yul\":7594:7608   */\n          lt\n            /* \"#utility.yul\":7574:7592   */\n          dup2\n            /* \"#utility.yul\":7571:7609   */\n          eq\n            /* \"#utility.yul\":7568:7652   */\n          iszero\n          tag_156\n          jumpi\n            /* \"#utility.yul\":7624:7642   */\n          tag_157\n          tag_70\n          jump\t// in\n        tag_157:\n            /* \"#utility.yul\":7568:7652   */\n        tag_156:\n            /* \"#utility.yul\":7389:7658   */\n          pop\n            /* \"#utility.yul\":7338:7658   */\n          swap2\n          swap1\n          pop\n          jump\t// out\n            /* \"Poll.sol\":670:3153  contract Poll {... */\n        tag_17:\n          dataSize(sub_0)\n          dup1\n          dataOffset(sub_0)\n          0x00\n          codecopy\n          0x00\n          return\n        stop\n\n        sub_0: assembly {\n                /* \"Poll.sol\":670:3153  contract Poll {... */\n              mstore(0x40, 0x80)\n              callvalue\n              dup1\n              iszero\n              tag_1\n              jumpi\n              0x00\n              dup1\n              revert\n            tag_1:\n              pop\n              jumpi(tag_2, lt(calldatasize, 0x04))\n              shr(0xe0, calldataload(0x00))\n              dup1\n              0x597e1fb5\n              gt\n              tag_18\n              jumpi\n              dup1\n              0x8e7ea5b2\n              gt\n              tag_19\n              jumpi\n              dup1\n              0x8e7ea5b2\n              eq\n              tag_14\n              jumpi\n              dup1\n              0xaec2ccae\n              eq\n              tag_15\n              jumpi\n              dup1\n              0xcc2ee196\n              eq\n              tag_16\n              jumpi\n              dup1\n              0xdfbf53ae\n              eq\n              tag_17\n              jumpi\n              jump(tag_2)\n            tag_19:\n              dup1\n              0x597e1fb5\n              eq\n              tag_10\n              jumpi\n              dup1\n              0x5c975abb\n              eq\n              tag_11\n              jumpi\n              dup1\n              0x5df81330\n              eq\n              tag_12\n              jumpi\n              dup1\n              0x7284e416\n              eq\n              tag_13\n              jumpi\n              jump(tag_2)\n            tag_18:\n              dup1\n              0x4051ddac\n              gt\n              tag_20\n              jumpi\n              dup1\n              0x4051ddac\n              eq\n              tag_6\n              jumpi\n              dup1\n              0x409e2205\n              eq\n              tag_7\n              jumpi\n              dup1\n              0x481c6a75\n              eq\n              tag_8\n              jumpi\n              dup1\n              0x4a79d50c\n              eq\n              tag_9\n              jumpi\n              jump(tag_2)\n            tag_20:\n              dup1\n              0x0121b93f\n              eq\n              tag_3\n              jumpi\n              dup1\n              0x02329a29\n              eq\n              tag_4\n              jumpi\n              dup1\n              0x0dc96015\n              eq\n              tag_5\n              jumpi\n            tag_2:\n              0x00\n              dup1\n              revert\n                /* \"Poll.sol\":1478:1773  function vote(uint option) public verified {... */\n            tag_3:\n              tag_21\n              0x04\n              dup1\n              calldatasize\n              sub\n              dup2\n              add\n              swap1\n              tag_22\n              swap2\n              swap1\n              tag_23\n              jump\t// in\n            tag_22:\n              tag_24\n              jump\t// in\n            tag_21:\n              stop\n                /* \"Poll.sol\":1781:1895  function pause(bool state) public restricted {... */\n            tag_4:\n              tag_25\n              0x04\n              dup1\n              calldatasize\n              sub\n              dup2\n              add\n              swap1\n              tag_26\n              swap2\n              swap1\n              tag_27\n              jump\t// in\n            tag_26:\n              tag_28\n              jump\t// in\n            tag_25:\n              stop\n                /* \"Poll.sol\":2440:2527  function getVotes() public view returns (uint[] memory) {... */\n            tag_5:\n              tag_29\n              tag_30\n              jump\t// in\n            tag_29:\n              mload(0x40)\n              tag_31\n              swap2\n              swap1\n              tag_32\n              jump\t// in\n            tag_31:\n              mload(0x40)\n              dup1\n              swap2\n              sub\n              swap1\n              return\n                /* \"Poll.sol\":2535:2888  function getSummary() external view returns(address, string memory, string memory, bool, bool, uint, string[] memory, uint[] memory) {... */\n            tag_6:\n              tag_33\n              tag_34\n              jump\t// in\n            tag_33:\n              mload(0x40)\n              tag_35\n              swap9\n              swap8\n              swap7\n              swap6\n              swap5\n              swap4\n              swap3\n              swap2\n              swap1\n              tag_36\n              jump\t// in\n            tag_35:\n              mload(0x40)\n              dup1\n              swap2\n              sub\n              swap1\n              return\n                /* \"Poll.sol\":776:799  string[] public options */\n            tag_7:\n              tag_37\n              0x04\n              dup1\n              calldatasize\n              sub\n              dup2\n              add\n              swap1\n              tag_38\n              swap2\n              swap1\n              tag_23\n              jump\t// in\n            tag_38:\n              tag_39\n              jump\t// in\n            tag_37:\n              mload(0x40)\n              tag_40\n              swap2\n              swap1\n              tag_41\n              jump\t// in\n            tag_40:\n              mload(0x40)\n              dup1\n              swap2\n              sub\n              swap1\n              return\n                /* \"Poll.sol\":967:989  address public manager */\n            tag_8:\n              tag_42\n              tag_43\n              jump\t// in\n            tag_42:\n              mload(0x40)\n              tag_44\n              swap2\n              swap1\n              tag_45\n              jump\t// in\n            tag_44:\n              mload(0x40)\n              dup1\n              swap2\n              sub\n              swap1\n              return\n                /* \"Poll.sol\":806:825  string public title */\n            tag_9:\n              tag_46\n              tag_47\n              jump\t// in\n            tag_46:\n              mload(0x40)\n              tag_48\n              swap2\n              swap1\n              tag_41\n              jump\t// in\n            tag_48:\n              mload(0x40)\n              dup1\n              swap2\n              sub\n              swap1\n              return\n                /* \"Poll.sol\":915:933  bool public closed */\n            tag_10:\n              tag_49\n              tag_50\n              jump\t// in\n            tag_49:\n              mload(0x40)\n              tag_51\n              swap2\n              swap1\n              tag_52\n              jump\t// in\n            tag_51:\n              mload(0x40)\n              dup1\n              swap2\n              sub\n              swap1\n              return\n                /* \"Poll.sol\":940:958  bool public paused */\n            tag_11:\n              tag_53\n              tag_54\n              jump\t// in\n            tag_53:\n              mload(0x40)\n              tag_55\n              swap2\n              swap1\n              tag_52\n              jump\t// in\n            tag_55:\n              mload(0x40)\n              dup1\n              swap2\n              sub\n              swap1\n              return\n                /* \"Poll.sol\":864:883  uint[] public votes */\n            tag_12:\n              tag_56\n              0x04\n              dup1\n              calldatasize\n              sub\n              dup2\n              add\n              swap1\n              tag_57\n              swap2\n              swap1\n              tag_23\n              jump\t// in\n            tag_57:\n              tag_58\n              jump\t// in\n            tag_56:\n              mload(0x40)\n              tag_59\n              swap2\n              swap1\n              tag_60\n              jump\t// in\n            tag_59:\n              mload(0x40)\n              dup1\n              swap2\n              sub\n              swap1\n              return\n                /* \"Poll.sol\":832:857  string public description */\n            tag_13:\n              tag_61\n              tag_62\n              jump\t// in\n            tag_61:\n              mload(0x40)\n              tag_63\n              swap2\n              swap1\n              tag_41\n              jump\t// in\n            tag_63:\n              mload(0x40)\n              dup1\n              swap2\n              sub\n              swap1\n              return\n                /* \"Poll.sol\":1903:2331  function getWinner() public restricted {... */\n            tag_14:\n              tag_64\n              tag_65\n              jump\t// in\n            tag_64:\n              stop\n                /* \"Poll.sol\":731:769  mapping (address => bool) public voted */\n            tag_15:\n              tag_66\n              0x04\n              dup1\n              calldatasize\n              sub\n              dup2\n              add\n              swap1\n              tag_67\n              swap2\n              swap1\n              tag_68\n              jump\t// in\n            tag_67:\n              tag_69\n              jump\t// in\n            tag_66:\n              mload(0x40)\n              tag_70\n              swap2\n              swap1\n              tag_52\n              jump\t// in\n            tag_70:\n              mload(0x40)\n              dup1\n              swap2\n              sub\n              swap1\n              return\n                /* \"Poll.sol\":2339:2432  function getOptions() public view returns (string[] memory) {... */\n            tag_16:\n              tag_71\n              tag_72\n              jump\t// in\n            tag_71:\n              mload(0x40)\n              tag_73\n              swap2\n              swap1\n              tag_74\n              jump\t// in\n            tag_73:\n              mload(0x40)\n              dup1\n              swap2\n              sub\n              swap1\n              return\n                /* \"Poll.sol\":890:908  uint public winner */\n            tag_17:\n              tag_75\n              tag_76\n              jump\t// in\n            tag_75:\n              mload(0x40)\n              tag_77\n              swap2\n              swap1\n              tag_60\n              jump\t// in\n            tag_77:\n              mload(0x40)\n              dup1\n              swap2\n              sub\n              swap1\n              return\n                /* \"Poll.sol\":1478:1773  function vote(uint option) public verified {... */\n            tag_24:\n                /* \"Poll.sol\":3067:3078  pollFactory */\n              0x00\n              dup1\n              sload\n              swap1\n              0x0100\n              exp\n              swap1\n              div\n              0xffffffffffffffffffffffffffffffffffffffff\n              and\n                /* \"Poll.sol\":3067:3085  pollFactory.voters */\n              0xffffffffffffffffffffffffffffffffffffffff\n              and\n              0xa3ec138d\n                /* \"Poll.sol\":3086:3096  msg.sender */\n              caller\n                /* \"Poll.sol\":3067:3097  pollFactory.voters(msg.sender) */\n              mload(0x40)\n              dup3\n              0xffffffff\n              and\n              0xe0\n              shl\n              dup2\n              mstore\n              0x04\n              add\n              tag_79\n              swap2\n              swap1\n              tag_45\n              jump\t// in\n            tag_79:\n              0x20\n              mload(0x40)\n              dup1\n              dup4\n              sub\n              dup2\n              dup7\n              gas\n              staticcall\n              iszero\n              dup1\n              iszero\n              tag_81\n              jumpi\n              returndatasize\n              0x00\n              dup1\n              returndatacopy\n              revert(0x00, returndatasize)\n            tag_81:\n              pop\n              pop\n              pop\n              pop\n              mload(0x40)\n              returndatasize\n              not(0x1f)\n              0x1f\n              dup3\n              add\n              and\n              dup3\n              add\n              dup1\n              0x40\n              mstore\n              pop\n              dup2\n              add\n              swap1\n              tag_82\n              swap2\n              swap1\n              tag_83\n              jump\t// in\n            tag_82:\n                /* \"Poll.sol\":3059:3130  require(pollFactory.voters(msg.sender), \"This address is not verified\") */\n              tag_84\n              jumpi\n              mload(0x40)\n              0x08c379a000000000000000000000000000000000000000000000000000000000\n              dup2\n              mstore\n              0x04\n              add\n              tag_85\n              swap1\n              tag_86\n              jump\t// in\n            tag_85:\n              mload(0x40)\n              dup1\n              swap2\n              sub\n              swap1\n              revert\n            tag_84:\n                /* \"Poll.sol\":1541:1547  closed */\n              0x07\n              0x00\n              swap1\n              sload\n              swap1\n              0x0100\n              exp\n              swap1\n              div\n              0xff\n              and\n                /* \"Poll.sol\":1540:1547  !closed */\n              iszero\n                /* \"Poll.sol\":1532:1581  require(!closed, \"This poll is currently closed\") */\n              tag_88\n              jumpi\n              mload(0x40)\n              0x08c379a000000000000000000000000000000000000000000000000000000000\n              dup2\n              mstore\n              0x04\n              add\n              tag_89\n              swap1\n              tag_90\n              jump\t// in\n            tag_89:\n              mload(0x40)\n              dup1\n              swap2\n              sub\n              swap1\n              revert\n            tag_88:\n                /* \"Poll.sol\":1601:1606  voted */\n              0x01\n                /* \"Poll.sol\":1601:1618  voted[msg.sender] */\n              0x00\n                /* \"Poll.sol\":1607:1617  msg.sender */\n              caller\n                /* \"Poll.sol\":1601:1618  voted[msg.sender] */\n              0xffffffffffffffffffffffffffffffffffffffff\n              and\n              0xffffffffffffffffffffffffffffffffffffffff\n              and\n              dup2\n              mstore\n              0x20\n              add\n              swap1\n              dup2\n              mstore\n              0x20\n              add\n              0x00\n              keccak256\n              0x00\n              swap1\n              sload\n              swap1\n              0x0100\n              exp\n              swap1\n              div\n              0xff\n              and\n                /* \"Poll.sol\":1600:1618  !voted[msg.sender] */\n              iszero\n                /* \"Poll.sol\":1592:1649  require(!voted[msg.sender], \"This address already voted\") */\n              tag_91\n              jumpi\n              mload(0x40)\n              0x08c379a000000000000000000000000000000000000000000000000000000000\n              dup2\n              mstore\n              0x04\n              add\n              tag_92\n              swap1\n              tag_93\n              jump\t// in\n            tag_92:\n              mload(0x40)\n              dup1\n              swap2\n              sub\n              swap1\n              revert\n            tag_91:\n                /* \"Poll.sol\":1679:1680  1 */\n              0x01\n                /* \"Poll.sol\":1662:1667  votes */\n              0x05\n                /* \"Poll.sol\":1668:1674  option */\n              dup3\n                /* \"Poll.sol\":1662:1675  votes[option] */\n              dup2\n              sload\n              dup2\n              lt\n              tag_94\n              jumpi\n              tag_95\n              tag_96\n              jump\t// in\n            tag_95:\n            tag_94:\n              swap1\n              0x00\n              mstore\n              keccak256(0x00, 0x20)\n              add\n              0x00\n                /* \"Poll.sol\":1662:1680  votes[option] += 1 */\n              dup3\n              dup3\n              sload\n              tag_98\n              swap2\n              swap1\n              tag_99\n              jump\t// in\n            tag_98:\n              swap3\n              pop\n              pop\n              dup2\n              swap1\n              sstore\n              pop\n                /* \"Poll.sol\":1711:1715  true */\n              0x01\n                /* \"Poll.sol\":1691:1696  voted */\n              dup1\n                /* \"Poll.sol\":1691:1708  voted[msg.sender] */\n              0x00\n                /* \"Poll.sol\":1697:1707  msg.sender */\n              caller\n                /* \"Poll.sol\":1691:1708  voted[msg.sender] */\n              0xffffffffffffffffffffffffffffffffffffffff\n              and\n              0xffffffffffffffffffffffffffffffffffffffff\n              and\n              dup2\n              mstore\n              0x20\n              add\n              swap1\n              dup2\n              mstore\n              0x20\n              add\n              0x00\n              keccak256\n              0x00\n                /* \"Poll.sol\":1691:1715  voted[msg.sender] = true */\n              0x0100\n              exp\n              dup2\n              sload\n              dup2\n              0xff\n              mul\n              not\n              and\n              swap1\n              dup4\n              iszero\n              iszero\n              mul\n              or\n              swap1\n              sstore\n              pop\n                /* \"Poll.sol\":1733:1765  VoteEvent(option, votes[option]) */\n              0xd193833848b675d858c4a3354369c7ff9a3cf48d9f9fbbf0882944b88ff68591\n                /* \"Poll.sol\":1743:1749  option */\n              dup2\n                /* \"Poll.sol\":1751:1756  votes */\n              0x05\n                /* \"Poll.sol\":1757:1763  option */\n              dup4\n                /* \"Poll.sol\":1751:1764  votes[option] */\n              dup2\n              sload\n              dup2\n              lt\n              tag_100\n              jumpi\n              tag_101\n              tag_96\n              jump\t// in\n            tag_101:\n            tag_100:\n              swap1\n              0x00\n              mstore\n              keccak256(0x00, 0x20)\n              add\n              sload\n                /* \"Poll.sol\":1733:1765  VoteEvent(option, votes[option]) */\n              mload(0x40)\n              tag_103\n              swap3\n              swap2\n              swap1\n              tag_104\n              jump\t// in\n            tag_103:\n              mload(0x40)\n              dup1\n              swap2\n              sub\n              swap1\n              log1\n                /* \"Poll.sol\":1478:1773  function vote(uint option) public verified {... */\n              pop\n              jump\t// out\n                /* \"Poll.sol\":1781:1895  function pause(bool state) public restricted {... */\n            tag_28:\n                /* \"Poll.sol\":2951:2958  manager */\n              0x07\n              0x02\n              swap1\n              sload\n              swap1\n              0x0100\n              exp\n              swap1\n              div\n              0xffffffffffffffffffffffffffffffffffffffff\n              and\n                /* \"Poll.sol\":2937:2958  msg.sender == manager */\n              0xffffffffffffffffffffffffffffffffffffffff\n              and\n                /* \"Poll.sol\":2937:2947  msg.sender */\n              caller\n                /* \"Poll.sol\":2937:2958  msg.sender == manager */\n              0xffffffffffffffffffffffffffffffffffffffff\n              and\n              eq\n                /* \"Poll.sol\":2929:3000  require(msg.sender == manager, \"Only the manager can call this method\") */\n              tag_106\n              jumpi\n              mload(0x40)\n              0x08c379a000000000000000000000000000000000000000000000000000000000\n              dup2\n              mstore\n              0x04\n              add\n              tag_107\n              swap1\n              tag_108\n              jump\t// in\n            tag_107:\n              mload(0x40)\n              dup1\n              swap2\n              sub\n              swap1\n              revert\n            tag_106:\n                /* \"Poll.sol\":1846:1851  state */\n              dup1\n                /* \"Poll.sol\":1837:1843  paused */\n              0x07\n              0x01\n                /* \"Poll.sol\":1837:1851  paused = state */\n              0x0100\n              exp\n              dup2\n              sload\n              dup2\n              0xff\n              mul\n              not\n              and\n              swap1\n              dup4\n              iszero\n              iszero\n              mul\n              or\n              swap1\n              sstore\n              pop\n                /* \"Poll.sol\":1869:1887  PauseEvent(paused) */\n              0x10e1c3fcaff06b68391033547e8f9bb8067d7c4a2e32659b0629153814d242d3\n                /* \"Poll.sol\":1880:1886  paused */\n              0x07\n              0x01\n              swap1\n              sload\n              swap1\n              0x0100\n              exp\n              swap1\n              div\n              0xff\n              and\n                /* \"Poll.sol\":1869:1887  PauseEvent(paused) */\n              mload(0x40)\n              tag_110\n              swap2\n              swap1\n              tag_52\n              jump\t// in\n            tag_110:\n              mload(0x40)\n              dup1\n              swap2\n              sub\n              swap1\n              log1\n                /* \"Poll.sol\":1781:1895  function pause(bool state) public restricted {... */\n              pop\n              jump\t// out\n                /* \"Poll.sol\":2440:2527  function getVotes() public view returns (uint[] memory) {... */\n            tag_30:\n                /* \"Poll.sol\":2481:2494  uint[] memory */\n              0x60\n                /* \"Poll.sol\":2514:2519  votes */\n              0x05\n                /* \"Poll.sol\":2507:2519  return votes */\n              dup1\n              sload\n              dup1\n              0x20\n              mul\n              0x20\n              add\n              mload(0x40)\n              swap1\n              dup2\n              add\n              0x40\n              mstore\n              dup1\n              swap3\n              swap2\n              swap1\n              dup2\n              dup2\n              mstore\n              0x20\n              add\n              dup3\n              dup1\n              sload\n              dup1\n              iszero\n              tag_112\n              jumpi\n              0x20\n              mul\n              dup3\n              add\n              swap2\n              swap1\n              0x00\n              mstore\n              keccak256(0x00, 0x20)\n              swap1\n            tag_113:\n              dup2\n              sload\n              dup2\n              mstore\n              0x20\n              add\n              swap1\n              0x01\n              add\n              swap1\n              dup1\n              dup4\n              gt\n              tag_113\n              jumpi\n            tag_112:\n              pop\n              pop\n              pop\n              pop\n              pop\n              swap1\n              pop\n                /* \"Poll.sol\":2440:2527  function getVotes() public view returns (uint[] memory) {... */\n              swap1\n              jump\t// out\n                /* \"Poll.sol\":2535:2888  function getSummary() external view returns(address, string memory, string memory, bool, bool, uint, string[] memory, uint[] memory) {... */\n            tag_34:\n                /* \"Poll.sol\":2579:2586  address */\n              0x00\n                /* \"Poll.sol\":2588:2601  string memory */\n              0x60\n                /* \"Poll.sol\":2603:2616  string memory */\n              dup1\n                /* \"Poll.sol\":2618:2622  bool */\n              0x00\n                /* \"Poll.sol\":2624:2628  bool */\n              dup1\n                /* \"Poll.sol\":2630:2634  uint */\n              0x00\n                /* \"Poll.sol\":2636:2651  string[] memory */\n              0x60\n                /* \"Poll.sol\":2653:2666  uint[] memory */\n              dup1\n                /* \"Poll.sol\":2701:2708  manager */\n              0x07\n              0x02\n              swap1\n              sload\n              swap1\n              0x0100\n              exp\n              swap1\n              div\n              0xffffffffffffffffffffffffffffffffffffffff\n              and\n                /* \"Poll.sol\":2723:2728  title */\n              0x03\n                /* \"Poll.sol\":2743:2754  description */\n              0x04\n                /* \"Poll.sol\":2769:2775  paused */\n              0x07\n              0x01\n              swap1\n              sload\n              swap1\n              0x0100\n              exp\n              swap1\n              div\n              0xff\n              and\n                /* \"Poll.sol\":2790:2796  closed */\n              0x07\n              0x00\n              swap1\n              sload\n              swap1\n              0x0100\n              exp\n              swap1\n              div\n              0xff\n              and\n                /* \"Poll.sol\":2811:2817  winner */\n              sload(0x06)\n                /* \"Poll.sol\":2832:2844  getOptions() */\n              tag_115\n                /* \"Poll.sol\":2832:2842  getOptions */\n              tag_72\n                /* \"Poll.sol\":2832:2844  getOptions() */\n              jump\t// in\n            tag_115:\n                /* \"Poll.sol\":2859:2869  getVotes() */\n              tag_116\n                /* \"Poll.sol\":2859:2867  getVotes */\n              tag_30\n                /* \"Poll.sol\":2859:2869  getVotes() */\n              jump\t// in\n            tag_116:\n                /* \"Poll.sol\":2679:2880  return (... */\n              dup7\n              dup1\n              sload\n              tag_117\n              swap1\n              tag_118\n              jump\t// in\n            tag_117:\n              dup1\n              0x1f\n              add\n              0x20\n              dup1\n              swap2\n              div\n              mul\n              0x20\n              add\n              mload(0x40)\n              swap1\n              dup2\n              add\n              0x40\n              mstore\n              dup1\n              swap3\n              swap2\n              swap1\n              dup2\n              dup2\n              mstore\n              0x20\n              add\n              dup3\n              dup1\n              sload\n              tag_119\n              swap1\n              tag_118\n              jump\t// in\n            tag_119:\n              dup1\n              iszero\n              tag_120\n              jumpi\n              dup1\n              0x1f\n              lt\n              tag_121\n              jumpi\n              0x0100\n              dup1\n              dup4\n              sload\n              div\n              mul\n              dup4\n              mstore\n              swap2\n              0x20\n              add\n              swap2\n              jump(tag_120)\n            tag_121:\n              dup3\n              add\n              swap2\n              swap1\n              0x00\n              mstore\n              keccak256(0x00, 0x20)\n              swap1\n            tag_122:\n              dup2\n              sload\n              dup2\n              mstore\n              swap1\n              0x01\n              add\n              swap1\n              0x20\n              add\n              dup1\n              dup4\n              gt\n              tag_122\n              jumpi\n              dup3\n              swap1\n              sub\n              0x1f\n              and\n              dup3\n              add\n              swap2\n            tag_120:\n              pop\n              pop\n              pop\n              pop\n              pop\n              swap7\n              pop\n              dup6\n              dup1\n              sload\n              tag_123\n              swap1\n              tag_118\n              jump\t// in\n            tag_123:\n              dup1\n              0x1f\n              add\n              0x20\n              dup1\n              swap2\n              div\n              mul\n              0x20\n              add\n              mload(0x40)\n              swap1\n              dup2\n              add\n              0x40\n              mstore\n              dup1\n              swap3\n              swap2\n              swap1\n              dup2\n              dup2\n              mstore\n              0x20\n              add\n              dup3\n              dup1\n              sload\n              tag_124\n              swap1\n              tag_118\n              jump\t// in\n            tag_124:\n              dup1\n              iszero\n              tag_125\n              jumpi\n              dup1\n              0x1f\n              lt\n              tag_126\n              jumpi\n              0x0100\n              dup1\n              dup4\n              sload\n              div\n              mul\n              dup4\n              mstore\n              swap2\n              0x20\n              add\n              swap2\n              jump(tag_125)\n            tag_126:\n              dup3\n              add\n              swap2\n              swap1\n              0x00\n              mstore\n              keccak256(0x00, 0x20)\n              swap1\n            tag_127:\n              dup2\n              sload\n              dup2\n              mstore\n              swap1\n              0x01\n              add\n              swap1\n              0x20\n              add\n              dup1\n              dup4\n              gt\n              tag_127\n              jumpi\n              dup3\n              swap1\n              sub\n              0x1f\n              and\n              dup3\n              add\n              swap2\n            tag_125:\n              pop\n              pop\n              pop\n              pop\n              pop\n              swap6\n              pop\n              swap8\n              pop\n              swap8\n              pop\n              swap8\n              pop\n              swap8\n              pop\n              swap8\n              pop\n              swap8\n              pop\n              swap8\n              pop\n              swap8\n              pop\n                /* \"Poll.sol\":2535:2888  function getSummary() external view returns(address, string memory, string memory, bool, bool, uint, string[] memory, uint[] memory) {... */\n              swap1\n              swap2\n              swap3\n              swap4\n              swap5\n              swap6\n              swap7\n              swap8\n              jump\t// out\n                /* \"Poll.sol\":776:799  string[] public options */\n            tag_39:\n              0x02\n              dup2\n              dup2\n              sload\n              dup2\n              lt\n              tag_128\n              jumpi\n              0x00\n              dup1\n              revert\n            tag_128:\n              swap1\n              0x00\n              mstore\n              keccak256(0x00, 0x20)\n              add\n              0x00\n              swap2\n              pop\n              swap1\n              pop\n              dup1\n              sload\n              tag_130\n              swap1\n              tag_118\n              jump\t// in\n            tag_130:\n              dup1\n              0x1f\n              add\n              0x20\n              dup1\n              swap2\n              div\n              mul\n              0x20\n              add\n              mload(0x40)\n              swap1\n              dup2\n              add\n              0x40\n              mstore\n              dup1\n              swap3\n              swap2\n              swap1\n              dup2\n              dup2\n              mstore\n              0x20\n              add\n              dup3\n              dup1\n              sload\n              tag_131\n              swap1\n              tag_118\n              jump\t// in\n            tag_131:\n              dup1\n              iszero\n              tag_132\n              jumpi\n              dup1\n              0x1f\n              lt\n              tag_133\n              jumpi\n              0x0100\n              dup1\n              dup4\n              sload\n              div\n              mul\n              dup4\n              mstore\n              swap2\n              0x20\n              add\n              swap2\n              jump(tag_132)\n            tag_133:\n              dup3\n              add\n              swap2\n              swap1\n              0x00\n              mstore\n              keccak256(0x00, 0x20)\n              swap1\n            tag_134:\n              dup2\n              sload\n              dup2\n              mstore\n              swap1\n              0x01\n              add\n              swap1\n              0x20\n              add\n              dup1\n              dup4\n              gt\n              tag_134\n              jumpi\n              dup3\n              swap1\n              sub\n              0x1f\n              and\n              dup3\n              add\n              swap2\n            tag_132:\n              pop\n              pop\n              pop\n              pop\n              pop\n              dup2\n              jump\t// out\n                /* \"Poll.sol\":967:989  address public manager */\n            tag_43:\n              0x07\n              0x02\n              swap1\n              sload\n              swap1\n              0x0100\n              exp\n              swap1\n              div\n              0xffffffffffffffffffffffffffffffffffffffff\n              and\n              dup2\n              jump\t// out\n                /* \"Poll.sol\":806:825  string public title */\n            tag_47:\n              0x03\n              dup1\n              sload\n              tag_135\n              swap1\n              tag_118\n              jump\t// in\n            tag_135:\n              dup1\n              0x1f\n              add\n              0x20\n              dup1\n              swap2\n              div\n              mul\n              0x20\n              add\n              mload(0x40)\n              swap1\n              dup2\n              add\n              0x40\n              mstore\n              dup1\n              swap3\n              swap2\n              swap1\n              dup2\n              dup2\n              mstore\n              0x20\n              add\n              dup3\n              dup1\n              sload\n              tag_136\n              swap1\n              tag_118\n              jump\t// in\n            tag_136:\n              dup1\n              iszero\n              tag_137\n              jumpi\n              dup1\n              0x1f\n              lt\n              tag_138\n              jumpi\n              0x0100\n              dup1\n              dup4\n              sload\n              div\n              mul\n              dup4\n              mstore\n              swap2\n              0x20\n              add\n              swap2\n              jump(tag_137)\n            tag_138:\n              dup3\n              add\n              swap2\n              swap1\n              0x00\n              mstore\n              keccak256(0x00, 0x20)\n              swap1\n            tag_139:\n              dup2\n              sload\n              dup2\n              mstore\n              swap1\n              0x01\n              add\n              swap1\n              0x20\n              add\n              dup1\n              dup4\n              gt\n              tag_139\n              jumpi\n              dup3\n              swap1\n              sub\n              0x1f\n              and\n              dup3\n              add\n              swap2\n            tag_137:\n              pop\n              pop\n              pop\n              pop\n              pop\n              dup2\n              jump\t// out\n                /* \"Poll.sol\":915:933  bool public closed */\n            tag_50:\n              0x07\n              0x00\n              swap1\n              sload\n              swap1\n              0x0100\n              exp\n              swap1\n              div\n              0xff\n              and\n              dup2\n              jump\t// out\n                /* \"Poll.sol\":940:958  bool public paused */\n            tag_54:\n              0x07\n              0x01\n              swap1\n              sload\n              swap1\n              0x0100\n              exp\n              swap1\n              div\n              0xff\n              and\n              dup2\n              jump\t// out\n                /* \"Poll.sol\":864:883  uint[] public votes */\n            tag_58:\n              0x05\n              dup2\n              dup2\n              sload\n              dup2\n              lt\n              tag_140\n              jumpi\n              0x00\n              dup1\n              revert\n            tag_140:\n              swap1\n              0x00\n              mstore\n              keccak256(0x00, 0x20)\n              add\n              0x00\n              swap2\n              pop\n              swap1\n              pop\n              sload\n              dup2\n              jump\t// out\n                /* \"Poll.sol\":832:857  string public description */\n            tag_62:\n              0x04\n              dup1\n              sload\n              tag_142\n              swap1\n              tag_118\n              jump\t// in\n            tag_142:\n              dup1\n              0x1f\n              add\n              0x20\n              dup1\n              swap2\n              div\n              mul\n              0x20\n              add\n              mload(0x40)\n              swap1\n              dup2\n              add\n              0x40\n              mstore\n              dup1\n              swap3\n              swap2\n              swap1\n              dup2\n              dup2\n              mstore\n              0x20\n              add\n              dup3\n              dup1\n              sload\n              tag_143\n              swap1\n              tag_118\n              jump\t// in\n            tag_143:\n              dup1\n              iszero\n              tag_144\n              jumpi\n              dup1\n              0x1f\n              lt\n              tag_145\n              jumpi\n              0x0100\n              dup1\n              dup4\n              sload\n              div\n              mul\n              dup4\n              mstore\n              swap2\n              0x20\n              add\n              swap2\n              jump(tag_144)\n            tag_145:\n              dup3\n              add\n              swap2\n              swap1\n              0x00\n              mstore\n              keccak256(0x00, 0x20)\n              swap1\n            tag_146:\n              dup2\n              sload\n              dup2\n              mstore\n              swap1\n              0x01\n              add\n              swap1\n              0x20\n              add\n              dup1\n              dup4\n              gt\n              tag_146\n              jumpi\n              dup3\n              swap1\n              sub\n              0x1f\n              and\n              dup3\n              add\n              swap2\n            tag_144:\n              pop\n              pop\n              pop\n              pop\n              pop\n              dup2\n              jump\t// out\n                /* \"Poll.sol\":1903:2331  function getWinner() public restricted {... */\n            tag_65:\n                /* \"Poll.sol\":2951:2958  manager */\n              0x07\n              0x02\n              swap1\n              sload\n              swap1\n              0x0100\n              exp\n              swap1\n              div\n              0xffffffffffffffffffffffffffffffffffffffff\n              and\n                /* \"Poll.sol\":2937:2958  msg.sender == manager */\n              0xffffffffffffffffffffffffffffffffffffffff\n              and\n                /* \"Poll.sol\":2937:2947  msg.sender */\n              caller\n                /* \"Poll.sol\":2937:2958  msg.sender == manager */\n              0xffffffffffffffffffffffffffffffffffffffff\n              and\n              eq\n                /* \"Poll.sol\":2929:3000  require(msg.sender == manager, \"Only the manager can call this method\") */\n              tag_148\n              jumpi\n              mload(0x40)\n              0x08c379a000000000000000000000000000000000000000000000000000000000\n              dup2\n              mstore\n              0x04\n              add\n              tag_149\n              swap1\n              tag_108\n              jump\t// in\n            tag_149:\n              mload(0x40)\n              dup1\n              swap2\n              sub\n              swap1\n              revert\n            tag_148:\n                /* \"Poll.sol\":1953:1964  pause(true) */\n              tag_151\n                /* \"Poll.sol\":1959:1963  true */\n              0x01\n                /* \"Poll.sol\":1953:1958  pause */\n              tag_28\n                /* \"Poll.sol\":1953:1964  pause(true) */\n              jump\t// in\n            tag_151:\n                /* \"Poll.sol\":1984:1988  true */\n              0x01\n                /* \"Poll.sol\":1975:1981  closed */\n              0x07\n              0x00\n                /* \"Poll.sol\":1975:1988  closed = true */\n              0x0100\n              exp\n              dup2\n              sload\n              dup2\n              0xff\n              mul\n              not\n              and\n              swap1\n              dup4\n              iszero\n              iszero\n              mul\n              or\n              swap1\n              sstore\n              pop\n                /* \"Poll.sol\":2001:2017  uint winnerIndex */\n              0x00\n                /* \"Poll.sol\":2032:2049  uint highestCount */\n              dup1\n                /* \"Poll.sol\":2069:2075  uint i */\n              0x00\n                /* \"Poll.sol\":2064:2251  for (uint i = 0; i < votes.length; i++) {... */\n            tag_152:\n                /* \"Poll.sol\":2085:2090  votes */\n              0x05\n                /* \"Poll.sol\":2085:2097  votes.length */\n              dup1\n              sload\n              swap1\n              pop\n                /* \"Poll.sol\":2081:2082  i */\n              dup2\n                /* \"Poll.sol\":2081:2097  i < votes.length */\n              lt\n                /* \"Poll.sol\":2064:2251  for (uint i = 0; i < votes.length; i++) {... */\n              iszero\n              tag_153\n              jumpi\n                /* \"Poll.sol\":2134:2146  highestCount */\n              dup2\n                /* \"Poll.sol\":2123:2128  votes */\n              0x05\n                /* \"Poll.sol\":2129:2130  i */\n              dup3\n                /* \"Poll.sol\":2123:2131  votes[i] */\n              dup2\n              sload\n              dup2\n              lt\n              tag_155\n              jumpi\n              tag_156\n              tag_96\n              jump\t// in\n            tag_156:\n            tag_155:\n              swap1\n              0x00\n              mstore\n              keccak256(0x00, 0x20)\n              add\n              sload\n                /* \"Poll.sol\":2123:2146  votes[i] > highestCount */\n              gt\n                /* \"Poll.sol\":2119:2240  if (votes[i] > highestCount) {... */\n              iszero\n              tag_158\n              jumpi\n                /* \"Poll.sol\":2181:2182  i */\n              dup1\n                /* \"Poll.sol\":2167:2182  winnerIndex = i */\n              swap3\n              pop\n                /* \"Poll.sol\":2216:2221  votes */\n              0x05\n                /* \"Poll.sol\":2222:2223  i */\n              dup2\n                /* \"Poll.sol\":2216:2224  votes[i] */\n              dup2\n              sload\n              dup2\n              lt\n              tag_159\n              jumpi\n              tag_160\n              tag_96\n              jump\t// in\n            tag_160:\n            tag_159:\n              swap1\n              0x00\n              mstore\n              keccak256(0x00, 0x20)\n              add\n              sload\n                /* \"Poll.sol\":2201:2224  highestCount = votes[i] */\n              swap2\n              pop\n                /* \"Poll.sol\":2119:2240  if (votes[i] > highestCount) {... */\n            tag_158:\n                /* \"Poll.sol\":2099:2102  i++ */\n              dup1\n              dup1\n              tag_162\n              swap1\n              tag_163\n              jump\t// in\n            tag_162:\n              swap2\n              pop\n              pop\n                /* \"Poll.sol\":2064:2251  for (uint i = 0; i < votes.length; i++) {... */\n              jump(tag_152)\n            tag_153:\n              pop\n                /* \"Poll.sol\":2272:2283  winnerIndex */\n              dup2\n                /* \"Poll.sol\":2263:2269  winner */\n              0x06\n                /* \"Poll.sol\":2263:2283  winner = winnerIndex */\n              dup2\n              swap1\n              sstore\n              pop\n                /* \"Poll.sol\":2301:2323  GetWinnerEvent(winner) */\n              0xc7b97e48b9227dca976a22b97e05760371f6c612bfbb22adee0ce899d8c084fc\n                /* \"Poll.sol\":2316:2322  winner */\n              sload(0x06)\n                /* \"Poll.sol\":2301:2323  GetWinnerEvent(winner) */\n              mload(0x40)\n              tag_164\n              swap2\n              swap1\n              tag_60\n              jump\t// in\n            tag_164:\n              mload(0x40)\n              dup1\n              swap2\n              sub\n              swap1\n              log1\n                /* \"Poll.sol\":1942:2331  {... */\n              pop\n              pop\n                /* \"Poll.sol\":1903:2331  function getWinner() public restricted {... */\n              jump\t// out\n                /* \"Poll.sol\":731:769  mapping (address => bool) public voted */\n            tag_69:\n              mstore(0x20, 0x01)\n              dup1\n              0x00\n              mstore\n              keccak256(0x00, 0x40)\n              0x00\n              swap2\n              pop\n              sload\n              swap1\n              0x0100\n              exp\n              swap1\n              div\n              0xff\n              and\n              dup2\n              jump\t// out\n                /* \"Poll.sol\":2339:2432  function getOptions() public view returns (string[] memory) {... */\n            tag_72:\n                /* \"Poll.sol\":2382:2397  string[] memory */\n              0x60\n                /* \"Poll.sol\":2417:2424  options */\n              0x02\n                /* \"Poll.sol\":2410:2424  return options */\n              dup1\n              sload\n              dup1\n              0x20\n              mul\n              0x20\n              add\n              mload(0x40)\n              swap1\n              dup2\n              add\n              0x40\n              mstore\n              dup1\n              swap3\n              swap2\n              swap1\n              dup2\n              dup2\n              mstore\n              0x20\n              add\n              0x00\n              swap1\n            tag_166:\n              dup3\n              dup3\n              lt\n              iszero\n              tag_167\n              jumpi\n              dup4\n              dup3\n              swap1\n              0x00\n              mstore\n              keccak256(0x00, 0x20)\n              add\n              dup1\n              sload\n              tag_169\n              swap1\n              tag_118\n              jump\t// in\n            tag_169:\n              dup1\n              0x1f\n              add\n              0x20\n              dup1\n              swap2\n              div\n              mul\n              0x20\n              add\n              mload(0x40)\n              swap1\n              dup2\n              add\n              0x40\n              mstore\n              dup1\n              swap3\n              swap2\n              swap1\n              dup2\n              dup2\n              mstore\n              0x20\n              add\n              dup3\n              dup1\n              sload\n              tag_170\n              swap1\n              tag_118\n              jump\t// in\n            tag_170:\n              dup1\n              iszero\n              tag_171\n              jumpi\n              dup1\n              0x1f\n              lt\n              tag_172\n              jumpi\n              0x0100\n              dup1\n              dup4\n              sload\n              div\n              mul\n              dup4\n              mstore\n              swap2\n              0x20\n              add\n              swap2\n              jump(tag_171)\n            tag_172:\n              dup3\n              add\n              swap2\n              swap1\n              0x00\n              mstore\n              keccak256(0x00, 0x20)\n              swap1\n            tag_173:\n              dup2\n              sload\n              dup2\n              mstore\n              swap1\n              0x01\n              add\n              swap1\n              0x20\n              add\n              dup1\n              dup4\n              gt\n              tag_173\n              jumpi\n              dup3\n              swap1\n              sub\n              0x1f\n              and\n              dup3\n              add\n              swap2\n            tag_171:\n              pop\n              pop\n              pop\n              pop\n              pop\n              dup2\n              mstore\n              0x20\n              add\n              swap1\n              0x01\n              add\n              swap1\n              jump(tag_166)\n            tag_167:\n              pop\n              pop\n              pop\n              pop\n              swap1\n              pop\n                /* \"Poll.sol\":2339:2432  function getOptions() public view returns (string[] memory) {... */\n              swap1\n              jump\t// out\n                /* \"Poll.sol\":890:908  uint public winner */\n            tag_76:\n              sload(0x06)\n              dup2\n              jump\t// out\n                /* \"#utility.yul\":88:205   */\n            tag_175:\n                /* \"#utility.yul\":197:198   */\n              0x00\n                /* \"#utility.yul\":194:195   */\n              dup1\n                /* \"#utility.yul\":187:199   */\n              revert\n                /* \"#utility.yul\":334:411   */\n            tag_177:\n                /* \"#utility.yul\":371:378   */\n              0x00\n                /* \"#utility.yul\":400:405   */\n              dup2\n                /* \"#utility.yul\":389:405   */\n              swap1\n              pop\n                /* \"#utility.yul\":334:411   */\n              swap2\n              swap1\n              pop\n              jump\t// out\n                /* \"#utility.yul\":417:539   */\n            tag_178:\n                /* \"#utility.yul\":490:514   */\n              tag_227\n                /* \"#utility.yul\":508:513   */\n              dup2\n                /* \"#utility.yul\":490:514   */\n              tag_177\n              jump\t// in\n            tag_227:\n                /* \"#utility.yul\":483:488   */\n              dup2\n                /* \"#utility.yul\":480:515   */\n              eq\n                /* \"#utility.yul\":470:533   */\n              tag_228\n              jumpi\n                /* \"#utility.yul\":529:530   */\n              0x00\n                /* \"#utility.yul\":526:527   */\n              dup1\n                /* \"#utility.yul\":519:531   */\n              revert\n                /* \"#utility.yul\":470:533   */\n            tag_228:\n                /* \"#utility.yul\":417:539   */\n              pop\n              jump\t// out\n                /* \"#utility.yul\":545:684   */\n            tag_179:\n                /* \"#utility.yul\":591:596   */\n              0x00\n                /* \"#utility.yul\":629:635   */\n              dup2\n                /* \"#utility.yul\":616:636   */\n              calldataload\n                /* \"#utility.yul\":607:636   */\n              swap1\n              pop\n                /* \"#utility.yul\":645:678   */\n              tag_230\n                /* \"#utility.yul\":672:677   */\n              dup2\n                /* \"#utility.yul\":645:678   */\n              tag_178\n              jump\t// in\n            tag_230:\n                /* \"#utility.yul\":545:684   */\n              swap3\n              swap2\n              pop\n              pop\n              jump\t// out\n                /* \"#utility.yul\":690:1019   */\n            tag_23:\n                /* \"#utility.yul\":749:755   */\n              0x00\n                /* \"#utility.yul\":798:800   */\n              0x20\n                /* \"#utility.yul\":786:795   */\n              dup3\n                /* \"#utility.yul\":777:784   */\n              dup5\n                /* \"#utility.yul\":773:796   */\n              sub\n                /* \"#utility.yul\":769:801   */\n              slt\n                /* \"#utility.yul\":766:885   */\n              iszero\n              tag_232\n              jumpi\n                /* \"#utility.yul\":804:883   */\n              tag_233\n              tag_175\n              jump\t// in\n            tag_233:\n                /* \"#utility.yul\":766:885   */\n            tag_232:\n                /* \"#utility.yul\":924:925   */\n              0x00\n                /* \"#utility.yul\":949:1002   */\n              tag_234\n                /* \"#utility.yul\":994:1001   */\n              dup5\n                /* \"#utility.yul\":985:991   */\n              dup3\n                /* \"#utility.yul\":974:983   */\n              dup6\n                /* \"#utility.yul\":970:992   */\n              add\n                /* \"#utility.yul\":949:1002   */\n              tag_179\n              jump\t// in\n            tag_234:\n                /* \"#utility.yul\":939:1002   */\n              swap2\n              pop\n                /* \"#utility.yul\":895:1012   */\n              pop\n                /* \"#utility.yul\":690:1019   */\n              swap3\n              swap2\n              pop\n              pop\n              jump\t// out\n                /* \"#utility.yul\":1025:1115   */\n            tag_180:\n                /* \"#utility.yul\":1059:1066   */\n              0x00\n                /* \"#utility.yul\":1102:1107   */\n              dup2\n                /* \"#utility.yul\":1095:1108   */\n              iszero\n                /* \"#utility.yul\":1088:1109   */\n              iszero\n                /* \"#utility.yul\":1077:1109   */\n              swap1\n              pop\n                /* \"#utility.yul\":1025:1115   */\n              swap2\n              swap1\n              pop\n              jump\t// out\n                /* \"#utility.yul\":1121:1237   */\n            tag_181:\n                /* \"#utility.yul\":1191:1212   */\n              tag_237\n                /* \"#utility.yul\":1206:1211   */\n              dup2\n                /* \"#utility.yul\":1191:1212   */\n              tag_180\n              jump\t// in\n            tag_237:\n                /* \"#utility.yul\":1184:1189   */\n              dup2\n                /* \"#utility.yul\":1181:1213   */\n              eq\n                /* \"#utility.yul\":1171:1231   */\n              tag_238\n              jumpi\n                /* \"#utility.yul\":1227:1228   */\n              0x00\n                /* \"#utility.yul\":1224:1225   */\n              dup1\n                /* \"#utility.yul\":1217:1229   */\n              revert\n                /* \"#utility.yul\":1171:1231   */\n            tag_238:\n                /* \"#utility.yul\":1121:1237   */\n              pop\n              jump\t// out\n                /* \"#utility.yul\":1243:1376   */\n            tag_182:\n                /* \"#utility.yul\":1286:1291   */\n              0x00\n                /* \"#utility.yul\":1324:1330   */\n              dup2\n                /* \"#utility.yul\":1311:1331   */\n              calldataload\n                /* \"#utility.yul\":1302:1331   */\n              swap1\n              pop\n                /* \"#utility.yul\":1340:1370   */\n              tag_240\n                /* \"#utility.yul\":1364:1369   */\n              dup2\n                /* \"#utility.yul\":1340:1370   */\n              tag_181\n              jump\t// in\n            tag_240:\n                /* \"#utility.yul\":1243:1376   */\n              swap3\n              swap2\n              pop\n              pop\n              jump\t// out\n                /* \"#utility.yul\":1382:1705   */\n            tag_27:\n                /* \"#utility.yul\":1438:1444   */\n              0x00\n                /* \"#utility.yul\":1487:1489   */\n              0x20\n                /* \"#utility.yul\":1475:1484   */\n              dup3\n                /* \"#utility.yul\":1466:1473   */\n              dup5\n                /* \"#utility.yul\":1462:1485   */\n              sub\n                /* \"#utility.yul\":1458:1490   */\n              slt\n                /* \"#utility.yul\":1455:1574   */\n              iszero\n              tag_242\n              jumpi\n                /* \"#utility.yul\":1493:1572   */\n              tag_243\n              tag_175\n              jump\t// in\n            tag_243:\n                /* \"#utility.yul\":1455:1574   */\n            tag_242:\n                /* \"#utility.yul\":1613:1614   */\n              0x00\n                /* \"#utility.yul\":1638:1688   */\n              tag_244\n                /* \"#utility.yul\":1680:1687   */\n              dup5\n                /* \"#utility.yul\":1671:1677   */\n              dup3\n                /* \"#utility.yul\":1660:1669   */\n              dup6\n                /* \"#utility.yul\":1656:1678   */\n              add\n                /* \"#utility.yul\":1638:1688   */\n              tag_182\n              jump\t// in\n            tag_244:\n                /* \"#utility.yul\":1628:1688   */\n              swap2\n              pop\n                /* \"#utility.yul\":1584:1698   */\n              pop\n                /* \"#utility.yul\":1382:1705   */\n              swap3\n              swap2\n              pop\n              pop\n              jump\t// out\n                /* \"#utility.yul\":1711:1825   */\n            tag_183:\n                /* \"#utility.yul\":1778:1784   */\n              0x00\n                /* \"#utility.yul\":1812:1817   */\n              dup2\n                /* \"#utility.yul\":1806:1818   */\n              mload\n                /* \"#utility.yul\":1796:1818   */\n              swap1\n              pop\n                /* \"#utility.yul\":1711:1825   */\n              swap2\n              swap1\n              pop\n              jump\t// out\n                /* \"#utility.yul\":1831:2015   */\n            tag_184:\n                /* \"#utility.yul\":1930:1941   */\n              0x00\n                /* \"#utility.yul\":1964:1970   */\n              dup3\n                /* \"#utility.yul\":1959:1962   */\n              dup3\n                /* \"#utility.yul\":1952:1971   */\n              mstore\n                /* \"#utility.yul\":2004:2008   */\n              0x20\n                /* \"#utility.yul\":1999:2002   */\n              dup3\n                /* \"#utility.yul\":1995:2009   */\n              add\n                /* \"#utility.yul\":1980:2009   */\n              swap1\n              pop\n                /* \"#utility.yul\":1831:2015   */\n              swap3\n              swap2\n              pop\n              pop\n              jump\t// out\n                /* \"#utility.yul\":2021:2153   */\n            tag_185:\n                /* \"#utility.yul\":2088:2092   */\n              0x00\n                /* \"#utility.yul\":2111:2114   */\n              dup2\n                /* \"#utility.yul\":2103:2114   */\n              swap1\n              pop\n                /* \"#utility.yul\":2141:2145   */\n              0x20\n                /* \"#utility.yul\":2136:2139   */\n              dup3\n                /* \"#utility.yul\":2132:2146   */\n              add\n                /* \"#utility.yul\":2124:2146   */\n              swap1\n              pop\n                /* \"#utility.yul\":2021:2153   */\n              swap2\n              swap1\n              pop\n              jump\t// out\n                /* \"#utility.yul\":2159:2267   */\n            tag_186:\n                /* \"#utility.yul\":2236:2260   */\n              tag_249\n                /* \"#utility.yul\":2254:2259   */\n              dup2\n                /* \"#utility.yul\":2236:2260   */\n              tag_177\n              jump\t// in\n            tag_249:\n                /* \"#utility.yul\":2231:2234   */\n              dup3\n                /* \"#utility.yul\":2224:2261   */\n              mstore\n                /* \"#utility.yul\":2159:2267   */\n              pop\n              pop\n              jump\t// out\n                /* \"#utility.yul\":2273:2452   */\n            tag_187:\n                /* \"#utility.yul\":2342:2352   */\n              0x00\n                /* \"#utility.yul\":2363:2409   */\n              tag_251\n                /* \"#utility.yul\":2405:2408   */\n              dup4\n                /* \"#utility.yul\":2397:2403   */\n              dup4\n                /* \"#utility.yul\":2363:2409   */\n              tag_186\n              jump\t// in\n            tag_251:\n                /* \"#utility.yul\":2441:2445   */\n              0x20\n                /* \"#utility.yul\":2436:2439   */\n              dup4\n                /* \"#utility.yul\":2432:2446   */\n              add\n                /* \"#utility.yul\":2418:2446   */\n              swap1\n              pop\n                /* \"#utility.yul\":2273:2452   */\n              swap3\n              swap2\n              pop\n              pop\n              jump\t// out\n                /* \"#utility.yul\":2458:2571   */\n            tag_188:\n                /* \"#utility.yul\":2528:2532   */\n              0x00\n                /* \"#utility.yul\":2560:2564   */\n              0x20\n                /* \"#utility.yul\":2555:2558   */\n              dup3\n                /* \"#utility.yul\":2551:2565   */\n              add\n                /* \"#utility.yul\":2543:2565   */\n              swap1\n              pop\n                /* \"#utility.yul\":2458:2571   */\n              swap2\n              swap1\n              pop\n              jump\t// out\n                /* \"#utility.yul\":2607:3339   */\n            tag_189:\n                /* \"#utility.yul\":2726:2729   */\n              0x00\n                /* \"#utility.yul\":2755:2809   */\n              tag_254\n                /* \"#utility.yul\":2803:2808   */\n              dup3\n                /* \"#utility.yul\":2755:2809   */\n              tag_183\n              jump\t// in\n            tag_254:\n                /* \"#utility.yul\":2825:2911   */\n              tag_255\n                /* \"#utility.yul\":2904:2910   */\n              dup2\n                /* \"#utility.yul\":2899:2902   */\n              dup6\n                /* \"#utility.yul\":2825:2911   */\n              tag_184\n              jump\t// in\n            tag_255:\n                /* \"#utility.yul\":2818:2911   */\n              swap4\n              pop\n                /* \"#utility.yul\":2935:2991   */\n              tag_256\n                /* \"#utility.yul\":2985:2990   */\n              dup4\n                /* \"#utility.yul\":2935:2991   */\n              tag_185\n              jump\t// in\n            tag_256:\n                /* \"#utility.yul\":3014:3021   */\n              dup1\n                /* \"#utility.yul\":3045:3046   */\n              0x00\n                /* \"#utility.yul\":3030:3314   */\n            tag_257:\n                /* \"#utility.yul\":3055:3061   */\n              dup4\n                /* \"#utility.yul\":3052:3053   */\n              dup2\n                /* \"#utility.yul\":3049:3062   */\n              lt\n                /* \"#utility.yul\":3030:3314   */\n              iszero\n              tag_259\n              jumpi\n                /* \"#utility.yul\":3131:3137   */\n              dup2\n                /* \"#utility.yul\":3125:3138   */\n              mload\n                /* \"#utility.yul\":3158:3221   */\n              tag_260\n                /* \"#utility.yul\":3217:3220   */\n              dup9\n                /* \"#utility.yul\":3202:3215   */\n              dup3\n                /* \"#utility.yul\":3158:3221   */\n              tag_187\n              jump\t// in\n            tag_260:\n                /* \"#utility.yul\":3151:3221   */\n              swap8\n              pop\n                /* \"#utility.yul\":3244:3304   */\n              tag_261\n                /* \"#utility.yul\":3297:3303   */\n              dup4\n                /* \"#utility.yul\":3244:3304   */\n              tag_188\n              jump\t// in\n            tag_261:\n                /* \"#utility.yul\":3234:3304   */\n              swap3\n              pop\n                /* \"#utility.yul\":3090:3314   */\n              pop\n                /* \"#utility.yul\":3077:3078   */\n              0x01\n                /* \"#utility.yul\":3074:3075   */\n              dup2\n                /* \"#utility.yul\":3070:3079   */\n              add\n                /* \"#utility.yul\":3065:3079   */\n              swap1\n              pop\n                /* \"#utility.yul\":3030:3314   */\n              jump(tag_257)\n            tag_259:\n                /* \"#utility.yul\":3034:3048   */\n              pop\n                /* \"#utility.yul\":3330:3333   */\n              dup6\n                /* \"#utility.yul\":3323:3333   */\n              swap4\n              pop\n                /* \"#utility.yul\":2731:3339   */\n              pop\n              pop\n              pop\n                /* \"#utility.yul\":2607:3339   */\n              swap3\n              swap2\n              pop\n              pop\n              jump\t// out\n                /* \"#utility.yul\":3345:3718   */\n            tag_32:\n                /* \"#utility.yul\":3488:3492   */\n              0x00\n                /* \"#utility.yul\":3526:3528   */\n              0x20\n                /* \"#utility.yul\":3515:3524   */\n              dup3\n                /* \"#utility.yul\":3511:3529   */\n              add\n                /* \"#utility.yul\":3503:3529   */\n              swap1\n              pop\n                /* \"#utility.yul\":3575:3584   */\n              dup2\n                /* \"#utility.yul\":3569:3573   */\n              dup2\n                /* \"#utility.yul\":3565:3585   */\n              sub\n                /* \"#utility.yul\":3561:3562   */\n              0x00\n                /* \"#utility.yul\":3550:3559   */\n              dup4\n                /* \"#utility.yul\":3546:3563   */\n              add\n                /* \"#utility.yul\":3539:3586   */\n              mstore\n                /* \"#utility.yul\":3603:3711   */\n              tag_263\n                /* \"#utility.yul\":3706:3710   */\n              dup2\n                /* \"#utility.yul\":3697:3703   */\n              dup5\n                /* \"#utility.yul\":3603:3711   */\n              tag_189\n              jump\t// in\n            tag_263:\n                /* \"#utility.yul\":3595:3711   */\n              swap1\n              pop\n                /* \"#utility.yul\":3345:3718   */\n              swap3\n              swap2\n              pop\n              pop\n              jump\t// out\n                /* \"#utility.yul\":3724:3850   */\n            tag_190:\n                /* \"#utility.yul\":3761:3768   */\n              0x00\n                /* \"#utility.yul\":3801:3843   */\n              0xffffffffffffffffffffffffffffffffffffffff\n                /* \"#utility.yul\":3794:3799   */\n              dup3\n                /* \"#utility.yul\":3790:3844   */\n              and\n                /* \"#utility.yul\":3779:3844   */\n              swap1\n              pop\n                /* \"#utility.yul\":3724:3850   */\n              swap2\n              swap1\n              pop\n              jump\t// out\n                /* \"#utility.yul\":3856:3952   */\n            tag_191:\n                /* \"#utility.yul\":3893:3900   */\n              0x00\n                /* \"#utility.yul\":3922:3946   */\n              tag_266\n                /* \"#utility.yul\":3940:3945   */\n              dup3\n                /* \"#utility.yul\":3922:3946   */\n              tag_190\n              jump\t// in\n            tag_266:\n                /* \"#utility.yul\":3911:3946   */\n              swap1\n              pop\n                /* \"#utility.yul\":3856:3952   */\n              swap2\n              swap1\n              pop\n              jump\t// out\n                /* \"#utility.yul\":3958:4076   */\n            tag_192:\n                /* \"#utility.yul\":4045:4069   */\n              tag_268\n                /* \"#utility.yul\":4063:4068   */\n              dup2\n                /* \"#utility.yul\":4045:4069   */\n              tag_191\n              jump\t// in\n            tag_268:\n                /* \"#utility.yul\":4040:4043   */\n              dup3\n                /* \"#utility.yul\":4033:4070   */\n              mstore\n                /* \"#utility.yul\":3958:4076   */\n              pop\n              pop\n              jump\t// out\n                /* \"#utility.yul\":4082:4181   */\n            tag_193:\n                /* \"#utility.yul\":4134:4140   */\n              0x00\n                /* \"#utility.yul\":4168:4173   */\n              dup2\n                /* \"#utility.yul\":4162:4174   */\n              mload\n                /* \"#utility.yul\":4152:4174   */\n              swap1\n              pop\n                /* \"#utility.yul\":4082:4181   */\n              swap2\n              swap1\n              pop\n              jump\t// out\n                /* \"#utility.yul\":4187:4356   */\n            tag_194:\n                /* \"#utility.yul\":4271:4282   */\n              0x00\n                /* \"#utility.yul\":4305:4311   */\n              dup3\n                /* \"#utility.yul\":4300:4303   */\n              dup3\n                /* \"#utility.yul\":4293:4312   */\n              mstore\n                /* \"#utility.yul\":4345:4349   */\n              0x20\n                /* \"#utility.yul\":4340:4343   */\n              dup3\n                /* \"#utility.yul\":4336:4350   */\n              add\n                /* \"#utility.yul\":4321:4350   */\n              swap1\n              pop\n                /* \"#utility.yul\":4187:4356   */\n              swap3\n              swap2\n              pop\n              pop\n              jump\t// out\n                /* \"#utility.yul\":4362:4669   */\n            tag_195:\n                /* \"#utility.yul\":4430:4431   */\n              0x00\n                /* \"#utility.yul\":4440:4553   */\n            tag_272:\n                /* \"#utility.yul\":4454:4460   */\n              dup4\n                /* \"#utility.yul\":4451:4452   */\n              dup2\n                /* \"#utility.yul\":4448:4461   */\n              lt\n                /* \"#utility.yul\":4440:4553   */\n              iszero\n              tag_274\n              jumpi\n                /* \"#utility.yul\":4539:4540   */\n              dup1\n                /* \"#utility.yul\":4534:4537   */\n              dup3\n                /* \"#utility.yul\":4530:4541   */\n              add\n                /* \"#utility.yul\":4524:4542   */\n              mload\n                /* \"#utility.yul\":4520:4521   */\n              dup2\n                /* \"#utility.yul\":4515:4518   */\n              dup5\n                /* \"#utility.yul\":4511:4522   */\n              add\n                /* \"#utility.yul\":4504:4543   */\n              mstore\n                /* \"#utility.yul\":4476:4478   */\n              0x20\n                /* \"#utility.yul\":4473:4474   */\n              dup2\n                /* \"#utility.yul\":4469:4479   */\n              add\n                /* \"#utility.yul\":4464:4479   */\n              swap1\n              pop\n                /* \"#utility.yul\":4440:4553   */\n              jump(tag_272)\n            tag_274:\n                /* \"#utility.yul\":4571:4577   */\n              dup4\n                /* \"#utility.yul\":4568:4569   */\n              dup2\n                /* \"#utility.yul\":4565:4578   */\n              gt\n                /* \"#utility.yul\":4562:4663   */\n              iszero\n              tag_275\n              jumpi\n                /* \"#utility.yul\":4651:4652   */\n              0x00\n                /* \"#utility.yul\":4642:4648   */\n              dup5\n                /* \"#utility.yul\":4637:4640   */\n              dup5\n                /* \"#utility.yul\":4633:4649   */\n              add\n                /* \"#utility.yul\":4626:4653   */\n              mstore\n                /* \"#utility.yul\":4562:4663   */\n            tag_275:\n                /* \"#utility.yul\":4411:4669   */\n              pop\n                /* \"#utility.yul\":4362:4669   */\n              pop\n              pop\n              pop\n              jump\t// out\n                /* \"#utility.yul\":4675:4777   */\n            tag_196:\n                /* \"#utility.yul\":4716:4722   */\n              0x00\n                /* \"#utility.yul\":4767:4769   */\n              0x1f\n                /* \"#utility.yul\":4763:4770   */\n              not\n                /* \"#utility.yul\":4758:4760   */\n              0x1f\n                /* \"#utility.yul\":4751:4756   */\n              dup4\n                /* \"#utility.yul\":4747:4761   */\n              add\n                /* \"#utility.yul\":4743:4771   */\n              and\n                /* \"#utility.yul\":4733:4771   */\n              swap1\n              pop\n                /* \"#utility.yul\":4675:4777   */\n              swap2\n              swap1\n              pop\n              jump\t// out\n                /* \"#utility.yul\":4783:5147   */\n            tag_197:\n                /* \"#utility.yul\":4871:4874   */\n              0x00\n                /* \"#utility.yul\":4899:4938   */\n              tag_278\n                /* \"#utility.yul\":4932:4937   */\n              dup3\n                /* \"#utility.yul\":4899:4938   */\n              tag_193\n              jump\t// in\n            tag_278:\n                /* \"#utility.yul\":4954:5025   */\n              tag_279\n                /* \"#utility.yul\":5018:5024   */\n              dup2\n                /* \"#utility.yul\":5013:5016   */\n              dup6\n                /* \"#utility.yul\":4954:5025   */\n              tag_194\n              jump\t// in\n            tag_279:\n                /* \"#utility.yul\":4947:5025   */\n              swap4\n              pop\n                /* \"#utility.yul\":5034:5086   */\n              tag_280\n                /* \"#utility.yul\":5079:5085   */\n              dup2\n                /* \"#utility.yul\":5074:5077   */\n              dup6\n                /* \"#utility.yul\":5067:5071   */\n              0x20\n                /* \"#utility.yul\":5060:5065   */\n              dup7\n                /* \"#utility.yul\":5056:5072   */\n              add\n                /* \"#utility.yul\":5034:5086   */\n              tag_195\n              jump\t// in\n            tag_280:\n                /* \"#utility.yul\":5111:5140   */\n              tag_281\n                /* \"#utility.yul\":5133:5139   */\n              dup2\n                /* \"#utility.yul\":5111:5140   */\n              tag_196\n              jump\t// in\n            tag_281:\n                /* \"#utility.yul\":5106:5109   */\n              dup5\n                /* \"#utility.yul\":5102:5141   */\n              add\n                /* \"#utility.yul\":5095:5141   */\n              swap2\n              pop\n                /* \"#utility.yul\":4875:5147   */\n              pop\n                /* \"#utility.yul\":4783:5147   */\n              swap3\n              swap2\n              pop\n              pop\n              jump\t// out\n                /* \"#utility.yul\":5153:5262   */\n            tag_198:\n                /* \"#utility.yul\":5234:5255   */\n              tag_283\n                /* \"#utility.yul\":5249:5254   */\n              dup2\n                /* \"#utility.yul\":5234:5255   */\n              tag_180\n              jump\t// in\n            tag_283:\n                /* \"#utility.yul\":5229:5232   */\n              dup3\n                /* \"#utility.yul\":5222:5256   */\n              mstore\n                /* \"#utility.yul\":5153:5262   */\n              pop\n              pop\n              jump\t// out\n                /* \"#utility.yul\":5268:5386   */\n            tag_199:\n                /* \"#utility.yul\":5355:5379   */\n              tag_285\n                /* \"#utility.yul\":5373:5378   */\n              dup2\n                /* \"#utility.yul\":5355:5379   */\n              tag_177\n              jump\t// in\n            tag_285:\n                /* \"#utility.yul\":5350:5353   */\n              dup3\n                /* \"#utility.yul\":5343:5380   */\n              mstore\n                /* \"#utility.yul\":5268:5386   */\n              pop\n              pop\n              jump\t// out\n                /* \"#utility.yul\":5392:5516   */\n            tag_200:\n                /* \"#utility.yul\":5469:5475   */\n              0x00\n                /* \"#utility.yul\":5503:5508   */\n              dup2\n                /* \"#utility.yul\":5497:5509   */\n              mload\n                /* \"#utility.yul\":5487:5509   */\n              swap1\n              pop\n                /* \"#utility.yul\":5392:5516   */\n              swap2\n              swap1\n              pop\n              jump\t// out\n                /* \"#utility.yul\":5522:5716   */\n            tag_201:\n                /* \"#utility.yul\":5631:5642   */\n              0x00\n                /* \"#utility.yul\":5665:5671   */\n              dup3\n                /* \"#utility.yul\":5660:5663   */\n              dup3\n                /* \"#utility.yul\":5653:5672   */\n              mstore\n                /* \"#utility.yul\":5705:5709   */\n              0x20\n                /* \"#utility.yul\":5700:5703   */\n              dup3\n                /* \"#utility.yul\":5696:5710   */\n              add\n                /* \"#utility.yul\":5681:5710   */\n              swap1\n              pop\n                /* \"#utility.yul\":5522:5716   */\n              swap3\n              swap2\n              pop\n              pop\n              jump\t// out\n                /* \"#utility.yul\":5722:5864   */\n            tag_202:\n                /* \"#utility.yul\":5799:5803   */\n              0x00\n                /* \"#utility.yul\":5822:5825   */\n              dup2\n                /* \"#utility.yul\":5814:5825   */\n              swap1\n              pop\n                /* \"#utility.yul\":5852:5856   */\n              0x20\n                /* \"#utility.yul\":5847:5850   */\n              dup3\n                /* \"#utility.yul\":5843:5857   */\n              add\n                /* \"#utility.yul\":5835:5857   */\n              swap1\n              pop\n                /* \"#utility.yul\":5722:5864   */\n              swap2\n              swap1\n              pop\n              jump\t// out\n                /* \"#utility.yul\":5870:6029   */\n            tag_203:\n                /* \"#utility.yul\":5944:5955   */\n              0x00\n                /* \"#utility.yul\":5978:5984   */\n              dup3\n                /* \"#utility.yul\":5973:5976   */\n              dup3\n                /* \"#utility.yul\":5966:5985   */\n              mstore\n                /* \"#utility.yul\":6018:6022   */\n              0x20\n                /* \"#utility.yul\":6013:6016   */\n              dup3\n                /* \"#utility.yul\":6009:6023   */\n              add\n                /* \"#utility.yul\":5994:6023   */\n              swap1\n              pop\n                /* \"#utility.yul\":5870:6029   */\n              swap3\n              swap2\n              pop\n              pop\n              jump\t// out\n                /* \"#utility.yul\":6035:6379   */\n            tag_204:\n                /* \"#utility.yul\":6113:6116   */\n              0x00\n                /* \"#utility.yul\":6141:6180   */\n              tag_291\n                /* \"#utility.yul\":6174:6179   */\n              dup3\n                /* \"#utility.yul\":6141:6180   */\n              tag_193\n              jump\t// in\n            tag_291:\n                /* \"#utility.yul\":6196:6257   */\n              tag_292\n                /* \"#utility.yul\":6250:6256   */\n              dup2\n                /* \"#utility.yul\":6245:6248   */\n              dup6\n                /* \"#utility.yul\":6196:6257   */\n              tag_203\n              jump\t// in\n            tag_292:\n                /* \"#utility.yul\":6189:6257   */\n              swap4\n              pop\n                /* \"#utility.yul\":6266:6318   */\n              tag_293\n                /* \"#utility.yul\":6311:6317   */\n              dup2\n                /* \"#utility.yul\":6306:6309   */\n              dup6\n                /* \"#utility.yul\":6299:6303   */\n              0x20\n                /* \"#utility.yul\":6292:6297   */\n              dup7\n                /* \"#utility.yul\":6288:6304   */\n              add\n                /* \"#utility.yul\":6266:6318   */\n              tag_195\n              jump\t// in\n            tag_293:\n                /* \"#utility.yul\":6343:6372   */\n              tag_294\n                /* \"#utility.yul\":6365:6371   */\n              dup2\n                /* \"#utility.yul\":6343:6372   */\n              tag_196\n              jump\t// in\n            tag_294:\n                /* \"#utility.yul\":6338:6341   */\n              dup5\n                /* \"#utility.yul\":6334:6373   */\n              add\n                /* \"#utility.yul\":6327:6373   */\n              swap2\n              pop\n                /* \"#utility.yul\":6117:6379   */\n              pop\n                /* \"#utility.yul\":6035:6379   */\n              swap3\n              swap2\n              pop\n              pop\n              jump\t// out\n                /* \"#utility.yul\":6385:6581   */\n            tag_205:\n                /* \"#utility.yul\":6474:6484   */\n              0x00\n                /* \"#utility.yul\":6509:6575   */\n              tag_296\n                /* \"#utility.yul\":6571:6574   */\n              dup4\n                /* \"#utility.yul\":6563:6569   */\n              dup4\n                /* \"#utility.yul\":6509:6575   */\n              tag_204\n              jump\t// in\n            tag_296:\n                /* \"#utility.yul\":6495:6575   */\n              swap1\n              pop\n                /* \"#utility.yul\":6385:6581   */\n              swap3\n              swap2\n              pop\n              pop\n              jump\t// out\n                /* \"#utility.yul\":6587:6710   */\n            tag_206:\n                /* \"#utility.yul\":6667:6671   */\n              0x00\n                /* \"#utility.yul\":6699:6703   */\n              0x20\n                /* \"#utility.yul\":6694:6697   */\n              dup3\n                /* \"#utility.yul\":6690:6704   */\n              add\n                /* \"#utility.yul\":6682:6704   */\n              swap1\n              pop\n                /* \"#utility.yul\":6587:6710   */\n              swap2\n              swap1\n              pop\n              jump\t// out\n                /* \"#utility.yul\":6744:7735   */\n            tag_207:\n                /* \"#utility.yul\":6883:6886   */\n              0x00\n                /* \"#utility.yul\":6912:6976   */\n              tag_299\n                /* \"#utility.yul\":6970:6975   */\n              dup3\n                /* \"#utility.yul\":6912:6976   */\n              tag_200\n              jump\t// in\n            tag_299:\n                /* \"#utility.yul\":6992:7088   */\n              tag_300\n                /* \"#utility.yul\":7081:7087   */\n              dup2\n                /* \"#utility.yul\":7076:7079   */\n              dup6\n                /* \"#utility.yul\":6992:7088   */\n              tag_201\n              jump\t// in\n            tag_300:\n                /* \"#utility.yul\":6985:7088   */\n              swap4\n              pop\n                /* \"#utility.yul\":7114:7117   */\n              dup4\n                /* \"#utility.yul\":7159:7163   */\n              0x20\n                /* \"#utility.yul\":7151:7157   */\n              dup3\n                /* \"#utility.yul\":7147:7164   */\n              mul\n                /* \"#utility.yul\":7142:7145   */\n              dup6\n                /* \"#utility.yul\":7138:7165   */\n              add\n                /* \"#utility.yul\":7189:7255   */\n              tag_301\n                /* \"#utility.yul\":7249:7254   */\n              dup6\n                /* \"#utility.yul\":7189:7255   */\n              tag_202\n              jump\t// in\n            tag_301:\n                /* \"#utility.yul\":7278:7285   */\n              dup1\n                /* \"#utility.yul\":7309:7310   */\n              0x00\n                /* \"#utility.yul\":7294:7690   */\n            tag_302:\n                /* \"#utility.yul\":7319:7325   */\n              dup6\n                /* \"#utility.yul\":7316:7317   */\n              dup2\n                /* \"#utility.yul\":7313:7326   */\n              lt\n                /* \"#utility.yul\":7294:7690   */\n              iszero\n              tag_304\n              jumpi\n                /* \"#utility.yul\":7390:7399   */\n              dup5\n                /* \"#utility.yul\":7384:7388   */\n              dup5\n                /* \"#utility.yul\":7380:7400   */\n              sub\n                /* \"#utility.yul\":7375:7378   */\n              dup10\n                /* \"#utility.yul\":7368:7401   */\n              mstore\n                /* \"#utility.yul\":7441:7447   */\n              dup2\n                /* \"#utility.yul\":7435:7448   */\n              mload\n                /* \"#utility.yul\":7469:7553   */\n              tag_305\n                /* \"#utility.yul\":7548:7552   */\n              dup6\n                /* \"#utility.yul\":7533:7546   */\n              dup3\n                /* \"#utility.yul\":7469:7553   */\n              tag_205\n              jump\t// in\n            tag_305:\n                /* \"#utility.yul\":7461:7553   */\n              swap5\n              pop\n                /* \"#utility.yul\":7576:7646   */\n              tag_306\n                /* \"#utility.yul\":7639:7645   */\n              dup4\n                /* \"#utility.yul\":7576:7646   */\n              tag_206\n              jump\t// in\n            tag_306:\n                /* \"#utility.yul\":7566:7646   */\n              swap3\n              pop\n                /* \"#utility.yul\":7675:7679   */\n              0x20\n                /* \"#utility.yul\":7670:7673   */\n              dup11\n                /* \"#utility.yul\":7666:7680   */\n              add\n                /* \"#utility.yul\":7659:7680   */\n              swap10\n              pop\n                /* \"#utility.yul\":7354:7690   */\n              pop\n                /* \"#utility.yul\":7341:7342   */\n              0x01\n                /* \"#utility.yul\":7338:7339   */\n              dup2\n                /* \"#utility.yul\":7334:7343   */\n              add\n                /* \"#utility.yul\":7329:7343   */\n              swap1\n              pop\n                /* \"#utility.yul\":7294:7690   */\n              jump(tag_302)\n            tag_304:\n                /* \"#utility.yul\":7298:7312   */\n              pop\n                /* \"#utility.yul\":7706:7710   */\n              dup3\n                /* \"#utility.yul\":7699:7710   */\n              swap8\n              pop\n                /* \"#utility.yul\":7726:7729   */\n              dup8\n                /* \"#utility.yul\":7719:7729   */\n              swap6\n              pop\n                /* \"#utility.yul\":6888:7735   */\n              pop\n              pop\n              pop\n              pop\n              pop\n                /* \"#utility.yul\":6744:7735   */\n              swap3\n              swap2\n              pop\n              pop\n              jump\t// out\n                /* \"#utility.yul\":7741:9238   */\n            tag_36:\n                /* \"#utility.yul\":8178:8182   */\n              0x00\n                /* \"#utility.yul\":8216:8219   */\n              0x0100\n                /* \"#utility.yul\":8205:8214   */\n              dup3\n                /* \"#utility.yul\":8201:8220   */\n              add\n                /* \"#utility.yul\":8193:8220   */\n              swap1\n              pop\n                /* \"#utility.yul\":8230:8301   */\n              tag_308\n                /* \"#utility.yul\":8298:8299   */\n              0x00\n                /* \"#utility.yul\":8287:8296   */\n              dup4\n                /* \"#utility.yul\":8283:8300   */\n              add\n                /* \"#utility.yul\":8274:8280   */\n              dup12\n                /* \"#utility.yul\":8230:8301   */\n              tag_192\n              jump\t// in\n            tag_308:\n                /* \"#utility.yul\":8348:8357   */\n              dup2\n                /* \"#utility.yul\":8342:8346   */\n              dup2\n                /* \"#utility.yul\":8338:8358   */\n              sub\n                /* \"#utility.yul\":8333:8335   */\n              0x20\n                /* \"#utility.yul\":8322:8331   */\n              dup4\n                /* \"#utility.yul\":8318:8336   */\n              add\n                /* \"#utility.yul\":8311:8359   */\n              mstore\n                /* \"#utility.yul\":8376:8454   */\n              tag_309\n                /* \"#utility.yul\":8449:8453   */\n              dup2\n                /* \"#utility.yul\":8440:8446   */\n              dup11\n                /* \"#utility.yul\":8376:8454   */\n              tag_197\n              jump\t// in\n            tag_309:\n                /* \"#utility.yul\":8368:8454   */\n              swap1\n              pop\n                /* \"#utility.yul\":8501:8510   */\n              dup2\n                /* \"#utility.yul\":8495:8499   */\n              dup2\n                /* \"#utility.yul\":8491:8511   */\n              sub\n                /* \"#utility.yul\":8486:8488   */\n              0x40\n                /* \"#utility.yul\":8475:8484   */\n              dup4\n                /* \"#utility.yul\":8471:8489   */\n              add\n                /* \"#utility.yul\":8464:8512   */\n              mstore\n                /* \"#utility.yul\":8529:8607   */\n              tag_310\n                /* \"#utility.yul\":8602:8606   */\n              dup2\n                /* \"#utility.yul\":8593:8599   */\n              dup10\n                /* \"#utility.yul\":8529:8607   */\n              tag_197\n              jump\t// in\n            tag_310:\n                /* \"#utility.yul\":8521:8607   */\n              swap1\n              pop\n                /* \"#utility.yul\":8617:8683   */\n              tag_311\n                /* \"#utility.yul\":8679:8681   */\n              0x60\n                /* \"#utility.yul\":8668:8677   */\n              dup4\n                /* \"#utility.yul\":8664:8682   */\n              add\n                /* \"#utility.yul\":8655:8661   */\n              dup9\n                /* \"#utility.yul\":8617:8683   */\n              tag_198\n              jump\t// in\n            tag_311:\n                /* \"#utility.yul\":8693:8760   */\n              tag_312\n                /* \"#utility.yul\":8755:8758   */\n              0x80\n                /* \"#utility.yul\":8744:8753   */\n              dup4\n                /* \"#utility.yul\":8740:8759   */\n              add\n                /* \"#utility.yul\":8731:8737   */\n              dup8\n                /* \"#utility.yul\":8693:8760   */\n              tag_198\n              jump\t// in\n            tag_312:\n                /* \"#utility.yul\":8770:8843   */\n              tag_313\n                /* \"#utility.yul\":8838:8841   */\n              0xa0\n                /* \"#utility.yul\":8827:8836   */\n              dup4\n                /* \"#utility.yul\":8823:8842   */\n              add\n                /* \"#utility.yul\":8814:8820   */\n              dup7\n                /* \"#utility.yul\":8770:8843   */\n              tag_199\n              jump\t// in\n            tag_313:\n                /* \"#utility.yul\":8891:8900   */\n              dup2\n                /* \"#utility.yul\":8885:8889   */\n              dup2\n                /* \"#utility.yul\":8881:8901   */\n              sub\n                /* \"#utility.yul\":8875:8878   */\n              0xc0\n                /* \"#utility.yul\":8864:8873   */\n              dup4\n                /* \"#utility.yul\":8860:8879   */\n              add\n                /* \"#utility.yul\":8853:8902   */\n              mstore\n                /* \"#utility.yul\":8919:9047   */\n              tag_314\n                /* \"#utility.yul\":9042:9046   */\n              dup2\n                /* \"#utility.yul\":9033:9039   */\n              dup6\n                /* \"#utility.yul\":8919:9047   */\n              tag_207\n              jump\t// in\n            tag_314:\n                /* \"#utility.yul\":8911:9047   */\n              swap1\n              pop\n                /* \"#utility.yul\":9095:9104   */\n              dup2\n                /* \"#utility.yul\":9089:9093   */\n              dup2\n                /* \"#utility.yul\":9085:9105   */\n              sub\n                /* \"#utility.yul\":9079:9082   */\n              0xe0\n                /* \"#utility.yul\":9068:9077   */\n              dup4\n                /* \"#utility.yul\":9064:9083   */\n              add\n                /* \"#utility.yul\":9057:9106   */\n              mstore\n                /* \"#utility.yul\":9123:9231   */\n              tag_315\n                /* \"#utility.yul\":9226:9230   */\n              dup2\n                /* \"#utility.yul\":9217:9223   */\n              dup5\n                /* \"#utility.yul\":9123:9231   */\n              tag_189\n              jump\t// in\n            tag_315:\n                /* \"#utility.yul\":9115:9231   */\n              swap1\n              pop\n                /* \"#utility.yul\":7741:9238   */\n              swap10\n              swap9\n              pop\n              pop\n              pop\n              pop\n              pop\n              pop\n              pop\n              pop\n              pop\n              jump\t// out\n                /* \"#utility.yul\":9244:9557   */\n            tag_41:\n                /* \"#utility.yul\":9357:9361   */\n              0x00\n                /* \"#utility.yul\":9395:9397   */\n              0x20\n                /* \"#utility.yul\":9384:9393   */\n              dup3\n                /* \"#utility.yul\":9380:9398   */\n              add\n                /* \"#utility.yul\":9372:9398   */\n              swap1\n              pop\n                /* \"#utility.yul\":9444:9453   */\n              dup2\n                /* \"#utility.yul\":9438:9442   */\n              dup2\n                /* \"#utility.yul\":9434:9454   */\n              sub\n                /* \"#utility.yul\":9430:9431   */\n              0x00\n                /* \"#utility.yul\":9419:9428   */\n              dup4\n                /* \"#utility.yul\":9415:9432   */\n              add\n                /* \"#utility.yul\":9408:9455   */\n              mstore\n                /* \"#utility.yul\":9472:9550   */\n              tag_317\n                /* \"#utility.yul\":9545:9549   */\n              dup2\n                /* \"#utility.yul\":9536:9542   */\n              dup5\n                /* \"#utility.yul\":9472:9550   */\n              tag_197\n              jump\t// in\n            tag_317:\n                /* \"#utility.yul\":9464:9550   */\n              swap1\n              pop\n                /* \"#utility.yul\":9244:9557   */\n              swap3\n              swap2\n              pop\n              pop\n              jump\t// out\n                /* \"#utility.yul\":9563:9785   */\n            tag_45:\n                /* \"#utility.yul\":9656:9660   */\n              0x00\n                /* \"#utility.yul\":9694:9696   */\n              0x20\n                /* \"#utility.yul\":9683:9692   */\n              dup3\n                /* \"#utility.yul\":9679:9697   */\n              add\n                /* \"#utility.yul\":9671:9697   */\n              swap1\n              pop\n                /* \"#utility.yul\":9707:9778   */\n              tag_319\n                /* \"#utility.yul\":9775:9776   */\n              0x00\n                /* \"#utility.yul\":9764:9773   */\n              dup4\n                /* \"#utility.yul\":9760:9777   */\n              add\n                /* \"#utility.yul\":9751:9757   */\n              dup5\n                /* \"#utility.yul\":9707:9778   */\n              tag_192\n              jump\t// in\n            tag_319:\n                /* \"#utility.yul\":9563:9785   */\n              swap3\n              swap2\n              pop\n              pop\n              jump\t// out\n                /* \"#utility.yul\":9791:10001   */\n            tag_52:\n                /* \"#utility.yul\":9878:9882   */\n              0x00\n                /* \"#utility.yul\":9916:9918   */\n              0x20\n                /* \"#utility.yul\":9905:9914   */\n              dup3\n                /* \"#utility.yul\":9901:9919   */\n              add\n                /* \"#utility.yul\":9893:9919   */\n              swap1\n              pop\n                /* \"#utility.yul\":9929:9994   */\n              tag_321\n                /* \"#utility.yul\":9991:9992   */\n              0x00\n                /* \"#utility.yul\":9980:9989   */\n              dup4\n                /* \"#utility.yul\":9976:9993   */\n              add\n                /* \"#utility.yul\":9967:9973   */\n              dup5\n                /* \"#utility.yul\":9929:9994   */\n              tag_198\n              jump\t// in\n            tag_321:\n                /* \"#utility.yul\":9791:10001   */\n              swap3\n              swap2\n              pop\n              pop\n              jump\t// out\n                /* \"#utility.yul\":10007:10229   */\n            tag_60:\n                /* \"#utility.yul\":10100:10104   */\n              0x00\n                /* \"#utility.yul\":10138:10140   */\n              0x20\n                /* \"#utility.yul\":10127:10136   */\n              dup3\n                /* \"#utility.yul\":10123:10141   */\n              add\n                /* \"#utility.yul\":10115:10141   */\n              swap1\n              pop\n                /* \"#utility.yul\":10151:10222   */\n              tag_323\n                /* \"#utility.yul\":10219:10220   */\n              0x00\n                /* \"#utility.yul\":10208:10217   */\n              dup4\n                /* \"#utility.yul\":10204:10221   */\n              add\n                /* \"#utility.yul\":10195:10201   */\n              dup5\n                /* \"#utility.yul\":10151:10222   */\n              tag_199\n              jump\t// in\n            tag_323:\n                /* \"#utility.yul\":10007:10229   */\n              swap3\n              swap2\n              pop\n              pop\n              jump\t// out\n                /* \"#utility.yul\":10235:10357   */\n            tag_208:\n                /* \"#utility.yul\":10308:10332   */\n              tag_325\n                /* \"#utility.yul\":10326:10331   */\n              dup2\n                /* \"#utility.yul\":10308:10332   */\n              tag_191\n              jump\t// in\n            tag_325:\n                /* \"#utility.yul\":10301:10306   */\n              dup2\n                /* \"#utility.yul\":10298:10333   */\n              eq\n                /* \"#utility.yul\":10288:10351   */\n              tag_326\n              jumpi\n                /* \"#utility.yul\":10347:10348   */\n              0x00\n                /* \"#utility.yul\":10344:10345   */\n              dup1\n                /* \"#utility.yul\":10337:10349   */\n              revert\n                /* \"#utility.yul\":10288:10351   */\n            tag_326:\n                /* \"#utility.yul\":10235:10357   */\n              pop\n              jump\t// out\n                /* \"#utility.yul\":10363:10502   */\n            tag_209:\n                /* \"#utility.yul\":10409:10414   */\n              0x00\n                /* \"#utility.yul\":10447:10453   */\n              dup2\n                /* \"#utility.yul\":10434:10454   */\n              calldataload\n                /* \"#utility.yul\":10425:10454   */\n              swap1\n              pop\n                /* \"#utility.yul\":10463:10496   */\n              tag_328\n                /* \"#utility.yul\":10490:10495   */\n              dup2\n                /* \"#utility.yul\":10463:10496   */\n              tag_208\n              jump\t// in\n            tag_328:\n                /* \"#utility.yul\":10363:10502   */\n              swap3\n              swap2\n              pop\n              pop\n              jump\t// out\n                /* \"#utility.yul\":10508:10837   */\n            tag_68:\n                /* \"#utility.yul\":10567:10573   */\n              0x00\n                /* \"#utility.yul\":10616:10618   */\n              0x20\n                /* \"#utility.yul\":10604:10613   */\n              dup3\n                /* \"#utility.yul\":10595:10602   */\n              dup5\n                /* \"#utility.yul\":10591:10614   */\n              sub\n                /* \"#utility.yul\":10587:10619   */\n              slt\n                /* \"#utility.yul\":10584:10703   */\n              iszero\n              tag_330\n              jumpi\n                /* \"#utility.yul\":10622:10701   */\n              tag_331\n              tag_175\n              jump\t// in\n            tag_331:\n                /* \"#utility.yul\":10584:10703   */\n            tag_330:\n                /* \"#utility.yul\":10742:10743   */\n              0x00\n                /* \"#utility.yul\":10767:10820   */\n              tag_332\n                /* \"#utility.yul\":10812:10819   */\n              dup5\n                /* \"#utility.yul\":10803:10809   */\n              dup3\n                /* \"#utility.yul\":10792:10801   */\n              dup6\n                /* \"#utility.yul\":10788:10810   */\n              add\n                /* \"#utility.yul\":10767:10820   */\n              tag_209\n              jump\t// in\n            tag_332:\n                /* \"#utility.yul\":10757:10820   */\n              swap2\n              pop\n                /* \"#utility.yul\":10713:10830   */\n              pop\n                /* \"#utility.yul\":10508:10837   */\n              swap3\n              swap2\n              pop\n              pop\n              jump\t// out\n                /* \"#utility.yul\":10843:11256   */\n            tag_74:\n                /* \"#utility.yul\":11006:11010   */\n              0x00\n                /* \"#utility.yul\":11044:11046   */\n              0x20\n                /* \"#utility.yul\":11033:11042   */\n              dup3\n                /* \"#utility.yul\":11029:11047   */\n              add\n                /* \"#utility.yul\":11021:11047   */\n              swap1\n              pop\n                /* \"#utility.yul\":11093:11102   */\n              dup2\n                /* \"#utility.yul\":11087:11091   */\n              dup2\n                /* \"#utility.yul\":11083:11103   */\n              sub\n                /* \"#utility.yul\":11079:11080   */\n              0x00\n                /* \"#utility.yul\":11068:11077   */\n              dup4\n                /* \"#utility.yul\":11064:11081   */\n              add\n                /* \"#utility.yul\":11057:11104   */\n              mstore\n                /* \"#utility.yul\":11121:11249   */\n              tag_334\n                /* \"#utility.yul\":11244:11248   */\n              dup2\n                /* \"#utility.yul\":11235:11241   */\n              dup5\n                /* \"#utility.yul\":11121:11249   */\n              tag_207\n              jump\t// in\n            tag_334:\n                /* \"#utility.yul\":11113:11249   */\n              swap1\n              pop\n                /* \"#utility.yul\":10843:11256   */\n              swap3\n              swap2\n              pop\n              pop\n              jump\t// out\n                /* \"#utility.yul\":11262:11399   */\n            tag_210:\n                /* \"#utility.yul\":11316:11321   */\n              0x00\n                /* \"#utility.yul\":11347:11353   */\n              dup2\n                /* \"#utility.yul\":11341:11354   */\n              mload\n                /* \"#utility.yul\":11332:11354   */\n              swap1\n              pop\n                /* \"#utility.yul\":11363:11393   */\n              tag_336\n                /* \"#utility.yul\":11387:11392   */\n              dup2\n                /* \"#utility.yul\":11363:11393   */\n              tag_181\n              jump\t// in\n            tag_336:\n                /* \"#utility.yul\":11262:11399   */\n              swap3\n              swap2\n              pop\n              pop\n              jump\t// out\n                /* \"#utility.yul\":11405:11750   */\n            tag_83:\n                /* \"#utility.yul\":11472:11478   */\n              0x00\n                /* \"#utility.yul\":11521:11523   */\n              0x20\n                /* \"#utility.yul\":11509:11518   */\n              dup3\n                /* \"#utility.yul\":11500:11507   */\n              dup5\n                /* \"#utility.yul\":11496:11519   */\n              sub\n                /* \"#utility.yul\":11492:11524   */\n              slt\n                /* \"#utility.yul\":11489:11608   */\n              iszero\n              tag_338\n              jumpi\n                /* \"#utility.yul\":11527:11606   */\n              tag_339\n              tag_175\n              jump\t// in\n            tag_339:\n                /* \"#utility.yul\":11489:11608   */\n            tag_338:\n                /* \"#utility.yul\":11647:11648   */\n              0x00\n                /* \"#utility.yul\":11672:11733   */\n              tag_340\n                /* \"#utility.yul\":11725:11732   */\n              dup5\n                /* \"#utility.yul\":11716:11722   */\n              dup3\n                /* \"#utility.yul\":11705:11714   */\n              dup6\n                /* \"#utility.yul\":11701:11723   */\n              add\n                /* \"#utility.yul\":11672:11733   */\n              tag_210\n              jump\t// in\n            tag_340:\n                /* \"#utility.yul\":11662:11733   */\n              swap2\n              pop\n                /* \"#utility.yul\":11618:11743   */\n              pop\n                /* \"#utility.yul\":11405:11750   */\n              swap3\n              swap2\n              pop\n              pop\n              jump\t// out\n                /* \"#utility.yul\":11756:11934   */\n            tag_211:\n                /* \"#utility.yul\":11896:11926   */\n              0x546869732061646472657373206973206e6f7420766572696669656400000000\n                /* \"#utility.yul\":11892:11893   */\n              0x00\n                /* \"#utility.yul\":11884:11890   */\n              dup3\n                /* \"#utility.yul\":11880:11894   */\n              add\n                /* \"#utility.yul\":11873:11927   */\n              mstore\n                /* \"#utility.yul\":11756:11934   */\n              pop\n              jump\t// out\n                /* \"#utility.yul\":11940:12306   */\n            tag_212:\n                /* \"#utility.yul\":12082:12085   */\n              0x00\n                /* \"#utility.yul\":12103:12170   */\n              tag_343\n                /* \"#utility.yul\":12167:12169   */\n              0x1c\n                /* \"#utility.yul\":12162:12165   */\n              dup4\n                /* \"#utility.yul\":12103:12170   */\n              tag_194\n              jump\t// in\n            tag_343:\n                /* \"#utility.yul\":12096:12170   */\n              swap2\n              pop\n                /* \"#utility.yul\":12179:12272   */\n              tag_344\n                /* \"#utility.yul\":12268:12271   */\n              dup3\n                /* \"#utility.yul\":12179:12272   */\n              tag_211\n              jump\t// in\n            tag_344:\n                /* \"#utility.yul\":12297:12299   */\n              0x20\n                /* \"#utility.yul\":12292:12295   */\n              dup3\n                /* \"#utility.yul\":12288:12300   */\n              add\n                /* \"#utility.yul\":12281:12300   */\n              swap1\n              pop\n                /* \"#utility.yul\":11940:12306   */\n              swap2\n              swap1\n              pop\n              jump\t// out\n                /* \"#utility.yul\":12312:12731   */\n            tag_86:\n                /* \"#utility.yul\":12478:12482   */\n              0x00\n                /* \"#utility.yul\":12516:12518   */\n              0x20\n                /* \"#utility.yul\":12505:12514   */\n              dup3\n                /* \"#utility.yul\":12501:12519   */\n              add\n                /* \"#utility.yul\":12493:12519   */\n              swap1\n              pop\n                /* \"#utility.yul\":12565:12574   */\n              dup2\n                /* \"#utility.yul\":12559:12563   */\n              dup2\n                /* \"#utility.yul\":12555:12575   */\n              sub\n                /* \"#utility.yul\":12551:12552   */\n              0x00\n                /* \"#utility.yul\":12540:12549   */\n              dup4\n                /* \"#utility.yul\":12536:12553   */\n              add\n                /* \"#utility.yul\":12529:12576   */\n              mstore\n                /* \"#utility.yul\":12593:12724   */\n              tag_346\n                /* \"#utility.yul\":12719:12723   */\n              dup2\n                /* \"#utility.yul\":12593:12724   */\n              tag_212\n              jump\t// in\n            tag_346:\n                /* \"#utility.yul\":12585:12724   */\n              swap1\n              pop\n                /* \"#utility.yul\":12312:12731   */\n              swap2\n              swap1\n              pop\n              jump\t// out\n                /* \"#utility.yul\":12737:12916   */\n            tag_213:\n                /* \"#utility.yul\":12877:12908   */\n              0x5468697320706f6c6c2069732063757272656e746c7920636c6f736564000000\n                /* \"#utility.yul\":12873:12874   */\n              0x00\n                /* \"#utility.yul\":12865:12871   */\n              dup3\n                /* \"#utility.yul\":12861:12875   */\n              add\n                /* \"#utility.yul\":12854:12909   */\n              mstore\n                /* \"#utility.yul\":12737:12916   */\n              pop\n              jump\t// out\n                /* \"#utility.yul\":12922:13288   */\n            tag_214:\n                /* \"#utility.yul\":13064:13067   */\n              0x00\n                /* \"#utility.yul\":13085:13152   */\n              tag_349\n                /* \"#utility.yul\":13149:13151   */\n              0x1d\n                /* \"#utility.yul\":13144:13147   */\n              dup4\n                /* \"#utility.yul\":13085:13152   */\n              tag_194\n              jump\t// in\n            tag_349:\n                /* \"#utility.yul\":13078:13152   */\n              swap2\n              pop\n                /* \"#utility.yul\":13161:13254   */\n              tag_350\n                /* \"#utility.yul\":13250:13253   */\n              dup3\n                /* \"#utility.yul\":13161:13254   */\n              tag_213\n              jump\t// in\n            tag_350:\n                /* \"#utility.yul\":13279:13281   */\n              0x20\n                /* \"#utility.yul\":13274:13277   */\n              dup3\n                /* \"#utility.yul\":13270:13282   */\n              add\n                /* \"#utility.yul\":13263:13282   */\n              swap1\n              pop\n                /* \"#utility.yul\":12922:13288   */\n              swap2\n              swap1\n              pop\n              jump\t// out\n                /* \"#utility.yul\":13294:13713   */\n            tag_90:\n                /* \"#utility.yul\":13460:13464   */\n              0x00\n                /* \"#utility.yul\":13498:13500   */\n              0x20\n                /* \"#utility.yul\":13487:13496   */\n              dup3\n                /* \"#utility.yul\":13483:13501   */\n              add\n                /* \"#utility.yul\":13475:13501   */\n              swap1\n              pop\n                /* \"#utility.yul\":13547:13556   */\n              dup2\n                /* \"#utility.yul\":13541:13545   */\n              dup2\n                /* \"#utility.yul\":13537:13557   */\n              sub\n                /* \"#utility.yul\":13533:13534   */\n              0x00\n                /* \"#utility.yul\":13522:13531   */\n              dup4\n                /* \"#utility.yul\":13518:13535   */\n              add\n                /* \"#utility.yul\":13511:13558   */\n              mstore\n                /* \"#utility.yul\":13575:13706   */\n              tag_352\n                /* \"#utility.yul\":13701:13705   */\n              dup2\n                /* \"#utility.yul\":13575:13706   */\n              tag_214\n              jump\t// in\n            tag_352:\n                /* \"#utility.yul\":13567:13706   */\n              swap1\n              pop\n                /* \"#utility.yul\":13294:13713   */\n              swap2\n              swap1\n              pop\n              jump\t// out\n                /* \"#utility.yul\":13719:13895   */\n            tag_215:\n                /* \"#utility.yul\":13859:13887   */\n              0x54686973206164647265737320616c726561647920766f746564000000000000\n                /* \"#utility.yul\":13855:13856   */\n              0x00\n                /* \"#utility.yul\":13847:13853   */\n              dup3\n                /* \"#utility.yul\":13843:13857   */\n              add\n                /* \"#utility.yul\":13836:13888   */\n              mstore\n                /* \"#utility.yul\":13719:13895   */\n              pop\n              jump\t// out\n                /* \"#utility.yul\":13901:14267   */\n            tag_216:\n                /* \"#utility.yul\":14043:14046   */\n              0x00\n                /* \"#utility.yul\":14064:14131   */\n              tag_355\n                /* \"#utility.yul\":14128:14130   */\n              0x1a\n                /* \"#utility.yul\":14123:14126   */\n              dup4\n                /* \"#utility.yul\":14064:14131   */\n              tag_194\n              jump\t// in\n            tag_355:\n                /* \"#utility.yul\":14057:14131   */\n              swap2\n              pop\n                /* \"#utility.yul\":14140:14233   */\n              tag_356\n                /* \"#utility.yul\":14229:14232   */\n              dup3\n                /* \"#utility.yul\":14140:14233   */\n              tag_215\n              jump\t// in\n            tag_356:\n                /* \"#utility.yul\":14258:14260   */\n              0x20\n                /* \"#utility.yul\":14253:14256   */\n              dup3\n                /* \"#utility.yul\":14249:14261   */\n              add\n                /* \"#utility.yul\":14242:14261   */\n              swap1\n              pop\n                /* \"#utility.yul\":13901:14267   */\n              swap2\n              swap1\n              pop\n              jump\t// out\n                /* \"#utility.yul\":14273:14692   */\n            tag_93:\n                /* \"#utility.yul\":14439:14443   */\n              0x00\n                /* \"#utility.yul\":14477:14479   */\n              0x20\n                /* \"#utility.yul\":14466:14475   */\n              dup3\n                /* \"#utility.yul\":14462:14480   */\n              add\n                /* \"#utility.yul\":14454:14480   */\n              swap1\n              pop\n                /* \"#utility.yul\":14526:14535   */\n              dup2\n                /* \"#utility.yul\":14520:14524   */\n              dup2\n                /* \"#utility.yul\":14516:14536   */\n              sub\n                /* \"#utility.yul\":14512:14513   */\n              0x00\n                /* \"#utility.yul\":14501:14510   */\n              dup4\n                /* \"#utility.yul\":14497:14514   */\n              add\n                /* \"#utility.yul\":14490:14537   */\n              mstore\n                /* \"#utility.yul\":14554:14685   */\n              tag_358\n                /* \"#utility.yul\":14680:14684   */\n              dup2\n                /* \"#utility.yul\":14554:14685   */\n              tag_216\n              jump\t// in\n            tag_358:\n                /* \"#utility.yul\":14546:14685   */\n              swap1\n              pop\n                /* \"#utility.yul\":14273:14692   */\n              swap2\n              swap1\n              pop\n              jump\t// out\n                /* \"#utility.yul\":14698:14878   */\n            tag_96:\n                /* \"#utility.yul\":14746:14823   */\n              0x4e487b7100000000000000000000000000000000000000000000000000000000\n                /* \"#utility.yul\":14743:14744   */\n              0x00\n                /* \"#utility.yul\":14736:14824   */\n              mstore\n                /* \"#utility.yul\":14843:14847   */\n              0x32\n                /* \"#utility.yul\":14840:14841   */\n              0x04\n                /* \"#utility.yul\":14833:14848   */\n              mstore\n                /* \"#utility.yul\":14867:14871   */\n              0x24\n                /* \"#utility.yul\":14864:14865   */\n              0x00\n                /* \"#utility.yul\":14857:14872   */\n              revert\n                /* \"#utility.yul\":14884:15064   */\n            tag_217:\n                /* \"#utility.yul\":14932:15009   */\n              0x4e487b7100000000000000000000000000000000000000000000000000000000\n                /* \"#utility.yul\":14929:14930   */\n              0x00\n                /* \"#utility.yul\":14922:15010   */\n              mstore\n                /* \"#utility.yul\":15029:15033   */\n              0x11\n                /* \"#utility.yul\":15026:15027   */\n              0x04\n                /* \"#utility.yul\":15019:15034   */\n              mstore\n                /* \"#utility.yul\":15053:15057   */\n              0x24\n                /* \"#utility.yul\":15050:15051   */\n              0x00\n                /* \"#utility.yul\":15043:15058   */\n              revert\n                /* \"#utility.yul\":15070:15375   */\n            tag_99:\n                /* \"#utility.yul\":15110:15113   */\n              0x00\n                /* \"#utility.yul\":15129:15149   */\n              tag_362\n                /* \"#utility.yul\":15147:15148   */\n              dup3\n                /* \"#utility.yul\":15129:15149   */\n              tag_177\n              jump\t// in\n            tag_362:\n                /* \"#utility.yul\":15124:15149   */\n              swap2\n              pop\n                /* \"#utility.yul\":15163:15183   */\n              tag_363\n                /* \"#utility.yul\":15181:15182   */\n              dup4\n                /* \"#utility.yul\":15163:15183   */\n              tag_177\n              jump\t// in\n            tag_363:\n                /* \"#utility.yul\":15158:15183   */\n              swap3\n              pop\n                /* \"#utility.yul\":15317:15318   */\n              dup3\n                /* \"#utility.yul\":15249:15315   */\n              0xffffffffffffffffffffffffffffffffffffffffffffffffffffffffffffffff\n                /* \"#utility.yul\":15245:15319   */\n              sub\n                /* \"#utility.yul\":15242:15243   */\n              dup3\n                /* \"#utility.yul\":15239:15320   */\n              gt\n                /* \"#utility.yul\":15236:15343   */\n              iszero\n              tag_364\n              jumpi\n                /* \"#utility.yul\":15323:15341   */\n              tag_365\n              tag_217\n              jump\t// in\n            tag_365:\n                /* \"#utility.yul\":15236:15343   */\n            tag_364:\n                /* \"#utility.yul\":15367:15368   */\n              dup3\n                /* \"#utility.yul\":15364:15365   */\n              dup3\n                /* \"#utility.yul\":15360:15369   */\n              add\n                /* \"#utility.yul\":15353:15369   */\n              swap1\n              pop\n                /* \"#utility.yul\":15070:15375   */\n              swap3\n              swap2\n              pop\n              pop\n              jump\t// out\n                /* \"#utility.yul\":15381:15713   */\n            tag_104:\n                /* \"#utility.yul\":15502:15506   */\n              0x00\n                /* \"#utility.yul\":15540:15542   */\n              0x40\n                /* \"#utility.yul\":15529:15538   */\n              dup3\n                /* \"#utility.yul\":15525:15543   */\n              add\n                /* \"#utility.yul\":15517:15543   */\n              swap1\n              pop\n                /* \"#utility.yul\":15553:15624   */\n              tag_367\n                /* \"#utility.yul\":15621:15622   */\n              0x00\n                /* \"#utility.yul\":15610:15619   */\n              dup4\n                /* \"#utility.yul\":15606:15623   */\n              add\n                /* \"#utility.yul\":15597:15603   */\n              dup6\n                /* \"#utility.yul\":15553:15624   */\n              tag_199\n              jump\t// in\n            tag_367:\n                /* \"#utility.yul\":15634:15706   */\n              tag_368\n                /* \"#utility.yul\":15702:15704   */\n              0x20\n                /* \"#utility.yul\":15691:15700   */\n              dup4\n                /* \"#utility.yul\":15687:15705   */\n              add\n                /* \"#utility.yul\":15678:15684   */\n              dup5\n                /* \"#utility.yul\":15634:15706   */\n              tag_199\n              jump\t// in\n            tag_368:\n                /* \"#utility.yul\":15381:15713   */\n              swap4\n              swap3\n              pop\n              pop\n              pop\n              jump\t// out\n                /* \"#utility.yul\":15719:15943   */\n            tag_218:\n                /* \"#utility.yul\":15859:15893   */\n              0x4f6e6c7920746865206d616e616765722063616e2063616c6c2074686973206d\n                /* \"#utility.yul\":15855:15856   */\n              0x00\n                /* \"#utility.yul\":15847:15853   */\n              dup3\n                /* \"#utility.yul\":15843:15857   */\n              add\n                /* \"#utility.yul\":15836:15894   */\n              mstore\n                /* \"#utility.yul\":15928:15935   */\n              0x6574686f64000000000000000000000000000000000000000000000000000000\n                /* \"#utility.yul\":15923:15925   */\n              0x20\n                /* \"#utility.yul\":15915:15921   */\n              dup3\n                /* \"#utility.yul\":15911:15926   */\n              add\n                /* \"#utility.yul\":15904:15936   */\n              mstore\n                /* \"#utility.yul\":15719:15943   */\n              pop\n              jump\t// out\n                /* \"#utility.yul\":15949:16315   */\n            tag_219:\n                /* \"#utility.yul\":16091:16094   */\n              0x00\n                /* \"#utility.yul\":16112:16179   */\n              tag_371\n                /* \"#utility.yul\":16176:16178   */\n              0x25\n                /* \"#utility.yul\":16171:16174   */\n              dup4\n                /* \"#utility.yul\":16112:16179   */\n              tag_194\n              jump\t// in\n            tag_371:\n                /* \"#utility.yul\":16105:16179   */\n              swap2\n              pop\n                /* \"#utility.yul\":16188:16281   */\n              tag_372\n                /* \"#utility.yul\":16277:16280   */\n              dup3\n                /* \"#utility.yul\":16188:16281   */\n              tag_218\n              jump\t// in\n            tag_372:\n                /* \"#utility.yul\":16306:16308   */\n              0x40\n                /* \"#utility.yul\":16301:16304   */\n              dup3\n                /* \"#utility.yul\":16297:16309   */\n              add\n                /* \"#utility.yul\":16290:16309   */\n              swap1\n              pop\n                /* \"#utility.yul\":15949:16315   */\n              swap2\n              swap1\n              pop\n              jump\t// out\n                /* \"#utility.yul\":16321:16740   */\n            tag_108:\n                /* \"#utility.yul\":16487:16491   */\n              0x00\n                /* \"#utility.yul\":16525:16527   */\n              0x20\n                /* \"#utility.yul\":16514:16523   */\n              dup3\n                /* \"#utility.yul\":16510:16528   */\n              add\n                /* \"#utility.yul\":16502:16528   */\n              swap1\n              pop\n                /* \"#utility.yul\":16574:16583   */\n              dup2\n                /* \"#utility.yul\":16568:16572   */\n              dup2\n                /* \"#utility.yul\":16564:16584   */\n              sub\n                /* \"#utility.yul\":16560:16561   */\n              0x00\n                /* \"#utility.yul\":16549:16558   */\n              dup4\n                /* \"#utility.yul\":16545:16562   */\n              add\n                /* \"#utility.yul\":16538:16585   */\n              mstore\n                /* \"#utility.yul\":16602:16733   */\n              tag_374\n                /* \"#utility.yul\":16728:16732   */\n              dup2\n                /* \"#utility.yul\":16602:16733   */\n              tag_219\n              jump\t// in\n            tag_374:\n                /* \"#utility.yul\":16594:16733   */\n              swap1\n              pop\n                /* \"#utility.yul\":16321:16740   */\n              swap2\n              swap1\n              pop\n              jump\t// out\n                /* \"#utility.yul\":16746:16926   */\n            tag_220:\n                /* \"#utility.yul\":16794:16871   */\n              0x4e487b7100000000000000000000000000000000000000000000000000000000\n                /* \"#utility.yul\":16791:16792   */\n              0x00\n                /* \"#utility.yul\":16784:16872   */\n              mstore\n                /* \"#utility.yul\":16891:16895   */\n              0x22\n                /* \"#utility.yul\":16888:16889   */\n              0x04\n                /* \"#utility.yul\":16881:16896   */\n              mstore\n                /* \"#utility.yul\":16915:16919   */\n              0x24\n                /* \"#utility.yul\":16912:16913   */\n              0x00\n                /* \"#utility.yul\":16905:16920   */\n              revert\n                /* \"#utility.yul\":16932:17252   */\n            tag_118:\n                /* \"#utility.yul\":16976:16982   */\n              0x00\n                /* \"#utility.yul\":17013:17014   */\n              0x02\n                /* \"#utility.yul\":17007:17011   */\n              dup3\n                /* \"#utility.yul\":17003:17015   */\n              div\n                /* \"#utility.yul\":16993:17015   */\n              swap1\n              pop\n                /* \"#utility.yul\":17060:17061   */\n              0x01\n                /* \"#utility.yul\":17054:17058   */\n              dup3\n                /* \"#utility.yul\":17050:17062   */\n              and\n                /* \"#utility.yul\":17081:17099   */\n              dup1\n                /* \"#utility.yul\":17071:17152   */\n              tag_377\n              jumpi\n                /* \"#utility.yul\":17137:17141   */\n              0x7f\n                /* \"#utility.yul\":17129:17135   */\n              dup3\n                /* \"#utility.yul\":17125:17142   */\n              and\n                /* \"#utility.yul\":17115:17142   */\n              swap2\n              pop\n                /* \"#utility.yul\":17071:17152   */\n            tag_377:\n                /* \"#utility.yul\":17199:17201   */\n              0x20\n                /* \"#utility.yul\":17191:17197   */\n              dup3\n                /* \"#utility.yul\":17188:17202   */\n              lt\n                /* \"#utility.yul\":17168:17186   */\n              dup2\n                /* \"#utility.yul\":17165:17203   */\n              eq\n                /* \"#utility.yul\":17162:17246   */\n              iszero\n              tag_378\n              jumpi\n                /* \"#utility.yul\":17218:17236   */\n              tag_379\n              tag_220\n              jump\t// in\n            tag_379:\n                /* \"#utility.yul\":17162:17246   */\n            tag_378:\n                /* \"#utility.yul\":16983:17252   */\n              pop\n                /* \"#utility.yul\":16932:17252   */\n              swap2\n              swap1\n              pop\n              jump\t// out\n                /* \"#utility.yul\":17258:17491   */\n            tag_163:\n                /* \"#utility.yul\":17297:17300   */\n              0x00\n                /* \"#utility.yul\":17320:17344   */\n              tag_381\n                /* \"#utility.yul\":17338:17343   */\n              dup3\n                /* \"#utility.yul\":17320:17344   */\n              tag_177\n              jump\t// in\n            tag_381:\n                /* \"#utility.yul\":17311:17344   */\n              swap2\n              pop\n                /* \"#utility.yul\":17366:17432   */\n              0xffffffffffffffffffffffffffffffffffffffffffffffffffffffffffffffff\n                /* \"#utility.yul\":17359:17364   */\n              dup3\n                /* \"#utility.yul\":17356:17433   */\n              eq\n                /* \"#utility.yul\":17353:17456   */\n              iszero\n              tag_382\n              jumpi\n                /* \"#utility.yul\":17436:17454   */\n              tag_383\n              tag_217\n              jump\t// in\n            tag_383:\n                /* \"#utility.yul\":17353:17456   */\n            tag_382:\n                /* \"#utility.yul\":17483:17484   */\n              0x01\n                /* \"#utility.yul\":17476:17481   */\n              dup3\n                /* \"#utility.yul\":17472:17485   */\n              add\n                /* \"#utility.yul\":17465:17485   */\n              swap1\n              pop\n                /* \"#utility.yul\":17258:17491   */\n              swap2\n              swap1\n              pop\n              jump\t// out\n\n            auxdata: 0xa26469706673582212203a92976536336ef9c9cc25f2a0aa1b7afabab2683d7caabcc28b041f48f17b7f64736f6c634300080b0033\n        }\n    }\n\n    auxdata: 0xa2646970667358221220b8d4aee8e15fff1db5defb25096233437dc1ef73f921e2fd44f722bf19471ccf64736f6c634300080b0033\n}\n",
    "bytecode": {
      "linkReferences": {},
      "object": "608060405234801561001057600080fd5b506128b8806100206000396000f3fe608060405260043610620000505760003560e01c806398460be71462000055578063a3ec138d1462000085578063cfba7a0914620000c9578063ed81915114620000f7578063fc735e99146200013b575b600080fd5b3480156200006257600080fd5b506200006d62000147565b6040516200007c9190620004c3565b60405180910390f35b3480156200009257600080fd5b50620000b16004803603810190620000ab919062000522565b620001d7565b604051620000c0919062000571565b60405180910390f35b348015620000d657600080fd5b50620000f56004803603810190620000ef91906200065b565b620001f7565b005b3480156200010457600080fd5b506200012360048036038101906200011d91906200075c565b620002ae565b6040516200013291906200079f565b60405180910390f35b62000145620002ee565b005b60606000805480602002602001604051908101604052809291908181526020018280548015620001cd57602002820191906000526020600020905b8160009054906101000a900473ffffffffffffffffffffffffffffffffffffffff1673ffffffffffffffffffffffffffffffffffffffff168152602001906001019080831162000182575b5050505050905090565b60016020528060005260406000206000915054906101000a900460ff1681565b600033878787878787306040516200020f90620003b3565b6200022298979695949392919062000a0c565b604051809103906000f0801580156200023f573d6000803e3d6000fd5b5090506000819080600181540180825580915050600190039060005260206000200160009091909190916101000a81548173ffffffffffffffffffffffffffffffffffffffff021916908373ffffffffffffffffffffffffffffffffffffffff16021790555050505050505050565b60008181548110620002bf57600080fd5b906000526020600020016000915054906101000a900473ffffffffffffffffffffffffffffffffffffffff1681565b66038d7ea4c6800034146200030257600080fd5b600160003373ffffffffffffffffffffffffffffffffffffffff1673ffffffffffffffffffffffffffffffffffffffff16815260200190815260200160002060009054906101000a900460ff16156200035a57600080fd5b60018060003373ffffffffffffffffffffffffffffffffffffffff1673ffffffffffffffffffffffffffffffffffffffff16815260200190815260200160002060006101000a81548160ff021916908315150217905550565b611dfe8062000a8583390190565b600081519050919050565b600082825260208201905092915050565b6000819050602082019050919050565b600073ffffffffffffffffffffffffffffffffffffffff82169050919050565b60006200041a82620003ed565b9050919050565b6200042c816200040d565b82525050565b600062000440838362000421565b60208301905092915050565b6000602082019050919050565b60006200046682620003c1565b620004728185620003cc565b93506200047f83620003dd565b8060005b83811015620004b65781516200049a888262000432565b9750620004a7836200044c565b92505060018101905062000483565b5085935050505092915050565b60006020820190508181036000830152620004df818462000459565b905092915050565b600080fd5b600080fd5b620004fc816200040d565b81146200050857600080fd5b50565b6000813590506200051c81620004f1565b92915050565b6000602082840312156200053b576200053a620004e7565b5b60006200054b848285016200050b565b91505092915050565b60008115159050919050565b6200056b8162000554565b82525050565b600060208201905062000588600083018462000560565b92915050565b600080fd5b600080fd5b600080fd5b60008083601f840112620005b657620005b56200058e565b5b8235905067ffffffffffffffff811115620005d657620005d562000593565b5b602083019150836001820283011115620005f557620005f462000598565b5b9250929050565b60008083601f8401126200061557620006146200058e565b5b8235905067ffffffffffffffff81111562000635576200063462000593565b5b60208301915083602082028301111562000654576200065362000598565b5b9250929050565b600080600080600080606087890312156200067b576200067a620004e7565b5b600087013567ffffffffffffffff8111156200069c576200069b620004ec565b5b620006aa89828a016200059d565b9650965050602087013567ffffffffffffffff811115620006d057620006cf620004ec565b5b620006de89828a016200059d565b9450945050604087013567ffffffffffffffff811115620007045762000703620004ec565b5b6200071289828a01620005fc565b92509250509295509295509295565b6000819050919050565b620007368162000721565b81146200074257600080fd5b50565b60008135905062000756816200072b565b92915050565b600060208284031215620007755762000774620004e7565b5b6000620007858482850162000745565b91505092915050565b62000799816200040d565b82525050565b6000602082019050620007b660008301846200078e565b92915050565b600082825260208201905092915050565b82818337600083830152505050565b6000601f19601f8301169050919050565b6000620007fb8385620007bc565b93506200080a838584620007cd565b6200081583620007dc565b840190509392505050565b600082825260208201905092915050565b6000819050919050565b600082825260208201905092915050565b60006200085a83856200083b565b935062000869838584620007cd565b6200087483620007dc565b840190509392505050565b60006200088e8484846200084c565b90509392505050565b600080fd5b600080fd5b600080fd5b60008083356001602003843603038112620008c657620008c5620008a1565b5b83810192508235915060208301925067ffffffffffffffff821115620008f157620008f062000897565b5b6001820236038413156200090a57620009096200089c565b5b509250929050565b6000602082019050919050565b60006200092d838562000820565b935083602084028501620009418462000831565b8060005b878110156200098f5784840389526200095f8284620008a6565b6200096c8682846200087f565b9550620009798462000912565b935060208b019a50505060018101905062000945565b50829750879450505050509392505050565b6000819050919050565b6000620009cc620009c6620009c084620003ed565b620009a1565b620003ed565b9050919050565b6000620009e082620009ab565b9050919050565b6000620009f482620009d3565b9050919050565b62000a0681620009e7565b82525050565b600060a08201905062000a23600083018b6200078e565b818103602083015262000a3881898b620007ed565b9050818103604083015262000a4f818789620007ed565b9050818103606083015262000a668185876200091f565b905062000a776080830184620009fb565b999850505050505050505056fe60806040523480156200001157600080fd5b5060405162001dfe38038062001dfe833981810160405281019062000037919062000692565b84600760026101000a81548173ffffffffffffffffffffffffffffffffffffffff021916908373ffffffffffffffffffffffffffffffffffffffff16021790555083600390805190602001906200009092919062000178565b508260049080519060200190620000a992919062000178565b508160029080519060200190620000c292919062000209565b5060028054905067ffffffffffffffff811115620000e557620000e4620003e3565b5b604051908082528060200260200182016040528015620001145781602001602082028036833780820191505090505b50600590805190602001906200012c92919062000270565b50806000806101000a81548173ffffffffffffffffffffffffffffffffffffffff021916908373ffffffffffffffffffffffffffffffffffffffff1602179055505050505050620007dc565b8280546200018690620007a6565b90600052602060002090601f016020900481019282620001aa5760008555620001f6565b82601f10620001c557805160ff1916838001178555620001f6565b82800160010185558215620001f6579182015b82811115620001f5578251825591602001919060010190620001d8565b5b509050620002059190620002c2565b5090565b8280548282559060005260206000209081019282156200025d579160200282015b828111156200025c5782518290805190602001906200024b92919062000178565b50916020019190600101906200022a565b5b5090506200026c9190620002e1565b5090565b828054828255906000526020600020908101928215620002af579160200282015b82811115620002ae57825182559160200191906001019062000291565b5b509050620002be9190620002c2565b5090565b5b80821115620002dd576000816000905550600101620002c3565b5090565b5b80821115620003055760008181620002fb919062000309565b50600101620002e2565b5090565b5080546200031790620007a6565b6000825580601f106200032b57506200034c565b601f0160209004906000526020600020908101906200034b9190620002c2565b5b50565b6000604051905090565b600080fd5b600080fd5b600073ffffffffffffffffffffffffffffffffffffffff82169050919050565b6000620003908262000363565b9050919050565b620003a28162000383565b8114620003ae57600080fd5b50565b600081519050620003c28162000397565b92915050565b600080fd5b600080fd5b6000601f19601f8301169050919050565b7f4e487b7100000000000000000000000000000000000000000000000000000000600052604160045260246000fd5b6200041d82620003d2565b810181811067ffffffffffffffff821117156200043f576200043e620003e3565b5b80604052505050565b6000620004546200034f565b905062000462828262000412565b919050565b600067ffffffffffffffff821115620004855762000484620003e3565b5b6200049082620003d2565b9050602081019050919050565b60005b83811015620004bd578082015181840152602081019050620004a0565b83811115620004cd576000848401525b50505050565b6000620004ea620004e48462000467565b62000448565b905082815260208101848484011115620005095762000508620003cd565b5b620005168482856200049d565b509392505050565b600082601f830112620005365762000535620003c8565b5b815162000548848260208601620004d3565b91505092915050565b600067ffffffffffffffff8211156200056f576200056e620003e3565b5b602082029050602081019050919050565b600080fd5b60006200059c620005968462000551565b62000448565b90508083825260208201905060208402830185811115620005c257620005c162000580565b5b835b818110156200061057805167ffffffffffffffff811115620005eb57620005ea620003c8565b5b808601620005fa89826200051e565b85526020850194505050602081019050620005c4565b5050509392505050565b600082601f830112620006325762000631620003c8565b5b81516200064484826020860162000585565b91505092915050565b60006200065a8262000383565b9050919050565b6200066c816200064d565b81146200067857600080fd5b50565b6000815190506200068c8162000661565b92915050565b600080600080600060a08688031215620006b157620006b062000359565b5b6000620006c188828901620003b1565b955050602086015167ffffffffffffffff811115620006e557620006e46200035e565b5b620006f3888289016200051e565b945050604086015167ffffffffffffffff8111156200071757620007166200035e565b5b62000725888289016200051e565b935050606086015167ffffffffffffffff8111156200074957620007486200035e565b5b62000757888289016200061a565b92505060806200076a888289016200067b565b9150509295509295909350565b7f4e487b7100000000000000000000000000000000000000000000000000000000600052602260045260246000fd5b60006002820490506001821680620007bf57607f821691505b60208210811415620007d657620007d562000777565b5b50919050565b61161280620007ec6000396000f3fe608060405234801561001057600080fd5b50600436106100f55760003560e01c8063597e1fb5116100975780638e7ea5b2116100665780638e7ea5b21461026b578063aec2ccae14610275578063cc2ee196146102a5578063dfbf53ae146102c3576100f5565b8063597e1fb5146101e15780635c975abb146101ff5780635df813301461021d5780637284e4161461024d576100f5565b80634051ddac116100d35780634051ddac14610150578063409e220514610175578063481c6a75146101a55780634a79d50c146101c3576100f5565b80630121b93f146100fa57806302329a29146101165780630dc9601514610132575b600080fd5b610114600480360381019061010f9190610d3f565b6102e1565b005b610130600480360381019061012b9190610da4565b61057e565b005b61013a610671565b6040516101479190610e8f565b60405180910390f35b6101586106c9565b60405161016c9897969594939291906110b5565b60405180910390f35b61018f600480360381019061018a9190610d3f565b610862565b60405161019c919061114f565b60405180910390f35b6101ad61090e565b6040516101ba9190611171565b60405180910390f35b6101cb610934565b6040516101d8919061114f565b60405180910390f35b6101e96109c2565b6040516101f6919061118c565b60405180910390f35b6102076109d5565b604051610214919061118c565b60405180910390f35b61023760048036038101906102329190610d3f565b6109e8565b60405161024491906111a7565b60405180910390f35b610255610a0c565b604051610262919061114f565b60405180910390f35b610273610a9a565b005b61028f600480360381019061028a91906111ee565b610c05565b60405161029c919061118c565b60405180910390f35b6102ad610c25565b6040516102ba919061121b565b60405180910390f35b6102cb610cfe565b6040516102d891906111a7565b60405180910390f35b60008054906101000a900473ffffffffffffffffffffffffffffffffffffffff1673ffffffffffffffffffffffffffffffffffffffff1663a3ec138d336040518263ffffffff1660e01b815260040161033a9190611171565b602060405180830381865afa158015610357573d6000803e3d6000fd5b505050506040513d601f19601f8201168201806040525081019061037b9190611252565b6103ba576040517f08c379a00000000000000000000000000000000000000000000000000000000081526004016103b1906112cb565b60405180910390fd5b600760009054906101000a900460ff161561040a576040517f08c379a000000000000000000000000000000000000000000000000000000000815260040161040190611337565b60405180910390fd5b600160003373ffffffffffffffffffffffffffffffffffffffff1673ffffffffffffffffffffffffffffffffffffffff16815260200190815260200160002060009054906101000a900460ff1615610497576040517f08c379a000000000000000000000000000000000000000000000000000000000815260040161048e906113a3565b60405180910390fd5b6001600582815481106104ad576104ac6113c3565b5b9060005260206000200160008282546104c69190611421565b9250508190555060018060003373ffffffffffffffffffffffffffffffffffffffff1673ffffffffffffffffffffffffffffffffffffffff16815260200190815260200160002060006101000a81548160ff0219169083151502179055507fd193833848b675d858c4a3354369c7ff9a3cf48d9f9fbbf0882944b88ff68591816005838154811061055a576105596113c3565b5b9060005260206000200154604051610573929190611477565b60405180910390a150565b600760029054906101000a900473ffffffffffffffffffffffffffffffffffffffff1673ffffffffffffffffffffffffffffffffffffffff163373ffffffffffffffffffffffffffffffffffffffff161461060e576040517f08c379a000000000000000000000000000000000000000000000000000000000815260040161060590611512565b60405180910390fd5b80600760016101000a81548160ff0219169083151502179055507f10e1c3fcaff06b68391033547e8f9bb8067d7c4a2e32659b0629153814d242d3600760019054906101000a900460ff16604051610666919061118c565b60405180910390a150565b606060058054806020026020016040519081016040528092919081815260200182805480156106bf57602002820191906000526020600020905b8154815260200190600101908083116106ab575b5050505050905090565b60006060806000806000606080600760029054906101000a900473ffffffffffffffffffffffffffffffffffffffff1660036004600760019054906101000a900460ff16600760009054906101000a900460ff16600654610728610c25565b610730610671565b86805461073c90611561565b80601f016020809104026020016040519081016040528092919081815260200182805461076890611561565b80156107b55780601f1061078a576101008083540402835291602001916107b5565b820191906000526020600020905b81548152906001019060200180831161079857829003601f168201915b505050505096508580546107c890611561565b80601f01602080910402602001604051908101604052809291908181526020018280546107f490611561565b80156108415780601f1061081657610100808354040283529160200191610841565b820191906000526020600020905b81548152906001019060200180831161082457829003601f168201915b50505050509550975097509750975097509750975097509091929394959697565b6002818154811061087257600080fd5b90600052602060002001600091509050805461088d90611561565b80601f01602080910402602001604051908101604052809291908181526020018280546108b990611561565b80156109065780601f106108db57610100808354040283529160200191610906565b820191906000526020600020905b8154815290600101906020018083116108e957829003601f168201915b505050505081565b600760029054906101000a900473ffffffffffffffffffffffffffffffffffffffff1681565b6003805461094190611561565b80601f016020809104026020016040519081016040528092919081815260200182805461096d90611561565b80156109ba5780601f1061098f576101008083540402835291602001916109ba565b820191906000526020600020905b81548152906001019060200180831161099d57829003601f168201915b505050505081565b600760009054906101000a900460ff1681565b600760019054906101000a900460ff1681565b600581815481106109f857600080fd5b906000526020600020016000915090505481565b60048054610a1990611561565b80601f0160208091040260200160405190810160405280929190818152602001828054610a4590611561565b8015610a925780601f10610a6757610100808354040283529160200191610a92565b820191906000526020600020905b815481529060010190602001808311610a7557829003601f168201915b505050505081565b600760029054906101000a900473ffffffffffffffffffffffffffffffffffffffff1673ffffffffffffffffffffffffffffffffffffffff163373ffffffffffffffffffffffffffffffffffffffff1614610b2a576040517f08c379a0000000000000000000000000000000000000000000000000000000008152600401610b2190611512565b60405180910390fd5b610b34600161057e565b6001600760006101000a81548160ff02191690831515021790555060008060005b600580549050811015610bc0578160058281548110610b7757610b766113c3565b5b90600052602060002001541115610bad5780925060058181548110610b9f57610b9e6113c3565b5b906000526020600020015491505b8080610bb890611593565b915050610b55565b50816006819055507fc7b97e48b9227dca976a22b97e05760371f6c612bfbb22adee0ce899d8c084fc600654604051610bf991906111a7565b60405180910390a15050565b60016020528060005260406000206000915054906101000a900460ff1681565b60606002805480602002602001604051908101604052809291908181526020016000905b82821015610cf5578382906000526020600020018054610c6890611561565b80601f0160208091040260200160405190810160405280929190818152602001828054610c9490611561565b8015610ce15780601f10610cb657610100808354040283529160200191610ce1565b820191906000526020600020905b815481529060010190602001808311610cc457829003601f168201915b505050505081526020019060010190610c49565b50505050905090565b60065481565b600080fd5b6000819050919050565b610d1c81610d09565b8114610d2757600080fd5b50565b600081359050610d3981610d13565b92915050565b600060208284031215610d5557610d54610d04565b5b6000610d6384828501610d2a565b91505092915050565b60008115159050919050565b610d8181610d6c565b8114610d8c57600080fd5b50565b600081359050610d9e81610d78565b92915050565b600060208284031215610dba57610db9610d04565b5b6000610dc884828501610d8f565b91505092915050565b600081519050919050565b600082825260208201905092915050565b6000819050602082019050919050565b610e0681610d09565b82525050565b6000610e188383610dfd565b60208301905092915050565b6000602082019050919050565b6000610e3c82610dd1565b610e468185610ddc565b9350610e5183610ded565b8060005b83811015610e82578151610e698882610e0c565b9750610e7483610e24565b925050600181019050610e55565b5085935050505092915050565b60006020820190508181036000830152610ea98184610e31565b905092915050565b600073ffffffffffffffffffffffffffffffffffffffff82169050919050565b6000610edc82610eb1565b9050919050565b610eec81610ed1565b82525050565b600081519050919050565b600082825260208201905092915050565b60005b83811015610f2c578082015181840152602081019050610f11565b83811115610f3b576000848401525b50505050565b6000601f19601f8301169050919050565b6000610f5d82610ef2565b610f678185610efd565b9350610f77818560208601610f0e565b610f8081610f41565b840191505092915050565b610f9481610d6c565b82525050565b610fa381610d09565b82525050565b600081519050919050565b600082825260208201905092915050565b6000819050602082019050919050565b600082825260208201905092915050565b6000610ff182610ef2565b610ffb8185610fd5565b935061100b818560208601610f0e565b61101481610f41565b840191505092915050565b600061102b8383610fe6565b905092915050565b6000602082019050919050565b600061104b82610fa9565b6110558185610fb4565b93508360208202850161106785610fc5565b8060005b858110156110a35784840389528151611084858261101f565b945061108f83611033565b925060208a0199505060018101905061106b565b50829750879550505050505092915050565b6000610100820190506110cb600083018b610ee3565b81810360208301526110dd818a610f52565b905081810360408301526110f18189610f52565b90506111006060830188610f8b565b61110d6080830187610f8b565b61111a60a0830186610f9a565b81810360c083015261112c8185611040565b905081810360e08301526111408184610e31565b90509998505050505050505050565b600060208201905081810360008301526111698184610f52565b905092915050565b60006020820190506111866000830184610ee3565b92915050565b60006020820190506111a16000830184610f8b565b92915050565b60006020820190506111bc6000830184610f9a565b92915050565b6111cb81610ed1565b81146111d657600080fd5b50565b6000813590506111e8816111c2565b92915050565b60006020828403121561120457611203610d04565b5b6000611212848285016111d9565b91505092915050565b600060208201905081810360008301526112358184611040565b905092915050565b60008151905061124c81610d78565b92915050565b60006020828403121561126857611267610d04565b5b60006112768482850161123d565b91505092915050565b7f546869732061646472657373206973206e6f7420766572696669656400000000600082015250565b60006112b5601c83610efd565b91506112c08261127f565b602082019050919050565b600060208201905081810360008301526112e4816112a8565b9050919050565b7f5468697320706f6c6c2069732063757272656e746c7920636c6f736564000000600082015250565b6000611321601d83610efd565b915061132c826112eb565b602082019050919050565b6000602082019050818103600083015261135081611314565b9050919050565b7f54686973206164647265737320616c726561647920766f746564000000000000600082015250565b600061138d601a83610efd565b915061139882611357565b602082019050919050565b600060208201905081810360008301526113bc81611380565b9050919050565b7f4e487b7100000000000000000000000000000000000000000000000000000000600052603260045260246000fd5b7f4e487b7100000000000000000000000000000000000000000000000000000000600052601160045260246000fd5b600061142c82610d09565b915061143783610d09565b9250827fffffffffffffffffffffffffffffffffffffffffffffffffffffffffffffffff0382111561146c5761146b6113f2565b5b828201905092915050565b600060408201905061148c6000830185610f9a565b6114996020830184610f9a565b9392505050565b7f4f6e6c7920746865206d616e616765722063616e2063616c6c2074686973206d60008201527f6574686f64000000000000000000000000000000000000000000000000000000602082015250565b60006114fc602583610efd565b9150611507826114a0565b604082019050919050565b6000602082019050818103600083015261152b816114ef565b9050919050565b7f4e487b7100000000000000000000000000000000000000000000000000000000600052602260045260246000fd5b6000600282049050600182168061157957607f821691505b6020821081141561158d5761158c611532565b5b50919050565b600061159e82610d09565b91507fffffffffffffffffffffffffffffffffffffffffffffffffffffffffffffffff8214156115d1576115d06113f2565b5b60018201905091905056fea26469706673582212203a92976536336ef9c9cc25f2a0aa1b7afabab2683d7caabcc28b041f48f17b7f64736f6c634300080b0033a2646970667358221220b8d4aee8e15fff1db5defb25096233437dc1ef73f921e2fd44f722bf19471ccf64736f6c634300080b0033",
      "opcodes": "PUSH1 0x80 PUSH1 0x40 MSTORE CALLVALUE DUP1 ISZERO PUSH2 0x10 JUMPI PUSH1 0x0 DUP1 REVERT JUMPDEST POP PUSH2 0x28B8 DUP1 PUSH2 0x20 PUSH1 0x0 CODECOPY PUSH1 0x0 RETURN INVALID PUSH1 0x80 PUSH1 0x40 MSTORE PUSH1 0x4 CALLDATASIZE LT PUSH3 0x50 JUMPI PUSH1 0x0 CALLDATALOAD PUSH1 0xE0 SHR DUP1 PUSH4 0x98460BE7 EQ PUSH3 0x55 JUMPI DUP1 PUSH4 0xA3EC138D EQ PUSH3 0x85 JUMPI DUP1 PUSH4 0xCFBA7A09 EQ PUSH3 0xC9 JUMPI DUP1 PUSH4 0xED819151 EQ PUSH3 0xF7 JUMPI DUP1 PUSH4 0xFC735E99 EQ PUSH3 0x13B JUMPI JUMPDEST PUSH1 0x0 DUP1 REVERT JUMPDEST CALLVALUE DUP1 ISZERO PUSH3 0x62 JUMPI PUSH1 0x0 DUP1 REVERT JUMPDEST POP PUSH3 0x6D PUSH3 0x147 JUMP JUMPDEST PUSH1 0x40 MLOAD PUSH3 0x7C SWAP2 SWAP1 PUSH3 0x4C3 JUMP JUMPDEST PUSH1 0x40 MLOAD DUP1 SWAP2 SUB SWAP1 RETURN JUMPDEST CALLVALUE DUP1 ISZERO PUSH3 0x92 JUMPI PUSH1 0x0 DUP1 REVERT JUMPDEST POP PUSH3 0xB1 PUSH1 0x4 DUP1 CALLDATASIZE SUB DUP2 ADD SWAP1 PUSH3 0xAB SWAP2 SWAP1 PUSH3 0x522 JUMP JUMPDEST PUSH3 0x1D7 JUMP JUMPDEST PUSH1 0x40 MLOAD PUSH3 0xC0 SWAP2 SWAP1 PUSH3 0x571 JUMP JUMPDEST PUSH1 0x40 MLOAD DUP1 SWAP2 SUB SWAP1 RETURN JUMPDEST CALLVALUE DUP1 ISZERO PUSH3 0xD6 JUMPI PUSH1 0x0 DUP1 REVERT JUMPDEST POP PUSH3 0xF5 PUSH1 0x4 DUP1 CALLDATASIZE SUB DUP2 ADD SWAP1 PUSH3 0xEF SWAP2 SWAP1 PUSH3 0x65B JUMP JUMPDEST PUSH3 0x1F7 JUMP JUMPDEST STOP JUMPDEST CALLVALUE DUP1 ISZERO PUSH3 0x104 JUMPI PUSH1 0x0 DUP1 REVERT JUMPDEST POP PUSH3 0x123 PUSH1 0x4 DUP1 CALLDATASIZE SUB DUP2 ADD SWAP1 PUSH3 0x11D SWAP2 SWAP1 PUSH3 0x75C JUMP JUMPDEST PUSH3 0x2AE JUMP JUMPDEST PUSH1 0x40 MLOAD PUSH3 0x132 SWAP2 SWAP1 PUSH3 0x79F JUMP JUMPDEST PUSH1 0x40 MLOAD DUP1 SWAP2 SUB SWAP1 RETURN JUMPDEST PUSH3 0x145 PUSH3 0x2EE JUMP JUMPDEST STOP JUMPDEST PUSH1 0x60 PUSH1 0x0 DUP1 SLOAD DUP1 PUSH1 0x20 MUL PUSH1 0x20 ADD PUSH1 0x40 MLOAD SWAP1 DUP2 ADD PUSH1 0x40 MSTORE DUP1 SWAP3 SWAP2 SWAP1 DUP2 DUP2 MSTORE PUSH1 0x20 ADD DUP3 DUP1 SLOAD DUP1 ISZERO PUSH3 0x1CD JUMPI PUSH1 0x20 MUL DUP3 ADD SWAP2 SWAP1 PUSH1 0x0 MSTORE PUSH1 0x20 PUSH1 0x0 KECCAK256 SWAP1 JUMPDEST DUP2 PUSH1 0x0 SWAP1 SLOAD SWAP1 PUSH2 0x100 EXP SWAP1 DIV PUSH20 0xFFFFFFFFFFFFFFFFFFFFFFFFFFFFFFFFFFFFFFFF AND PUSH20 0xFFFFFFFFFFFFFFFFFFFFFFFFFFFFFFFFFFFFFFFF AND DUP2 MSTORE PUSH1 0x20 ADD SWAP1 PUSH1 0x1 ADD SWAP1 DUP1 DUP4 GT PUSH3 0x182 JUMPI JUMPDEST POP POP POP POP POP SWAP1 POP SWAP1 JUMP JUMPDEST PUSH1 0x1 PUSH1 0x20 MSTORE DUP1 PUSH1 0x0 MSTORE PUSH1 0x40 PUSH1 0x0 KECCAK256 PUSH1 0x0 SWAP2 POP SLOAD SWAP1 PUSH2 0x100 EXP SWAP1 DIV PUSH1 0xFF AND DUP2 JUMP JUMPDEST PUSH1 0x0 CALLER DUP8 DUP8 DUP8 DUP8 DUP8 DUP8 ADDRESS PUSH1 0x40 MLOAD PUSH3 0x20F SWAP1 PUSH3 0x3B3 JUMP JUMPDEST PUSH3 0x222 SWAP9 SWAP8 SWAP7 SWAP6 SWAP5 SWAP4 SWAP3 SWAP2 SWAP1 PUSH3 0xA0C JUMP JUMPDEST PUSH1 0x40 MLOAD DUP1 SWAP2 SUB SWAP1 PUSH1 0x0 CREATE DUP1 ISZERO DUP1 ISZERO PUSH3 0x23F JUMPI RETURNDATASIZE PUSH1 0x0 DUP1 RETURNDATACOPY RETURNDATASIZE PUSH1 0x0 REVERT JUMPDEST POP SWAP1 POP PUSH1 0x0 DUP2 SWAP1 DUP1 PUSH1 0x1 DUP2 SLOAD ADD DUP1 DUP3 SSTORE DUP1 SWAP2 POP POP PUSH1 0x1 SWAP1 SUB SWAP1 PUSH1 0x0 MSTORE PUSH1 0x20 PUSH1 0x0 KECCAK256 ADD PUSH1 0x0 SWAP1 SWAP2 SWAP1 SWAP2 SWAP1 SWAP2 PUSH2 0x100 EXP DUP2 SLOAD DUP2 PUSH20 0xFFFFFFFFFFFFFFFFFFFFFFFFFFFFFFFFFFFFFFFF MUL NOT AND SWAP1 DUP4 PUSH20 0xFFFFFFFFFFFFFFFFFFFFFFFFFFFFFFFFFFFFFFFF AND MUL OR SWAP1 SSTORE POP POP POP POP POP POP POP POP JUMP JUMPDEST PUSH1 0x0 DUP2 DUP2 SLOAD DUP2 LT PUSH3 0x2BF JUMPI PUSH1 0x0 DUP1 REVERT JUMPDEST SWAP1 PUSH1 0x0 MSTORE PUSH1 0x20 PUSH1 0x0 KECCAK256 ADD PUSH1 0x0 SWAP2 POP SLOAD SWAP1 PUSH2 0x100 EXP SWAP1 DIV PUSH20 0xFFFFFFFFFFFFFFFFFFFFFFFFFFFFFFFFFFFFFFFF AND DUP2 JUMP JUMPDEST PUSH7 0x38D7EA4C68000 CALLVALUE EQ PUSH3 0x302 JUMPI PUSH1 0x0 DUP1 REVERT JUMPDEST PUSH1 0x1 PUSH1 0x0 CALLER PUSH20 0xFFFFFFFFFFFFFFFFFFFFFFFFFFFFFFFFFFFFFFFF AND PUSH20 0xFFFFFFFFFFFFFFFFFFFFFFFFFFFFFFFFFFFFFFFF AND DUP2 MSTORE PUSH1 0x20 ADD SWAP1 DUP2 MSTORE PUSH1 0x20 ADD PUSH1 0x0 KECCAK256 PUSH1 0x0 SWAP1 SLOAD SWAP1 PUSH2 0x100 EXP SWAP1 DIV PUSH1 0xFF AND ISZERO PUSH3 0x35A JUMPI PUSH1 0x0 DUP1 REVERT JUMPDEST PUSH1 0x1 DUP1 PUSH1 0x0 CALLER PUSH20 0xFFFFFFFFFFFFFFFFFFFFFFFFFFFFFFFFFFFFFFFF AND PUSH20 0xFFFFFFFFFFFFFFFFFFFFFFFFFFFFFFFFFFFFFFFF AND DUP2 MSTORE PUSH1 0x20 ADD SWAP1 DUP2 MSTORE PUSH1 0x20 ADD PUSH1 0x0 KECCAK256 PUSH1 0x0 PUSH2 0x100 EXP DUP2 SLOAD DUP2 PUSH1 0xFF MUL NOT AND SWAP1 DUP4 ISZERO ISZERO MUL OR SWAP1 SSTORE POP JUMP JUMPDEST PUSH2 0x1DFE DUP1 PUSH3 0xA85 DUP4 CODECOPY ADD SWAP1 JUMP JUMPDEST PUSH1 0x0 DUP2 MLOAD SWAP1 POP SWAP2 SWAP1 POP JUMP JUMPDEST PUSH1 0x0 DUP3 DUP3 MSTORE PUSH1 0x20 DUP3 ADD SWAP1 POP SWAP3 SWAP2 POP POP JUMP JUMPDEST PUSH1 0x0 DUP2 SWAP1 POP PUSH1 0x20 DUP3 ADD SWAP1 POP SWAP2 SWAP1 POP JUMP JUMPDEST PUSH1 0x0 PUSH20 0xFFFFFFFFFFFFFFFFFFFFFFFFFFFFFFFFFFFFFFFF DUP3 AND SWAP1 POP SWAP2 SWAP1 POP JUMP JUMPDEST PUSH1 0x0 PUSH3 0x41A DUP3 PUSH3 0x3ED JUMP JUMPDEST SWAP1 POP SWAP2 SWAP1 POP JUMP JUMPDEST PUSH3 0x42C DUP2 PUSH3 0x40D JUMP JUMPDEST DUP3 MSTORE POP POP JUMP JUMPDEST PUSH1 0x0 PUSH3 0x440 DUP4 DUP4 PUSH3 0x421 JUMP JUMPDEST PUSH1 0x20 DUP4 ADD SWAP1 POP SWAP3 SWAP2 POP POP JUMP JUMPDEST PUSH1 0x0 PUSH1 0x20 DUP3 ADD SWAP1 POP SWAP2 SWAP1 POP JUMP JUMPDEST PUSH1 0x0 PUSH3 0x466 DUP3 PUSH3 0x3C1 JUMP JUMPDEST PUSH3 0x472 DUP2 DUP6 PUSH3 0x3CC JUMP JUMPDEST SWAP4 POP PUSH3 0x47F DUP4 PUSH3 0x3DD JUMP JUMPDEST DUP1 PUSH1 0x0 JUMPDEST DUP4 DUP2 LT ISZERO PUSH3 0x4B6 JUMPI DUP2 MLOAD PUSH3 0x49A DUP9 DUP3 PUSH3 0x432 JUMP JUMPDEST SWAP8 POP PUSH3 0x4A7 DUP4 PUSH3 0x44C JUMP JUMPDEST SWAP3 POP POP PUSH1 0x1 DUP2 ADD SWAP1 POP PUSH3 0x483 JUMP JUMPDEST POP DUP6 SWAP4 POP POP POP POP SWAP3 SWAP2 POP POP JUMP JUMPDEST PUSH1 0x0 PUSH1 0x20 DUP3 ADD SWAP1 POP DUP2 DUP2 SUB PUSH1 0x0 DUP4 ADD MSTORE PUSH3 0x4DF DUP2 DUP5 PUSH3 0x459 JUMP JUMPDEST SWAP1 POP SWAP3 SWAP2 POP POP JUMP JUMPDEST PUSH1 0x0 DUP1 REVERT JUMPDEST PUSH1 0x0 DUP1 REVERT JUMPDEST PUSH3 0x4FC DUP2 PUSH3 0x40D JUMP JUMPDEST DUP2 EQ PUSH3 0x508 JUMPI PUSH1 0x0 DUP1 REVERT JUMPDEST POP JUMP JUMPDEST PUSH1 0x0 DUP2 CALLDATALOAD SWAP1 POP PUSH3 0x51C DUP2 PUSH3 0x4F1 JUMP JUMPDEST SWAP3 SWAP2 POP POP JUMP JUMPDEST PUSH1 0x0 PUSH1 0x20 DUP3 DUP5 SUB SLT ISZERO PUSH3 0x53B JUMPI PUSH3 0x53A PUSH3 0x4E7 JUMP JUMPDEST JUMPDEST PUSH1 0x0 PUSH3 0x54B DUP5 DUP3 DUP6 ADD PUSH3 0x50B JUMP JUMPDEST SWAP2 POP POP SWAP3 SWAP2 POP POP JUMP JUMPDEST PUSH1 0x0 DUP2 ISZERO ISZERO SWAP1 POP SWAP2 SWAP1 POP JUMP JUMPDEST PUSH3 0x56B DUP2 PUSH3 0x554 JUMP JUMPDEST DUP3 MSTORE POP POP JUMP JUMPDEST PUSH1 0x0 PUSH1 0x20 DUP3 ADD SWAP1 POP PUSH3 0x588 PUSH1 0x0 DUP4 ADD DUP5 PUSH3 0x560 JUMP JUMPDEST SWAP3 SWAP2 POP POP JUMP JUMPDEST PUSH1 0x0 DUP1 REVERT JUMPDEST PUSH1 0x0 DUP1 REVERT JUMPDEST PUSH1 0x0 DUP1 REVERT JUMPDEST PUSH1 0x0 DUP1 DUP4 PUSH1 0x1F DUP5 ADD SLT PUSH3 0x5B6 JUMPI PUSH3 0x5B5 PUSH3 0x58E JUMP JUMPDEST JUMPDEST DUP3 CALLDATALOAD SWAP1 POP PUSH8 0xFFFFFFFFFFFFFFFF DUP2 GT ISZERO PUSH3 0x5D6 JUMPI PUSH3 0x5D5 PUSH3 0x593 JUMP JUMPDEST JUMPDEST PUSH1 0x20 DUP4 ADD SWAP2 POP DUP4 PUSH1 0x1 DUP3 MUL DUP4 ADD GT ISZERO PUSH3 0x5F5 JUMPI PUSH3 0x5F4 PUSH3 0x598 JUMP JUMPDEST JUMPDEST SWAP3 POP SWAP3 SWAP1 POP JUMP JUMPDEST PUSH1 0x0 DUP1 DUP4 PUSH1 0x1F DUP5 ADD SLT PUSH3 0x615 JUMPI PUSH3 0x614 PUSH3 0x58E JUMP JUMPDEST JUMPDEST DUP3 CALLDATALOAD SWAP1 POP PUSH8 0xFFFFFFFFFFFFFFFF DUP2 GT ISZERO PUSH3 0x635 JUMPI PUSH3 0x634 PUSH3 0x593 JUMP JUMPDEST JUMPDEST PUSH1 0x20 DUP4 ADD SWAP2 POP DUP4 PUSH1 0x20 DUP3 MUL DUP4 ADD GT ISZERO PUSH3 0x654 JUMPI PUSH3 0x653 PUSH3 0x598 JUMP JUMPDEST JUMPDEST SWAP3 POP SWAP3 SWAP1 POP JUMP JUMPDEST PUSH1 0x0 DUP1 PUSH1 0x0 DUP1 PUSH1 0x0 DUP1 PUSH1 0x60 DUP8 DUP10 SUB SLT ISZERO PUSH3 0x67B JUMPI PUSH3 0x67A PUSH3 0x4E7 JUMP JUMPDEST JUMPDEST PUSH1 0x0 DUP8 ADD CALLDATALOAD PUSH8 0xFFFFFFFFFFFFFFFF DUP2 GT ISZERO PUSH3 0x69C JUMPI PUSH3 0x69B PUSH3 0x4EC JUMP JUMPDEST JUMPDEST PUSH3 0x6AA DUP10 DUP3 DUP11 ADD PUSH3 0x59D JUMP JUMPDEST SWAP7 POP SWAP7 POP POP PUSH1 0x20 DUP8 ADD CALLDATALOAD PUSH8 0xFFFFFFFFFFFFFFFF DUP2 GT ISZERO PUSH3 0x6D0 JUMPI PUSH3 0x6CF PUSH3 0x4EC JUMP JUMPDEST JUMPDEST PUSH3 0x6DE DUP10 DUP3 DUP11 ADD PUSH3 0x59D JUMP JUMPDEST SWAP5 POP SWAP5 POP POP PUSH1 0x40 DUP8 ADD CALLDATALOAD PUSH8 0xFFFFFFFFFFFFFFFF DUP2 GT ISZERO PUSH3 0x704 JUMPI PUSH3 0x703 PUSH3 0x4EC JUMP JUMPDEST JUMPDEST PUSH3 0x712 DUP10 DUP3 DUP11 ADD PUSH3 0x5FC JUMP JUMPDEST SWAP3 POP SWAP3 POP POP SWAP3 SWAP6 POP SWAP3 SWAP6 POP SWAP3 SWAP6 JUMP JUMPDEST PUSH1 0x0 DUP2 SWAP1 POP SWAP2 SWAP1 POP JUMP JUMPDEST PUSH3 0x736 DUP2 PUSH3 0x721 JUMP JUMPDEST DUP2 EQ PUSH3 0x742 JUMPI PUSH1 0x0 DUP1 REVERT JUMPDEST POP JUMP JUMPDEST PUSH1 0x0 DUP2 CALLDATALOAD SWAP1 POP PUSH3 0x756 DUP2 PUSH3 0x72B JUMP JUMPDEST SWAP3 SWAP2 POP POP JUMP JUMPDEST PUSH1 0x0 PUSH1 0x20 DUP3 DUP5 SUB SLT ISZERO PUSH3 0x775 JUMPI PUSH3 0x774 PUSH3 0x4E7 JUMP JUMPDEST JUMPDEST PUSH1 0x0 PUSH3 0x785 DUP5 DUP3 DUP6 ADD PUSH3 0x745 JUMP JUMPDEST SWAP2 POP POP SWAP3 SWAP2 POP POP JUMP JUMPDEST PUSH3 0x799 DUP2 PUSH3 0x40D JUMP JUMPDEST DUP3 MSTORE POP POP JUMP JUMPDEST PUSH1 0x0 PUSH1 0x20 DUP3 ADD SWAP1 POP PUSH3 0x7B6 PUSH1 0x0 DUP4 ADD DUP5 PUSH3 0x78E JUMP JUMPDEST SWAP3 SWAP2 POP POP JUMP JUMPDEST PUSH1 0x0 DUP3 DUP3 MSTORE PUSH1 0x20 DUP3 ADD SWAP1 POP SWAP3 SWAP2 POP POP JUMP JUMPDEST DUP3 DUP2 DUP4 CALLDATACOPY PUSH1 0x0 DUP4 DUP4 ADD MSTORE POP POP POP JUMP JUMPDEST PUSH1 0x0 PUSH1 0x1F NOT PUSH1 0x1F DUP4 ADD AND SWAP1 POP SWAP2 SWAP1 POP JUMP JUMPDEST PUSH1 0x0 PUSH3 0x7FB DUP4 DUP6 PUSH3 0x7BC JUMP JUMPDEST SWAP4 POP PUSH3 0x80A DUP4 DUP6 DUP5 PUSH3 0x7CD JUMP JUMPDEST PUSH3 0x815 DUP4 PUSH3 0x7DC JUMP JUMPDEST DUP5 ADD SWAP1 POP SWAP4 SWAP3 POP POP POP JUMP JUMPDEST PUSH1 0x0 DUP3 DUP3 MSTORE PUSH1 0x20 DUP3 ADD SWAP1 POP SWAP3 SWAP2 POP POP JUMP JUMPDEST PUSH1 0x0 DUP2 SWAP1 POP SWAP2 SWAP1 POP JUMP JUMPDEST PUSH1 0x0 DUP3 DUP3 MSTORE PUSH1 0x20 DUP3 ADD SWAP1 POP SWAP3 SWAP2 POP POP JUMP JUMPDEST PUSH1 0x0 PUSH3 0x85A DUP4 DUP6 PUSH3 0x83B JUMP JUMPDEST SWAP4 POP PUSH3 0x869 DUP4 DUP6 DUP5 PUSH3 0x7CD JUMP JUMPDEST PUSH3 0x874 DUP4 PUSH3 0x7DC JUMP JUMPDEST DUP5 ADD SWAP1 POP SWAP4 SWAP3 POP POP POP JUMP JUMPDEST PUSH1 0x0 PUSH3 0x88E DUP5 DUP5 DUP5 PUSH3 0x84C JUMP JUMPDEST SWAP1 POP SWAP4 SWAP3 POP POP POP JUMP JUMPDEST PUSH1 0x0 DUP1 REVERT JUMPDEST PUSH1 0x0 DUP1 REVERT JUMPDEST PUSH1 0x0 DUP1 REVERT JUMPDEST PUSH1 0x0 DUP1 DUP4 CALLDATALOAD PUSH1 0x1 PUSH1 0x20 SUB DUP5 CALLDATASIZE SUB SUB DUP2 SLT PUSH3 0x8C6 JUMPI PUSH3 0x8C5 PUSH3 0x8A1 JUMP JUMPDEST JUMPDEST DUP4 DUP2 ADD SWAP3 POP DUP3 CALLDATALOAD SWAP2 POP PUSH1 0x20 DUP4 ADD SWAP3 POP PUSH8 0xFFFFFFFFFFFFFFFF DUP3 GT ISZERO PUSH3 0x8F1 JUMPI PUSH3 0x8F0 PUSH3 0x897 JUMP JUMPDEST JUMPDEST PUSH1 0x1 DUP3 MUL CALLDATASIZE SUB DUP5 SGT ISZERO PUSH3 0x90A JUMPI PUSH3 0x909 PUSH3 0x89C JUMP JUMPDEST JUMPDEST POP SWAP3 POP SWAP3 SWAP1 POP JUMP JUMPDEST PUSH1 0x0 PUSH1 0x20 DUP3 ADD SWAP1 POP SWAP2 SWAP1 POP JUMP JUMPDEST PUSH1 0x0 PUSH3 0x92D DUP4 DUP6 PUSH3 0x820 JUMP JUMPDEST SWAP4 POP DUP4 PUSH1 0x20 DUP5 MUL DUP6 ADD PUSH3 0x941 DUP5 PUSH3 0x831 JUMP JUMPDEST DUP1 PUSH1 0x0 JUMPDEST DUP8 DUP2 LT ISZERO PUSH3 0x98F JUMPI DUP5 DUP5 SUB DUP10 MSTORE PUSH3 0x95F DUP3 DUP5 PUSH3 0x8A6 JUMP JUMPDEST PUSH3 0x96C DUP7 DUP3 DUP5 PUSH3 0x87F JUMP JUMPDEST SWAP6 POP PUSH3 0x979 DUP5 PUSH3 0x912 JUMP JUMPDEST SWAP4 POP PUSH1 0x20 DUP12 ADD SWAP11 POP POP POP PUSH1 0x1 DUP2 ADD SWAP1 POP PUSH3 0x945 JUMP JUMPDEST POP DUP3 SWAP8 POP DUP8 SWAP5 POP POP POP POP POP SWAP4 SWAP3 POP POP POP JUMP JUMPDEST PUSH1 0x0 DUP2 SWAP1 POP SWAP2 SWAP1 POP JUMP JUMPDEST PUSH1 0x0 PUSH3 0x9CC PUSH3 0x9C6 PUSH3 0x9C0 DUP5 PUSH3 0x3ED JUMP JUMPDEST PUSH3 0x9A1 JUMP JUMPDEST PUSH3 0x3ED JUMP JUMPDEST SWAP1 POP SWAP2 SWAP1 POP JUMP JUMPDEST PUSH1 0x0 PUSH3 0x9E0 DUP3 PUSH3 0x9AB JUMP JUMPDEST SWAP1 POP SWAP2 SWAP1 POP JUMP JUMPDEST PUSH1 0x0 PUSH3 0x9F4 DUP3 PUSH3 0x9D3 JUMP JUMPDEST SWAP1 POP SWAP2 SWAP1 POP JUMP JUMPDEST PUSH3 0xA06 DUP2 PUSH3 0x9E7 JUMP JUMPDEST DUP3 MSTORE POP POP JUMP JUMPDEST PUSH1 0x0 PUSH1 0xA0 DUP3 ADD SWAP1 POP PUSH3 0xA23 PUSH1 0x0 DUP4 ADD DUP12 PUSH3 0x78E JUMP JUMPDEST DUP2 DUP2 SUB PUSH1 0x20 DUP4 ADD MSTORE PUSH3 0xA38 DUP2 DUP10 DUP12 PUSH3 0x7ED JUMP JUMPDEST SWAP1 POP DUP2 DUP2 SUB PUSH1 0x40 DUP4 ADD MSTORE PUSH3 0xA4F DUP2 DUP8 DUP10 PUSH3 0x7ED JUMP JUMPDEST SWAP1 POP DUP2 DUP2 SUB PUSH1 0x60 DUP4 ADD MSTORE PUSH3 0xA66 DUP2 DUP6 DUP8 PUSH3 0x91F JUMP JUMPDEST SWAP1 POP PUSH3 0xA77 PUSH1 0x80 DUP4 ADD DUP5 PUSH3 0x9FB JUMP JUMPDEST SWAP10 SWAP9 POP POP POP POP POP POP POP POP POP JUMP INVALID PUSH1 0x80 PUSH1 0x40 MSTORE CALLVALUE DUP1 ISZERO PUSH3 0x11 JUMPI PUSH1 0x0 DUP1 REVERT JUMPDEST POP PUSH1 0x40 MLOAD PUSH3 0x1DFE CODESIZE SUB DUP1 PUSH3 0x1DFE DUP4 CODECOPY DUP2 DUP2 ADD PUSH1 0x40 MSTORE DUP2 ADD SWAP1 PUSH3 0x37 SWAP2 SWAP1 PUSH3 0x692 JUMP JUMPDEST DUP5 PUSH1 0x7 PUSH1 0x2 PUSH2 0x100 EXP DUP2 SLOAD DUP2 PUSH20 0xFFFFFFFFFFFFFFFFFFFFFFFFFFFFFFFFFFFFFFFF MUL NOT AND SWAP1 DUP4 PUSH20 0xFFFFFFFFFFFFFFFFFFFFFFFFFFFFFFFFFFFFFFFF AND MUL OR SWAP1 SSTORE POP DUP4 PUSH1 0x3 SWAP1 DUP1 MLOAD SWAP1 PUSH1 0x20 ADD SWAP1 PUSH3 0x90 SWAP3 SWAP2 SWAP1 PUSH3 0x178 JUMP JUMPDEST POP DUP3 PUSH1 0x4 SWAP1 DUP1 MLOAD SWAP1 PUSH1 0x20 ADD SWAP1 PUSH3 0xA9 SWAP3 SWAP2 SWAP1 PUSH3 0x178 JUMP JUMPDEST POP DUP2 PUSH1 0x2 SWAP1 DUP1 MLOAD SWAP1 PUSH1 0x20 ADD SWAP1 PUSH3 0xC2 SWAP3 SWAP2 SWAP1 PUSH3 0x209 JUMP JUMPDEST POP PUSH1 0x2 DUP1 SLOAD SWAP1 POP PUSH8 0xFFFFFFFFFFFFFFFF DUP2 GT ISZERO PUSH3 0xE5 JUMPI PUSH3 0xE4 PUSH3 0x3E3 JUMP JUMPDEST JUMPDEST PUSH1 0x40 MLOAD SWAP1 DUP1 DUP3 MSTORE DUP1 PUSH1 0x20 MUL PUSH1 0x20 ADD DUP3 ADD PUSH1 0x40 MSTORE DUP1 ISZERO PUSH3 0x114 JUMPI DUP2 PUSH1 0x20 ADD PUSH1 0x20 DUP3 MUL DUP1 CALLDATASIZE DUP4 CALLDATACOPY DUP1 DUP3 ADD SWAP2 POP POP SWAP1 POP JUMPDEST POP PUSH1 0x5 SWAP1 DUP1 MLOAD SWAP1 PUSH1 0x20 ADD SWAP1 PUSH3 0x12C SWAP3 SWAP2 SWAP1 PUSH3 0x270 JUMP JUMPDEST POP DUP1 PUSH1 0x0 DUP1 PUSH2 0x100 EXP DUP2 SLOAD DUP2 PUSH20 0xFFFFFFFFFFFFFFFFFFFFFFFFFFFFFFFFFFFFFFFF MUL NOT AND SWAP1 DUP4 PUSH20 0xFFFFFFFFFFFFFFFFFFFFFFFFFFFFFFFFFFFFFFFF AND MUL OR SWAP1 SSTORE POP POP POP POP POP POP PUSH3 0x7DC JUMP JUMPDEST DUP3 DUP1 SLOAD PUSH3 0x186 SWAP1 PUSH3 0x7A6 JUMP JUMPDEST SWAP1 PUSH1 0x0 MSTORE PUSH1 0x20 PUSH1 0x0 KECCAK256 SWAP1 PUSH1 0x1F ADD PUSH1 0x20 SWAP1 DIV DUP2 ADD SWAP3 DUP3 PUSH3 0x1AA JUMPI PUSH1 0x0 DUP6 SSTORE PUSH3 0x1F6 JUMP JUMPDEST DUP3 PUSH1 0x1F LT PUSH3 0x1C5 JUMPI DUP1 MLOAD PUSH1 0xFF NOT AND DUP4 DUP1 ADD OR DUP6 SSTORE PUSH3 0x1F6 JUMP JUMPDEST DUP3 DUP1 ADD PUSH1 0x1 ADD DUP6 SSTORE DUP3 ISZERO PUSH3 0x1F6 JUMPI SWAP2 DUP3 ADD JUMPDEST DUP3 DUP2 GT ISZERO PUSH3 0x1F5 JUMPI DUP3 MLOAD DUP3 SSTORE SWAP2 PUSH1 0x20 ADD SWAP2 SWAP1 PUSH1 0x1 ADD SWAP1 PUSH3 0x1D8 JUMP JUMPDEST JUMPDEST POP SWAP1 POP PUSH3 0x205 SWAP2 SWAP1 PUSH3 0x2C2 JUMP JUMPDEST POP SWAP1 JUMP JUMPDEST DUP3 DUP1 SLOAD DUP3 DUP3 SSTORE SWAP1 PUSH1 0x0 MSTORE PUSH1 0x20 PUSH1 0x0 KECCAK256 SWAP1 DUP2 ADD SWAP3 DUP3 ISZERO PUSH3 0x25D JUMPI SWAP2 PUSH1 0x20 MUL DUP3 ADD JUMPDEST DUP3 DUP2 GT ISZERO PUSH3 0x25C JUMPI DUP3 MLOAD DUP3 SWAP1 DUP1 MLOAD SWAP1 PUSH1 0x20 ADD SWAP1 PUSH3 0x24B SWAP3 SWAP2 SWAP1 PUSH3 0x178 JUMP JUMPDEST POP SWAP2 PUSH1 0x20 ADD SWAP2 SWAP1 PUSH1 0x1 ADD SWAP1 PUSH3 0x22A JUMP JUMPDEST JUMPDEST POP SWAP1 POP PUSH3 0x26C SWAP2 SWAP1 PUSH3 0x2E1 JUMP JUMPDEST POP SWAP1 JUMP JUMPDEST DUP3 DUP1 SLOAD DUP3 DUP3 SSTORE SWAP1 PUSH1 0x0 MSTORE PUSH1 0x20 PUSH1 0x0 KECCAK256 SWAP1 DUP2 ADD SWAP3 DUP3 ISZERO PUSH3 0x2AF JUMPI SWAP2 PUSH1 0x20 MUL DUP3 ADD JUMPDEST DUP3 DUP2 GT ISZERO PUSH3 0x2AE JUMPI DUP3 MLOAD DUP3 SSTORE SWAP2 PUSH1 0x20 ADD SWAP2 SWAP1 PUSH1 0x1 ADD SWAP1 PUSH3 0x291 JUMP JUMPDEST JUMPDEST POP SWAP1 POP PUSH3 0x2BE SWAP2 SWAP1 PUSH3 0x2C2 JUMP JUMPDEST POP SWAP1 JUMP JUMPDEST JUMPDEST DUP1 DUP3 GT ISZERO PUSH3 0x2DD JUMPI PUSH1 0x0 DUP2 PUSH1 0x0 SWAP1 SSTORE POP PUSH1 0x1 ADD PUSH3 0x2C3 JUMP JUMPDEST POP SWAP1 JUMP JUMPDEST JUMPDEST DUP1 DUP3 GT ISZERO PUSH3 0x305 JUMPI PUSH1 0x0 DUP2 DUP2 PUSH3 0x2FB SWAP2 SWAP1 PUSH3 0x309 JUMP JUMPDEST POP PUSH1 0x1 ADD PUSH3 0x2E2 JUMP JUMPDEST POP SWAP1 JUMP JUMPDEST POP DUP1 SLOAD PUSH3 0x317 SWAP1 PUSH3 0x7A6 JUMP JUMPDEST PUSH1 0x0 DUP3 SSTORE DUP1 PUSH1 0x1F LT PUSH3 0x32B JUMPI POP PUSH3 0x34C JUMP JUMPDEST PUSH1 0x1F ADD PUSH1 0x20 SWAP1 DIV SWAP1 PUSH1 0x0 MSTORE PUSH1 0x20 PUSH1 0x0 KECCAK256 SWAP1 DUP2 ADD SWAP1 PUSH3 0x34B SWAP2 SWAP1 PUSH3 0x2C2 JUMP JUMPDEST JUMPDEST POP JUMP JUMPDEST PUSH1 0x0 PUSH1 0x40 MLOAD SWAP1 POP SWAP1 JUMP JUMPDEST PUSH1 0x0 DUP1 REVERT JUMPDEST PUSH1 0x0 DUP1 REVERT JUMPDEST PUSH1 0x0 PUSH20 0xFFFFFFFFFFFFFFFFFFFFFFFFFFFFFFFFFFFFFFFF DUP3 AND SWAP1 POP SWAP2 SWAP1 POP JUMP JUMPDEST PUSH1 0x0 PUSH3 0x390 DUP3 PUSH3 0x363 JUMP JUMPDEST SWAP1 POP SWAP2 SWAP1 POP JUMP JUMPDEST PUSH3 0x3A2 DUP2 PUSH3 0x383 JUMP JUMPDEST DUP2 EQ PUSH3 0x3AE JUMPI PUSH1 0x0 DUP1 REVERT JUMPDEST POP JUMP JUMPDEST PUSH1 0x0 DUP2 MLOAD SWAP1 POP PUSH3 0x3C2 DUP2 PUSH3 0x397 JUMP JUMPDEST SWAP3 SWAP2 POP POP JUMP JUMPDEST PUSH1 0x0 DUP1 REVERT JUMPDEST PUSH1 0x0 DUP1 REVERT JUMPDEST PUSH1 0x0 PUSH1 0x1F NOT PUSH1 0x1F DUP4 ADD AND SWAP1 POP SWAP2 SWAP1 POP JUMP JUMPDEST PUSH32 0x4E487B7100000000000000000000000000000000000000000000000000000000 PUSH1 0x0 MSTORE PUSH1 0x41 PUSH1 0x4 MSTORE PUSH1 0x24 PUSH1 0x0 REVERT JUMPDEST PUSH3 0x41D DUP3 PUSH3 0x3D2 JUMP JUMPDEST DUP2 ADD DUP2 DUP2 LT PUSH8 0xFFFFFFFFFFFFFFFF DUP3 GT OR ISZERO PUSH3 0x43F JUMPI PUSH3 0x43E PUSH3 0x3E3 JUMP JUMPDEST JUMPDEST DUP1 PUSH1 0x40 MSTORE POP POP POP JUMP JUMPDEST PUSH1 0x0 PUSH3 0x454 PUSH3 0x34F JUMP JUMPDEST SWAP1 POP PUSH3 0x462 DUP3 DUP3 PUSH3 0x412 JUMP JUMPDEST SWAP2 SWAP1 POP JUMP JUMPDEST PUSH1 0x0 PUSH8 0xFFFFFFFFFFFFFFFF DUP3 GT ISZERO PUSH3 0x485 JUMPI PUSH3 0x484 PUSH3 0x3E3 JUMP JUMPDEST JUMPDEST PUSH3 0x490 DUP3 PUSH3 0x3D2 JUMP JUMPDEST SWAP1 POP PUSH1 0x20 DUP2 ADD SWAP1 POP SWAP2 SWAP1 POP JUMP JUMPDEST PUSH1 0x0 JUMPDEST DUP4 DUP2 LT ISZERO PUSH3 0x4BD JUMPI DUP1 DUP3 ADD MLOAD DUP2 DUP5 ADD MSTORE PUSH1 0x20 DUP2 ADD SWAP1 POP PUSH3 0x4A0 JUMP JUMPDEST DUP4 DUP2 GT ISZERO PUSH3 0x4CD JUMPI PUSH1 0x0 DUP5 DUP5 ADD MSTORE JUMPDEST POP POP POP POP JUMP JUMPDEST PUSH1 0x0 PUSH3 0x4EA PUSH3 0x4E4 DUP5 PUSH3 0x467 JUMP JUMPDEST PUSH3 0x448 JUMP JUMPDEST SWAP1 POP DUP3 DUP2 MSTORE PUSH1 0x20 DUP2 ADD DUP5 DUP5 DUP5 ADD GT ISZERO PUSH3 0x509 JUMPI PUSH3 0x508 PUSH3 0x3CD JUMP JUMPDEST JUMPDEST PUSH3 0x516 DUP5 DUP3 DUP6 PUSH3 0x49D JUMP JUMPDEST POP SWAP4 SWAP3 POP POP POP JUMP JUMPDEST PUSH1 0x0 DUP3 PUSH1 0x1F DUP4 ADD SLT PUSH3 0x536 JUMPI PUSH3 0x535 PUSH3 0x3C8 JUMP JUMPDEST JUMPDEST DUP2 MLOAD PUSH3 0x548 DUP5 DUP3 PUSH1 0x20 DUP7 ADD PUSH3 0x4D3 JUMP JUMPDEST SWAP2 POP POP SWAP3 SWAP2 POP POP JUMP JUMPDEST PUSH1 0x0 PUSH8 0xFFFFFFFFFFFFFFFF DUP3 GT ISZERO PUSH3 0x56F JUMPI PUSH3 0x56E PUSH3 0x3E3 JUMP JUMPDEST JUMPDEST PUSH1 0x20 DUP3 MUL SWAP1 POP PUSH1 0x20 DUP2 ADD SWAP1 POP SWAP2 SWAP1 POP JUMP JUMPDEST PUSH1 0x0 DUP1 REVERT JUMPDEST PUSH1 0x0 PUSH3 0x59C PUSH3 0x596 DUP5 PUSH3 0x551 JUMP JUMPDEST PUSH3 0x448 JUMP JUMPDEST SWAP1 POP DUP1 DUP4 DUP3 MSTORE PUSH1 0x20 DUP3 ADD SWAP1 POP PUSH1 0x20 DUP5 MUL DUP4 ADD DUP6 DUP2 GT ISZERO PUSH3 0x5C2 JUMPI PUSH3 0x5C1 PUSH3 0x580 JUMP JUMPDEST JUMPDEST DUP4 JUMPDEST DUP2 DUP2 LT ISZERO PUSH3 0x610 JUMPI DUP1 MLOAD PUSH8 0xFFFFFFFFFFFFFFFF DUP2 GT ISZERO PUSH3 0x5EB JUMPI PUSH3 0x5EA PUSH3 0x3C8 JUMP JUMPDEST JUMPDEST DUP1 DUP7 ADD PUSH3 0x5FA DUP10 DUP3 PUSH3 0x51E JUMP JUMPDEST DUP6 MSTORE PUSH1 0x20 DUP6 ADD SWAP5 POP POP POP PUSH1 0x20 DUP2 ADD SWAP1 POP PUSH3 0x5C4 JUMP JUMPDEST POP POP POP SWAP4 SWAP3 POP POP POP JUMP JUMPDEST PUSH1 0x0 DUP3 PUSH1 0x1F DUP4 ADD SLT PUSH3 0x632 JUMPI PUSH3 0x631 PUSH3 0x3C8 JUMP JUMPDEST JUMPDEST DUP2 MLOAD PUSH3 0x644 DUP5 DUP3 PUSH1 0x20 DUP7 ADD PUSH3 0x585 JUMP JUMPDEST SWAP2 POP POP SWAP3 SWAP2 POP POP JUMP JUMPDEST PUSH1 0x0 PUSH3 0x65A DUP3 PUSH3 0x383 JUMP JUMPDEST SWAP1 POP SWAP2 SWAP1 POP JUMP JUMPDEST PUSH3 0x66C DUP2 PUSH3 0x64D JUMP JUMPDEST DUP2 EQ PUSH3 0x678 JUMPI PUSH1 0x0 DUP1 REVERT JUMPDEST POP JUMP JUMPDEST PUSH1 0x0 DUP2 MLOAD SWAP1 POP PUSH3 0x68C DUP2 PUSH3 0x661 JUMP JUMPDEST SWAP3 SWAP2 POP POP JUMP JUMPDEST PUSH1 0x0 DUP1 PUSH1 0x0 DUP1 PUSH1 0x0 PUSH1 0xA0 DUP7 DUP9 SUB SLT ISZERO PUSH3 0x6B1 JUMPI PUSH3 0x6B0 PUSH3 0x359 JUMP JUMPDEST JUMPDEST PUSH1 0x0 PUSH3 0x6C1 DUP9 DUP3 DUP10 ADD PUSH3 0x3B1 JUMP JUMPDEST SWAP6 POP POP PUSH1 0x20 DUP7 ADD MLOAD PUSH8 0xFFFFFFFFFFFFFFFF DUP2 GT ISZERO PUSH3 0x6E5 JUMPI PUSH3 0x6E4 PUSH3 0x35E JUMP JUMPDEST JUMPDEST PUSH3 0x6F3 DUP9 DUP3 DUP10 ADD PUSH3 0x51E JUMP JUMPDEST SWAP5 POP POP PUSH1 0x40 DUP7 ADD MLOAD PUSH8 0xFFFFFFFFFFFFFFFF DUP2 GT ISZERO PUSH3 0x717 JUMPI PUSH3 0x716 PUSH3 0x35E JUMP JUMPDEST JUMPDEST PUSH3 0x725 DUP9 DUP3 DUP10 ADD PUSH3 0x51E JUMP JUMPDEST SWAP4 POP POP PUSH1 0x60 DUP7 ADD MLOAD PUSH8 0xFFFFFFFFFFFFFFFF DUP2 GT ISZERO PUSH3 0x749 JUMPI PUSH3 0x748 PUSH3 0x35E JUMP JUMPDEST JUMPDEST PUSH3 0x757 DUP9 DUP3 DUP10 ADD PUSH3 0x61A JUMP JUMPDEST SWAP3 POP POP PUSH1 0x80 PUSH3 0x76A DUP9 DUP3 DUP10 ADD PUSH3 0x67B JUMP JUMPDEST SWAP2 POP POP SWAP3 SWAP6 POP SWAP3 SWAP6 SWAP1 SWAP4 POP JUMP JUMPDEST PUSH32 0x4E487B7100000000000000000000000000000000000000000000000000000000 PUSH1 0x0 MSTORE PUSH1 0x22 PUSH1 0x4 MSTORE PUSH1 0x24 PUSH1 0x0 REVERT JUMPDEST PUSH1 0x0 PUSH1 0x2 DUP3 DIV SWAP1 POP PUSH1 0x1 DUP3 AND DUP1 PUSH3 0x7BF JUMPI PUSH1 0x7F DUP3 AND SWAP2 POP JUMPDEST PUSH1 0x20 DUP3 LT DUP2 EQ ISZERO PUSH3 0x7D6 JUMPI PUSH3 0x7D5 PUSH3 0x777 JUMP JUMPDEST JUMPDEST POP SWAP2 SWAP1 POP JUMP JUMPDEST PUSH2 0x1612 DUP1 PUSH3 0x7EC PUSH1 0x0 CODECOPY PUSH1 0x0 RETURN INVALID PUSH1 0x80 PUSH1 0x40 MSTORE CALLVALUE DUP1 ISZERO PUSH2 0x10 JUMPI PUSH1 0x0 DUP1 REVERT JUMPDEST POP PUSH1 0x4 CALLDATASIZE LT PUSH2 0xF5 JUMPI PUSH1 0x0 CALLDATALOAD PUSH1 0xE0 SHR DUP1 PUSH4 0x597E1FB5 GT PUSH2 0x97 JUMPI DUP1 PUSH4 0x8E7EA5B2 GT PUSH2 0x66 JUMPI DUP1 PUSH4 0x8E7EA5B2 EQ PUSH2 0x26B JUMPI DUP1 PUSH4 0xAEC2CCAE EQ PUSH2 0x275 JUMPI DUP1 PUSH4 0xCC2EE196 EQ PUSH2 0x2A5 JUMPI DUP1 PUSH4 0xDFBF53AE EQ PUSH2 0x2C3 JUMPI PUSH2 0xF5 JUMP JUMPDEST DUP1 PUSH4 0x597E1FB5 EQ PUSH2 0x1E1 JUMPI DUP1 PUSH4 0x5C975ABB EQ PUSH2 0x1FF JUMPI DUP1 PUSH4 0x5DF81330 EQ PUSH2 0x21D JUMPI DUP1 PUSH4 0x7284E416 EQ PUSH2 0x24D JUMPI PUSH2 0xF5 JUMP JUMPDEST DUP1 PUSH4 0x4051DDAC GT PUSH2 0xD3 JUMPI DUP1 PUSH4 0x4051DDAC EQ PUSH2 0x150 JUMPI DUP1 PUSH4 0x409E2205 EQ PUSH2 0x175 JUMPI DUP1 PUSH4 0x481C6A75 EQ PUSH2 0x1A5 JUMPI DUP1 PUSH4 0x4A79D50C EQ PUSH2 0x1C3 JUMPI PUSH2 0xF5 JUMP JUMPDEST DUP1 PUSH4 0x121B93F EQ PUSH2 0xFA JUMPI DUP1 PUSH4 0x2329A29 EQ PUSH2 0x116 JUMPI DUP1 PUSH4 0xDC96015 EQ PUSH2 0x132 JUMPI JUMPDEST PUSH1 0x0 DUP1 REVERT JUMPDEST PUSH2 0x114 PUSH1 0x4 DUP1 CALLDATASIZE SUB DUP2 ADD SWAP1 PUSH2 0x10F SWAP2 SWAP1 PUSH2 0xD3F JUMP JUMPDEST PUSH2 0x2E1 JUMP JUMPDEST STOP JUMPDEST PUSH2 0x130 PUSH1 0x4 DUP1 CALLDATASIZE SUB DUP2 ADD SWAP1 PUSH2 0x12B SWAP2 SWAP1 PUSH2 0xDA4 JUMP JUMPDEST PUSH2 0x57E JUMP JUMPDEST STOP JUMPDEST PUSH2 0x13A PUSH2 0x671 JUMP JUMPDEST PUSH1 0x40 MLOAD PUSH2 0x147 SWAP2 SWAP1 PUSH2 0xE8F JUMP JUMPDEST PUSH1 0x40 MLOAD DUP1 SWAP2 SUB SWAP1 RETURN JUMPDEST PUSH2 0x158 PUSH2 0x6C9 JUMP JUMPDEST PUSH1 0x40 MLOAD PUSH2 0x16C SWAP9 SWAP8 SWAP7 SWAP6 SWAP5 SWAP4 SWAP3 SWAP2 SWAP1 PUSH2 0x10B5 JUMP JUMPDEST PUSH1 0x40 MLOAD DUP1 SWAP2 SUB SWAP1 RETURN JUMPDEST PUSH2 0x18F PUSH1 0x4 DUP1 CALLDATASIZE SUB DUP2 ADD SWAP1 PUSH2 0x18A SWAP2 SWAP1 PUSH2 0xD3F JUMP JUMPDEST PUSH2 0x862 JUMP JUMPDEST PUSH1 0x40 MLOAD PUSH2 0x19C SWAP2 SWAP1 PUSH2 0x114F JUMP JUMPDEST PUSH1 0x40 MLOAD DUP1 SWAP2 SUB SWAP1 RETURN JUMPDEST PUSH2 0x1AD PUSH2 0x90E JUMP JUMPDEST PUSH1 0x40 MLOAD PUSH2 0x1BA SWAP2 SWAP1 PUSH2 0x1171 JUMP JUMPDEST PUSH1 0x40 MLOAD DUP1 SWAP2 SUB SWAP1 RETURN JUMPDEST PUSH2 0x1CB PUSH2 0x934 JUMP JUMPDEST PUSH1 0x40 MLOAD PUSH2 0x1D8 SWAP2 SWAP1 PUSH2 0x114F JUMP JUMPDEST PUSH1 0x40 MLOAD DUP1 SWAP2 SUB SWAP1 RETURN JUMPDEST PUSH2 0x1E9 PUSH2 0x9C2 JUMP JUMPDEST PUSH1 0x40 MLOAD PUSH2 0x1F6 SWAP2 SWAP1 PUSH2 0x118C JUMP JUMPDEST PUSH1 0x40 MLOAD DUP1 SWAP2 SUB SWAP1 RETURN JUMPDEST PUSH2 0x207 PUSH2 0x9D5 JUMP JUMPDEST PUSH1 0x40 MLOAD PUSH2 0x214 SWAP2 SWAP1 PUSH2 0x118C JUMP JUMPDEST PUSH1 0x40 MLOAD DUP1 SWAP2 SUB SWAP1 RETURN JUMPDEST PUSH2 0x237 PUSH1 0x4 DUP1 CALLDATASIZE SUB DUP2 ADD SWAP1 PUSH2 0x232 SWAP2 SWAP1 PUSH2 0xD3F JUMP JUMPDEST PUSH2 0x9E8 JUMP JUMPDEST PUSH1 0x40 MLOAD PUSH2 0x244 SWAP2 SWAP1 PUSH2 0x11A7 JUMP JUMPDEST PUSH1 0x40 MLOAD DUP1 SWAP2 SUB SWAP1 RETURN JUMPDEST PUSH2 0x255 PUSH2 0xA0C JUMP JUMPDEST PUSH1 0x40 MLOAD PUSH2 0x262 SWAP2 SWAP1 PUSH2 0x114F JUMP JUMPDEST PUSH1 0x40 MLOAD DUP1 SWAP2 SUB SWAP1 RETURN JUMPDEST PUSH2 0x273 PUSH2 0xA9A JUMP JUMPDEST STOP JUMPDEST PUSH2 0x28F PUSH1 0x4 DUP1 CALLDATASIZE SUB DUP2 ADD SWAP1 PUSH2 0x28A SWAP2 SWAP1 PUSH2 0x11EE JUMP JUMPDEST PUSH2 0xC05 JUMP JUMPDEST PUSH1 0x40 MLOAD PUSH2 0x29C SWAP2 SWAP1 PUSH2 0x118C JUMP JUMPDEST PUSH1 0x40 MLOAD DUP1 SWAP2 SUB SWAP1 RETURN JUMPDEST PUSH2 0x2AD PUSH2 0xC25 JUMP JUMPDEST PUSH1 0x40 MLOAD PUSH2 0x2BA SWAP2 SWAP1 PUSH2 0x121B JUMP JUMPDEST PUSH1 0x40 MLOAD DUP1 SWAP2 SUB SWAP1 RETURN JUMPDEST PUSH2 0x2CB PUSH2 0xCFE JUMP JUMPDEST PUSH1 0x40 MLOAD PUSH2 0x2D8 SWAP2 SWAP1 PUSH2 0x11A7 JUMP JUMPDEST PUSH1 0x40 MLOAD DUP1 SWAP2 SUB SWAP1 RETURN JUMPDEST PUSH1 0x0 DUP1 SLOAD SWAP1 PUSH2 0x100 EXP SWAP1 DIV PUSH20 0xFFFFFFFFFFFFFFFFFFFFFFFFFFFFFFFFFFFFFFFF AND PUSH20 0xFFFFFFFFFFFFFFFFFFFFFFFFFFFFFFFFFFFFFFFF AND PUSH4 0xA3EC138D CALLER PUSH1 0x40 MLOAD DUP3 PUSH4 0xFFFFFFFF AND PUSH1 0xE0 SHL DUP2 MSTORE PUSH1 0x4 ADD PUSH2 0x33A SWAP2 SWAP1 PUSH2 0x1171 JUMP JUMPDEST PUSH1 0x20 PUSH1 0x40 MLOAD DUP1 DUP4 SUB DUP2 DUP7 GAS STATICCALL ISZERO DUP1 ISZERO PUSH2 0x357 JUMPI RETURNDATASIZE PUSH1 0x0 DUP1 RETURNDATACOPY RETURNDATASIZE PUSH1 0x0 REVERT JUMPDEST POP POP POP POP PUSH1 0x40 MLOAD RETURNDATASIZE PUSH1 0x1F NOT PUSH1 0x1F DUP3 ADD AND DUP3 ADD DUP1 PUSH1 0x40 MSTORE POP DUP2 ADD SWAP1 PUSH2 0x37B SWAP2 SWAP1 PUSH2 0x1252 JUMP JUMPDEST PUSH2 0x3BA JUMPI PUSH1 0x40 MLOAD PUSH32 0x8C379A000000000000000000000000000000000000000000000000000000000 DUP2 MSTORE PUSH1 0x4 ADD PUSH2 0x3B1 SWAP1 PUSH2 0x12CB JUMP JUMPDEST PUSH1 0x40 MLOAD DUP1 SWAP2 SUB SWAP1 REVERT JUMPDEST PUSH1 0x7 PUSH1 0x0 SWAP1 SLOAD SWAP1 PUSH2 0x100 EXP SWAP1 DIV PUSH1 0xFF AND ISZERO PUSH2 0x40A JUMPI PUSH1 0x40 MLOAD PUSH32 0x8C379A000000000000000000000000000000000000000000000000000000000 DUP2 MSTORE PUSH1 0x4 ADD PUSH2 0x401 SWAP1 PUSH2 0x1337 JUMP JUMPDEST PUSH1 0x40 MLOAD DUP1 SWAP2 SUB SWAP1 REVERT JUMPDEST PUSH1 0x1 PUSH1 0x0 CALLER PUSH20 0xFFFFFFFFFFFFFFFFFFFFFFFFFFFFFFFFFFFFFFFF AND PUSH20 0xFFFFFFFFFFFFFFFFFFFFFFFFFFFFFFFFFFFFFFFF AND DUP2 MSTORE PUSH1 0x20 ADD SWAP1 DUP2 MSTORE PUSH1 0x20 ADD PUSH1 0x0 KECCAK256 PUSH1 0x0 SWAP1 SLOAD SWAP1 PUSH2 0x100 EXP SWAP1 DIV PUSH1 0xFF AND ISZERO PUSH2 0x497 JUMPI PUSH1 0x40 MLOAD PUSH32 0x8C379A000000000000000000000000000000000000000000000000000000000 DUP2 MSTORE PUSH1 0x4 ADD PUSH2 0x48E SWAP1 PUSH2 0x13A3 JUMP JUMPDEST PUSH1 0x40 MLOAD DUP1 SWAP2 SUB SWAP1 REVERT JUMPDEST PUSH1 0x1 PUSH1 0x5 DUP3 DUP2 SLOAD DUP2 LT PUSH2 0x4AD JUMPI PUSH2 0x4AC PUSH2 0x13C3 JUMP JUMPDEST JUMPDEST SWAP1 PUSH1 0x0 MSTORE PUSH1 0x20 PUSH1 0x0 KECCAK256 ADD PUSH1 0x0 DUP3 DUP3 SLOAD PUSH2 0x4C6 SWAP2 SWAP1 PUSH2 0x1421 JUMP JUMPDEST SWAP3 POP POP DUP2 SWAP1 SSTORE POP PUSH1 0x1 DUP1 PUSH1 0x0 CALLER PUSH20 0xFFFFFFFFFFFFFFFFFFFFFFFFFFFFFFFFFFFFFFFF AND PUSH20 0xFFFFFFFFFFFFFFFFFFFFFFFFFFFFFFFFFFFFFFFF AND DUP2 MSTORE PUSH1 0x20 ADD SWAP1 DUP2 MSTORE PUSH1 0x20 ADD PUSH1 0x0 KECCAK256 PUSH1 0x0 PUSH2 0x100 EXP DUP2 SLOAD DUP2 PUSH1 0xFF MUL NOT AND SWAP1 DUP4 ISZERO ISZERO MUL OR SWAP1 SSTORE POP PUSH32 0xD193833848B675D858C4A3354369C7FF9A3CF48D9F9FBBF0882944B88FF68591 DUP2 PUSH1 0x5 DUP4 DUP2 SLOAD DUP2 LT PUSH2 0x55A JUMPI PUSH2 0x559 PUSH2 0x13C3 JUMP JUMPDEST JUMPDEST SWAP1 PUSH1 0x0 MSTORE PUSH1 0x20 PUSH1 0x0 KECCAK256 ADD SLOAD PUSH1 0x40 MLOAD PUSH2 0x573 SWAP3 SWAP2 SWAP1 PUSH2 0x1477 JUMP JUMPDEST PUSH1 0x40 MLOAD DUP1 SWAP2 SUB SWAP1 LOG1 POP JUMP JUMPDEST PUSH1 0x7 PUSH1 0x2 SWAP1 SLOAD SWAP1 PUSH2 0x100 EXP SWAP1 DIV PUSH20 0xFFFFFFFFFFFFFFFFFFFFFFFFFFFFFFFFFFFFFFFF AND PUSH20 0xFFFFFFFFFFFFFFFFFFFFFFFFFFFFFFFFFFFFFFFF AND CALLER PUSH20 0xFFFFFFFFFFFFFFFFFFFFFFFFFFFFFFFFFFFFFFFF AND EQ PUSH2 0x60E JUMPI PUSH1 0x40 MLOAD PUSH32 0x8C379A000000000000000000000000000000000000000000000000000000000 DUP2 MSTORE PUSH1 0x4 ADD PUSH2 0x605 SWAP1 PUSH2 0x1512 JUMP JUMPDEST PUSH1 0x40 MLOAD DUP1 SWAP2 SUB SWAP1 REVERT JUMPDEST DUP1 PUSH1 0x7 PUSH1 0x1 PUSH2 0x100 EXP DUP2 SLOAD DUP2 PUSH1 0xFF MUL NOT AND SWAP1 DUP4 ISZERO ISZERO MUL OR SWAP1 SSTORE POP PUSH32 0x10E1C3FCAFF06B68391033547E8F9BB8067D7C4A2E32659B0629153814D242D3 PUSH1 0x7 PUSH1 0x1 SWAP1 SLOAD SWAP1 PUSH2 0x100 EXP SWAP1 DIV PUSH1 0xFF AND PUSH1 0x40 MLOAD PUSH2 0x666 SWAP2 SWAP1 PUSH2 0x118C JUMP JUMPDEST PUSH1 0x40 MLOAD DUP1 SWAP2 SUB SWAP1 LOG1 POP JUMP JUMPDEST PUSH1 0x60 PUSH1 0x5 DUP1 SLOAD DUP1 PUSH1 0x20 MUL PUSH1 0x20 ADD PUSH1 0x40 MLOAD SWAP1 DUP2 ADD PUSH1 0x40 MSTORE DUP1 SWAP3 SWAP2 SWAP1 DUP2 DUP2 MSTORE PUSH1 0x20 ADD DUP3 DUP1 SLOAD DUP1 ISZERO PUSH2 0x6BF JUMPI PUSH1 0x20 MUL DUP3 ADD SWAP2 SWAP1 PUSH1 0x0 MSTORE PUSH1 0x20 PUSH1 0x0 KECCAK256 SWAP1 JUMPDEST DUP2 SLOAD DUP2 MSTORE PUSH1 0x20 ADD SWAP1 PUSH1 0x1 ADD SWAP1 DUP1 DUP4 GT PUSH2 0x6AB JUMPI JUMPDEST POP POP POP POP POP SWAP1 POP SWAP1 JUMP JUMPDEST PUSH1 0x0 PUSH1 0x60 DUP1 PUSH1 0x0 DUP1 PUSH1 0x0 PUSH1 0x60 DUP1 PUSH1 0x7 PUSH1 0x2 SWAP1 SLOAD SWAP1 PUSH2 0x100 EXP SWAP1 DIV PUSH20 0xFFFFFFFFFFFFFFFFFFFFFFFFFFFFFFFFFFFFFFFF AND PUSH1 0x3 PUSH1 0x4 PUSH1 0x7 PUSH1 0x1 SWAP1 SLOAD SWAP1 PUSH2 0x100 EXP SWAP1 DIV PUSH1 0xFF AND PUSH1 0x7 PUSH1 0x0 SWAP1 SLOAD SWAP1 PUSH2 0x100 EXP SWAP1 DIV PUSH1 0xFF AND PUSH1 0x6 SLOAD PUSH2 0x728 PUSH2 0xC25 JUMP JUMPDEST PUSH2 0x730 PUSH2 0x671 JUMP JUMPDEST DUP7 DUP1 SLOAD PUSH2 0x73C SWAP1 PUSH2 0x1561 JUMP JUMPDEST DUP1 PUSH1 0x1F ADD PUSH1 0x20 DUP1 SWAP2 DIV MUL PUSH1 0x20 ADD PUSH1 0x40 MLOAD SWAP1 DUP2 ADD PUSH1 0x40 MSTORE DUP1 SWAP3 SWAP2 SWAP1 DUP2 DUP2 MSTORE PUSH1 0x20 ADD DUP3 DUP1 SLOAD PUSH2 0x768 SWAP1 PUSH2 0x1561 JUMP JUMPDEST DUP1 ISZERO PUSH2 0x7B5 JUMPI DUP1 PUSH1 0x1F LT PUSH2 0x78A JUMPI PUSH2 0x100 DUP1 DUP4 SLOAD DIV MUL DUP4 MSTORE SWAP2 PUSH1 0x20 ADD SWAP2 PUSH2 0x7B5 JUMP JUMPDEST DUP3 ADD SWAP2 SWAP1 PUSH1 0x0 MSTORE PUSH1 0x20 PUSH1 0x0 KECCAK256 SWAP1 JUMPDEST DUP2 SLOAD DUP2 MSTORE SWAP1 PUSH1 0x1 ADD SWAP1 PUSH1 0x20 ADD DUP1 DUP4 GT PUSH2 0x798 JUMPI DUP3 SWAP1 SUB PUSH1 0x1F AND DUP3 ADD SWAP2 JUMPDEST POP POP POP POP POP SWAP7 POP DUP6 DUP1 SLOAD PUSH2 0x7C8 SWAP1 PUSH2 0x1561 JUMP JUMPDEST DUP1 PUSH1 0x1F ADD PUSH1 0x20 DUP1 SWAP2 DIV MUL PUSH1 0x20 ADD PUSH1 0x40 MLOAD SWAP1 DUP2 ADD PUSH1 0x40 MSTORE DUP1 SWAP3 SWAP2 SWAP1 DUP2 DUP2 MSTORE PUSH1 0x20 ADD DUP3 DUP1 SLOAD PUSH2 0x7F4 SWAP1 PUSH2 0x1561 JUMP JUMPDEST DUP1 ISZERO PUSH2 0x841 JUMPI DUP1 PUSH1 0x1F LT PUSH2 0x816 JUMPI PUSH2 0x100 DUP1 DUP4 SLOAD DIV MUL DUP4 MSTORE SWAP2 PUSH1 0x20 ADD SWAP2 PUSH2 0x841 JUMP JUMPDEST DUP3 ADD SWAP2 SWAP1 PUSH1 0x0 MSTORE PUSH1 0x20 PUSH1 0x0 KECCAK256 SWAP1 JUMPDEST DUP2 SLOAD DUP2 MSTORE SWAP1 PUSH1 0x1 ADD SWAP1 PUSH1 0x20 ADD DUP1 DUP4 GT PUSH2 0x824 JUMPI DUP3 SWAP1 SUB PUSH1 0x1F AND DUP3 ADD SWAP2 JUMPDEST POP POP POP POP POP SWAP6 POP SWAP8 POP SWAP8 POP SWAP8 POP SWAP8 POP SWAP8 POP SWAP8 POP SWAP8 POP SWAP8 POP SWAP1 SWAP2 SWAP3 SWAP4 SWAP5 SWAP6 SWAP7 SWAP8 JUMP JUMPDEST PUSH1 0x2 DUP2 DUP2 SLOAD DUP2 LT PUSH2 0x872 JUMPI PUSH1 0x0 DUP1 REVERT JUMPDEST SWAP1 PUSH1 0x0 MSTORE PUSH1 0x20 PUSH1 0x0 KECCAK256 ADD PUSH1 0x0 SWAP2 POP SWAP1 POP DUP1 SLOAD PUSH2 0x88D SWAP1 PUSH2 0x1561 JUMP JUMPDEST DUP1 PUSH1 0x1F ADD PUSH1 0x20 DUP1 SWAP2 DIV MUL PUSH1 0x20 ADD PUSH1 0x40 MLOAD SWAP1 DUP2 ADD PUSH1 0x40 MSTORE DUP1 SWAP3 SWAP2 SWAP1 DUP2 DUP2 MSTORE PUSH1 0x20 ADD DUP3 DUP1 SLOAD PUSH2 0x8B9 SWAP1 PUSH2 0x1561 JUMP JUMPDEST DUP1 ISZERO PUSH2 0x906 JUMPI DUP1 PUSH1 0x1F LT PUSH2 0x8DB JUMPI PUSH2 0x100 DUP1 DUP4 SLOAD DIV MUL DUP4 MSTORE SWAP2 PUSH1 0x20 ADD SWAP2 PUSH2 0x906 JUMP JUMPDEST DUP3 ADD SWAP2 SWAP1 PUSH1 0x0 MSTORE PUSH1 0x20 PUSH1 0x0 KECCAK256 SWAP1 JUMPDEST DUP2 SLOAD DUP2 MSTORE SWAP1 PUSH1 0x1 ADD SWAP1 PUSH1 0x20 ADD DUP1 DUP4 GT PUSH2 0x8E9 JUMPI DUP3 SWAP1 SUB PUSH1 0x1F AND DUP3 ADD SWAP2 JUMPDEST POP POP POP POP POP DUP2 JUMP JUMPDEST PUSH1 0x7 PUSH1 0x2 SWAP1 SLOAD SWAP1 PUSH2 0x100 EXP SWAP1 DIV PUSH20 0xFFFFFFFFFFFFFFFFFFFFFFFFFFFFFFFFFFFFFFFF AND DUP2 JUMP JUMPDEST PUSH1 0x3 DUP1 SLOAD PUSH2 0x941 SWAP1 PUSH2 0x1561 JUMP JUMPDEST DUP1 PUSH1 0x1F ADD PUSH1 0x20 DUP1 SWAP2 DIV MUL PUSH1 0x20 ADD PUSH1 0x40 MLOAD SWAP1 DUP2 ADD PUSH1 0x40 MSTORE DUP1 SWAP3 SWAP2 SWAP1 DUP2 DUP2 MSTORE PUSH1 0x20 ADD DUP3 DUP1 SLOAD PUSH2 0x96D SWAP1 PUSH2 0x1561 JUMP JUMPDEST DUP1 ISZERO PUSH2 0x9BA JUMPI DUP1 PUSH1 0x1F LT PUSH2 0x98F JUMPI PUSH2 0x100 DUP1 DUP4 SLOAD DIV MUL DUP4 MSTORE SWAP2 PUSH1 0x20 ADD SWAP2 PUSH2 0x9BA JUMP JUMPDEST DUP3 ADD SWAP2 SWAP1 PUSH1 0x0 MSTORE PUSH1 0x20 PUSH1 0x0 KECCAK256 SWAP1 JUMPDEST DUP2 SLOAD DUP2 MSTORE SWAP1 PUSH1 0x1 ADD SWAP1 PUSH1 0x20 ADD DUP1 DUP4 GT PUSH2 0x99D JUMPI DUP3 SWAP1 SUB PUSH1 0x1F AND DUP3 ADD SWAP2 JUMPDEST POP POP POP POP POP DUP2 JUMP JUMPDEST PUSH1 0x7 PUSH1 0x0 SWAP1 SLOAD SWAP1 PUSH2 0x100 EXP SWAP1 DIV PUSH1 0xFF AND DUP2 JUMP JUMPDEST PUSH1 0x7 PUSH1 0x1 SWAP1 SLOAD SWAP1 PUSH2 0x100 EXP SWAP1 DIV PUSH1 0xFF AND DUP2 JUMP JUMPDEST PUSH1 0x5 DUP2 DUP2 SLOAD DUP2 LT PUSH2 0x9F8 JUMPI PUSH1 0x0 DUP1 REVERT JUMPDEST SWAP1 PUSH1 0x0 MSTORE PUSH1 0x20 PUSH1 0x0 KECCAK256 ADD PUSH1 0x0 SWAP2 POP SWAP1 POP SLOAD DUP2 JUMP JUMPDEST PUSH1 0x4 DUP1 SLOAD PUSH2 0xA19 SWAP1 PUSH2 0x1561 JUMP JUMPDEST DUP1 PUSH1 0x1F ADD PUSH1 0x20 DUP1 SWAP2 DIV MUL PUSH1 0x20 ADD PUSH1 0x40 MLOAD SWAP1 DUP2 ADD PUSH1 0x40 MSTORE DUP1 SWAP3 SWAP2 SWAP1 DUP2 DUP2 MSTORE PUSH1 0x20 ADD DUP3 DUP1 SLOAD PUSH2 0xA45 SWAP1 PUSH2 0x1561 JUMP JUMPDEST DUP1 ISZERO PUSH2 0xA92 JUMPI DUP1 PUSH1 0x1F LT PUSH2 0xA67 JUMPI PUSH2 0x100 DUP1 DUP4 SLOAD DIV MUL DUP4 MSTORE SWAP2 PUSH1 0x20 ADD SWAP2 PUSH2 0xA92 JUMP JUMPDEST DUP3 ADD SWAP2 SWAP1 PUSH1 0x0 MSTORE PUSH1 0x20 PUSH1 0x0 KECCAK256 SWAP1 JUMPDEST DUP2 SLOAD DUP2 MSTORE SWAP1 PUSH1 0x1 ADD SWAP1 PUSH1 0x20 ADD DUP1 DUP4 GT PUSH2 0xA75 JUMPI DUP3 SWAP1 SUB PUSH1 0x1F AND DUP3 ADD SWAP2 JUMPDEST POP POP POP POP POP DUP2 JUMP JUMPDEST PUSH1 0x7 PUSH1 0x2 SWAP1 SLOAD SWAP1 PUSH2 0x100 EXP SWAP1 DIV PUSH20 0xFFFFFFFFFFFFFFFFFFFFFFFFFFFFFFFFFFFFFFFF AND PUSH20 0xFFFFFFFFFFFFFFFFFFFFFFFFFFFFFFFFFFFFFFFF AND CALLER PUSH20 0xFFFFFFFFFFFFFFFFFFFFFFFFFFFFFFFFFFFFFFFF AND EQ PUSH2 0xB2A JUMPI PUSH1 0x40 MLOAD PUSH32 0x8C379A000000000000000000000000000000000000000000000000000000000 DUP2 MSTORE PUSH1 0x4 ADD PUSH2 0xB21 SWAP1 PUSH2 0x1512 JUMP JUMPDEST PUSH1 0x40 MLOAD DUP1 SWAP2 SUB SWAP1 REVERT JUMPDEST PUSH2 0xB34 PUSH1 0x1 PUSH2 0x57E JUMP JUMPDEST PUSH1 0x1 PUSH1 0x7 PUSH1 0x0 PUSH2 0x100 EXP DUP2 SLOAD DUP2 PUSH1 0xFF MUL NOT AND SWAP1 DUP4 ISZERO ISZERO MUL OR SWAP1 SSTORE POP PUSH1 0x0 DUP1 PUSH1 0x0 JUMPDEST PUSH1 0x5 DUP1 SLOAD SWAP1 POP DUP2 LT ISZERO PUSH2 0xBC0 JUMPI DUP2 PUSH1 0x5 DUP3 DUP2 SLOAD DUP2 LT PUSH2 0xB77 JUMPI PUSH2 0xB76 PUSH2 0x13C3 JUMP JUMPDEST JUMPDEST SWAP1 PUSH1 0x0 MSTORE PUSH1 0x20 PUSH1 0x0 KECCAK256 ADD SLOAD GT ISZERO PUSH2 0xBAD JUMPI DUP1 SWAP3 POP PUSH1 0x5 DUP2 DUP2 SLOAD DUP2 LT PUSH2 0xB9F JUMPI PUSH2 0xB9E PUSH2 0x13C3 JUMP JUMPDEST JUMPDEST SWAP1 PUSH1 0x0 MSTORE PUSH1 0x20 PUSH1 0x0 KECCAK256 ADD SLOAD SWAP2 POP JUMPDEST DUP1 DUP1 PUSH2 0xBB8 SWAP1 PUSH2 0x1593 JUMP JUMPDEST SWAP2 POP POP PUSH2 0xB55 JUMP JUMPDEST POP DUP2 PUSH1 0x6 DUP2 SWAP1 SSTORE POP PUSH32 0xC7B97E48B9227DCA976A22B97E05760371F6C612BFBB22ADEE0CE899D8C084FC PUSH1 0x6 SLOAD PUSH1 0x40 MLOAD PUSH2 0xBF9 SWAP2 SWAP1 PUSH2 0x11A7 JUMP JUMPDEST PUSH1 0x40 MLOAD DUP1 SWAP2 SUB SWAP1 LOG1 POP POP JUMP JUMPDEST PUSH1 0x1 PUSH1 0x20 MSTORE DUP1 PUSH1 0x0 MSTORE PUSH1 0x40 PUSH1 0x0 KECCAK256 PUSH1 0x0 SWAP2 POP SLOAD SWAP1 PUSH2 0x100 EXP SWAP1 DIV PUSH1 0xFF AND DUP2 JUMP JUMPDEST PUSH1 0x60 PUSH1 0x2 DUP1 SLOAD DUP1 PUSH1 0x20 MUL PUSH1 0x20 ADD PUSH1 0x40 MLOAD SWAP1 DUP2 ADD PUSH1 0x40 MSTORE DUP1 SWAP3 SWAP2 SWAP1 DUP2 DUP2 MSTORE PUSH1 0x20 ADD PUSH1 0x0 SWAP1 JUMPDEST DUP3 DUP3 LT ISZERO PUSH2 0xCF5 JUMPI DUP4 DUP3 SWAP1 PUSH1 0x0 MSTORE PUSH1 0x20 PUSH1 0x0 KECCAK256 ADD DUP1 SLOAD PUSH2 0xC68 SWAP1 PUSH2 0x1561 JUMP JUMPDEST DUP1 PUSH1 0x1F ADD PUSH1 0x20 DUP1 SWAP2 DIV MUL PUSH1 0x20 ADD PUSH1 0x40 MLOAD SWAP1 DUP2 ADD PUSH1 0x40 MSTORE DUP1 SWAP3 SWAP2 SWAP1 DUP2 DUP2 MSTORE PUSH1 0x20 ADD DUP3 DUP1 SLOAD PUSH2 0xC94 SWAP1 PUSH2 0x1561 JUMP JUMPDEST DUP1 ISZERO PUSH2 0xCE1 JUMPI DUP1 PUSH1 0x1F LT PUSH2 0xCB6 JUMPI PUSH2 0x100 DUP1 DUP4 SLOAD DIV MUL DUP4 MSTORE SWAP2 PUSH1 0x20 ADD SWAP2 PUSH2 0xCE1 JUMP JUMPDEST DUP3 ADD SWAP2 SWAP1 PUSH1 0x0 MSTORE PUSH1 0x20 PUSH1 0x0 KECCAK256 SWAP1 JUMPDEST DUP2 SLOAD DUP2 MSTORE SWAP1 PUSH1 0x1 ADD SWAP1 PUSH1 0x20 ADD DUP1 DUP4 GT PUSH2 0xCC4 JUMPI DUP3 SWAP1 SUB PUSH1 0x1F AND DUP3 ADD SWAP2 JUMPDEST POP POP POP POP POP DUP2 MSTORE PUSH1 0x20 ADD SWAP1 PUSH1 0x1 ADD SWAP1 PUSH2 0xC49 JUMP JUMPDEST POP POP POP POP SWAP1 POP SWAP1 JUMP JUMPDEST PUSH1 0x6 SLOAD DUP2 JUMP JUMPDEST PUSH1 0x0 DUP1 REVERT JUMPDEST PUSH1 0x0 DUP2 SWAP1 POP SWAP2 SWAP1 POP JUMP JUMPDEST PUSH2 0xD1C DUP2 PUSH2 0xD09 JUMP JUMPDEST DUP2 EQ PUSH2 0xD27 JUMPI PUSH1 0x0 DUP1 REVERT JUMPDEST POP JUMP JUMPDEST PUSH1 0x0 DUP2 CALLDATALOAD SWAP1 POP PUSH2 0xD39 DUP2 PUSH2 0xD13 JUMP JUMPDEST SWAP3 SWAP2 POP POP JUMP JUMPDEST PUSH1 0x0 PUSH1 0x20 DUP3 DUP5 SUB SLT ISZERO PUSH2 0xD55 JUMPI PUSH2 0xD54 PUSH2 0xD04 JUMP JUMPDEST JUMPDEST PUSH1 0x0 PUSH2 0xD63 DUP5 DUP3 DUP6 ADD PUSH2 0xD2A JUMP JUMPDEST SWAP2 POP POP SWAP3 SWAP2 POP POP JUMP JUMPDEST PUSH1 0x0 DUP2 ISZERO ISZERO SWAP1 POP SWAP2 SWAP1 POP JUMP JUMPDEST PUSH2 0xD81 DUP2 PUSH2 0xD6C JUMP JUMPDEST DUP2 EQ PUSH2 0xD8C JUMPI PUSH1 0x0 DUP1 REVERT JUMPDEST POP JUMP JUMPDEST PUSH1 0x0 DUP2 CALLDATALOAD SWAP1 POP PUSH2 0xD9E DUP2 PUSH2 0xD78 JUMP JUMPDEST SWAP3 SWAP2 POP POP JUMP JUMPDEST PUSH1 0x0 PUSH1 0x20 DUP3 DUP5 SUB SLT ISZERO PUSH2 0xDBA JUMPI PUSH2 0xDB9 PUSH2 0xD04 JUMP JUMPDEST JUMPDEST PUSH1 0x0 PUSH2 0xDC8 DUP5 DUP3 DUP6 ADD PUSH2 0xD8F JUMP JUMPDEST SWAP2 POP POP SWAP3 SWAP2 POP POP JUMP JUMPDEST PUSH1 0x0 DUP2 MLOAD SWAP1 POP SWAP2 SWAP1 POP JUMP JUMPDEST PUSH1 0x0 DUP3 DUP3 MSTORE PUSH1 0x20 DUP3 ADD SWAP1 POP SWAP3 SWAP2 POP POP JUMP JUMPDEST PUSH1 0x0 DUP2 SWAP1 POP PUSH1 0x20 DUP3 ADD SWAP1 POP SWAP2 SWAP1 POP JUMP JUMPDEST PUSH2 0xE06 DUP2 PUSH2 0xD09 JUMP JUMPDEST DUP3 MSTORE POP POP JUMP JUMPDEST PUSH1 0x0 PUSH2 0xE18 DUP4 DUP4 PUSH2 0xDFD JUMP JUMPDEST PUSH1 0x20 DUP4 ADD SWAP1 POP SWAP3 SWAP2 POP POP JUMP JUMPDEST PUSH1 0x0 PUSH1 0x20 DUP3 ADD SWAP1 POP SWAP2 SWAP1 POP JUMP JUMPDEST PUSH1 0x0 PUSH2 0xE3C DUP3 PUSH2 0xDD1 JUMP JUMPDEST PUSH2 0xE46 DUP2 DUP6 PUSH2 0xDDC JUMP JUMPDEST SWAP4 POP PUSH2 0xE51 DUP4 PUSH2 0xDED JUMP JUMPDEST DUP1 PUSH1 0x0 JUMPDEST DUP4 DUP2 LT ISZERO PUSH2 0xE82 JUMPI DUP2 MLOAD PUSH2 0xE69 DUP9 DUP3 PUSH2 0xE0C JUMP JUMPDEST SWAP8 POP PUSH2 0xE74 DUP4 PUSH2 0xE24 JUMP JUMPDEST SWAP3 POP POP PUSH1 0x1 DUP2 ADD SWAP1 POP PUSH2 0xE55 JUMP JUMPDEST POP DUP6 SWAP4 POP POP POP POP SWAP3 SWAP2 POP POP JUMP JUMPDEST PUSH1 0x0 PUSH1 0x20 DUP3 ADD SWAP1 POP DUP2 DUP2 SUB PUSH1 0x0 DUP4 ADD MSTORE PUSH2 0xEA9 DUP2 DUP5 PUSH2 0xE31 JUMP JUMPDEST SWAP1 POP SWAP3 SWAP2 POP POP JUMP JUMPDEST PUSH1 0x0 PUSH20 0xFFFFFFFFFFFFFFFFFFFFFFFFFFFFFFFFFFFFFFFF DUP3 AND SWAP1 POP SWAP2 SWAP1 POP JUMP JUMPDEST PUSH1 0x0 PUSH2 0xEDC DUP3 PUSH2 0xEB1 JUMP JUMPDEST SWAP1 POP SWAP2 SWAP1 POP JUMP JUMPDEST PUSH2 0xEEC DUP2 PUSH2 0xED1 JUMP JUMPDEST DUP3 MSTORE POP POP JUMP JUMPDEST PUSH1 0x0 DUP2 MLOAD SWAP1 POP SWAP2 SWAP1 POP JUMP JUMPDEST PUSH1 0x0 DUP3 DUP3 MSTORE PUSH1 0x20 DUP3 ADD SWAP1 POP SWAP3 SWAP2 POP POP JUMP JUMPDEST PUSH1 0x0 JUMPDEST DUP4 DUP2 LT ISZERO PUSH2 0xF2C JUMPI DUP1 DUP3 ADD MLOAD DUP2 DUP5 ADD MSTORE PUSH1 0x20 DUP2 ADD SWAP1 POP PUSH2 0xF11 JUMP JUMPDEST DUP4 DUP2 GT ISZERO PUSH2 0xF3B JUMPI PUSH1 0x0 DUP5 DUP5 ADD MSTORE JUMPDEST POP POP POP POP JUMP JUMPDEST PUSH1 0x0 PUSH1 0x1F NOT PUSH1 0x1F DUP4 ADD AND SWAP1 POP SWAP2 SWAP1 POP JUMP JUMPDEST PUSH1 0x0 PUSH2 0xF5D DUP3 PUSH2 0xEF2 JUMP JUMPDEST PUSH2 0xF67 DUP2 DUP6 PUSH2 0xEFD JUMP JUMPDEST SWAP4 POP PUSH2 0xF77 DUP2 DUP6 PUSH1 0x20 DUP7 ADD PUSH2 0xF0E JUMP JUMPDEST PUSH2 0xF80 DUP2 PUSH2 0xF41 JUMP JUMPDEST DUP5 ADD SWAP2 POP POP SWAP3 SWAP2 POP POP JUMP JUMPDEST PUSH2 0xF94 DUP2 PUSH2 0xD6C JUMP JUMPDEST DUP3 MSTORE POP POP JUMP JUMPDEST PUSH2 0xFA3 DUP2 PUSH2 0xD09 JUMP JUMPDEST DUP3 MSTORE POP POP JUMP JUMPDEST PUSH1 0x0 DUP2 MLOAD SWAP1 POP SWAP2 SWAP1 POP JUMP JUMPDEST PUSH1 0x0 DUP3 DUP3 MSTORE PUSH1 0x20 DUP3 ADD SWAP1 POP SWAP3 SWAP2 POP POP JUMP JUMPDEST PUSH1 0x0 DUP2 SWAP1 POP PUSH1 0x20 DUP3 ADD SWAP1 POP SWAP2 SWAP1 POP JUMP JUMPDEST PUSH1 0x0 DUP3 DUP3 MSTORE PUSH1 0x20 DUP3 ADD SWAP1 POP SWAP3 SWAP2 POP POP JUMP JUMPDEST PUSH1 0x0 PUSH2 0xFF1 DUP3 PUSH2 0xEF2 JUMP JUMPDEST PUSH2 0xFFB DUP2 DUP6 PUSH2 0xFD5 JUMP JUMPDEST SWAP4 POP PUSH2 0x100B DUP2 DUP6 PUSH1 0x20 DUP7 ADD PUSH2 0xF0E JUMP JUMPDEST PUSH2 0x1014 DUP2 PUSH2 0xF41 JUMP JUMPDEST DUP5 ADD SWAP2 POP POP SWAP3 SWAP2 POP POP JUMP JUMPDEST PUSH1 0x0 PUSH2 0x102B DUP4 DUP4 PUSH2 0xFE6 JUMP JUMPDEST SWAP1 POP SWAP3 SWAP2 POP POP JUMP JUMPDEST PUSH1 0x0 PUSH1 0x20 DUP3 ADD SWAP1 POP SWAP2 SWAP1 POP JUMP JUMPDEST PUSH1 0x0 PUSH2 0x104B DUP3 PUSH2 0xFA9 JUMP JUMPDEST PUSH2 0x1055 DUP2 DUP6 PUSH2 0xFB4 JUMP JUMPDEST SWAP4 POP DUP4 PUSH1 0x20 DUP3 MUL DUP6 ADD PUSH2 0x1067 DUP6 PUSH2 0xFC5 JUMP JUMPDEST DUP1 PUSH1 0x0 JUMPDEST DUP6 DUP2 LT ISZERO PUSH2 0x10A3 JUMPI DUP5 DUP5 SUB DUP10 MSTORE DUP2 MLOAD PUSH2 0x1084 DUP6 DUP3 PUSH2 0x101F JUMP JUMPDEST SWAP5 POP PUSH2 0x108F DUP4 PUSH2 0x1033 JUMP JUMPDEST SWAP3 POP PUSH1 0x20 DUP11 ADD SWAP10 POP POP PUSH1 0x1 DUP2 ADD SWAP1 POP PUSH2 0x106B JUMP JUMPDEST POP DUP3 SWAP8 POP DUP8 SWAP6 POP POP POP POP POP POP SWAP3 SWAP2 POP POP JUMP JUMPDEST PUSH1 0x0 PUSH2 0x100 DUP3 ADD SWAP1 POP PUSH2 0x10CB PUSH1 0x0 DUP4 ADD DUP12 PUSH2 0xEE3 JUMP JUMPDEST DUP2 DUP2 SUB PUSH1 0x20 DUP4 ADD MSTORE PUSH2 0x10DD DUP2 DUP11 PUSH2 0xF52 JUMP JUMPDEST SWAP1 POP DUP2 DUP2 SUB PUSH1 0x40 DUP4 ADD MSTORE PUSH2 0x10F1 DUP2 DUP10 PUSH2 0xF52 JUMP JUMPDEST SWAP1 POP PUSH2 0x1100 PUSH1 0x60 DUP4 ADD DUP9 PUSH2 0xF8B JUMP JUMPDEST PUSH2 0x110D PUSH1 0x80 DUP4 ADD DUP8 PUSH2 0xF8B JUMP JUMPDEST PUSH2 0x111A PUSH1 0xA0 DUP4 ADD DUP7 PUSH2 0xF9A JUMP JUMPDEST DUP2 DUP2 SUB PUSH1 0xC0 DUP4 ADD MSTORE PUSH2 0x112C DUP2 DUP6 PUSH2 0x1040 JUMP JUMPDEST SWAP1 POP DUP2 DUP2 SUB PUSH1 0xE0 DUP4 ADD MSTORE PUSH2 0x1140 DUP2 DUP5 PUSH2 0xE31 JUMP JUMPDEST SWAP1 POP SWAP10 SWAP9 POP POP POP POP POP POP POP POP POP JUMP JUMPDEST PUSH1 0x0 PUSH1 0x20 DUP3 ADD SWAP1 POP DUP2 DUP2 SUB PUSH1 0x0 DUP4 ADD MSTORE PUSH2 0x1169 DUP2 DUP5 PUSH2 0xF52 JUMP JUMPDEST SWAP1 POP SWAP3 SWAP2 POP POP JUMP JUMPDEST PUSH1 0x0 PUSH1 0x20 DUP3 ADD SWAP1 POP PUSH2 0x1186 PUSH1 0x0 DUP4 ADD DUP5 PUSH2 0xEE3 JUMP JUMPDEST SWAP3 SWAP2 POP POP JUMP JUMPDEST PUSH1 0x0 PUSH1 0x20 DUP3 ADD SWAP1 POP PUSH2 0x11A1 PUSH1 0x0 DUP4 ADD DUP5 PUSH2 0xF8B JUMP JUMPDEST SWAP3 SWAP2 POP POP JUMP JUMPDEST PUSH1 0x0 PUSH1 0x20 DUP3 ADD SWAP1 POP PUSH2 0x11BC PUSH1 0x0 DUP4 ADD DUP5 PUSH2 0xF9A JUMP JUMPDEST SWAP3 SWAP2 POP POP JUMP JUMPDEST PUSH2 0x11CB DUP2 PUSH2 0xED1 JUMP JUMPDEST DUP2 EQ PUSH2 0x11D6 JUMPI PUSH1 0x0 DUP1 REVERT JUMPDEST POP JUMP JUMPDEST PUSH1 0x0 DUP2 CALLDATALOAD SWAP1 POP PUSH2 0x11E8 DUP2 PUSH2 0x11C2 JUMP JUMPDEST SWAP3 SWAP2 POP POP JUMP JUMPDEST PUSH1 0x0 PUSH1 0x20 DUP3 DUP5 SUB SLT ISZERO PUSH2 0x1204 JUMPI PUSH2 0x1203 PUSH2 0xD04 JUMP JUMPDEST JUMPDEST PUSH1 0x0 PUSH2 0x1212 DUP5 DUP3 DUP6 ADD PUSH2 0x11D9 JUMP JUMPDEST SWAP2 POP POP SWAP3 SWAP2 POP POP JUMP JUMPDEST PUSH1 0x0 PUSH1 0x20 DUP3 ADD SWAP1 POP DUP2 DUP2 SUB PUSH1 0x0 DUP4 ADD MSTORE PUSH2 0x1235 DUP2 DUP5 PUSH2 0x1040 JUMP JUMPDEST SWAP1 POP SWAP3 SWAP2 POP POP JUMP JUMPDEST PUSH1 0x0 DUP2 MLOAD SWAP1 POP PUSH2 0x124C DUP2 PUSH2 0xD78 JUMP JUMPDEST SWAP3 SWAP2 POP POP JUMP JUMPDEST PUSH1 0x0 PUSH1 0x20 DUP3 DUP5 SUB SLT ISZERO PUSH2 0x1268 JUMPI PUSH2 0x1267 PUSH2 0xD04 JUMP JUMPDEST JUMPDEST PUSH1 0x0 PUSH2 0x1276 DUP5 DUP3 DUP6 ADD PUSH2 0x123D JUMP JUMPDEST SWAP2 POP POP SWAP3 SWAP2 POP POP JUMP JUMPDEST PUSH32 0x546869732061646472657373206973206E6F7420766572696669656400000000 PUSH1 0x0 DUP3 ADD MSTORE POP JUMP JUMPDEST PUSH1 0x0 PUSH2 0x12B5 PUSH1 0x1C DUP4 PUSH2 0xEFD JUMP JUMPDEST SWAP2 POP PUSH2 0x12C0 DUP3 PUSH2 0x127F JUMP JUMPDEST PUSH1 0x20 DUP3 ADD SWAP1 POP SWAP2 SWAP1 POP JUMP JUMPDEST PUSH1 0x0 PUSH1 0x20 DUP3 ADD SWAP1 POP DUP2 DUP2 SUB PUSH1 0x0 DUP4 ADD MSTORE PUSH2 0x12E4 DUP2 PUSH2 0x12A8 JUMP JUMPDEST SWAP1 POP SWAP2 SWAP1 POP JUMP JUMPDEST PUSH32 0x5468697320706F6C6C2069732063757272656E746C7920636C6F736564000000 PUSH1 0x0 DUP3 ADD MSTORE POP JUMP JUMPDEST PUSH1 0x0 PUSH2 0x1321 PUSH1 0x1D DUP4 PUSH2 0xEFD JUMP JUMPDEST SWAP2 POP PUSH2 0x132C DUP3 PUSH2 0x12EB JUMP JUMPDEST PUSH1 0x20 DUP3 ADD SWAP1 POP SWAP2 SWAP1 POP JUMP JUMPDEST PUSH1 0x0 PUSH1 0x20 DUP3 ADD SWAP1 POP DUP2 DUP2 SUB PUSH1 0x0 DUP4 ADD MSTORE PUSH2 0x1350 DUP2 PUSH2 0x1314 JUMP JUMPDEST SWAP1 POP SWAP2 SWAP1 POP JUMP JUMPDEST PUSH32 0x54686973206164647265737320616C726561647920766F746564000000000000 PUSH1 0x0 DUP3 ADD MSTORE POP JUMP JUMPDEST PUSH1 0x0 PUSH2 0x138D PUSH1 0x1A DUP4 PUSH2 0xEFD JUMP JUMPDEST SWAP2 POP PUSH2 0x1398 DUP3 PUSH2 0x1357 JUMP JUMPDEST PUSH1 0x20 DUP3 ADD SWAP1 POP SWAP2 SWAP1 POP JUMP JUMPDEST PUSH1 0x0 PUSH1 0x20 DUP3 ADD SWAP1 POP DUP2 DUP2 SUB PUSH1 0x0 DUP4 ADD MSTORE PUSH2 0x13BC DUP2 PUSH2 0x1380 JUMP JUMPDEST SWAP1 POP SWAP2 SWAP1 POP JUMP JUMPDEST PUSH32 0x4E487B7100000000000000000000000000000000000000000000000000000000 PUSH1 0x0 MSTORE PUSH1 0x32 PUSH1 0x4 MSTORE PUSH1 0x24 PUSH1 0x0 REVERT JUMPDEST PUSH32 0x4E487B7100000000000000000000000000000000000000000000000000000000 PUSH1 0x0 MSTORE PUSH1 0x11 PUSH1 0x4 MSTORE PUSH1 0x24 PUSH1 0x0 REVERT JUMPDEST PUSH1 0x0 PUSH2 0x142C DUP3 PUSH2 0xD09 JUMP JUMPDEST SWAP2 POP PUSH2 0x1437 DUP4 PUSH2 0xD09 JUMP JUMPDEST SWAP3 POP DUP3 PUSH32 0xFFFFFFFFFFFFFFFFFFFFFFFFFFFFFFFFFFFFFFFFFFFFFFFFFFFFFFFFFFFFFFFF SUB DUP3 GT ISZERO PUSH2 0x146C JUMPI PUSH2 0x146B PUSH2 0x13F2 JUMP JUMPDEST JUMPDEST DUP3 DUP3 ADD SWAP1 POP SWAP3 SWAP2 POP POP JUMP JUMPDEST PUSH1 0x0 PUSH1 0x40 DUP3 ADD SWAP1 POP PUSH2 0x148C PUSH1 0x0 DUP4 ADD DUP6 PUSH2 0xF9A JUMP JUMPDEST PUSH2 0x1499 PUSH1 0x20 DUP4 ADD DUP5 PUSH2 0xF9A JUMP JUMPDEST SWAP4 SWAP3 POP POP POP JUMP JUMPDEST PUSH32 0x4F6E6C7920746865206D616E616765722063616E2063616C6C2074686973206D PUSH1 0x0 DUP3 ADD MSTORE PUSH32 0x6574686F64000000000000000000000000000000000000000000000000000000 PUSH1 0x20 DUP3 ADD MSTORE POP JUMP JUMPDEST PUSH1 0x0 PUSH2 0x14FC PUSH1 0x25 DUP4 PUSH2 0xEFD JUMP JUMPDEST SWAP2 POP PUSH2 0x1507 DUP3 PUSH2 0x14A0 JUMP JUMPDEST PUSH1 0x40 DUP3 ADD SWAP1 POP SWAP2 SWAP1 POP JUMP JUMPDEST PUSH1 0x0 PUSH1 0x20 DUP3 ADD SWAP1 POP DUP2 DUP2 SUB PUSH1 0x0 DUP4 ADD MSTORE PUSH2 0x152B DUP2 PUSH2 0x14EF JUMP JUMPDEST SWAP1 POP SWAP2 SWAP1 POP JUMP JUMPDEST PUSH32 0x4E487B7100000000000000000000000000000000000000000000000000000000 PUSH1 0x0 MSTORE PUSH1 0x22 PUSH1 0x4 MSTORE PUSH1 0x24 PUSH1 0x0 REVERT JUMPDEST PUSH1 0x0 PUSH1 0x2 DUP3 DIV SWAP1 POP PUSH1 0x1 DUP3 AND DUP1 PUSH2 0x1579 JUMPI PUSH1 0x7F DUP3 AND SWAP2 POP JUMPDEST PUSH1 0x20 DUP3 LT DUP2 EQ ISZERO PUSH2 0x158D JUMPI PUSH2 0x158C PUSH2 0x1532 JUMP JUMPDEST JUMPDEST POP SWAP2 SWAP1 POP JUMP JUMPDEST PUSH1 0x0 PUSH2 0x159E DUP3 PUSH2 0xD09 JUMP JUMPDEST SWAP2 POP PUSH32 0xFFFFFFFFFFFFFFFFFFFFFFFFFFFFFFFFFFFFFFFFFFFFFFFFFFFFFFFFFFFFFFFF DUP3 EQ ISZERO PUSH2 0x15D1 JUMPI PUSH2 0x15D0 PUSH2 0x13F2 JUMP JUMPDEST JUMPDEST PUSH1 0x1 DUP3 ADD SWAP1 POP SWAP2 SWAP1 POP JUMP INVALID LOG2 PUSH5 0x6970667358 0x22 SLT KECCAK256 GASPRICE SWAP3 SWAP8 PUSH6 0x36336EF9C9CC 0x25 CALLCODE LOG0 0xAA SHL PUSH27 0xFABAB2683D7CAABCC28B041F48F17B7F64736F6C634300080B0033 LOG2 PUSH5 0x6970667358 0x22 SLT KECCAK256 0xB8 0xD4 0xAE 0xE8 0xE1 0x5F SELFDESTRUCT SAR 0xB5 0xDE 0xFB 0x25 MULMOD PUSH3 0x33437D 0xC1 0xEF PUSH20 0xF921E2FD44F722BF19471CCF64736F6C63430008 SIGNEXTEND STOP CALLER "
    },
    "gasEstimates": {
      "creation": {
        "codeDepositCost": "2084800",
        "executionCost": "2214",
        "totalCost": "2087014"
      },
      "external": {
        "createPoll(string,string,string[])": "infinite",
        "deployedPolls(uint256)": "5000",
        "getDeployedPolls()": "infinite",
        "verify()": "26809",
        "voters(address)": "2845"
      }
    },
    "methodIdentifiers": {
      "createPoll(string,string,string[])": "cfba7a09",
      "deployedPolls(uint256)": "ed819151",
      "getDeployedPolls()": "98460be7",
      "verify()": "fc735e99",
      "voters(address)": "a3ec138d"
    }
  },
  "storageLayout": {
    "storage": [
      {
        "astId": 4,
        "contract": "Poll.sol:PollFactory",
        "label": "deployedPolls",
        "offset": 0,
        "slot": "0",
        "type": "t_array(t_address)dyn_storage"
      },
      {
        "astId": 8,
        "contract": "Poll.sol:PollFactory",
        "label": "voters",
        "offset": 0,
        "slot": "1",
        "type": "t_mapping(t_address,t_bool)"
      }
    ],
    "types": {
      "t_address": {
        "encoding": "inplace",
        "label": "address",
        "numberOfBytes": "20"
      },
      "t_array(t_address)dyn_storage": {
        "base": "t_address",
        "encoding": "dynamic_array",
        "label": "address[]",
        "numberOfBytes": "32"
      },
      "t_bool": {
        "encoding": "inplace",
        "label": "bool",
        "numberOfBytes": "1"
      },
      "t_mapping(t_address,t_bool)": {
        "encoding": "mapping",
        "key": "t_address",
        "label": "mapping(address => bool)",
        "numberOfBytes": "32",
        "value": "t_bool"
      }
    }
  },
  "userdoc": {
    "kind": "user",
    "methods": {},
    "version": 1
  }
}